:020000040800F2
:10000000008001208969000801610008056100087D
:10001000496100084B6100084D61000800000000C4
:100020000000000000000000000000004F61000818
:10003000516100080000000053610008556100088C
:10004000D9690008D9690008D96900085D6100080C
:10005000D969000875610008D9690008D9690008E4
:10006000D9690008D9690008D9690008D969000868
:10007000D9690008D9690008D969000879610008C0
:10008000D9690008D9690008D9690008D969000848
:10009000D9690008D9690008D9690008D969000838
:1000A000D9690008D9690008D9690008D969000828
:1000B000D9690008D9690008D9690008D969000818
:1000C000D9690008D9690008D9690008D969000808
:1000D000D96900088961000899610008D969000898
:1000E000A9610008D9690008D9690008D969000820
:1000F000D9690008D9690008D9690008D9690008D8
:10010000D9690008C1610008D9690008D9690008E7
:10011000D9690008D9690008D9690008D9690008B7
:10012000D9690008D9690008D9690008D1610008B7
:10013000E1610008D9690008D9690008D969000897
:10014000D9690008D9690008D9690008D969000887
:10015000D9690008D9690008F1610008D969000867
:10016000D9690008D9690008D9690008D969000867
:10017000D9690008D9690008D969000800000000A1
:08018000D9690008D9690008E3
:10019000034613F8012B002AFBD1181A01387047C7
:1001A00001F0FF01102A2BDB10F0070F08D010F828
:1001B000013B013A8B422DD010F0070F42B3F6D12C
:1001C000F0B441EA012141EA014122F007047FF045
:1001D00000070023F0E80256083C85EA010586EA9C
:1001E000010685FA47F5A3FA87F586FA47F6A5FAD8
:1001F00087F68EB9EED1F0BC01F0FF0102F00702E4
:1002000032B110F8013B013A83EA010313B1F8D18E
:100210000020704701387047002D06BF354603386F
:10022000073815F0010F07D1013015F4807F02BFA8
:10023000013015F4C03F0130F0BC0138704700BFF9
:1002400053B94AB9002908BF00281CBF4FF0FF313D
:100250004FF0FF3000F00CB8ADF1080C6DE904CEA2
:1002600007F02EF9DDF804E0DDE9022304B0704761
:10027000704700BF08B5064B1A783AB9054A1AB15B
:100280000548AFF30080024B01221A7008BD00BF81
:100290006000002000000000E077000808B5034B74
:1002A0001BB103490348AFF3008008BD0000000004
:1002B00064000020E077000838B5064B1C6844B1A4
:1002C0000546FFF765FFC82382B22946204605F0A0
:1002D00006FD38BD7C000020014B01221A707047DA
:1002E00081000020014B01221A707047800000201D
:1002F00008B50023034A1370034A13700348FFF73D
:10030000DBFF08BD8100002080000020F877000896
:1003100008B5034B18600348FFF7CEFF08BD00BFC8
:100320007C0000200878000810B592B0244C4FF4EF
:1003300000720021204606F01DFC2248FFF7BCFF9A
:1003400041F2883300930123642221461E4804F0C1
:1003500001F998B901F064F804461B4804F07BFDEC
:10036000042812D001F05CF8001B41F28833984257
:10037000F3D91648FFF7A0FF002403E01448FFF765
:100380009BFF0024204612B010BD12490C4806F015
:10039000F9FB78B10A220021073006F08DFB0446F4
:1003A00003460D4A402102A806F090FB02A8FFF781
:1003B00083FFE7E70948FFF77FFF0024E2E700BF7C
:1003C00084000020B4780008140E0120E0780008B2
:1003D000CC78000854780008FC78000818790008E8
:1003E00038B5064B1C6844B10546FFF7D1FEC8235B
:1003F00082B22946204605F072FC38BD84040020F4
:1004000008B5054B1860054B41F288321A60044864
:10041000FFF7E6FF08BD00BF8404002000000020B5
:100420004479000830B597B0014641F28833009313
:100430000123184A1268184804F0AEF90546A0B91D
:1004400000F0EEFF0446144804F005FD042812D025
:1004500000F0E6FF001B41F288339842F3D90F48C1
:10046000FFF7BEFF03231D4602E00D48FFF7B8FF6C
:10047000284617B030BD074C23680A4A502102A80D
:1004800006F024FB02A8FFF7ABFF236801332360CB
:10049000EEE700BF00000020140E01206C79000878
:1004A0005879000880790008014B1868704700BF30
:1004B000000000202DE9F04FA9B080460F464F48BC
:1004C000FFF78EFF0026BE4221D24FF4FA6300935D
:1004D000012306EB08024A494A4804F03BF898B960
:1004E00000F09EFF0446474804F0B5FC042812D0F3
:1004F00000F096FF001BB0F5FA6FF4D94248FFF701
:100500006FFF29B0BDE8F08F4048FFF769FF404812
:10051000FFF766FFF5E74FF000091596CDF8588014
:10052000179762E0364B13F80920119209F1010286
:10053000995C129109F10202985C139009F103028F
:100540009C5C149409F104029A5C09F10501595C60
:1005500009F10600185C09F107041D5D09F10804A2
:100560001E5D09F109041F5D09F10A0413F804C0B6
:1005700009F10B0413F804E009F10C0413F80480EA
:1005800009F10D0413F804A009F10E0413F804B0E6
:1005900009F10F041B5D18AC0F93CDF838B0CDF8FE
:1005A00034A0CDF83080CDF82CE0CDF828C00997E4
:1005B00008960795069005910492149B039313984F
:1005C000029012990191119A00924B46114A4021D2
:1005D000204606F07BFA4FF4FA73372221460E4884
:1005E000006805F07CFB09F11009B9F5007F99DB83
:1005F000159EDDF85880179F013664E7987900084A
:1006000084020020140E0120C0790008B07900088F
:10061000287A0008CC790008840400202DE9F041F4
:100620008AB005AD002405940694079408940994B3
:100630003B4BDA6C42F00402DA64DA6C02F004023A
:100640000192019ADA6C42F00102DA64DA6C02F08B
:1006500001020292029ADA6C42F00202DA64DA6C67
:1006600002F002020392039ADA6C42F00802DA64A2
:10067000DB6C03F008030493049BDFF8AC80224694
:10068000CC21404601F054FB264E224641F607415C
:10069000304601F04DFBCC230593012706970794C4
:1006A00008942946404601F09DF9102305930694CD
:1006B0000223079329464FF0904001F093F941F649
:1006C000074305930697079408942946304601F09E
:1006D00089F94FF4006305934FF488130693079448
:1006E00029464FF0904001F07DF94FF48053059377
:1006F0000694079429464FF0904001F073F9224682
:100700000E21282000F036FF282000F043FF3A4653
:100710000421304601F00CFB0AB0BDE8F08100BFB7
:1007200000100240000400480008004800B583B0F3
:10073000164B9A6C42F001029A649A6C02F0010224
:100740000092009A9A6C42F002029A649B6C03F049
:1007500002030193019B00220E210F2000F00AFFEB
:100760000F2000F017FF002211463B2000F002FF8F
:100770003B2000F00FFF002211463C2000F0FAFE63
:100780003C2000F007FF03B000BD00BF0010024096
:1007900038B505460C460846FFF7FAFC4FF0FF3324
:1007A00082B22146284605F09AFA38BD30B5A3B08A
:1007B0000C4A936D506D00FB03F102AD890A019163
:1007C0000090926C0849284606F0B2F9074C294679
:1007D0002046FFF7DDFF06492046FFF7D9FF23B08B
:1007E00030BD00BF140E0120407A0008040F012024
:1007F000BC7A000830B593B0002302E0564AD354C7
:100800000133B3F5007FF9DB4FF40072AA2153489E
:1008100006F0B0F952495348FFF7BAFF41F2883366
:100820000093012364224C494F4803F0B5FF04466E
:10083000F8B94E4B02AD00944D4A4021284606F0CF
:1008400045F929464748FFF7A3FFA4B900F0E8FDA2
:100850000446454804F0FFFA042827D000F0E0FDE4
:10086000001BB0F5FA6FF4D942493E48FFF790FFFC
:100870001AE0414BDEE73C4D284604F0ECFA034613
:1008800002AC3E4A4021204606F020F92146354878
:10089000FFF77EFFAB6B3A4A4021204606F016F97F
:1008A00021463048FFF774FF13B030BD35492D485D
:1008B000FFF76EFF4FF4FA63009301236422274988
:1008C000294803F047FE044600BB284B02AD0094C4
:1008D0002D4A4021284606F0F9F829462148FFF71D
:1008E00057FF002CE0D100F09BFD04461E4804F0A9
:1008F000B2FA04280CD000F093FD031BB3F5FA6F95
:10090000F4D922491748FFF743FFCDE71A4BDDE73B
:100910000023184600E00133B3F5007F07DA0F4AE1
:10092000D15C0D4AD25C9142F5D00130F3E788B931
:10093000174B02AD0090174A4021284606F0C6F832
:10094000084C29462046FFF723FF13492046FFF7AE
:100950001FFFA9E7114BECE7782C0120782A012032
:10096000F07A0008040F0120140E0120D07A00084C
:100970000C7B00085C7B0008D87A0008247B000808
:10098000447B0008847B0008A07B0008B87B00083B
:10099000E07A0008E07B0008007C0008E87A0008A4
:1009A000F0B595B004460D4600231F460268554B2E
:1009B0009A4209D02268544B9A4215D02268534B70
:1009C0009A427ED015B0F0BD51494F55514B1D8014
:1009D000514B01221A70514B4022C3F80021FA22D8
:1009E0004F4805F03CFBE5E7204605F087FB012872
:1009F00007D002280DD00028E0D14A4B01221A70FE
:100A0000DCE769464848FFF7C3FE484B01221A70ED
:100A1000D4E7474B1B88AB42D0D002D2EB1A9BB233
:100A20001F4644494048FFF7B3FE00231A4611E031
:100A30003F4B1B88164613443F4AD35C3F4A042170
:100A4000684606F043F869463748FFF7A1FE731C75
:100A50009BB21A469742EBD839490B885A1C92B27E
:100A60000A8038484FF00006C65402339BB20B8010
:100A700086542F4A11883A46DFF8BCC061441844B6
:100A800006F0C2F800231A460EE02D4B1B88023BED
:100A9000164613442B4AD35C284A0421684606F0C4
:100AA00015F8731C9BB21A463B460233B2EB430F58
:100AB000EBDB234A13883946194411801C4B1D80F7
:100AC0007CE7214B1D80214B01221A707F2D02D81B
:100AD0001F4B00225A55002408E01D4B1B5D174A8E
:100AE0000821684605F0F2FF0134A4B2AC42F4D309
:100AF0000A4B4022C3F8002180221549154805F011
:100B0000AEFA5FE70080004000380140004400403A
:100B10007C2901207A2901207829012000E100E0C8
:100B20009C100120140D0120040F0120150D01203F
:100B30000C1D00201C7C000814DD0020287C00080F
:100B40000E1D0020101D00208A1C0020881C002083
:100B50008C1C00208C0F0120452070472DE9F84F98
:100B600082460F4600240AE0281DC5F57F72002149
:100B7000304405F0FFFF7D1BAFB20134A4B2052C59
:100B800025D84FEA8429DFF84CB00BEB8426C4EB60
:100B900004280AEB88083D46B7F57F7F28BF4FF44D
:100BA0007F7529464046FFF7D7FF2B0A0BF809301F
:100BB0007570030AB370F070002FD5D02A464146F5
:100BC000301D06F021F8B7F57F7FD4D2CCE7BDE821
:100BD000F88F00BF78110120F0B591B007460E469E
:100BE000002516E0124B009369461248FFF7D0FD2E
:100BF00001340F2C08DC6319B342F3D2FA5C0E49BE
:100C0000684605F095FFEFE70C490A48FFF7C0FD7D
:100C10001035B5420AD22A460949684605F088FFD0
:100C200069460448FFF7B4FD0024E2E711B0F0BDC7
:100C300020202000040F0120287C0008387C0008B8
:100C4000307C000872B6FEE708B50A480A4B03601C
:100C50004FF4E133436000238360C36003610C22DF
:100C6000426183610362436205F008F900B908BD7F
:100C7000FFF7E8FF9C1001200080004008B50B48FA
:100C80000B4B03604FF4E133436000238360C36088
:100C900003610C2242618361C3610362436205F018
:100CA000EDF800B908BDFFF7CDFF00BF8C0F0120A4
:100CB0000044004008B50B480B4B03604FF4E13390
:100CC000436000238360C36003610C22426183613F
:100CD000C3610362436205F0D1F800B908BDFFF7B4
:100CE000B1FF00BF040F01200048004008B50F48C5
:100CF0000F4B03604FF482734360002383604FF413
:100D00004072C260036143614FF400728261C3614B
:100D10000362436283620722C26203630823436360
:100D200004F0DEF900B908BDFFF78CFF200D0120AB
:100D30000030014000B587B0002301930293039374
:100D40000493059300931948194A026043607F2277
:100D50008260FF22C260036143618361C36103F06B
:100D6000BDF8E8B98DF804008DF805008DF806008F
:100D700004900590012201A90C4803F00DF988B9EF
:100D800001228DF800208DF801208DF802208DF8C9
:100D900003006946054803F067F928B907B000BDAC
:100DA000FFF750FFFFF74EFFFFF74CFF980E0120B3
:100DB0000028004008B51148114B0360114B4360F7
:100DC000002383600122C260036143618361C361C8
:100DD000036200F0C1FF50B90146084801F020F855
:100DE00038B90146054801F048F820B908BDFFF7B9
:100DF00029FFFFF727FFFFF725FF00BF2411012080
:100E000000580040E49CD11008B50B480B4B036020
:100E10004FF4E133436000238360C36003610C221D
:100E200042618361C3610362436205F027F800B940
:100E300008BDFFF707FF00BF141001200038014074
:100E400008B51848184B0360002343608360C360F3
:100E50004FF4006202614FF480424261836103F00B
:100E6000D1FFB0B94FF400610E4803F04BFF90B9C9
:100E70000C480023036103F0C5FF70B94FF4006113
:100E8000084803F03FFF50B908490948FFF780FCC4
:100E900008BDFFF7D7FEFFF7D5FEFFF7D3FEFFF73C
:100EA000D1FE00BF140E0120002801403C7C000848
:100EB000040F012000B597B04422002105A805F0D9
:100EC00059FE0023009301930293039304934FF47C
:100ED000007001F0E7FA48BB1A2305934FF48073C2
:100EE00008931023099301230A930B930C9060221B
:100EF0000D9202220F92109311932823129307232D
:100F0000139304231493159205A801F0DFFB78B91D
:100F10000F23009303230193029003900490042174
:100F2000684601F0E3FE28B917B000BDFFF78AFE5E
:100F3000FFF788FEFFF786FEF0B5B3B000F054FA75
:100F4000FFF7B8FF10AC88220021204605F012FE02
:100F5000202310934FF400632393204602F0B8F946
:100F600000284DD1B94A136843F400731360FFF7AA
:100F700055FBFFF7DBFBFFF767FEFFF77FFEFFF791
:100F800099FEFFF7B3FEFFF7D5FEFFF713FFFFF75C
:100F900057FFFFF739FF4FF44052AD49AD4805F018
:100FA00085F8FA22AC49AD4805F059F800F060FA2E
:100FB00000F066FA00F06CFAA94C012204212046E8
:100FC00000F0B6FE01228021204600F0B1FEA54CC3
:100FD000A5492046FFF7DCFBFFF7E8FB2046FFF7BB
:100FE00097F9FFF707FCFFF79FF9A04B1860204621
:100FF000FFF706FA4FF4FA7000F018FA002540E007
:10100000FFF720FE9A4B1B78012B5CD0994B1B7885
:10101000032B7CD0984B1B78002B7DD1954B1B78F4
:10102000022B00F09880954B1B78002B40F09880A5
:10103000934B1B78002B40F06181924B1B78002B67
:1010400040F06981904B4FF400625A614FF4FA709E
:1010500000F0ECF9874B1B78012B00F06C81042227
:101060000A218A4803F054F80024824B1C7000F0D7
:10107000F1F90121204601F0E7F9FFF71BFF00F02D
:10108000F0F9834B9D4280F260810135814B1B78E2
:10109000002BBBD0804B1B78002BB3D17F4971480C
:1010A000FFF776FB012204216D4800F041FE642029
:1010B00000F0BCF980227A497A4804F0D0FF764BE0
:1010C00001221A709EE76A4E00273770654C7649F8
:1010D0002046FFF75DFB3770714E31462046FFF723
:1010E00057FB72492046FFF753FB6E4C8022314676
:1010F000204604F0B4FF64231E226D49204604F00C
:10110000EEFD642141F28830FFF7D4F97EE76949AA
:101110005448FFF73DFB7DE70024574B1C706649A0
:101120005048FFF735FB0DE001AE4B4B1B5D634AAA
:101130000821304605F0CAFC31464A48FFF728FB33
:101140000134A4B25E4B1B88A342EDD857494548F1
:10115000FFF71EFB62E75B494248FFF719FB62E7B6
:101160000024464B1C7058493E48FFF711FB574E70
:101170004FF4C0573A463649304605F045FD3946EA
:101180003046FFF7EBFC08E0514B1B5D4B4A042156
:101190000DEB010005F09AFC01344E4B1B88A34275
:1011A000F2D84D4A3C2101A805F090FC0024494B9F
:1011B0001C802C4F49493846FFF7EAFA484E4FF455
:1011C00000713046FFF708FD46493846FFF7E0FA60
:1011D0004FF4007106F58060FFF7FEFC4249384687
:1011E000FFF7D6FA4FF4007106F50060FFF7F4FC44
:1011F0003E493846FFF7CCFA4FF4007106F54060DF
:10120000FFF7EAFC3A493846FFF7C2FA4FF400719B
:1012100006F58050FFF7E0FC36493846FFF7B8FA8C
:101220004FF4007106F5A050FFF7D6FC324803F0EA
:101230007EF9FFF705FE06E0294800EB8420FFF762
:10124000F1F80134A4B2052CF6D9FBE600100240F7
:1012500014DD0020141001207C2901209C100120A5
:1012600000080048040F01204C7C0008180D0120E4
:10127000881C0020160D012078290120150D012061
:10128000140D012010DD002000040140980E012003
:1012900080969800040000201C0D0120547C00085A
:1012A0008C1C00208C0F0120647C0008387C000816
:1012B0007C7C00089C7C0008B07C0008287C00082E
:1012C0007A290120C07C0008D47C00088804002012
:1012D000101D00200E1D0020F47C0008107D000869
:1012E000781101202C7D0008487D0008647D0008ED
:1012F000807D00089C7D0008140E01201C4B0022FC
:101300001A701C491C48FFF743FA1C4803F00FF9F8
:10131000FFF796FD96E61A4B00221A70194B1A88B1
:1013200001AC92B21849204605F002FC2146124851
:10133000FFF72EFA86E615490F48FFF729FA04222F
:101340000A21134802F0E4FE89E64FF4FA7000F037
:101350006DF810490848FFF71BFAFFF7A5F801469A
:1013600041F28830FFF7A6F8002033B0F0BD00BF8F
:10137000140D0120B87D0008040F0120140E012077
:1013800010DD002012DD0020D87D0008F07D00086F
:10139000980E0120047E0008104B1B780BB9012029
:1013A000704710B504460E4A10684FF47A72B2FBCB
:1013B000F3F3B0FBF3F000F0F5F868B90F2C01D9A6
:1013C00001200AE0024621464FF0FF3000F0D2F83B
:1013D000044B1C60002000E0012010BD050000202F
:1013E0000C0000200800002010B5032000F0B0F829
:1013F0000F20FFF7D1FF18B101231C46204610BD76
:10140000044600F065FDF9E7034B1B78034A1168B9
:101410000B441360704700BF05000020782E0120A8
:10142000014B1868704700BF782E012038B504467C
:10143000FFF7F6FF0546B4F1FF3F02D0044B1B78DF
:101440001C44FFF7EDFF401BA042FAD338BD00BF9C
:10145000050000204FF0E022136923F0020313611E
:1014600070474FF0E022136943F0020313617047A5
:10147000024A536843F0010353607047002004E0C0
:10148000024A536843F0020353607047002004E0AF
:10149000024A536843F0040353607047002004E09D
:1014A000002807DB00F01F02400901239340024A95
:1014B00042F82030704700BF00E100E000280CDB5C
:1014C00000F01F024009012393402030034A42F8F4
:1014D0002030BFF34F8FBFF36F8F704700E100E004
:1014E000002808DB0901C9B200F1604000F5614045
:1014F00080F80013704700F00F000901C9B2014BDA
:101500001954704714ED00E000B500F00700A0F199
:10151000030CBCF1040F07D8C0F1070E04300628F5
:1015200006D84FF0000C03E04FF0040E4FF0000C13
:101530004FF0FF3303FA0EF021EA000101FA0CF13B
:1015400003FA0CF322EA030241EA020000BD0000A4
:10155000074AD36823F4E0631B041B0C000200F469
:10156000E060034343F0BF6343F40033D36070474C
:1015700000ED00E010B50446054BD868C0F302202A
:10158000FFF7C2FF01462046FFF7AAFF10BD00BFCC
:1015900000ED00E008B5FFF783FF08BD08B5FFF7D1
:1015A0008DFF08BD0138B0F1807F0BD24FF0E023F2
:1015B0005861054AF02182F8231000209861072223
:1015C0001A6170470120704700ED00E010B5446CCF
:1015D00004F01C0E4FF0010C0CFA0EFC046CC4F865
:1015E00004C0046863608368102B04D003689960AA
:1015F0000368DA6010BD03689A600368D960F9E790
:10160000002873D010B40346026839498A424AD888
:10161000384911443848A0FB01010909890059647F
:1016200036491964022183F8251011686FF30E11F1
:101630001160186801689A68DC6822431C692243BB
:101640005C6922439C692243DC6922431C6A224371
:101650000A4302609A68B2F5804F1BD0196C274A82
:1016600091422BD0254AD2F8A814586C00F01C0CDB
:101670000F2000FA0CF021EA0001C2F8A814D2F8F9
:10168000A81458685C6C04F01C0C00FA0CF00143C0
:10169000C2F8A8140020D863012283F8252083F81B
:1016A000240010BC7047164911441348A0FB0101E7
:1016B00009098900596413491964B3E7D2F8A810DD
:1016C000586C00F01C0C0F2000FA0CF021EA00010D
:1016D000C2F8A810D2F8A81058685C6C04F01C0C72
:1016E00000FA0CF00143C2F8A810D3E701207047BC
:1016F00007040240F8FFFDBFCDCCCCCC0000024077
:10170000F8FBFDBF00040240034600284FD00168EB
:101710000A6822F001020A600168264A91422ED826
:10172000254A0A442548A0FB0202120992005A6485
:10173000234A1A6400220A605A6C02F01C01186CD9
:1017400001228A404260196C1D4A914222D0DFF882
:1017500070C0DCF8A824596C01F01C000F218140F6
:1017600022EA0102CCF8A8240020D862186358634A
:101770009863D86383F8250083F824007047114AE2
:101780000A440E48A0FB0202120992005A640E4A53
:101790001A64CFE79446D2F8A820596C01F01C00D7
:1017A0000F21814022EA0102CCF8A820DCE70120C9
:1017B000704700BF07040240F8FFFDBFCDCCCCCC82
:1017C00000000240F8FBFDBF0004024010B50446D3
:1017D00090F82400012836D0012084F8240094F8E1
:1017E0002500012806D08023E363002384F82430F9
:1017F000012010BD022084F825000020E063D4F809
:1018000000C0DCF8000020F00100CCF80000204609
:10181000FFF7DCFE236B5BB12268136843F00E0315
:1018200013602268136843F0010313600020E0E7AF
:101830002268136823F0040313602268136843F0DE
:101840000A031360EDE70220D3E7034610B390F8D4
:101850002520022A06D00422C263002280F8242018
:101860000120704701680A6822F001020A600168DD
:101870000A6822F00E020A60426C02F01C02006C40
:10188000012101FA02F2426083F82510002083F85A
:10189000240070470120704708B590F82530022BCE
:1018A00003D00423C363012008BD0268136823F03A
:1018B000010313600268136823F00E031360436C86
:1018C00003F01C03016C012202FA03F34B6080F861
:1018D0002520002380F82430836B13B19847002023
:1018E000E2E71846E0E7000008B5036C1968D0F895
:1018F00000C0DCF800E0436C03F01C0304229A40B3
:101900000A4218D01EF0040F15D0DCF8003013F096
:10191000200F05D1DCF8003023F00403CCF80030B0
:10192000436C03F01C02016C042393404B60036B77
:1019300003B1984708BD02229A400A422BD01EF0FC
:10194000020F28D0DCF8003013F0200F08D1DCF8AB
:10195000003023F00A03CCF80030012380F8253052
:1019600002681D4B9A420ED9436C03F01C020223FD
:1019700093401A4A5360002380F82430C36A002B36
:10198000D8D09847D6E7436C03F01C02022393405B
:10199000134A5360EFE7082202FA03F30B42C9D05F
:1019A0001EF0080FC6D0DCF8003023F00E03CCF890
:1019B0000030436C03F01C03016C012202FA03F3B4
:1019C0004B60C26380F82520002380F82430436BED
:1019D000002BAFD09847ADE78000024000040240E2
:1019E0000000024070B582B0002374E085684FEAC1
:1019F000430E032404FA0EF425EA0405CC6804FA25
:101A00000EF42C438460446824EA0C044D68C5F34A
:101A1000001E0EFA03FE4EEA0404446070E0C46A3D
:101A200024EA0C04C5F3C00E0EFA03FE4EEA0404C9
:101A3000C4626AE0DD08083550F8254003F0070C61
:101A40004FEA8C0C4FF00F0E0EFA0CFE24EA0E0E2D
:101A50000C6904FA0CF444EA0E0440F825406FE0E7
:101A6000062400E0002404FA0EF42C430CF1020CCE
:101A70005F4D45F82C405F4CA4686FEA020C24EAE5
:101A800002054E6816F4801F01D042EA0405594C45
:101A9000A560E4680CEA04054E6816F4001F01D046
:101AA00042EA0405534CE56064680CEA04054E689C
:101AB00016F4003F01D042EA04054E4C65602468EC
:101AC0000CEA04054E6816F4803F01D042EA040592
:101AD000484A156001330A6832FA03F400F0868040
:101AE0004FF0010C0CFA03FC1CEA0202F2D04C6825
:101AF00004F0030E0EF1FF3EBEF1010F7FF676AF4C
:101B00004D6805F00304032C89D04C6804F0030CE5
:101B1000BCF1030F0DD0C4685D004FF0030C0CFA4C
:101B200005FC24EA0C048E6806FA05FC4CEA040461
:101B3000C4604C6804F0030CBCF1020F3FF47AAFB0
:101B400005685C004FF0030C0CFA04FC25EA0C0E4F
:101B50004D6805F0030C0CFA04FC4CEA0E0404601A
:101B60004C6814F4403FB5D0234C256E45F0010578
:101B70002566246E04F001040194019C4FEA930C45
:101B80000CF102051A4C54F8255003F0030E4FEAED
:101B90008E0E0F2404FA0EF425EA0405B0F1904FDE
:101BA0003FF460AF154CA04216D004F58064A0420B
:101BB00014D004F58064A04212D004F58064A042E1
:101BC00010D004F58064A0420ED004F58064A042D9
:101BD0003FF446AF072446E7012444E7022442E7E6
:101BE000032440E704243EE705243CE702B070BD2F
:101BF00000000140000401400010024000040048C1
:101C0000002331FA03F200F08B80F0B532E00625B4
:101C100000E0002505FA0CF5A54265D004685D00DA
:101C20004FF0030C0CFA05FC44EA0C0404604FEA84
:101C3000D30E0EF1080E50F82E4003F00706B60042
:101C40000F25B54024EA050440F82E40846824EAB4
:101C50000C048460446824EA02044460C46824EAF2
:101C60000C04C460C46A24EA0202C262013331FA7D
:101C700003F254D001229A4012EA0107F6D04FEA4B
:101C8000930E0EF10205274C54F8254003F0030C87
:101C90004FEA8C0C0F2505FA0CF63440B0F1904F4A
:101CA000B7D0214DA84215D005F58065A84213D0C4
:101CB00005F58065A84211D005F58065A8420FD0D2
:101CC00005F58065A8420DD005F58065A8429ED037
:101CD00007259FE701259DE702259BE7032599E757
:101CE000042597E7052595E7104C256825EA0705A3
:101CF0002560656825EA07056560E56825EA07054A
:101D0000E560A56825EA0705A560064F0EF1020407
:101D100057F8245025EA060547F824507EE7F0BD21
:101D2000704700BF0000014000040048000401406B
:101D30000AB18161704781627047704708B5054BF1
:101D40005B69034200D108BD024B5861FFF7F5FF04
:101D5000F9E700BF0004014000285FD010B5044639
:101D600090F84130002B48D0242384F84130226879
:101D7000136823F0010313606368226823F0706323
:101D800013612268936823F400439360E368012B96
:101D900038D0A368226843F404439360E368022BBD
:101DA00036D02268536823F4006353602268536876
:101DB00043F0007343F4004353602268D36823F474
:101DC0000043D360236962691343A169226843EA2F
:101DD0000123D360E369216A22680B431360226800
:101DE000136843F00103136000206064202384F82B
:101DF0004130206384F8420010BD80F8403000F08C
:101E000089F8B1E7A368226843F400439360C5E70B
:101E10002268536843F400635360C7E701207047AA
:101E2000034690F84120202A23D190F84020012A2F
:101E300021D0012280F84020242280F8412000682F
:101E4000026822F0010202601868026822F48052DF
:101E50000260186802680A43026019680A6842F062
:101E600001020A60202283F84120002083F840000C
:101E700070470220704702207047034690F84120C7
:101E8000202A21D190F84020012A1FD0012280F879
:101E90004020242280F841200068026822F00102DC
:101EA00002601868026822F4706242EA012202604D
:101EB00019680A6842F001020A60202283F8412072
:101EC000002083F8400070470220704702207047CE
:101ED00000B583B00E4B1A6E42F001021A661A6EFC
:101EE00002F001020092009A9A6D42F080529A65C7
:101EF0009B6D03F080530193019B00221146052046
:101F0000FFF738FB0520FFF745FB03B000BD00BF1E
:101F10000010024010B5AAB0044600212591269178
:101F2000279128912991882203A804F023FE226892
:101F3000184B9A4201D02AB010BD8023039303A806
:101F400001F0C6F910BB144CE36C43F00203E364E8
:101F5000E36C03F002030193019B4FF4C04325930C
:101F600012232693002327930323289304232993E2
:101F700025A90A48FFF736FDA36D43F48003A36546
:101F8000A36D03F480030293029BD4E7FEF75AFE8D
:101F9000D9E700BF0058004000100240000400488C
:101FA00070B5B0B00446064600212B912C912D91BE
:101FB0002E912F91882209A804F0DCFD2368794A2C
:101FC00093420CD0784A93423ED0784A934200F034
:101FD0008980774A934200F0B98030B070BD2023E9
:101FE00009934FF400631C9309A801F071F940BBF9
:101FF000704BDA6D42F00102DA65DA6D02F001022F
:102000000192019ADA6C42F00402DA64DB6C03F0AC
:1020100004030293029B03232B9302222C9200229F
:102020002D922E9308232F932BA96348FFF7DAFCF8
:10203000002211464620FFF79DFA4620FFF7AAFA34
:10204000CBE7FEF7FFFDD3E70123099309A801F0D1
:102050003FF9002840D1574B1A6E42F480421A666D
:102060001A6E02F480420392039ADA6C42F0010283
:10207000DA64DB6C03F001030493049B4FF4C06348
:102080002B9302252C9500242D9403232E930723B4
:102090002F932BA94FF09040FFF7A4FC4748484BE3
:1020A000036045608460C46080230361446184618F
:1020B0002023C3614FF400530362FFF7A1FA70B904
:1020C0003E4B73679E62002211462520FFF752FAAD
:1020D0002520FFF75FFA80E7FEF7B4FDBBE7FEF7C8
:1020E000B1FDEDE70223099309A801F0F1F850BB17
:1020F000304B9A6D42F400329A659A6D02F40032C8
:102100000592059ADA6C42F00102DA64DB6C03F0A6
:1021100001030693069B0C232B9302232C9300238D
:102120002D9303232E9307232F932BA94FF0904039
:10213000FFF758FC002211462620FFF71BFA262045
:10214000FFF728FA49E7FEF77DFDD1E7042309935D
:1021500009A801F0BDF808BB164B9A6D42F4802225
:102160009A659A6D02F480220792079ADA6C42F01F
:102170000402DA64DB6C03F004030893089B302349
:102180002B9302232C9300232D9303232E930723B9
:102190002F932BA90848FFF725FC1EE7FEF752FDF9
:1021A000DAE700BF008000400038014000440040F2
:1021B000004800400010024000080048BC0E01200A
:1021C0005800024010B5A2B004468822002168469B
:1021D00004F0D0FC2268114B9A4201D022B010BD0D
:1021E0004FF4003300934FF400732193684601F0DD
:1021F0006FF878B90A4AD2F8903043F40043C2F835
:102200009030002211460320FFF7B4F90320FFF7B6
:10221000C1F9E3E7FEF716FDECE700BF0028004038
:1022200000100240F0B5ABB0044600212591269184
:10223000279128912991882203A804F09BFC226809
:102240004C4B9A4201D02BB0F0BD4FF400230393C6
:102250004FF080631F930123049305931823069383
:10226000072307930223089309934FF480130A93DB
:1022700003A801F02DF8002872D13F4B1A6E42F4EA
:1022800080621A661A6E02F480620092009ADA6C1A
:1022900042F00402DA64DA6C02F004020192019A5C
:1022A000DA6C42F00802DA64DB6C03F00803029394
:1022B000029B4FF4F8532593022626960025279576
:1022C000032728970C23299325A92C48FFF78AFB7D
:1022D000042325932696279528970C23299325A92F
:1022E0002748FFF77FFB2748274B036007234360FE
:1022F0008560C560802303614FF4007343614FF430
:1023000000638361C5614FF440530362FFF778F9BE
:1023100048BB1C4B23649C621C481D4B0360072375
:102320004360102383600023C360802202614FF466
:10233000007242614FF400628261C3614FF4405306
:102340000362FFF75DF988B9104BE3639C620022DA
:1023500011463120FFF70EF93120FFF71BF972E724
:10236000FEF770FC89E7FEF76DFCD2E7FEF76AFC2A
:10237000EAE700BF002801400010024000080048C2
:10238000000C0048CC0D012044040240840D0120C3
:102390005804024002680F4B9A4200D0704710B5B3
:1023A00004460D4A136E23F4806313664FF4F8510C
:1023B0000A48FFF725FC04210948FFF721FC206C9F
:1023C000FFF7A2F9E06BFFF79FF93120FFF7E6F87E
:1023D00010BD00BF00280140001002400008004866
:1023E000000C004800B589B00023039304930593C3
:1023F000069307930268134B9A4201D009B000BDBF
:1024000003F560431A6E42F480521A661A6E02F4A3
:1024100080520192019ADA6C42F00102DA64DB6CBC
:1024200003F001030293029BE0230393022304932E
:10243000032306930523079303A94FF09040FFF76A
:10244000D1FADBE70030014010B50C46A0B90F4BC4
:102450005B6913F4007F0AD10D4A136923F004036A
:102460001361012C10D040BF20BF20BF10BD00F071
:1024700069F80028F0D0F9E7044B5B6913F4007F9A
:10248000EAD100F057F8E7E730BFEFE7007000400F
:1024900000ED00E0024B186800F4C060704700BF18
:1024A00000700040B0F5007F0FD01F4B1B6803F495
:1024B000C063B3F5806F34D01B4A136823F4C06344
:1024C00043F48063136000207047174B1B6803F4CC
:1024D000C063B3F5007F20D0134A136823F4C063B0
:1024E00043F400731360114B1B68322202FB03F3A9
:1024F0000F4AA2FB03239B0C013300E0013B0A4A75
:10250000526912F4806F01D0002BF7D1064B5B6942
:1025100013F4806F03D10020704700207047032020
:1025200070470020704700BF007000400C00002082
:1025300083DE1B43024A136843F4804313607047F1
:1025400000700040104A136823F4804313600F4B5F
:102550001B68322202FB03F30D4AA2FB03239B0CF0
:10256000013300E0013B084A526912F4007F01D0B8
:10257000002BF7D1044B5B6913F4007F01D10020DD
:1025800070470320704700BF007000400C0000201F
:1025900083DE1B4330B583B00546204B9B6D13F0A3
:1025A000805F0BD0FFF776FFB0F5007F17D0802D4E
:1025B0001FD82DD0702D2DD000211BE0174CA36DFE
:1025C00043F08053A365A36D03F080530193019BF7
:1025D000FFF760FFA36D23F08053A365E4E7802D30
:1025E00003D9A02D03D9022104E0002102E001213A
:1025F00000E003210A4A136823F007030B4313602A
:10260000136803F007038B4206D1002003B030BDEE
:102610000221EFE70121EDE70120F7E7001002407A
:1026200000200240254A9368D26802F0030213F0AA
:102630000C0309D00C2B05D0042B3BD0082B3BD02E
:1026400000200FE0012AF7D11C4A126812F0080F8F
:102650000CD11A4AD2F89420C2F30322184951F837
:10266000220013B10C2B06D000207047134A1268C9
:10267000C2F30312F2E7114BDB6803F00303022BF2
:1026800016D0032B00D10F480C49CA68C2F30212BE
:102690000132CB68C3F3062300FB03F3B3FBF2F371
:1026A000C868C0F3416001304000B3FBF0F07047F0
:1026B0000548E9E7044870470248704700100240A7
:1026C000687E0008001BB7000024F400002800F01A
:1026D000F382F0B583B00446964B9D6805F00C0577
:1026E000DB6803F003031E46036813F0100F5AD093
:1026F000E5B10C2D18D0A369002B00F0BB808D4AEA
:10270000136843F001031360FEF78AFE0746894B06
:102710001B6813F0020F40F09A80FEF781FEC01B89
:102720000228F4D90320D2E2012EE4D1814B1B68A8
:1027300013F0020F03D0A369002B00F0BF82206AC0
:102740007C4B1B6813F0080F5BD07A4B1B6803F0BF
:10275000F00398425CD8774B1A6842F008021A607E
:102760001A6822F0F002216A0A431A605A6822F4B9
:102770007F42E16942EA01225A60002D60D0FFF7F2
:1027800051FF6C4B9B68C3F303136B4AD35C03F09C
:102790001F03D840694B1860694B1868FEF7FCFDB1
:1027A000002840F09482236813F0010F00F081802C
:1027B000082D75D00C2D71D06368B3F5803F00F003
:1027C0009780B3F5A02F00F099805A4B1A6822F435
:1027D00080321A601A6822F480221A606368002B23
:1027E00000F09980FEF71CFE0746524B1B6813F45D
:1027F000003F5ED1FEF714FEC01B6428F5D903200C
:1028000065E24C4BD3F894301B0903F0F003A0E7CA
:10281000FFF7C0FE002840F05382464B1A6842F092
:1028200008021A601A6822F0F002216A0A431A604C
:102830005A6822F47F42E16942EA01225A609EE727
:10284000206AFFF7A7FE002899D001203FE2394B0C
:102850001A6842F008021A601A6822F0F002216A2F
:102860000A431A605A6822F47F42E16942EA01226F
:102870005A6098E72F4A136823F001031360FEF7AC
:10288000CFFD07462B4B1B6813F0020F8BD0FEF7D2
:10289000C7FDC01B0228F5D9032018E2032E8BD1F7
:1028A000244B1B6813F4003F03D06368002B00F037
:1028B0000982236813F0020F57D0042D44D00C2D49
:1028C00040D0E368002B76D01A4A136843F4807333
:1028D0001360FEF7A5FD0646164B1B6813F4806FC8
:1028E00060D1FEF79DFD801B0228F5D90320EEE1A3
:1028F000104A136843F4803313606FE703F1804399
:10290000A3F53C331A6842F480221A601A6842F434
:1029100080321A6062E7FEF783FD0746054B1B68AD
:1029200013F4003FC5D0FEF77BFDC01B6428F5D92A
:102930000320CCE100100240A07E00080C00002023
:1029400008000020022EBCD1A44B1B6813F4806F3A
:1029500003D0E368002B00F0B781A04A536823F04E
:10296000F853216943EA01635360236813F0080FA9
:102970004CD063699BB3994AD2F8943043F0010379
:10298000C2F89430FEF74CFD0646944BD3F89430D1
:1029900013F0020F3AD1FEF743FD801B0228F4D951
:1029A000032094E18D4A536823F0F853216943EAE8
:1029B00001635360D9E7894A136823F48073136075
:1029C000FEF72EFD0646854B1B6813F4806FCCD0B6
:1029D000FEF726FD801B0228F5D9032077E17F4A08
:1029E000D2F8943023F00103C2F89430FEF718FDBA
:1029F00006467A4BD3F8943013F0020F06D0FEF758
:102A00000FFD801B0228F4D9032060E1236813F036
:102A1000040F7CD0714B9B6D13F0805F37D16F4BEF
:102A20009A6D42F080529A659B6D03F0805301933A
:102A3000019B01231F466A4B1B6813F4807F29D03A
:102A4000A368012B3AD0052B40D0644BD3F89020DB
:102A500022F00102C3F89020D3F8902022F0040263
:102A6000C3F89020A368002B3ED0FEF7D9FC0646A1
:102A70005A4BD3F8903013F0020F47D1FEF7D0FC39
:102A8000801B41F288339842F2D903201FE10023D2
:102A90001F46D0E7524A136843F480731360FEF771
:102AA000BFFC06464E4B1B6813F4807FC8D1FEF76F
:102AB000B7FC801B0228F5D9032008E1474AD2F869
:102AC000903043F00103C2F89030CBE7434BD3F88A
:102AD000902042F00402C3F89020D3F8902042F0F6
:102AE0000102C3F89020BDE7FEF79AFC06463B4B77
:102AF000D3F8903013F0020F08D0FEF791FC801B42
:102B000041F288339842F2D90320E0E0EFB9A36A9A
:102B1000002B00F0DB80022B1DD00C2D00F0DD809F
:102B20002E4A136823F080731360FEF779FC044685
:102B30002A4B1B6813F0007F00F0B780FEF770FC93
:102B4000001B0228F4D90320C1E0244A936D23F02E
:102B500080539365DBE7214BDB6803F00301E26AF6
:102B600091420FD00C2D00F0B4801C4B1B6813F069
:102B7000806F40F0B080194B1B6813F0805F31D03C
:102B80000120A4E003F07002216B0139B2EB011FB8
:102B9000E8D103F4FE42616BB2EB012FE2D103F402
:102BA0000031A26B073A18BF01229142DAD103F437
:102BB000C001E26B5208013AB1EB425FD2D103F09F
:102BC000C063226C5208013AB3EB426FCAD1034B87
:102BD0001B6813F0007F4ED0002078E00010024008
:102BE000007000403E4A136823F080731360FEF7C4
:102BF00017FC05463A4B1B6813F0007F06D0FEF722
:102C00000FFC401B0228F5D9032060E0344AD3684A
:102C100034491940E36A206B013843EA0013606BC2
:102C200043EA0023E06B4008013843EA4053206C3C
:102C30004008013843EA4063A06B000943EA40437F
:102C40001943D160136843F080731360D36843F075
:102C50008073D360FEF7E4FB0446214B1B6813F03E
:102C6000007F06D1FEF7DCFB001B0228F5D903200C
:102C70002DE000202BE01A4B1A6842F080721A6097
:102C8000DA6842F08072DA60FEF7CAFB0446144B41
:102C90001B6813F0007F06D1FEF7C2FB031B022B5B
:102CA000F5D9032013E0002011E00D4AD1680E4B46
:102CB0000B40D36000200AE001207047012006E0AD
:102CC000012004E0012002E0012000E0184603B0EA
:102CD000F0BD0120FBE70120F9E70120F7E700BF85
:102CE000001002408C809DF9FCFFEEFE002800F0F1
:102CF000AF8070B50D460446594B1B6803F00703BF
:102D00008B420BD2564A136823F007030B43136020
:102D1000136803F007038B4240F09C80236813F094
:102D2000020F0CD0A2684F4B9B6803F0F0039A424D
:102D300005D94C498B6823F0F0031A438A60236855
:102D400013F0010F39D06368032B09D0022B26D072
:102D500063BB444A126812F0020F06D1012076E0EC
:102D6000404A126812F0007F76D03E498A6822F00D
:102D7000030213438B60FEF753FB0646394B9B68F7
:102D800003F00C036268B3EB820F16D0FEF748FB2A
:102D9000801B41F288339842F0D9032057E0314A32
:102DA000126812F4003FE0D1012050E02D4A126871
:102DB00012F4806FD9D1012049E0236813F0020F8B
:102DC0000CD0A268274B9B6803F0F0039A4205D20F
:102DD00024498B6823F0F0031A438A60204B1B6858
:102DE00003F00703AB420AD91D4A136823F0070317
:102DF0002B431360136803F00703AB422ED1236803
:102E000013F0040F06D0174A936823F4E063E168D7
:102E10000B439360236813F0080F07D0114A93689F
:102E200023F46053216943EAC1039360FFF7FAFB7F
:102E30000C4B9B68C3F303130B4AD35C03F01F03D3
:102E4000D8400A4B18600A4B1868FEF7A5FA70BD07
:102E5000012070470120FAE70120F8E70120F6E79A
:102E60000020024000100240A07E00080C0000205C
:102E700008000020014B1868704700BF0C000020BC
:102E800008B5FFF7F7FF054B9B68C3F30223044A1D
:102E9000D35C03F01F03D84008BD00BF0010024000
:102EA000987E000808B5FFF7E5FF054B9B68C3F364
:102EB000C223044AD35C03F01F03D84008BD00BFFF
:102EC00000100240987E0008B0F5006F2BD0B0F5DE
:102ED000805F32D00023B3F5000F38D0B3F1007F0C
:102EE00035D0002B54D103F1804303F50433186827
:102EF00010F0006053D0186910F480304FD01A469B
:102F0000D868C0F302100130B1FBF0F11B69C3F3C4
:102F10000623126912F4003F38D0112203FB01F09E
:102F2000B0FBF2F070472E4BD3F8883003F4400327
:102F3000B3F5400FCFD12B487047294BD3F88830D9
:102F400003F04073B3F1407FC5D126487047244B4E
:102F5000186810F0007022D0D86810F480301ED0AD
:102F60001A46D868C0F302100130B1FBF0F1DB68FB
:102F7000C3F30623D26812F4003F05D0112203FBED
:102F800001F0B0FBF2F070470722F8E70722C5E72F
:102F9000B3F5800F04D0B3F1807F01D000207047DB
:102FA0000F4B186810F00050F9D0586910F48030B9
:102FB000F5D01A46D868C0F302100130B1FBF0F129
:102FC0005B69C3F30623526912F4003F05D0112256
:102FD00003FB01F0B0FBF2F070470722F8E700BFF7
:102FE0000010024068FF1F00F8B504460F465F4B13
:102FF000DB6813F0030F1BD05C4BDB6803F00303AB
:103000000268934203D001231D462846F8BD002ADA
:1030100000F0A580554BDB68C3F30213013342680F
:10302000934202D001231D46EFE700231D461AE01C
:103030000368022B59D0032B5FD0012B40F0928004
:103040004A4A126812F0020F64D04848C26822F05F
:1030500073026168013943EA01131343C36000231B
:103060001D46002DD1D1414A136823F080631360BF
:10307000FEF7D6F906463D4B1B6813F0006F06D0ED
:10308000FEF7CEF9831B022BF5D903231D46002D35
:10309000BBD1002F41D135490B6923F41F3323F4F1
:1030A0004073A068E2681209520442EA0022134306
:1030B0000B612E4A136843F080631360FEF7B0F98A
:1030C00006462A4B1B6813F0006F06D1FEF7A8F9DD
:1030D000801B0228F5D903231D46002D95D1234AD4
:1030E0001369A1690B4313618FE7204A126812F438
:1030F000806FAAD101231D4687E71C4A126812F48B
:10310000003FA2D1194A126812F4802F9DD10123E9
:103110001D467AE701231D46A3E7012F0FD0134870
:10312000026922F0C06222F4FE42A16863695B0872
:10313000013B5B0643EA01231A430261B9E70B48EE
:10314000026922F4C00222F4FE42A16823695B08EE
:10315000013B5B0543EA01231A430261A9E701230E
:103160001D4652E701231D464FE700BF00100240F5
:10317000F8B504460F46554BDB6813F0030F1BD020
:10318000524BDB6803F003030268934203D0012330
:103190001D462846F8BD002A00F092804B4BDB68A4
:1031A000C3F3021301334268934202D001231D4648
:1031B000EFE700231D4619E00368022B58D0032BCC
:1031C0005ED0012B7FD1414A126812F0020F64D009
:1031D0003E48C26822F073026168013943EA011374
:1031E0001343C36000231D46002DD2D1374A136814
:1031F00023F080531360FEF713F90646334B1B6828
:1032000013F0005F06D0FEF70BF9831B022BF5D9F4
:1032100003231D46002DBCD1002F41D12B494B6902
:1032200023F41F3323F44073A068E26812095204A8
:1032300042EA002213434B61244A136843F080534F
:103240001360FEF7EDF80646204B1B6813F0005F95
:1032500006D1FEF7E5F8801B0228F5D903231D46A9
:10326000002D96D1194A536961690B43536190E768
:10327000164A126812F4806FAAD101231D4688E70E
:10328000124A126812F4003FA2D1104A126812F4D6
:10329000802F9DD101231D467BE701231D46A3E717
:1032A0000A48426922F0C06222F4FE42A168236902
:1032B0005B08013B5B0643EA01231A434261BBE71B
:1032C00001231D4665E701231D4662E70010024009
:1032D0002DE9F04182B00446036813F4006F38D042
:1032E000436EB3F5000F18D00DD84BB3B3F5800F74
:1032F00005D100212030FFF73BFF064625E00123E2
:103300001F461E4628E0B3F5400F02D100231E469B
:103310000AE001231F461E461EE0644AD36843F4B8
:103320008033D36000231E46604AD2F8883023F4ED
:103330004003616E0B43C2F8883000231F460BE048
:1033400019460430FFF750FE0646002EECD03746F3
:1033500002E000231F461E46236813F4805F32D02C
:10336000A36EB3F1007F21D00ED82BB3B3F1807FD1
:1033700006D1002104F12000FFF7FAFE064606E020
:1033800001231F461E461EE0B3F1407F0AD1CEB98D
:10339000464AD2F8883023F04073A16E0B43C2F83E
:1033A000883010E001231F461E460CE03F4AD368D8
:1033B00043F48033D360EAE71946201DFFF714FE7B
:1033C0000646E4E73746236813F4003F77D0374BCF
:1033D0009B6D13F0805F52D1344B9A6D42F0805256
:1033E0009A659B6D03F080530193019B01239846DE
:1033F0002F4A136843F480731360FEF711F80546F3
:103400002B4B1B6813F4807F06D1FEF709F8401B95
:103410000228F5D903231E46002E4BD106F1804326
:1034200003F50433D3F8903013F4407319D0D4F873
:1034300084209A4212D01D4AD2F8903023F440736F
:10344000D2F8901041F48031C2F89010D2F8901068
:1034500021F48031C2F89010C2F8903013F0010FBF
:1034600010D1002E40F02981104AD2F8903023F478
:103470004073D4F884100B43C2F890301BE0002353
:103480009846B5E7FDF7CCFF0546084BD3F89030DA
:1034900013F0020FE5D1FDF7C3FF401B41F2883363
:1034A0009842F2D903231E46DBE700BF001002401A
:1034B0000070004037464346002B40F000812368EF
:1034C00013F0010F08D09D4AD2F8883023F003038F
:1034D000A16B0B43C2F88830236813F0020F08D0A9
:1034E000964AD2F8883023F00C03E16B0B43C2F804
:1034F0008830236813F0040F08D0904AD2F888303F
:1035000023F03003216C0B43C2F88830236813F09A
:10351000080F08D0894AD2F8883023F0C003616CC4
:103520000B43C2F88830236813F0100F08D0834A89
:10353000D2F8883023F44073A16C0B43C2F8883072
:10354000236813F0200F08D07C4AD2F8883023F487
:103550004063E16C0B43C2F88830236813F4007FAA
:1035600008D0764AD2F8883023F44023E16D0B432B
:10357000C2F88830236813F4806F08D06F4AD2F8FD
:10358000883023F44013216E0B43C2F8883023683F
:1035900013F0400F08D0694AD2F8883023F4405322
:1035A000216D0B43C2F88830236813F0800F08D0D8
:1035B000624AD2F8883023F44043616D0B43C2F86D
:1035C0008830236813F4807F08D05C4AD2F88830B2
:1035D00023F44033A16D0B43C2F88830236813F401
:1035E000005F0FD0554AD2F8883023F04063E16E77
:1035F0000B43C2F88830E36EB3F1006F65D0B3F1CE
:10360000806F67D0236813F4002F0FD04B4AD2F895
:10361000883023F04063216F0B43C2F88830236F5A
:10362000B3F1006F5ED0B3F1806F60D0236813F404
:10363000802F0FD0414AD2F8883023F04063616F69
:103640000B43C2F88830636FB3F1006F57D0B3F10A
:10365000806F59D0236813F4804F0FD0374AD2F8C7
:10366000883023F04053A16F0B43C2F88830A36F1A
:10367000B3F1805F50D0B3F1005F55D0236813F4ED
:10368000004F08D02D4AD2F8883023F08043E16FF4
:103690000B43C2F88830236813F4803F09D0274ACF
:1036A000D2F8883023F00043D4F880100B43C2F8DE
:1036B0008830384602B0BDE8F0813746FBE61F4A45
:1036C000936D23F080539365F9E6D36843F4801338
:1036D000D36097E70121201DFFF786FC002891D0D9
:1036E00007468FE7D36843F48013D3609EE7012138
:1036F000201DFFF779FC002898D0074696E7D3688D
:1037000043F48013D360A5E70121201DFFF76CFC73
:1037100000289FD007469DE70221201DFFF764FC8B
:103720000028ABD00746A9E7022104F12000FFF7EB
:103730001FFD0028A2D00746A0E700BF00100240EE
:1037400008B5B0F5003F1AD0A54BDB6803F00303C2
:10375000022B45D0032B4AD0012B4FD1A04B196827
:1037600011F002014BD01B6813F0080F32D09C4BB4
:103770001B68C3F303139B4A52F823103FE0984B96
:10378000D3F8903003F44073B3F5007F10D0B3F555
:10379000407F17D0B3F5807F40F03083904BD3F853
:1037A000900010F0020000F02A834FF4004026E35E
:1037B0008B4BD3F8940010F0020000F020834FF4FC
:1037C000FA401CE3864B186810F4003000F01783B1
:1037D000854814E3824BD3F89430C3F30323CAE73C
:1037E0007F4B196811F4806109D0804907E07C4B58
:1037F000196811F4003102D07D4900E00021B0F5D4
:10380000807F00F0848257D8102800F0B98134D826
:10381000042800F0718119D8012800F029810228BC
:1038200012D16F4BD3F8883003F00C03082B00F053
:103830005B8100F24881002B00F05381042B40F0A3
:103840004081FEF7EFFEDAE20020D8E2082812D12C
:10385000634BD3F8883003F0C003802B00F08881DD
:1038600000F27581002B00F08081402B40F06D81CB
:10387000FEF7D8FEC3E20020C1E2402800F010822B
:10388000802800F02982202814D1554BD3F88830A5
:1038900003F44063B3F5006F00F0B28100F29E8143
:1038A000002B00F0AA81B3F5806F40F09581FEF700
:1038B000B9FEA4E20020A2E2B0F5805F73D010D977
:1038C000B0F5004F00F0878233D9B0F5803F4BD17F
:1038D000434BD3F88830002BC0F2DB81FFF7E2FACC
:1038E0008DE2B0F5806F00F04682B0F5006F55D0E4
:1038F000B0F5007F1BD13A4BD3F8883003F4402356
:10390000B3F5002F00F0308200F21D82002B00F092
:103910002882B3F5802F40F01482314BD3F8940005
:1039200010F0020000F06B824FF4FA4067E20020D2
:1039300065E2B0F5005F1FD0B0F5804F12D1284B83
:10394000D3F8883003F04053B3F1005F00F0828178
:10395000B3F1405F00F05C81B3F1805F00F05B8108
:1039600000204CE200204AE2C0F04A82B0F5802FED
:1039700002D0B0F5002F0FD1194BD3F8883003F0E7
:103980004063B3F1006F35D0B3F1406F10D0B3F1A5
:10399000806F4ED0002032E2002030E24FF4006011
:1039A000FFF792FA2BE24FF48050FFF78DFA26E2F0
:1039B0000B4B186810F0020000F021821B6813F016
:1039C000080F07D0064B1B68C3F30313054A52F8D0
:1039D000230014E2024BD3F89430C3F30323F5E73A
:1039E00000100240687E0008D8B805000024F400EA
:1039F000001BB700A84B186810F0007000F0FF81A2
:103A0000D86810F4801000F0FA811A46DB68C3F31E
:103A1000062303FB01F0D368C3F302130133B0FBA9
:103A2000F3F0D368C3F3415301335B00B0FBF3F011
:103A3000E5E1994B186810F0006000F0E08118692A
:103A400010F4801000F0DB811A461B69C3F30623D3
:103A500003FB01F0D368C3F302130133B0FBF3F0AF
:103A60001369C3F3415301335B00B0FBF3F0C6E1CC
:103A7000894BD3F8883003F00303022B19D007D801
:103A8000A3B1012B02D1FEF7CDFDB8E10020B6E1D4
:103A9000032B09D1804BD3F8900010F0020000F006
:103AA000AE814FF40040AAE10020A8E1FFF7FAF947
:103AB000A5E1794B186810F4806000F0A081774888
:103AC0009DE100209BE10C2B09D1734BD3F89000B2
:103AD00010F0020000F093814FF400408FE10020CD
:103AE0008DE1FFF7CDF98AE16B4B186810F4806027
:103AF00000F08581694882E1674BD3F8883003F094
:103B00003003202B19D007D8A3B1102B02D1FEF718
:103B100089FD74E1002072E1302B09D15E4BD3F8AE
:103B2000900010F0020000F06A814FF4004066E15E
:103B3000002064E1FFF7A4F961E1574B186810F425
:103B4000806000F05C81554859E1002057E1C02BAE
:103B500009D1514BD3F8900010F0020000F04F81D2
:103B60004FF400404BE1002049E1FFF789F946E1BD
:103B7000494B186810F4806000F0418147483EE1ED
:103B8000454BD3F8883003F44073B3F5007F1BD066
:103B900008D8B3B1B3F5807F02D1FEF743FD2EE123
:103BA00000202CE1B3F5407F09D13B4BD3F89000C6
:103BB00010F0020000F023814FF400401FE10020CC
:103BC0001DE1FFF75DF91AE1334B186810F48060CE
:103BD00000F01581314812E1002010E1B3F5406F8B
:103BE00009D12D4BD3F8900010F0020000F00781AE
:103BF0004FF4004003E1002001E1FFF741F9FEE04E
:103C0000254B186810F4806000F0F9802348F6E036
:103C1000FEF708FDF3E0204B186810F0006000F09C
:103C2000EE80186910F0807000F0E9801A461B6978
:103C3000C3F3062303FB01F0D368C3F3021301337C
:103C4000B0FBF3F01369C3F3416301335B00B0FBD6
:103C5000F3F0D4E0104B186810F0005000F0CF8063
:103C6000586910F0807000F0CA8018465B69C3F391
:103C7000062301FB03F3C268C2F302120132B3FB55
:103C8000F2F34069C0F3416001304000B3FBF0F053
:103C9000B5E0FEF7C7FCB2E0001002400024F400DB
:103CA0005B4BD3F8883003F44053B3F5805F08D002
:103CB000B3F5005F08D0002B40F0A480FFF7E0F8D8
:103CC0009DE0FEF7AFFC9AE0514B186810F480605D
:103CD00000F095804F4892E04D4BD3F8883003F4C4
:103CE0004043B3F5804F08D0B3F5004F08D0002B08
:103CF00040F08A80FFF7C4F881E0FEF793FC7EE095
:103D0000434B186810F4806079D0424877E0404B0C
:103D1000D3F8883003F44033B3F5803F07D0B3F5D0
:103D2000003F07D0002B71D1FFF7AAF867E0FEF73C
:103D300079FC64E0364B186810F480605FD0354839
:103D40005DE000205BE0B3F5402F08D1304BD3F8A5
:103D5000900010F0020052D04FF400404FE00020DD
:103D60004DE0FFF78DF84AE0294B186810F48060A9
:103D700045D0284843E0264BD3F8883003F440135D
:103D8000B3F5001F20D00ED8DBB1B3F5801F08D1EA
:103D90001F4BD3F8940010F0020030D04FF4FA40DB
:103DA0002DE000202BE0B3F5401F08D1184BD3F8CD
:103DB000900010F0020022D04FF400401FE00020DD
:103DC0001DE0FFF75DF81AE0114B186810F48060F1
:103DD00015D0104813E00E4BD3F8883013F0804311
:103DE00002D023B918460AE0FFF74AF807E0084B6B
:103DF000186810F4806002D0064800E0002008BD7A
:103E00000020FCE70020FAE70020F8E70020F6E7B2
:103E1000001002400024F40038B5044603680A4A42
:103E2000DA60FDF7FDFA05462368DB6813F0200F22
:103E300007D1FDF7F5FA401BB0F57A7FF4D90320DE
:103E400000E0002038BD00BF5FFF030070B50368CD
:103E5000DA6812F0400F02D00025284670BD0446F3
:103E60004FF0FF32DA60FDF7DBFA064600252368E3
:103E7000DB6813F0400FF0D1032DEED0FDF7D0FA40
:103E8000831BB3F57A7FF2D9032584F82150EEE73E
:103E900010B50446104BDA6822F08002DA609B68A5
:103EA00013F0200F06D1FFF7B7FF98B1032084F875
:103EB00021000FE0084A936823F020039360FFF786
:103EC000ABFF10B1032084F82100034A936843F04C
:103ED0002003936010BD00BF0028004000284ED092
:103EE00038B5044690F8213063B1022384F82130BC
:103EF0002368DA6812F0100F09D00020012384F83B
:103F0000213038BD80F82030FEF75CF9EDE7CA2299
:103F10005A62236853225A622046FFF797FFC0B9BE
:103F20002268936823F4E00323F040039360216840
:103F30008A68636820690343A069034313438B6065
:103F40002368E2681A6122681369A16843EA0143A1
:103F500013612046FFF79CFF58B92268D36C23F009
:103F60000303D3642168CB6CE26965692A43134378
:103F7000CB642368FF225A620028C2D1BEE7012029
:103F80007047002302E001330A38C0B20928FAD88A
:103F90001B01DBB21843704790F82030012B61D031
:103FA00070B504460D461646012380F820300223E2
:103FB00080F821300368CA225A62036853225A6289
:103FC000FFF744FF002830D1002E39D123689B68C9
:103FD00013F0400F01D10023EB702878FFF7D1FFD9
:103FE00003041E466878FFF7CCFF46EA00231E460E
:103FF000A878FFF7C6FF33460343EA7843EA8253C3
:10400000226803F07F3323F0FE4313602268936835
:1040100023F48023936021688B68EA68286902434F
:1040200013438B602046FFF733FF2368FF225A6259
:1040300010B9012384F82130002384F8203070BDAA
:1040400023689B6813F0400F01D10023EB702A789E
:104050006B781B0243EA0243AA781343EA7843EAE7
:104060008253CDE70220704790F82030012B4DD0CD
:1040700070B504460D46012380F82030022380F8F5
:104080002130F2B1CA784B781B0243EA02438A78A6
:1040900013430A7843EA42352368CA225A622368E6
:1040A00053225A622046FFF7D1FE28B32368FF222D
:1040B0005A6210B9012384F82130002384F820309B
:1040C00070BD4B7813F0100F03D003F0EF030A33E9
:1040D0004B70E878FFF755FF03041E466878FFF73A
:1040E00050FF46EA00231E46A878FFF74AFF3043F8
:1040F0002B7840EA4335CFE7226825F07F4323F051
:10410000C00353602046FFF7C3FECFE7022070478D
:10411000F8B590F82030012B5BD004460E461746C8
:10412000012380F82030022380F821300368CA225E
:104130005A62036853225A620268936823F48063C8
:1041400093600268D368DBB263F49063D360036862
:10415000DB6813F0400F24D023685E612268936807
:1041600023F007033B4393601B4B1A6842F4801211
:104170001A609A6842F480129A602268936843F445
:10418000804393602268936843F48063936023685C
:10419000FF225A62012384F82130002084F8200095
:1041A000F8BDFDF73DF905462368DB6813F0040F01
:1041B000D2D1FDF735F9401BB0F57A7FF4D92368E9
:1041C000FF225A62032084F82100002384F8203063
:1041D000E6E70220E4E700BF00040140704700006A
:1041E00010B504460A4B4FF480125A610368DA682E
:1041F00012F4806F03D1012384F8213010BDDA68F6
:10420000D2B262F49062DA60FFF7E8FFF3E700BF32
:104210000004014070B582B0044600230193006899
:1042200002F06AF8064610B1304602B070BD206850
:1042300002F062FB38B90123A364A36C012B0BD0FD
:104240003046354615E00023A364206802F054F898
:104250000028F2D00646E7E70021206802F0B4F912
:104260000028EDD04FF080531E46DDE7019B01335F
:104270000193019A4FF6FE739A4213D895B92946D5
:10428000206802F0A1F9E0B91349206802F07CFA35
:104290000546C0B90146206802F019F8C30FE5D001
:1042A0001D46E3E7019A4FF6FE739A420FD810F0CD
:1042B000804302D001236364B6E7002262641E4695
:1042C000B2E70646B0E74FF080531E46ACE74FF02A
:1042D00080731E46A8E700BF000010C108B5006843
:1042E00001F0DAFF08BDF8B5846AC66AA6B9F8BD60
:1042F000386801F0C1FF2070C0F307236370C0F37A
:104300000743A370000EE0700434043E0135072D0E
:10431000EED9BC62FE62EAE707460025F7E7F0B592
:1043200083B0046A466ADEB903B0F0BD2378019316
:10433000627843EA02230193A27843EA024301939D
:10434000E27843EA026301930434043E01A9386829
:1043500001F095FF0135072DE8D93C627E62E3E765
:1043600007460025F7E7F0B589B004460F46FDF78C
:1043700057F806460023009301930821206802F0B5
:1043800079F8054610B1284609B0F0BD216D090441
:10439000206802F019F905460028F4D14FF0FF33E8
:1043A000029308230393302304930223059306907A
:1043B0000123079302A9206801F08CFF206802F016
:1043C00033F9054658B1DEE701F056FF4DF82500F8
:1043D0000135FDF725F8831BB3F1FF3F3FD020687F
:1043E000436B13F02A0F07D1436B13F4001FEBD17B
:1043F000436B13F4005FECD1436B13F0080F25D12E
:10440000436B13F0020F24D1456B15F0200523D127
:1044100040F23A538363019A130203F47F0343EAA1
:104420000263110A01F47F410B4343EA12633B60CC
:10443000009A130203F47F0343EA0263110A01F4B2
:104440007F410B4343EA12637B609CE70825856349
:1044500099E70225856396E72025856393E74FF06A
:10446000004590E710B582B004460021009101910B
:10447000006801F02CFF10F0007F13D16946204640
:10448000FFF771FF80B9019B13F4802F0ED0216DCF
:104490000904206802F098F830B90221206802F07F
:1044A000ABF801E04FF4006002B010BD4FF0806047
:1044B000FAE710B582B0044600210091019100682E
:1044C00001F005FF10F0007F13D169462046FFF789
:1044D0004AFF80B9019B13F4803F0ED0216D09047F
:1044E000206802F071F830B90146206802F084F8C3
:1044F00001E04FF4006002B010BD4FF08060FAE7B9
:1045000070B581B104460D46016D0904006802F0E2
:10451000A3F8064608B1304670BD0146206801F098
:10452000D6FE2860F7E74FF000631E46F3E770B150
:1045300010B50446032380F83430FFF7CFFE204641
:10454000FDF728FF0020A06384F8340010BD01208F
:10455000704700002DE9F04F87B005460C4616461F
:104560009B46DDF84080FCF75BFF002C35D082468F
:1045700095F834305FFA83F9012B40F00181002374
:10458000AB635B46F318EA6D93422DD8032385F89D
:1045900034302B680022DA626B6C012B00D076027B
:1045A0004FF0FF3300935F467B0201939023029309
:1045B000022303930023049301230593694628688B
:1045C00001F088FE012F14D902232B63314628689D
:1045D00001F080FFA0B9019F27E0AB6B43F00063BF
:1045E000AB634FF00109D1E0AB6B43F00073AB63F9
:1045F000CCE001232B633146286801F053FFE9E743
:104600002B68644A9A63AB6B0343AB63012385F861
:10461000343000232B63B9E0FCF702FF5346C01A85
:1046200040451FD2B8F1000F1CD02868466B16F425
:10463000957626D1436B13F4004FEDD0002FEBD0CD
:10464000072EE9D8286801F017FE2070C0F3072371
:104650006370C0F30743A370000EE0700434043F9E
:104660000136EDE72B684B4A9A63AB6B43F000438E
:10467000AB63012385F8343000232B634FF003092B
:1046800084E0436B13F4807F05D05B46012B02D995
:104690006B6C032B36D12B685A6B12F0080F42D18A
:1046A0005A6B12F0020F4AD15A6B12F0200F52D1FE
:1046B0002868436B13F4001F59D0002F57D001F026
:1046C000DBFD2070C0F307236370C0F30743A370C2
:1046D000000EE0700434043FFCF7A2FE5346C01AFB
:1046E000404502D2B8F1000FE2D12B68294A9A6303
:1046F000AB6B43F00043AB63012385F834300023F8
:104700002B6343E001F02EFF03460028C3D02A6844
:1047100020499163AA6B1343AB63012385F83430BE
:1047200000232B6332E01B4A9A63AB6B43F0080310
:10473000AB63012385F8343000232B6326E0154A50
:104740009A63AB6B43F00203AB63012385F834300B
:1047500000232B631AE00F4A9A63AB6B43F02003EC
:10476000AB63012385F8343000232B630EE040F265
:104770003A538363012385F834304FF0000905E094
:10478000AB6B43F00053AB634FF00109484607B0F1
:10479000BDE8F08FFF0540002DE9F04F89B00546D8
:1047A0000C4616469A46FCF73BFE002C36D0814656
:1047B00095F834305FFA83F8012B40F0DF80002356
:1047C000AB635346F318EA6D93422ED8032385F862
:1047D00034302B680022DA626B6C012B00D0760239
:1047E0004FF0FF33029357467B02039390230493C9
:1047F0000023059306930123079302A9286801F07B
:1048000069FD012F16D920232B633146286801F05A
:1048100091FE83465B46ABB9039F28E0AB6B43F048
:104820000063AB634FF00108AEE0AB6B43F0007385
:10483000AB63A9E010232B633146286801F062FEC8
:104840008346E7E72B68524A9A63AB6B5A46134399
:10485000AB63012385F8343000232B6394E0FCF72D
:10486000DFFD4B46C01A129B984223D213B328682F
:10487000466B16F48D762CD1436B13F4804FEED03B
:10488000002FECD0072EEAD823780193627843EA10
:1048900002230193A27843EA02430193E27843EAB8
:1048A000026301930434043F01A9286801F0E7FC86
:1048B0000136E7E72B68364A9A63AB6B5A461343D7
:1048C000AB63012385F8343000232B634FF00308DA
:1048D0005AE0436B13F4807F05D05346012B02D975
:1048E0006B6C032B18D12B685A6B12F0080F24D174
:1048F0005A6B12F0020F2CD15A6B12F0100F34D0F9
:10490000234A9A63AB6B43F01003AB63012385F832
:10491000343000232B6337E001F024FE03460028E7
:10492000E1D02A681A499163AA6B1343AB63012350
:1049300085F8343000232B6326E0154A9A63AB6B6D
:1049400043F00803AB63012385F8343000232B6365
:104950001AE00F4A9A63AB6B43F00203AB63012387
:1049600085F8343000232B630EE040F23A529A630C
:10497000012385F834304FF0000805E0AB6B43F0BD
:104980000053AB634FF00108404609B0BDE8F08F1B
:10499000FF054000704700000346426E920F0A7008
:1049A000426EC2F383624A7090F8672002F00302FD
:1049B0008A7090F86620CA7090F865200A7190F8A5
:1049C00064204A71826E120DCA80B0F86A2002F02B
:1049D0000F020A72826EC2F3C0324A72826EC2F352
:1049E00080328A72826EC2F34032CA72826EC2F321
:1049F00000320A7300224A73426C002A40F086801B
:104A0000806E40F6FC7202EA8002D86E42EA907232
:104A10000A61DA6EC2F3C2620A7593F86F2002F07F
:104A200007024A75DA6EC2F342528A75DA6EC2F331
:104A30008242CA75DA6EC2F3C2320A760A6901325C
:104A40005A65087E00F00700023082405A6591F8EE
:104A500008C00CF00F0C012000FA0CF09865400A19
:104A600000FB02F2DA654FF400721A66DA6EC2F3E6
:104A700080324A76DA6EC2F3C6128A76DA6E02F0B5
:104A80007F02CA761A6FD20F0A771A6FC2F3417289
:104A90004A771A6FC2F382628A771A6FC2F383521F
:104AA000CA771A6FC2F3405281F82020002081F8A3
:104AB0002100B3F8722002F0010281F822201A6F5F
:104AC000C2F3C03281F823201A6FC2F3803281F81A
:104AD00024201A6FC2F3403281F825201A6FC2F3E6
:104AE000003281F826201A6FC2F3812281F8272034
:104AF0001A6FC2F3012281F828201B6FC3F346030B
:104B000081F82930012381F82A307047012A11D118
:104B1000826E120402F47C12B0F86E0002430A6145
:104B20000A69013292025A65DA654FF400729A6599
:104B30001A669BE7026805499163826B42F08052D6
:104B40008263012083F83400704700BFFF054000F6
:104B500010B58CB004460123ADF80230006801F0B6
:104B60009FFB002859D0636C032B34D1636C032B5B
:104B70004BD1636C032B1CD0BDF8021021650904D6
:104B8000206801F0C4FD002849D10146206801F0E9
:104B90009EFB60660421206801F099FBA066082155
:104BA000206801F094FBE0660C21206801F08FFB87
:104BB00020670421206801F08AFB000DE06401A950
:104BC0002046FFF7E9FE60BB226D12040346206811
:104BD00001F0E2FC23E0206801F084FDF8B9014611
:104BE000206801F074FB60670421206801F06FFB0E
:104BF000A0670821206801F06AFBE0670C212068AB
:104C000001F065FBC4F88000B0E70DF102012068F7
:104C100001F026FE0028ACD001E04FF080600CB01F
:104C200010BD4FF08050FAE770B58AB004460023FB
:104C3000049305930693079308934FF40020FEF71F
:104C40007FFD38B9012084F834004FF00063A3637E
:104C50000AB070BD0546C309274AA2FB03231E09FB
:104C6000B31E09930AAB13E907008DE8070004ABF4
:104C70000ECB206801F0E6FA0128E9D022685368DB
:104C800023F480735360206801F0FEFA22685368B1
:104C900043F480735360B5FBF6F31848B0FBF3F0B0
:104CA0000130FCF7C3FB2046FFF7B4FA024630B1EF
:104CB000012084F83400A36B1343A363C8E72046A4
:104CC000FFF746FF024630B1012084F83400A36BA1
:104CD0001343A363BCE74FF40071206801F0CAFBE3
:104CE0000028B5D0236806499963A36B0343A363E7
:104CF000012084F83400ABE7598B4F0110210100EB
:104D0000FF05400030B58BB004460D46032380F804
:104D10003430436C032B1CD0B1F5805F08D0B1F563
:104D2000006F0AD079B1836B43F00063836314E0B2
:104D3000836B43F0805383630FE0FFF793FBA36B18
:104D40000343A36309E0FFF7B4FBA36B0343A3632F
:104D500003E0836B43F080538363A36BD3B1236879
:104D6000254A9A63012384F834301D464FF40071BC
:104D7000206801F07FFB38B123681F499963A36B5A
:104D80000343A36301231D46012384F834302846DE
:104D90000BB030BD4FF40020FEF7D2FC034620B329
:104DA00062680492A2680592E268069207956269B9
:104DB0000892A1698A1CB0FBF2F21048824212D913
:104DC0000F4AA2FB0323DB0D023B09930AAB13E955
:104DD00007008DE8070004AB0ECB206801F032FA23
:104DE00000231D46C2E70991F0E7A36B43F000637F
:104DF000A36301231D46B9E7FF05400040787D010C
:104E0000893BE65518B310B5044690F8343043B1E9
:104E1000032384F834302046FFF706FF28B1012031
:104E200010BD0377FDF7FEF9F2E721692046FFF791
:104E300069FF08B10120F3E721692046FFF762FF0F
:104E400038B9A0632063012384F83430E8E70120F7
:104E500070470120E4E710B582B0044600230193B7
:104E600001A9FFF74DFB10B1A36B0343A3630198A6
:104E7000C0F3432002B010BD10B5846A236840F22D
:104E80003A529A632046FFF7E6FF012384F8343054
:104E9000002323630538012805D9A36B53B92046A5
:104EA000FFF778FD10BD206801F05CFBA36B0343A6
:104EB000A363F2E72046FBF71BFAF3E710B5846A19
:104EC000236840F23A529A632046FFF7C4FF012359
:104ED00084F83430002323630538012805D9A36BF7
:104EE00053B92046FFF756FD10BD206801F03AFB8C
:104EF000A36B0343A363F2E72046FBF7F9F9F3E75B
:104F000070B50446056B03685A6B12F4004F02D06B
:104F100015F0080F32D15A6B12F4807F61D04FF434
:104F200080729A632268D36B23F4414323F03A03DF
:104F3000D3632268D36A23F00103D36215F0080F0C
:104F40002AD015F002031E4602D115F0200F04D01E
:104F5000206801F007FB034698B9236840F23A52F3
:104F60009A63012384F834300023236315F0010F82
:104F700000D16EB12046FBF7B5F901E0FFF7B3F9B8
:104F800070BDA26B1343A3632046FBF7B1F9E4E7BE
:104F90002046FBF7A1F9F3E715F0800FF0D015F0EC
:104FA000200F11D115F0010FEAD115F0020FE7D152
:104FB0002268D36A23F00803D362012384F83430D3
:104FC0002046FBF789F9DBE7206801F0CBFA0346BE
:104FD0000028E7D0A26B1343A3632046FBF788F9B0
:104FE000E0E75A6B12F4804F02D015F0080F49D158
:104FF0005A6B12F03A0FC3D05A6B12F0020F03D063
:10500000A26B42F00202A2635A6B12F0080F03D0A7
:10501000A26B42F00802A2635A6B12F0200F03D079
:10502000A26B42F02002A2635A6B12F0100F03D061
:10503000A26B42F01002A26340F23A529A632268D5
:10504000D36B23F49D73D363206801F08BFAA36BB9
:105050000343A36315F0080F18D115F0800F8FD00C
:1050600015F0100F02D115F0200F18D0E36B1A4A7B
:105070009A63E06BFCF710FC002881D0E06BFFF72F
:10508000FBFE7DE72046FFF74AF979E7012384F824
:105090003430002323632046FBF72AF970E715F02C
:1050A000010F02D115F0020F0CD0236C0B4A9A634A
:1050B000206CFCF7F1FB00283FF462AF206CFFF797
:1050C000FDFE5DE70023A363012284F834202363FF
:1050D0002046FFF75FFC53E7794E0008BD4E0008FD
:1050E00000286AD010B50446436A33B94368B3F563
:1050F000827F05D00023C36102E000230361436186
:105100000023A36294F85D30002B4DD0022384F875
:105110005D302268136823F040031360E368B3F541
:10512000E06F47D90022B3F5706F04D0B3F5E06F9C
:1051300001D00023A362636803F48273A16801F4C1
:1051400004410B43216901F002010B43616901F045
:1051500001010B43A16901F400710B43E16901F006
:1051600038010B43216A01F080010B43A16A01F46D
:10517000005120680B430360638B03F00403616AF2
:1051800001F010010B43616B01F008010B43E16872
:1051900001F470610B43216813434B6000202066CB
:1051A000012384F85D3010BD84F85C302046FDF7A3
:1051B00019F9ABE74FF48052B5E701207047026858
:1051C00052E8003F23F0C00342E800310029F6D145
:1051D0002023C3677047026852E8003F23F49073AE
:1051E00042E800310029F6D1026802F1080353E8D1
:1051F000003F23F00103083242E800310029F3D1D7
:10520000036E012B06D02023C0F8803000230366F4
:1052100083667047026852E8003F23F0100342E8BB
:1052200000310029F6D1EEE7704708B5026852E870
:10523000003F23F0400342E800310029F6D120234B
:10524000C367C166FFF7F0FF08BD7047704770473E
:1052500038B5846AE26FD4F880301D4623689B68B5
:1052600013F0800F01D0212A10D023689B6813F01F
:10527000400F01D0222D0DD0D4F8843043F010031C
:10528000C4F884302046FFF7E2FF38BD2046FFF720
:1052900096FFEAE72046FFF79EFFEDE708B5806A34
:1052A000FFF7D5FF08BD000010B504460268D369BA
:1052B0001168906840F60F0C13EA0C0F0AD113F036
:1052C000200F0FD011F0200F0CD0A36E2BB320466F
:1052D000984722E010F0010C20D1DFF8E0E211EA5B
:1052E0000E0F1BD1D4F860C0BCF1010F00F0AB80F1
:1052F00013F4801F03D010F4800F40F04B8113F0A3
:10530000800F03D011F0800F40F04B8113F0400F5D
:1053100003D011F0400F40F04B8110BD13F0010F8E
:1053200009D011F4807F06D001201062D4F88420C7
:105330000243C4F8842013F0020F0BD0BCF1000F1D
:1053400008D0226802201062D4F8842042F00402BF
:10535000C4F8842013F0040F0BD0BCF1000F08D068
:10536000226804201062D4F8842042F00202C4F8BB
:10537000842013F0080F0DD011F0200F02D1BCF1E2
:10538000000F07D0226808201062D4F8842002435E
:10539000C4F8842013F4006F0CD011F0806F09D092
:1053A00022684FF400601062D4F8842042F020029A
:1053B000C4F88420D4F88420002AAED013F0200F43
:1053C00006D011F0200F03D0A36E0BB120469847F2
:1053D000D4F8842023689B6813F0400F02D112F0A8
:1053E000280F29D02046FFF7F6FE23689B6813F0AC
:1053F000400F1DD0226802F1080353E8003F23F05C
:105400004003083242E800310029F3D1636F5BB1F9
:10541000694A9A63606FFCF73FFA00283FF47DAF5A
:10542000606F836B984778E72046FFF710FF74E7BB
:105430002046FFF70CFF70E72046FFF708FF002328
:10544000C4F8843069E713F0100F3FF451AF11F046
:10545000100F3FF44DAF1023136223689B6813F0C5
:10546000400F5ED0616F0A6853689BB2002B48D032
:10547000B4F85800984244D9A4F85A300B681B6815
:1054800013F0200F30D1226852E8003F23F48073DC
:1054900042E800310029F6D1226802F1080353E8FE
:1054A000003F23F00103083242E800310029F3D124
:1054B000226802F1080353E8003F23F0400308325A
:1054C00042E800310029F3D12023C4F8803021665E
:1054D000226852E8003F23F0100342E8003100291F
:1054E000F6D1606FFCF7B1F902236366B4F8581087
:1054F000B4F85A309BB2C91A89B22046FBF750FA69
:105500000BE7B4F8581099427FF407AF136813F013
:10551000200F3FF402AF022363662046FBF740FAF8
:10552000FBE6B4F85810B4F85A309BB2C91A89B2E5
:10553000B4F85A309BB2002B3FF4EFAE00293FF491
:10554000ECAE226852E8003F23F4907342E800304A
:105550000028F6D1226802F1080353E8003F23F047
:105560000103083242E800300028F3D12023C4F8B8
:1055700080302066A066226852E8003F23F01003C6
:1055800042E800300028F6D1022363662046FBF78C
:1055900007FAC2E64FF480131362204600F05EFD66
:1055A000BBE6E36E002B3FF4B8AE20469847B4E666
:1055B0002046FFF73AFEB0E69D52000820010004A5
:1055C00008B5B0F85C30D0F88020222A05D00268F7
:1055D000936943F00803936108BD0268516ADBB226
:1055E000426D0B401370436D01334365B0F85A3080
:1055F0009BB2013B9BB2A0F85A30B0F85A309BB234
:10560000002BE9D1026852E8003F23F4907342E88E
:1056100000310029F6D1026802F1080353E8003F87
:1056200023F00103083242E800310029F3D120239E
:10563000C0F88030816641660368164A93420CD0F8
:105640005B6813F4000F08D0026852E8003F23F0B3
:10565000806342E800310029F6D1036E012B16D198
:1056600000230366026852E8003F23F0100342E87B
:1056700000310029F6D10368DA6912F0100F01D069
:1056800010221A62B0F85810FBF78AF9A4E7FFF766
:10569000DCFDA1E70080004008B5B0F85C20D0F840
:1056A0008030222B05D00268936943F00803936190
:1056B00008BD03685B6A416D13400B80436D023384
:1056C0004365B0F85A309BB2013B9BB2A0F85A3008
:1056D000B0F85A309BB2002BEAD1026852E8003F82
:1056E00023F4907342E800310029F6D1026802F1F8
:1056F000080353E8003F23F00103083242E8003179
:105700000029F3D12023C0F8803081664166036808
:10571000164A93420CD05B6813F4000F08D002685D
:1057200052E8003F23F0806342E800310029F6D1BF
:10573000036E012B16D100230366026852E8003F76
:1057400023F0100342E800310029F6D10368DA693A
:1057500012F0100F01D010221A62B0F85810FBF7A7
:105760001FF9A5E7FFF771FDA2E700BF0080004029
:1057700008B50346806A01224266026E012A13D1EF
:10578000B0F858104A08A0F85A201B685B689BB212
:10579000994201D3A0F85A30B0F85A309BB2C91AD6
:1057A00089B2FBF7FDF808BDFFF750FDFBE708B530
:1057B0008446806ADCF800301B6813F0200F26D185
:1057C000026852E8003F23F4807342E80031002968
:1057D000F6D1026802F1080353E8003F23F0010309
:1057E000083242E800310029F3D1026802F10803CF
:1057F00053E8003F23F04003083242E8003100291B
:10580000F3D12023C0F88030036E012B16D0002383
:105810004366036E012B1BD1DCF800305B689BB242
:10582000B0F85810994201D9A0F85A30B0F85A305F
:105830009BB2C91A89B2FBF7B3F808BD026852E8F7
:10584000003F23F0100342E800310029F6D1DEE7E3
:10585000FFF7FBFCF1E7000010B50446836802691E
:10586000134342691343C269134301680868914AAC
:1058700002401A430A602268536823F44053E168E7
:105880000B435360A16922688B4B9A4201D0236A73
:105890001943936823F430630B4393602368874A6A
:1058A000934226D0864A934236D0864A934246D0C7
:1058B000854A934256D0854A934266D07E4A9342A7
:1058C00079D010227C498B4200F0B080E069B0F5BD
:1058D000004F00F0DE80022A00F03F8140F21A8182
:1058E000042A00F03781082A40F01C814FF4004060
:1058F0001DE102F55842D2F8882002F00302022A84
:1059000070D005D8002A6FD0012A6FD10422D9E7C0
:10591000032A6DD10822D5E702F5E632D2F88820B5
:1059200002F00C02082A65D005D8002ACAD0042A41
:10593000C8D01022C6E70C2A5ED10822C2E702F5C1
:10594000E432D2F8882002F03002202A56D005D85E
:10595000002AB7D0102A53D10422B3E7302A51D1FC
:105960000822AFE702F5E232D2F8882002F0C00246
:10597000802A49D005D8002AA4D0402A46D1042242
:10598000A0E7C02A44D108229CE702F5E032D2F811
:10599000882002F44072B2F5007F3BD006D8002A7E
:1059A00090D0B2F5807F37D104228BE7B2F5407FEB
:1059B00034D1082286E702F5C832D2F8882002F4F2
:1059C0004062B2F5006F2BD007D8002A3FF47AAFBF
:1059D000B2F5806F26D1042274E7B2F5406F23D16F
:1059E00008226FE702226DE701226BE7102269E7C8
:1059F000102267E7022265E7102263E7022261E7CF
:105A000010225FE710225DE702225BE7102259E7D0
:105A1000102257E7022255E7102253E7102251E7E0
:105A200002224FE710224DE710224BE7042A2DD027
:105A300006D862B1022A01D125480CE0012085E098
:105A4000082A02D14FF4004005E001207EE0FDF776
:105A500017FA00287AD0626802EB420383427ED8AC
:105A6000B0EB023F7DD8010E00025308C0184FF082
:105A7000000341F10001FAF7E3FBA0F54072154B7A
:105A80009A4270D82368D86000205FE0FCF7CAFD16
:105A9000DFE7022A3CD005D9042A36D0082A1ED0D6
:105AA000012053E0C2B1012A02D1FDF7FBF915E054
:105AB00001204BE0F369FFEF008000400038014017
:105AC0000044004000480040004C004000500040AE
:105AD0000024F400FFFC0F00FDF7D2F9B0B36268B8
