:020000040800F2
:1000000000800120515600085B4E00085D4E00083C
:10001000A14E0008A34E0008A54E000800000000F5
:10002000000000000000000000000000A74E0008D3
:10003000A94E000800000000AB4E0008AD4E0008BD
:10004000A1560008A1560008A1560008B54E0008A8
:10005000A1560008CD4E0008A1560008A156000880
:10006000A1560008A1560008A1560008A156000894
:10007000A1560008A1560008A1560008D14E00085C
:10008000A1560008A1560008A1560008A156000874
:10009000A1560008A1560008A1560008A156000864
:1000A000A1560008A1560008A1560008A156000854
:1000B000A1560008A1560008A1560008A156000844
:1000C000A1560008A1560008A1560008A156000834
:1000D000A1560008E14E0008A1560008A1560008EC
:1000E000F14E0008A1560008A1560008A1560008CC
:1000F000A1560008A1560008A1560008A156000804
:10010000A1560008094F0008A1560008A156000892
:10011000A1560008A1560008A1560008A1560008E3
:10012000A1560008A1560008A1560008194F000862
:10013000294F0008A1560008A1560008A156000842
:10014000A1560008A1560008A1560008A1560008B3
:10015000A1560008A1560008A1560008A1560008A3
:10016000A1560008A1560008A1560008A156000893
:10017000A1560008A1560008A15600080000000082
:08018000A1560008A156000879
:10019000034613F8012B002AFBD1181A01387047C7
:1001A00001F0FF01102A2BDB10F0070F08D010F828
:1001B000013B013A8B422DD010F0070F42B3F6D12C
:1001C000F0B441EA012141EA014122F007047FF045
:1001D00000070023F0E80256083C85EA010586EA9C
:1001E000010685FA47F5A3FA87F586FA47F6A5FAD8
:1001F00087F68EB9EED1F0BC01F0FF0102F00702E4
:1002000032B110F8013B013A83EA010313B1F8D18E
:100210000020704701387047002D06BF354603386F
:10022000073815F0010F07D1013015F4807F02BFA8
:10023000013015F4C03F0130F0BC0138704700BFF9
:1002400053B94AB9002908BF00281CBF4FF0FF313D
:100250004FF0FF3000F00CB8ADF1080C6DE904CEA2
:1002600005F092FFDDF804E0DDE9022304B07047F9
:10027000704700BF08B5064B1A783AB9054A1AB15B
:100280000548AFF30080024B01221A7008BD00BF81
:100290006000002000000000A864000808B5034BBF
:1002A0001BB103490348AFF3008008BD0000000004
:1002B00064000020A864000838B5064B1C6844B1EF
:1002C0000546FFF765FFC82382B22946204604F0A1
:1002D00044FC38BD7C000020014B01221A7070479D
:1002E00081000020014B01221A707047800000201D
:1002F00008B50023034A1370034A13700348FFF73D
:10030000DBFF08BD8100002080000020C0640008E1
:1003100008B5034B18600348FFF7CEFF08BD00BFC8
:100320007C000020D064000810B592B0244C4FF43B
:1003300000720021204605F081FA2248FFF7BCFF39
:1003400041F2883300930123642221461E4803F0C2
:1003500015FA98B900F0AAFB04461B4803F091FD7A
:10036000042812D000F0A2FB001B41F2883398420F
:10037000F3D91648FFF7A0FF002403E01448FFF765
:100380009BFF0024204612B010BD12490C4805F016
:100390005DFA78B10A220021073005F0F1F9044630
:1003A00003460D4A402102A805F0F4F902A8FFF720
:1003B00083FFE7E70948FFF77FFF0024E2E700BF7C
:1003C000840000207C650008540B0020A86500080C
:1003D000946500081C650008C4650008E065000815
:1003E0002DE9F0418AB005AD0024059406940794E8
:1003F000089409943B4BDA6C42F00402DA64DA6C3C
:1004000002F004020192019ADA6C42F00102DA640D
:10041000DA6C02F001020292029ADA6C42F00202F5
:10042000DA64DA6C02F002020392039ADA6C42F0A8
:100430000802DA64DB6C03F008030493049BDFF822
:10044000AC802246CC21404600F09AFE264E224641
:1004500041F60741304600F093FECC230593012777
:100460000697079408942946404600F07BFD102328
:10047000059306940223079329464FF0904000F01D
:1004800071FD41F6074305930697079408942946A2
:10049000304600F067FD4FF4006305934FF4881376
:1004A0000693079429464FF0904000F05BFD4FF40F
:1004B000805305930694079429464FF0904000F02E
:1004C00051FD22460E21282000F07AFB282000F062
:1004D00087FB3A460421304600F052FE0AB0BDE8E0
:1004E000F08100BF001002400004004800080048EE
:1004F00000B583B0164B9A6C42F001029A649A6C74
:1005000002F001020092009A9A6C42F002029A6490
:100510009B6C03F002030193019B00220E210F202C
:1005200000F04EFB0F2000F05BFB002211463B2049
:1005300000F046FB3B2000F053FB002211463C201C
:1005400000F03EFB3C2000F04BFB03B000BD00BFC1
:100550000010024038B505460C460846FFF718FE65
:100560004FF0FF3382B22146284604F0F6FA38BD38
:1005700030B5A3B00C4A936D506D00FB03F102AD92
:10058000890A01910090926C0849284605F034F9D7
:10059000074C29462046FFF7DDFF06492046FFF7B6
:1005A000D9FF23B030BD00BF540B00200C660008FB
:1005B000440C0020886600080268114B9A4200D063
:1005C000704710B50C4604F046FC012803D0022801
:1005D00009D020B110BD0B4B01221A70FAE70A4B6B
:1005E00001221A70F6E7094B1C80094B01221A7090
:1005F0004FF4FA620749084804F005FCEAE700BF37
:1006000000380140590A0020580A002086020020C4
:100610008402002088020020540D002072B6FEE7FC
:1006200008B50B480B4B03600B4B43604FF08053F6
:1006300083600023C36003610C2242618361036213
:10064000436204F059FB00B908BDFFF7E7FF00BFA4
:10065000DC0D0020008000402433030008B50C4866
:100660000C4B03604FF4E133436000238360C360AD
:1006700003610C2242614FF440728261C3610362E4
:10068000436204F039FB00B908BDFFF7C7FF00BFA4
:10069000CC0C00200044004008B50B480B4B036015
:1006A0004FF4E133436000238360C36003610C2295
:1006B00042618361C3610362436204F01DFB00B9C0
:1006C00008BDFFF7ABFF00BF440C0020004800400E
:1006D00008B50F480F4B03604FF48273436000234B
:1006E00083604FF44072C260036143614FF4007253
:1006F0008261C3610362436283620722C262036351
:100700000823436303F002FD00B908BDFFF786FF2D
:10071000600A00200030014000B587B0002301933B
:10072000029303930493059300931948194A0260B6
:1007300043607F228260FF22C26003614361836164
:10074000C36102F05DFDE8B98DF804008DF8050085
:100750008DF8060004900590012201A90C4802F0D2
:10076000ADFD88B901228DF800208DF801208DF8AB
:1007700002208DF803006946054802F007FE28B9FB
:1007800007B000BDFFF74AFFFFF748FFFFF746FF3E
:10079000D80B00200028004008B51148114B036019
:1007A000114B4360002383600122C26003614361F7
:1007B0008361C361036200F0F7FC50B90146084849
:1007C00000F056FD38B90146054800F07EFD20B91D
:1007D00008BDFFF723FFFFF721FFFFF71FFF00BF53
:1007E000640E002000580040E49CD11008B5184861
:1007F000184B0360002343608360C3604FF40062C2
:1008000002614FF480424261836103F011FBB0B991
:100810004FF400610E4803F08BFA90B90C480023A6
:10082000036103F005FB70B94FF40061084803F061
:100830007FFA50B908490948FFF78CFE08BDFFF759
:10084000EDFEFFF7EBFEFFF7E9FEFFF7E7FE00BF67
:10085000540B0020002801409C660008440C002036
:1008600008B50B480B4B03604FF4E13343600023A2
:100870008360C36003610C2242618361C3610362D0
:10088000436204F039FA00B908BDFFF7C7FE00BFA4
:10089000540D00200038014000B597B044220021DB
:1008A00005A804F0CBFF0023009301930293039368
:1008B00004934FF4007000F0B7FF20BB182305939A
:1008C00001230A930B930C9060220D9202220F9247
:1008D0001093119328231293072313930423149343
:1008E000159205A801F084F878B90F23009303232B
:1008F00001930290039004900421684601F088FB64
:1009000028B917B000BDFFF789FEFFF787FEFFF794
:1009100085FE000000B58DB000F0ACF8FFF7BCFF1D
:10092000FFF75EFDFFF7E4FDFFF77AFEFFF796FEA7
:10093000FFF7B2FEFFF7CCFEFFF7EEFEFFF72CFF4E
:10094000FFF754FFFFF78CFF4FF420522849294846
:1009500004F059FA00F0C4F800F0CAF800F0D0F83A
:10096000254C01220421204600F00AFC01228021AE
:10097000204600F005FC214C21492046FFF7EAFD06
:10098000FFF7F6FD2046FFF7C3FCFFF7CDFC1D4B3C
:1009900018604FF4FA7000F08FF809E01A4B00224B
:1009A0001A701A491548FFF7D5FD194B1B787BB90A
:1009B000154B1B78002BF1D1164B1B78002BF4D074
:1009C000144B00221A7014490C48FFF7C3FDECE7E2
:1009D0000F4B00221A70114B1A8892B210496846C8
:1009E00004F00AFF69460548FFF7B4FDE0E700BFE1
:1009F000B80E0020540D002000080048440C0020D0
:100A0000AC6600085C0A0020590A0020B4660008A1
:100A100084020020580A0020D466000886020020C4
:100A2000F4660008104B1B780BB90120704710B515
:100A300004460E4A10684FF47A72B2FBF3F3B0FB2F
:100A4000F3F000F0D1F868B90F2C01D901200AE0C9
:100A5000024621464FF0FF3000F0B2F8044B1C6014
:100A6000002000E0012010BD000000200800002050
:100A70000400002010B5032000F090F80F20FFF7CD
:100A8000D1FF18B101231C46204610BD044600F0DA
:100A900047FCF9E7034B1B78034A11680B441360CA
:100AA000704700BF00000020B8360020014B1868D6
:100AB000704700BFB836002038B50446FFF7F6FF90
:100AC0000546B4F1FF3F02D0044B1B781C44FFF7EE
:100AD000EDFF401BA042FAD338BD00BF000000204C
:100AE000024A536843F0010353607047002004E05A
:100AF000024A536843F0020353607047002004E049
:100B0000024A536843F0040353607047002004E036
:100B1000002807DB00F01F02400901239340024A2E
:100B200042F82030704700BF00E100E0002808DBF9
:100B30000901C9B200F1604000F5614080F800137E
:100B4000704700F00F000901C9B2014B19547047FA
:100B500014ED00E000B500F00700A0F1030CBCF1BB
:100B6000040F07D8C0F1070E0430062806D84FF04E
:100B7000000C03E04FF0040E4FF0000C4FF0FF3379
:100B800003FA0EF021EA000101FA0CF103FA0CF36A
:100B900022EA030241EA020000BD0000074AD368CE
:100BA00023F4E0631B041B0C000200F4E060034329
:100BB00043F0BF6343F40033D360704700ED00E0BF
:100BC00010B50446054BD868C0F30220FFF7C2FFFA
:100BD00001462046FFF7AAFF10BD00BF00ED00E070
:100BE00008B5FFF795FF08BD0138B0F1807F0BD243
:100BF0004FF0E0235861054AF02182F823100020CD
:100C0000986107221A6170470120704700ED00E0EB
:100C100010B5446C04F01C0E4FF0010C0CFA0EFCE5
:100C2000046CC4F804C0046863608368102B04D0AB
:100C3000036899600368DA6010BD03689A6003680E
:100C4000D960F9E7002873D010B403460268394927
:100C50008A424AD8384911443848A0FB01010909A1
:100C60008900596436491964022183F825101168F6
:100C70006FF30E111160186801689A68DC682243EE
:100C80001C6922435C6922439C692243DC6922433C
:100C90001C6A22430A4302609A68B2F5804F1BD057
:100CA000196C274A91422BD0254AD2F8A814586CC7
:100CB00000F01C0C0F2000FA0CF021EA0001C2F831
:100CC000A814D2F8A81458685C6C04F01C0C00FA44
:100CD0000CF00143C2F8A8140020D863012283F865
:100CE000252083F8240010BC70471649114413488E
:100CF000A0FB010109098900596413491964B3E78C
:100D0000D2F8A810586C00F01C0C0F2000FA0CF060
:100D100021EA0001C2F8A810D2F8A81058685C6C4B
:100D200004F01C0C00FA0CF00143C2F8A810D3E741
:100D30000120704707040240F8FFFDBFCDCCCCCCAA
:100D400000000240F8FBFDBF0004024010B504465D
:100D500090F82400012836D0012084F8240094F86B
:100D60002500012806D08023E363002384F8243083
:100D7000012010BD022084F825000020E063D4F893
:100D800000C0DCF8000020F00100CCF80000204694
:100D9000FFF73EFF236B5BB12268136843F00E033D
:100DA00013602268136843F0010313600020E0E73A
:100DB0002268136823F0040313602268136843F069
:100DC0000A031360EDE70220D3E7034610B390F85F
:100DD0002520022A06D00422C263002280F82420A3
:100DE0000120704701680A6822F001020A60016868
:100DF0000A6822F00E020A60426C02F01C02006CCB
:100E0000012101FA02F2426083F82510002083F8E4
:100E1000240070470120704708B590F82530022B58
:100E200003D00423C363012008BD0268136823F0C4
:100E3000010313600268136823F00E031360436C10
:100E400003F01C03016C012202FA03F34B6080F8EB
:100E50002520002380F82430836B13B198470020AD
:100E6000E2E71846E0E7000008B5036C1968D0F81F
:100E700000C0DCF800E0436C03F01C0304229A403D
:100E80000A4218D01EF0040F15D0DCF8003013F021
:100E9000200F05D1DCF8003023F00403CCF800303B
:100EA000436C03F01C02016C042393404B60036B02
:100EB00003B1984708BD02229A400A422BD01EF087
:100EC000020F28D0DCF8003013F0200F08D1DCF836
:100ED000003023F00A03CCF80030012380F82530DD
:100EE00002681D4B9A420ED9436C03F01C02022388
:100EF00093401A4A5360002380F82430C36A002BC1
:100F0000D8D09847D6E7436C03F01C0202239340E5
:100F1000134A5360EFE7082202FA03F30B42C9D0E9
:100F20001EF0080FC6D0DCF8003023F00E03CCF81A
:100F30000030436C03F01C03016C012202FA03F33E
:100F40004B60C26380F82520002380F82430436B77
:100F5000002BAFD09847ADE780000240000402406C
:100F60000000024070B582B0002374E085684FEA4B
:100F7000430E032404FA0EF425EA0405CC6804FAAF
:100F80000EF42C438460446824EA0C044D68C5F3D5
:100F9000001E0EFA03FE4EEA0404446070E0C46AC8
:100FA00024EA0C04C5F3C00E0EFA03FE4EEA040454
:100FB000C4626AE0DD08083550F8254003F0070CEC
:100FC0004FEA8C0C4FF00F0E0EFA0CFE24EA0E0EB8
:100FD0000C6904FA0CF444EA0E0440F825406FE072
:100FE000062400E0002404FA0EF42C430CF1020C59
:100FF0005F4D45F82C405F4CA4686FEA020C24EA70
:1010000002054E6816F4801F01D042EA0405594CCF
:10101000A560E4680CEA04054E6816F4001F01D0D0
:1010200042EA0405534CE56064680CEA04054E6826
:1010300016F4003F01D042EA04054E4C6560246876
:101040000CEA04054E6816F4803F01D042EA04051C
:10105000484A156001330A6832FA03F400F08680CA
:101060004FF0010C0CFA03FC1CEA0202F2D04C68AF
:1010700004F0030E0EF1FF3EBEF1010F7FF676AFD6
:101080004D6805F00304032C89D04C6804F0030C70
:10109000BCF1030F0DD0C4685D004FF0030C0CFAD7
:1010A00005FC24EA0C048E6806FA05FC4CEA0404EC
:1010B000C4604C6804F0030CBCF1020F3FF47AAF3B
:1010C00005685C004FF0030C0CFA04FC25EA0C0EDA
:1010D0004D6805F0030C0CFA04FC4CEA0E040460A5
:1010E0004C6814F4403FB5D0234C256E45F0010503
:1010F0002566246E04F001040194019C4FEA930CD0
:101100000CF102051A4C54F8255003F0030E4FEA77
:101110008E0E0F2404FA0EF425EA0405B0F1904F68
:101120003FF460AF154CA04216D004F58064A04295
:1011300014D004F58064A04212D004F58064A0426B
:1011400010D004F58064A0420ED004F58064A04263
:101150003FF446AF072446E7012444E7022442E770
:10116000032440E704243EE705243CE702B070BDB9
:10117000000001400004014000100240000400484B
:101180000AB18161704781627047704708B5054BAD
:101190005B69034200D108BD024B5861FFF7F5FFC0
:1011A000F9E700BF0004014000285FD010B50446F5
:1011B00090F84130002B48D0242384F84130226835
:1011C000136823F0010313606368226823F07063DF
:1011D00013612268936823F400439360E368012B52
:1011E00038D0A368226843F404439360E368022B79
:1011F00036D02268536823F4006353602268536832
:1012000043F0007343F4004353602268D36823F42F
:101210000043D360236962691343A169226843EAEA
:101220000123D360E369216A22680B4313602268BB
:10123000136843F00103136000206064202384F8E6
:101240004130206384F8420010BD80F8403000F047
:1012500089F8B1E7A368226843F400439360C5E7C7
:101260002268536843F400635360C7E70120704766
:10127000034690F84120202A23D190F84020012AEB
:1012800021D0012280F84020242280F841200068EB
:10129000026822F0010202601868026822F480529B
:1012A0000260186802680A43026019680A6842F01E
:1012B00001020A60202283F84120002083F84000C8
:1012C00070470220704702207047034690F8412083
:1012D000202A21D190F84020012A1FD0012280F835
:1012E0004020242280F841200068026822F0010298
:1012F00002601868026822F4706242EA0122026009
:1013000019680A6842F001020A60202283F841202D
:10131000002083F840007047022070470220704789
:1013200000B583B00E4B1A6E42F001021A661A6EB7
:1013300002F001020092009A9A6D42F080529A6582
:101340009B6D03F080530193019B00221146052001
:10135000FFF736FC0520FFF743FC03B000BD00BFDC
:101360000010024010B5AAB0044600212591269134
:10137000279128912991882203A804F05FFA226816
:10138000184B9A4201D02AB010BD8023039303A8C2
:1013900001F030F910BB144CE36C43F00203E3643A
:1013A000E36C03F002030193019B4FF4C0432593C8
:1013B000122326930023279303232893042329939E
:1013C00025A90A48FFF7CEFDA36D43F48003A3656A
:1013D000A36D03F480030293029BD4E7FFF71EF989
:1013E000D9E700BF00580040001002400004004848
:1013F00070B5B0B00446064600212B912C912D917A
:101400002E912F91882209A804F018FA23686F4AB8
:1014100093420BD06E4A934232D06E4A93427DD0B3
:101420006D4A934200F0A68030B070BD202309932E
:1014300009A801F0DFF800BB684BDA6D42F0010249
:10144000DA65DA6D02F001020192019ADA6C42F07B
:101450000402DA64DB6C03F004030293029B0323AF
:101460002B9302222C9200222D922E9308232F934D
:101470002BA95B48FFF776FDD6E7FFF7CFF8DBE750
:101480000123099309A801F0B5F8002840D1534B76
:101490001A6E42F480421A661A6E02F48042039277
:1014A000039ADA6C42F00102DA64DB6C03F00103A8
:1014B0000493049B4FF4C0632B9302252C950024C6
:1014C0002D9403232E9307232F932BA94FF09040A5
:1014D000FFF748FD4348444B036045608460C460A7
:1014E00080230361446184612023C3614FF400536E
:1014F0000362FFF7A7FB70B93A4B73679E62002245
:1015000011462520FFF75CFB2520FFF769FB8BE7E1
:10151000FFF784F8BBE7FFF781F8EDE702230993B3
:1015200009A801F067F810BB2C4B9A6D42F4003209
:101530009A659A6D02F400320592059ADA6C42F0CF
:101540000102DA64DB6C03F001030693069B0F23B0
:101550002B9302232C9300232D9303232E930723F5
:101560002F932BA94FF09040FFF7FCFC5CE7FFF7AF
:1015700055F8D9E70423099309A801F03BF808BB03
:10158000164B9A6D42F480229A659A6D02F480227D
:101590000792079ADA6C42F00402DA64DB6C03F01B
:1015A00004030893089B30232B9302232C930023DE
:1015B0002D9303232E9307232F932BA90848FFF77E
:1015C000D1FC31E7FFF72AF8DAE700BF00800040DE
:1015D0000038014000440040004800400010024034
:1015E00000080048FC0B00205800024010B5A2B0D3
:1015F000044688220021684604F020F92268114B35
:101600009A4201D022B010BD4FF4003300934FF442
:1016100000732193684600F0EDFF78B90A4AD2F8CA
:10162000903043F40043C2F890300022114603206A
:10163000FFF7C6FA0320FFF7D3FAE3E7FEF7EEFF62
:10164000ECE700BF0028004000100240F0B5ABB04E
:1016500004460021259126912791289129918822DD
:1016600003A804F0EBF822684A4B9A4201D02BB051
:10167000F0BD4FF4002303934FF080631F930123C9
:1016800004930593182306930723079302230893D3
:1016900009934FF480130A9303A800F0ABFF0028CE
:1016A0006ED13D4B1A6E42F480621A661A6E02F4D5
:1016B00080620092009ADA6C42F00402DA64DA6C1A
:1016C00002F004020192019ADA6C42F00802DA6434
:1016D000DB6C03F008030293029B4FF4F85325934D
:1016E0000226269600252795032728970C23299361
:1016F00025A92A48FFF736FC04232593269627952B
:1017000028970C23299325A92548FFF72BFC25486A
:10171000254B0360072343608560C5608023036118
:101720004FF4007343614FF400638361C561056248
:10173000FFF788FA38BB1B4B23649C621B481C4B89
:10174000036007234360102383600023C36080226B
:1017500002614FF4007242614FF400628261C36122
:101760000362FFF76FFA88B9104BE3639C620022B3
:1017700011463120FFF724FA3120FFF731FA76E7DE
:10178000FEF74CFF8DE7FEF749FFD4E7FEF746FF73
:10179000EAE700BF002801400010024000080048AE
:1017A000000C00480C0B002044040240C40A002036
:1017B0005804024000B589B00023039304930593B5
:1017C000069307930268134B9A4201D009B000BDFB
:1017D00003F560431A6E42F480521A661A6E02F4E0
:1017E00080520192019ADA6C42F00102DA64DB6CF9
:1017F00003F001030293029BE0230393022304936B
:10180000032306930523079303A94FF09040FFF7A6
:10181000A9FBDBE700300140024B186800F4C06010
:10182000704700BF00700040B0F5007F0FD01F4B25
:101830001B6803F4C063B3F5806F34D01B4A136890
:1018400023F4C06343F48063136000207047174B98
:101850001B6803F4C063B3F5007F20D0134A1368FC
:1018600023F4C06343F400731360114B1B683222EE
:1018700002FB03F30F4AA2FB03239B0C013300E09E
:10188000013B0A4A526912F4806F01D0002BF7D154
:10189000064B5B6913F4806F03D100207047002072
:1018A0007047032070470020704700BF0070004061
:1018B0000800002083DE1B4330B583B00546204B73
:1018C0009B6D13F0805F0BD0FFF7A6FFB0F5007F94
:1018D00017D0802D1FD82DD0702D2DD000211BE0CA
:1018E000174CA36D43F08053A365A36D03F08053A1
:1018F0000193019BFFF790FFA36D23F08053A36535
:10190000E4E7802D03D9A02D03D9022104E00021B2
:1019100002E0012100E003210A4A136823F00703D3
:101920000B431360136803F007038B4206D10020BA
:1019300003B030BD0221EFE70121EDE70120F7E719
:101940000010024000200240254A9368D26802F04D
:10195000030213F00C0309D00C2B05D0042B3BD051
:10196000082B3BD000200FE0012AF7D11C4A126857
:1019700012F0080F0CD11A4AD2F89420C2F30322B5
:10198000184951F8220013B10C2B06D000207047E3
:10199000134A1268C2F30312F2E7114BDB6803F03B
:1019A0000303022B16D0032B00D10F480C49CA6841
:1019B000C2F302120132CB68C3F3062300FB03F328
:1019C000B3FBF2F3C868C0F3416001304000B3FBE1
:1019D000F0F070470548E9E704487047024870474F
:1019E0000010024064670008001BB7000024F400E8
:1019F000002800F0F382F0B583B00446964B9D6852
:101A000005F00C05DB6803F003031E46036813F0C2
:101A1000100F5AD0E5B10C2D18D0A369002B00F09F
:101A2000BB808D4A136843F001031360FFF73EF853
:101A30000746894B1B6813F0020F40F09A80FFF7AE
:101A400035F8C01B0228F4D90320D2E2012EE4D1DC
:101A5000814B1B6813F0020F03D0A369002B00F029
:101A6000BF82206A7C4B1B6813F0080F5BD07A4B57
:101A70001B6803F0F00398425CD8774B1A6842F079
:101A800008021A601A6822F0F002216A0A431A60FA
:101A90005A6822F47F42E16942EA01225A60002D2D
:101AA00060D0FFF751FF6C4B9B68C3F303136B4A85
:101AB000D35C03F01F03D840694B1860694B18686A
:101AC000FEF7B0FF002840F09482236813F0010F66
:101AD00000F08180082D75D00C2D71D06368B3F5AE
:101AE000803F00F09780B3F5A02F00F099805A4B0B
:101AF0001A6822F480321A601A6822F480221A606E
:101B00006368002B00F09980FEF7D0FF0746524B28
:101B10001B6813F4003F5ED1FEF7C8FFC01B6428AA
:101B2000F5D9032065E24C4BD3F894301B0903F040
:101B3000F003A0E7FFF7C0FE002840F05382464BB9
:101B40001A6842F008021A601A6822F0F002216A4C
:101B50000A431A605A6822F47F42E16942EA01228C
:101B60005A609EE7206AFFF7A7FE002899D001205F
:101B70003FE2394B1A6842F008021A601A6822F0F4
:101B8000F002216A0A431A605A6822F47F42E1692E
:101B900042EA01225A6098E72F4A136823F00103B2
:101BA0001360FEF783FF07462B4B1B6813F0020FF1
:101BB0008BD0FEF77BFFC01B0228F5D9032018E26B
:101BC000032E8BD1244B1B6813F4003F03D06368B2
:101BD000002B00F00982236813F0020F57D0042D68
:101BE00044D00C2D40D0E368002B76D01A4A1368FD
:101BF00043F480731360FEF759FF0646164B1B68CB
:101C000013F4806F60D1FEF751FF801B0228F5D9D5
:101C10000320EEE1104A136843F4803313606FE74A
:101C200003F18043A3F53C331A6842F480221A6022
:101C30001A6842F480321A6062E7FEF737FF0746FF
:101C4000054B1B6813F4003FC5D0FEF72FFFC01BE8
:101C50006428F5D90320CCE1001002409C670008FD
:101C60000800002004000020022EBCD1A44B1B68F9
:101C700013F4806F03D0E368002B00F0B781A04A13
:101C8000536823F0F853216943EA016353602368E2
:101C900013F0080F4CD063699BB3994AD2F8943083
:101CA00043F00103C2F89430FEF700FF0646944B60
:101CB000D3F8943013F0020F3AD1FEF7F7FE801BF1
:101CC0000228F4D9032094E18D4A536823F0F85395
:101CD000216943EA01635360D9E7894A136823F411
:101CE00080731360FEF7E2FE0646854B1B6813F413
:101CF000806FCCD0FEF7DAFE801B0228F5D90320D6
:101D000077E17F4AD2F8943023F00103C2F894308F
:101D1000FEF7CCFE06467A4BD3F8943013F0020F50
:101D200006D0FEF7C3FE801B0228F4D9032060E131
:101D3000236813F0040F7CD0714B9B6D13F0805F10
:101D400037D16F4B9A6D42F080529A659B6D03F0CC
:101D500080530193019B01231F466A4B1B6813F4B8
:101D6000807F29D0A368012B3AD0052B40D0644B4B
:101D7000D3F8902022F00102C3F89020D3F89020ED
:101D800022F00402C3F89020A368002B3ED0FEF797
:101D90008DFE06465A4BD3F8903013F0020F47D110
:101DA000FEF784FE801B41F288339842F2D903206B
:101DB0001FE100231F46D0E7524A136843F48073A3
:101DC0001360FEF773FE06464E4B1B6813F4807FCC
:101DD000C8D1FEF76BFE801B0228F5D9032008E16D
:101DE000474AD2F8903043F00103C2F89030CBE775
:101DF000434BD3F8902042F00402C3F89020D3F86C
:101E0000902042F00102C3F89020BDE7FEF74EFE9D
:101E100006463B4BD3F8903013F0020F08D0FEF784
:101E200045FE801B41F288339842F2D90320E0E05E
:101E3000EFB9A36A002B00F0DB80022B1DD00C2D24
:101E400000F0DD802E4A136823F080731360FEF7E4
:101E50002DFE04462A4B1B6813F0007F00F0B7806C
:101E6000FEF724FE001B0228F4D90320C1E0244A17
:101E7000936D23F080539365DBE7214BDB6803F020
:101E80000301E26A91420FD00C2D00F0B4801C4B8C
:101E90001B6813F0806F40F0B080194B1B6813F083
:101EA000805F31D00120A4E003F07002216B013982
:101EB000B2EB011FE8D103F4FE42616BB2EB012FDC
:101EC000E2D103F40031A26B073A18BF012291421C
:101ED000DAD103F4C001E26B5208013AB1EB425F80
:101EE000D2D103F0C063226C5208013AB3EB426FC7
:101EF000CAD1034B1B6813F0007F4ED0002078E05E
:101F000000100240007000403E4A136823F08073C6
:101F10001360FEF7CBFD05463A4B1B6813F0007FBC
:101F200006D0FEF7C3FD401B0228F5D9032060E070
:101F3000344AD36834491940E36A206B013843EAD4
:101F40000013606B43EA0023E06B4008013843EA6A
:101F50004053206C4008013843EA4063A06B0009FD
:101F600043EA40431943D160136843F08073136020
:101F7000D36843F08073D360FEF798FD0446214B8D
:101F80001B6813F0007F06D1FEF790FD001B0228AE
:101F9000F5D903202DE000202BE01A4B1A6842F0FF
:101FA00080721A60DA6842F08072DA60FEF77EFDB5
:101FB0000446144B1B6813F0007F06D1FEF776FD34
:101FC000031B022BF5D9032013E0002011E00D4A7A
:101FD000D1680E4B0B40D36000200AE0012070470F
:101FE000012006E0012004E0012002E0012000E0E1
:101FF000184603B0F0BD0120FBE70120F9E70120FE
:10200000F7E700BF001002408C809DF9FCFFEEFE58
:10201000002800F0AF8070B50D460446594B1B6890
:1020200003F007038B420BD2564A136823F00703D1
:102030000B431360136803F007038B4240F09C804E
:10204000236813F0020F0CD0A2684F4B9B6803F07B
:10205000F0039A4205D94C498B6823F0F0031A43E8
:102060008A60236813F0010F39D06368032B09D00D
:10207000022B26D063BB444A126812F0020F06D12D
:10208000012076E0404A126812F0007F76D03E4987
:102090008A6822F0030213438B60FEF707FD0646B1
:1020A000394B9B6803F00C036268B3EB820F16D0C8
:1020B000FEF7FCFC801B41F288339842F0D90320E4
:1020C00057E0314A126812F4003FE0D1012050E09D
:1020D0002D4A126812F4806FD9D1012049E023689B
:1020E00013F0020F0CD0A268274B9B6803F0F0039B
:1020F0009A4205D224498B6823F0F0031A438A6080
:10210000204B1B6803F00703AB420AD91D4A136832
:1021100023F007032B431360136803F00703AB425C
:102120002ED1236813F0040F06D0174A936823F4C6
:10213000E063E1680B439360236813F0080F07D056
:10214000114A936823F46053216943EAC103936001
:10215000FFF7FAFB0C4B9B68C3F303130B4AD35CEA
:1021600003F01F03D8400A4B18600A4B1868FEF7AB
:1021700059FC70BD012070470120FAE70120F8E703
:102180000120F6E700200240001002409C67000892
:102190000800002004000020014B1868704700BFB1
:1021A0000800002008B5FFF7F7FF054B9B68C3F355
:1021B0000223044AD35C03F01F03D84008BD00BFCC
:1021C000001002409467000808B5FFF7E5FF054BD3
:1021D0009B68C3F3C223044AD35C03F01F03D840B7
:1021E00008BD00BF0010024094670008B0F5006F02
:1021F0002BD0B0F5805F32D00023B3F5000F38D07C
:10220000B3F1007F35D0002B54D103F1804303F5A7
:102210000433186810F0006053D0186910F480304F
:102220004FD01A46D868C0F302100130B1FBF0F16C
:102230001B69C3F30623126912F4003F38D0112240
:1022400003FB01F0B0FBF2F070472E4BD3F888305F
:1022500003F44003B3F5400FCFD12B487047294B0F
:10226000D3F8883003F04073B3F1407FC5D12648DE
:102270007047244B186810F0007022D0D86810F412
:1022800080301ED01A46D868C0F302100130B1FB6E
:10229000F0F1DB68C3F30623D26812F4003F05D0E7
:1022A000112203FB01F0B0FBF2F070470722F8E7C0
:1022B0000722C5E7B3F5800F04D0B3F1807F01D0CA
:1022C000002070470F4B186810F00050F9D0586983
:1022D00010F48030F5D01A46D868C0F302100130EF
:1022E000B1FBF0F15B69C3F30623526912F4003FBE
:1022F00005D0112203FB01F0B0FBF2F0704707227A
:10230000F8E700BF0010024068FF1F00F8B5044660
:102310000F465F4BDB6813F0030F1BD05C4BDB6891
:1023200003F003030268934203D001231D462846AD
:10233000F8BD002A00F0A580554BDB68C3F30213FB
:1023400001334268934202D001231D46EFE7002388
:102350001D461AE00368022B59D0032B5FD0012BD6
:1023600040F092804A4A126812F0020F64D0484846
:10237000C26822F073026168013943EA0113134312
:10238000C36000231D46002DD1D1414A136823F0BC
:1023900080631360FEF78AFB06463D4B1B6813F013
:1023A000006F06D0FEF782FB831B022BF5D90323B7
:1023B0001D46002DBBD1002F41D135490B6923F4B7
:1023C0001F3323F44073A068E2681209520442EA02
:1023D000002213430B612E4A136843F0806313609D
:1023E000FEF764FB06462A4B1B6813F0006F06D10C
:1023F000FEF75CFB801B0228F5D903231D46002D48
:1024000095D1234A1369A1690B4313618FE7204AD1
:10241000126812F4806FAAD101231D4687E71C4A77
:10242000126812F4003FA2D1194A126812F4802FE8
:102430009DD101231D467AE701231D46A3E7012F05
:102440000FD01348026922F0C06222F4FE42A16854
:1024500063695B08013B5B0643EA01231A4302619F
:10246000B9E70B48026922F4C00222F4FE42A168D7
:1024700023695B08013B5B0543EA01231A430261C0
:10248000A9E701231D4652E701231D464FE700BF80
:1024900000100240F8B504460F46554BDB6813F0B8
:1024A000030F1BD0524BDB6803F003030268934217
:1024B00003D001231D462846F8BD002A00F0928073
:1024C0004B4BDB68C3F3021301334268934202D0E3
:1024D00001231D46EFE700231D4619E00368022B88
:1024E00058D0032B5ED0012B7FD1414A126812F0E5
:1024F000020F64D03E48C26822F07302616801395D
:1025000043EA01131343C36000231D46002DD2D1BB
:10251000374A136823F080531360FEF7C7FA064664
:10252000334B1B6813F0005F06D0FEF7BFFA831B26
:10253000022BF5D903231D46002DBCD1002F41D11C
:102540002B494B6923F41F3323F44073A068E268DE
:102550001209520442EA002213434B61244A1368D1
:1025600043F080531360FEF7A1FA0646204B1B6828
:1025700013F0005F06D1FEF799FA801B0228F5D907
:1025800003231D46002D96D1194A536961690B43F7
:10259000536190E7164A126812F4806FAAD10123A2
:1025A0001D4688E7124A126812F4003FA2D1104A71
:1025B000126812F4802F9DD101231D467BE7012371
:1025C0001D46A3E70A48426922F0C06222F4FE4297
:1025D000A16823695B08013B5B0643EA01231A43B8
:1025E0004261BBE701231D4665E701231D4662E703
:1025F000001002402DE9F04182B00446036813F454
:10260000006F38D0436EB3F5000F18D00DD84BB320
:10261000B3F5800F05D100212030FFF73BFF0646C0
:1026200025E001231F461E4628E0B3F5400F02D1E6
:1026300000231E460AE001231F461E461EE0644A90
:10264000D36843F48033D36000231E46604AD2F837
:10265000883023F44003616E0B43C2F888300023B6
:102660001F460BE019460430FFF750FE0646002EC9
:10267000ECD0374602E000231F461E46236813F4C1
:10268000805F32D0A36EB3F1007F21D00ED82BB380
:10269000B3F1807F06D1002104F12000FFF7FAFE9C
:1026A000064606E001231F461E461EE0B3F1407FAA
:1026B0000AD1CEB9464AD2F8883023F04073A16ED1
:1026C0000B43C2F8883010E001231F461E460CE081
:1026D0003F4AD36843F48033D360EAE71946201DAC
:1026E000FFF714FE0646E4E73746236813F4003F7D
:1026F00077D0374B9B6D13F0805F52D1344B9A6D7E
:1027000042F080529A659B6D03F080530193019BC8
:10271000012398462F4A136843F480731360FEF731
:10272000C5F905462B4B1B6813F4807F06D1FEF7D5
:10273000BDF9401B0228F5D903231E46002E4BD1BC
:1027400006F1804303F50433D3F8903013F440735B
:1027500019D0D4F884209A4212D01D4AD2F8903071
:1027600023F44073D2F8901041F48031C2F89010F5
:10277000D2F8901021F48031C2F89010C2F8903055
:1027800013F0010F10D1002E40F02981104AD2F829
:10279000903023F44073D4F884100B43C2F8903087
:1027A0001BE000239846B5E7FEF780F90546084B85
:1027B000D3F8903013F0020FE5D1FEF777F9401B04
:1027C00041F288339842F2D903231E46DBE700BF6B
:1027D000001002400070004037464346002B40F096
:1027E0000081236813F0010F08D09D4AD2F8883089
:1027F00023F00303A16B0B43C2F88830236813F066
:10280000020F08D0964AD2F8883023F00C03E16B0F
:102810000B43C2F88830236813F0040F08D0904AA5
:10282000D2F8883023F03003216C0B43C2F8883093
:10283000236813F0080F08D0894AD2F8883023F0B3
:10284000C003616C0B43C2F88830236813F0100F8B
:1028500008D0834AD2F8883023F44073A16C0B432C
:10286000C2F88830236813F0200F08D07C4AD2F8D1
:10287000883023F44063E16C0B43C2F8883023684E
:1028800013F4007F08D0764AD2F8883023F440232E
:10289000E16D0B43C2F88830236813F4806F08D0D1
:1028A0006F4AD2F8883023F44013216E0B43C2F8EC
:1028B0008830236813F0400F08D0694AD2F8883076
:1028C00023F44053216D0B43C2F88830236813F082
:1028D000800F08D0624AD2F8883023F44043616DFB
:1028E0000B43C2F88830236813F4807F08D05C4A19
:1028F000D2F8883023F44033A16D0B43C2F88830FE
:10290000236813F4005F0FD0554AD2F8883023F0C3
:102910004063E16E0B43C2F88830E36EB3F1006FA1
:1029200065D0B3F1806F67D0236813F4002F0FD008
:102930004B4AD2F8883023F04063216F0B43C2F832
:102940008830236FB3F1006F5ED0B3F1806F60D039
:10295000236813F4802F0FD0414AD2F8883023F037
:102960004063616F0B43C2F88830636FB3F1006F4F
:1029700057D0B3F1806F59D0236813F4804F0FD034
:10298000374AD2F8883023F04053A16F0B43C2F886
:102990008830A36FB3F1805F50D0B3F1005F55D0A2
:1029A000236813F4004F08D02D4AD2F8883023F062
:1029B0008043E16F0B43C2F88830236813F4803FF3
:1029C00009D0274AD2F8883023F00043D4F8801089
:1029D0000B43C2F88830384602B0BDE8F081374674
:1029E000FBE61F4A936D23F080539365F9E6D368A5
:1029F00043F48013D36097E70121201DFFF786FC85
:102A0000002891D007468FE7D36843F48013D36042
:102A10009EE70121201DFFF779FC002898D007468A
:102A200096E7D36843F48013D360A5E70121201D06
:102A3000FFF76CFC00289FD007469DE70221201D70
:102A4000FFF764FC0028ABD00746A9E7022104F198
:102A50002000FFF71FFD0028A2D00746A0E700BF17
:102A60000010024008B5B0F5003F1AD0A54BDB6856
:102A700003F00303022B45D0032B4AD0012B4FD187
:102A8000A04B196811F002014BD01B6813F0080F1E
:102A900032D09C4B1B68C3F303139B4A52F823109C
:102AA0003FE0984BD3F8903003F44073B3F5007FC8
:102AB00010D0B3F5407F17D0B3F5807F40F030835E
:102AC000904BD3F8900010F0020000F02A834FF4EE
:102AD000004026E38B4BD3F8940010F0020000F086
:102AE00020834FF4FA401CE3864B186810F4003042
:102AF00000F01783854814E3824BD3F89430C3F376
:102B00000323CAE77F4B196811F4806109D080491B
:102B100007E07C4B196811F4003102D07D4900E0D8
:102B20000021B0F5807F00F0848257D8102800F093
:102B3000B98134D8042800F0718119D8012800F037
:102B40002981022812D16F4BD3F8883003F00C038F
:102B5000082B00F05B8100F24881002B00F05381CC
:102B6000042B40F04081FEF7EFFEDAE20020D8E2CD
:102B7000082812D1634BD3F8883003F0C003802BB0
:102B800000F0888100F27581002B00F08081402BDD
:102B900040F06D81FEF7D8FEC3E20020C1E240287C
:102BA00000F01082802800F02982202814D1554B93
:102BB000D3F8883003F44063B3F5006F00F0B281BE
:102BC00000F29E81002B00F0AA81B3F5806F40F0E7
:102BD0009581FEF7B9FEA4E20020A2E2B0F5805F85
:102BE00073D010D9B0F5004F00F0878233D9B0F51B
:102BF000803F4BD1434BD3F88830002BC0F2DB81B0
:102C0000FFF7E2FA8DE2B0F5806F00F04682B0F592
:102C1000006F55D0B0F5007F1BD13A4BD3F8883008
:102C200003F44023B3F5002F00F0308200F21D8240
:102C3000002B00F02882B3F5802F40F01482314B36
:102C4000D3F8940010F0020000F06B824FF4FA40C9
:102C500067E2002065E2B0F5005F1FD0B0F5804F5D
:102C600012D1284BD3F8883003F04053B3F1005F02
:102C700000F08281B3F1405F00F05C81B3F1805FCE
:102C800000F05B8100204CE200204AE2C0F04A8262
:102C9000B0F5802F02D0B0F5002F0FD1194BD3F82B
:102CA000883003F04063B3F1006F35D0B3F1406F6B
:102CB00010D0B3F1806F4ED0002032E2002030E21D
:102CC0004FF40060FFF792FA2BE24FF48050FFF7C9
:102CD0008DFA26E20B4B186810F0020000F02182FA
:102CE0001B6813F0080F07D0064B1B68C3F30313D0
:102CF000054A52F8230014E2024BD3F89430C3F390
:102D00000323F5E70010024064670008D8B8050007
:102D10000024F400001BB700A84B186810F00070E6
:102D200000F0FF81D86810F4801000F0FA811A4694
:102D3000DB68C3F3062303FB01F0D368C3F302137C
:102D40000133B0FBF3F0D368C3F3415301335B00AD
:102D5000B0FBF3F0E5E1994B186810F0006000F06B
:102D6000E081186910F4801000F0DB811A461B69BD
:102D7000C3F3062303FB01F0D368C3F3021301334B
:102D8000B0FBF3F01369C3F3415301335B00B0FBB5
:102D9000F3F0C6E1894BD3F8883003F00303022B2C
:102DA00019D007D8A3B1012B02D1FEF7CDFDB8E1B0
:102DB0000020B6E1032B09D1804BD3F8900010F02E
:102DC000020000F0AE814FF40040AAE10020A8E12B
:102DD000FFF7FAF9A5E1794B186810F4806000F06C
:102DE000A08177489DE100209BE10C2B09D1734B1A
:102DF000D3F8900010F0020000F093814FF40040EF
:102E00008FE100208DE1FFF7CDF98AE16B4B186867
:102E100010F4806000F08581694882E1674BD3F847
:102E2000883003F03003202B19D007D8A3B1102B22
:102E300002D1FEF789FD74E1002072E1302B09D147
:102E40005E4BD3F8900010F0020000F06A814FF45E
:102E5000004066E1002064E1FFF7A4F961E1574B0F
:102E6000186810F4806000F05C81554859E100203A
:102E700057E1C02B09D1514BD3F8900010F002005C
:102E800000F04F814FF400404BE1002049E1FFF793
:102E900089F946E1494B186810F4806000F04181DF
:102EA00047483EE1454BD3F8883003F44073B3F50F
:102EB000007F1BD008D8B3B1B3F5807F02D1FEF7F5
:102EC00043FD2EE100202CE1B3F5407F09D13B4BBF
:102ED000D3F8900010F0020000F023814FF400407E
:102EE0001FE100201DE1FFF75DF91AE1334B18687F
:102EF00010F4806000F01581314812E1002010E1EB
:102F0000B3F5406F09D12D4BD3F8900010F00200BB
:102F100000F007814FF4004003E1002001E1FFF7DA
:102F200041F9FEE0254B186810F4806000F0F9804C
:102F30002348F6E0FEF708FDF3E0204B186810F098
:102F4000006000F0EE80186910F0807000F0E980F9
:102F50001A461B69C3F3062303FB01F0D368C3F3CE
:102F600002130133B0FBF3F01369C3F34163013380
:102F70005B00B0FBF3F0D4E0104B186810F0005089
:102F800000F0CF80586910F0807000F0CA801846B9
:102F90005B69C3F3062301FB03F3C268C2F30212A9
:102FA0000132B3FBF2F34069C0F3416001304000ED
:102FB000B3FBF0F0B5E0FEF7C7FCB2E00010024052
:102FC0000024F4005B4BD3F8883003F44053B3F58E
:102FD000805F08D0B3F5005F08D0002B40F0A480DC
:102FE000FFF7E0F89DE0FEF7AFFC9AE0514B186860
:102FF00010F4806000F095804F4892E04D4BD3F87C
:10300000883003F44043B3F5804F08D0B3F5004F48
:1030100008D0002B40F08A80FFF7C4F881E0FEF76B
:1030200093FC7EE0434B186810F4806079D04248EE
:1030300077E0404BD3F8883003F44033B3F5803F5A
:1030400007D0B3F5003F07D0002B71D1FFF7AAF8E6
:1030500067E0FEF779FC64E0364B186810F4806096
:103060005FD035485DE000205BE0B3F5402F08D12C
:10307000304BD3F8900010F0020052D04FF40040D3
:103080004FE000204DE0FFF78DF84AE0294B18682B
:1030900010F4806045D0284843E0264BD3F88830B0
:1030A00003F44013B3F5001F20D00ED8DBB1B3F505
:1030B000801F08D11F4BD3F8940010F0020030D0CD
:1030C0004FF4FA402DE000202BE0B3F5401F08D16B
:1030D000184BD3F8900010F0020022D04FF40040BB
:1030E0001FE000201DE0FFF75DF81AE0114B1868A3
:1030F00010F4806015D0104813E00E4BD3F88830E0
:1031000013F0804302D023B918460AE0FFF74AF8CB
:1031100007E0084B186810F4806002D0064800E011
:10312000002008BD0020FCE70020FAE70020F8E7B7
:103130000020F6E7001002400024F40038B50446F1
:1031400003680A4ADA60FDF7B1FC05462368DB68CC
:1031500013F0200F07D1FDF7A9FC401BB0F57A7FD3
:10316000F4D9032000E0002038BD00BF5FFF03005A
:1031700070B50368DA6812F0400F02D000252846C7
:1031800070BD04464FF0FF32DA60FDF78FFC064653
:1031900000252368DB6813F0400FF0D1032DEED03B
:1031A000FDF784FC831BB3F57A7FF2D9032584F8FD
:1031B0002150EEE710B50446104BDA6822F0800289
:1031C000DA609B6813F0200F06D1FFF7B7FF98B1C4
:1031D000032084F821000FE0084A936823F02003BD
:1031E0009360FFF7ABFF10B1032084F82100034A7E
:1031F000936843F02003936010BD00BF0028004097
:1032000000284ED038B5044690F8213063B102232F
:1032100084F821302368DA6812F0100F09D00020FA
:10322000012384F8213038BD80F82030FEF7DEF924
:10323000EDE7CA225A62236853225A622046FFF7FA
:1032400097FFC0B92268936823F4E00323F040039A
:10325000936021688A68636820690343A069034317
:1032600013438B602368E2681A6122681369A168BE
:1032700043EA014313612046FFF79CFF58B92268D7
:10328000D36C23F00303D3642168CB6CE2696569D6
:103290002A431343CB642368FF225A620028C2D119
:1032A000BEE701207047002302E001330A38C0B2B4
:1032B0000928FAD81B01DBB21843704790F8203078
:1032C000012B61D070B504460D461646012380F8E7
:1032D0002030022380F821300368CA225A62036832
:1032E00053225A62FFF744FF002830D1002E39D113
:1032F00023689B6813F0400F01D10023EB702878FE
:10330000FFF7D1FF03041E466878FFF7CCFF46EABB
:1033100000231E46A878FFF7C6FF33460343EA782A
:1033200043EA8253226803F07F3323F0FE431360A5
:103330002268936823F48023936021688B68EA688D
:103340002869024313438B602046FFF733FF23684D
:10335000FF225A6210B9012384F82130002384F837
:10336000203070BD23689B6813F0400F01D100230B
:10337000EB702A786B781B0243EA0243AA78134366
:10338000EA7843EA8253CDE70220704790F8203074
:10339000012B4DD070B504460D46012380F8203036
:1033A000022380F82130F2B1CA784B781B0243EA3D
:1033B00002438A7813430A7843EA42352368CA22D3
:1033C0005A62236853225A622046FFF7D1FE28B37F
:1033D0002368FF225A6210B9012384F821300023A8
:1033E00084F8203070BD4B7813F0100F03D003F039
:1033F000EF030A334B70E878FFF755FF03041E46CE
:103400006878FFF750FF46EA00231E46A878FFF7CA
:103410004AFF30432B7840EA4335CFE7226825F056
:103420007F4323F0C00353602046FFF7C3FECFE77E
:10343000022070477047000010B504460A4B4FF455
:1034400080125A610368DA6812F4806F03D1012395
:1034500084F8213010BDDA68D2B262F49062DA608A
:10346000FFF7E8FFF3E700BF0004014070B582B04A
:10347000044600230193006801F0D2FD064610B116
:10348000304602B070BD206802F09AF838B90123C6
:10349000A364A36C012B0BD03046354615E0002306
:1034A000A364206801F0BCFD0028F2D00646E7E7DF
:1034B0000021206801F0ECFE0028EDD04FF0805391
:1034C0001E46DDE7019B01330193019A4FF6FE731F
:1034D0009A4213D895B92946206801F0D9FEE0B97F
:1034E0001349206801F0B4FF0546C0B901462068C1
:1034F00001F081FDC30FE5D01D46E3E7019A4FF6C9
:10350000FE739A420FD810F0804302D00123636407
:10351000B6E7002262641E46B2E70646B0E74FF007
:1035200080531E46ACE74FF080731E46A8E700BFED
:10353000000010C1F8B5846AC66AA6B9F8BD38683B
:1035400001F032FD2070C0F307236370C0F307431E
:10355000A370000EE0700434043E0135072DEED94F
:10356000BC62FE62EAE707460025F7E7F0B583B0E4
:10357000046A466ADEB903B0F0BD2378019362782D
:1035800043EA02230193A27843EA02430193E278DB
:1035900043EA026301930434043E01A9386801F050
:1035A00006FD0135072DE8D93C627E62E3E7074658
:1035B0000025F7E7F0B589B004460F46FDF776FA27
:1035C00006460023009301930821206801F0E6FDE0
:1035D000054610B1284609B0F0BD216D09042068E8
:1035E00001F056FE05460028F4D14FF0FF33029358
:1035F00008230393302304930223059306900123A9
:10360000079302A9206801F0F9FC206801F070FE20
:10361000054658B1DEE701F0C7FC4DF8250001353D
:10362000FDF744FA831BB3F1FF3F3FD02068436BA3
:1036300013F02A0F07D1436B13F4001FEBD1436B38
:1036400013F4005FECD1436B13F0080F25D1436BEB
:1036500013F0020F24D1456B15F0200523D140F261
:103660003A538363019A130203F47F0343EA02632C
:10367000110A01F47F410B4343EA12633B60009A55
:10368000130203F47F0343EA0263110A01F47F414A
:103690000B4343EA12637B609CE70825856399E747
:1036A0000225856396E72025856393E74FF0004563
:1036B00090E710B582B004460021009101910068A6
:1036C00001F099FC10F0007F13D169462046FFF706
:1036D00071FF80B9019B13F4802F0ED0216D090476
:1036E000206801F0D5FD30B90221206801F0E8FD25
:1036F00001E04FF4006002B010BD4FF08060FAE7C7
:1037000010B582B00446002100910191006801F0DB
:1037100072FC10F0007F13D169462046FFF74AFF84
:1037200080B9019B13F4803F0ED0216D09042068FD
:1037300001F0AEFD30B90146206801F0C1FD01E0A5
:103740004FF4006002B010BD4FF08060FAE770B532
:1037500081B104460D46016D0904006801F0E0FDE9
:10376000064608B1304670BD0146206801F043FCB2
:103770002860F7E74FF000631E46F3E72DE9F04FAE
:1037800087B005460C4616469B46DDF84080FDF79F
:103790008DF9002C35D0824695F834305FFA83F9E4
:1037A000012B40F001810023AB635B46F318EA6D07
:1037B00093422DD8032385F834302B680022DA6237
:1037C0006B6C012B00D076024FF0FF3300935F4605
:1037D0007B0201939023029302230393002304931B
:1037E000012305936946286801F008FC012F14D9CC
:1037F00002232B633146286801F000FDA0B9019F28
:1038000027E0AB6B43F00063AB634FF00109D1E0FD
:10381000AB6B43F00073AB63CCE001232B63314609
:10382000286801F0D3FCE9E72B68644A9A63AB6B24
:103830000343AB63012385F8343000232B63B9E0E5
:10384000FDF734F95346C01A40451FD2B8F1000FB6
:103850001CD02868466B16F4957626D1436B13F47A
:10386000004FEDD0002FEBD0072EE9D8286801F0EB
:103870009BFB2070C0F307236370C0F30743A37062
:10388000000EE0700434043F0136EDE72B684B4A2C
:103890009A63AB6B43F00043AB63012385F834308C
:1038A00000232B634FF0030984E0436B13F4807F04
:1038B00005D05B46012B02D96B6C032B36D12B68EC
:1038C0005A6B12F0080F42D15A6B12F0020F4AD114
:1038D0005A6B12F0200F52D12868436B13F4001F6B
:1038E00059D0002F57D001F05FFB2070C0F30723A1
:1038F0006370C0F30743A370000EE0700434043F0C
:10390000FDF7D4F85346C01A404502D2B8F1000F73
:10391000E2D12B68294A9A63AB6B43F00043AB6357
:10392000012385F8343000232B6343E001F07EFC53
:1039300003460028C3D02A6820499163AA6B134329
:10394000AB63012385F8343000232B6332E01B4A3C
:103950009A63AB6B43F00803AB63012385F8343003
:1039600000232B6326E0154A9A63AB6B43F00203F6
:10397000AB63012385F8343000232B631AE00F4A30
:103980009A63AB6B43F02003AB63012385F83430BB
:1039900000232B630EE040F23A538363012385F842
:1039A00034304FF0000905E0AB6B43F00053AB63DC
:1039B0004FF00109484607B0BDE8F08FFF05400011
:1039C000704700000346426E920F0A70426EC2F3C7
:1039D00083624A7090F8672002F003028A7090F8C0
:1039E0006620CA7090F865200A7190F864204A71C8
:1039F000826E120DCA80B0F86A2002F00F020A72BD
:103A0000826EC2F3C0324A72826EC2F380328A7210
:103A1000826EC2F34032CA72826EC2F300320A73FF
:103A200000224A73426C002A40F08680806E40F685
:103A3000FC7202EA8002D86E42EA90720A61DA6E83
:103A4000C2F3C2620A7593F86F2002F007024A754A
:103A5000DA6EC2F342528A75DA6EC2F38242CA75D6
:103A6000DA6EC2F3C2320A760A6901325A65087EFA
:103A700000F00700023082405A6591F808C00CF04F
:103A80000F0C012000FA0CF09865400A00FB02F2CE
:103A9000DA654FF400721A66DA6EC2F380324A7643
:103AA000DA6EC2F3C6128A76DA6E02F07F02CA7646
:103AB0001A6FD20F0A771A6FC2F341724A771A6FE0
:103AC000C2F382628A771A6FC2F38352CA771A6F7F
:103AD000C2F3405281F82020002081F82100B3F881
:103AE000722002F0010281F822201A6FC2F3C03264
:103AF00081F823201A6FC2F3803281F824201A6FD4
:103B0000C2F3403281F825201A6FC2F3003281F8E7
:103B100026201A6FC2F3812281F827201A6FC2F380
:103B2000012281F828201B6FC3F3460381F8293056
:103B3000012381F82A307047012A11D1826E1204C4
:103B400002F47C12B0F86E0002430A610A69013285
:103B500092025A65DA654FF400729A651A669BE71D
:103B6000026805499163826B42F0805282630120B2
:103B700083F83400704700BFFF05400010B58CB0DB
:103B800004460123ADF80230006801F01DFA002858
:103B900059D0636C032B34D1636C032B4BD1636C12
:103BA000032B1CD0BDF8021021650904206801F028
:103BB00012FC002849D10146206801F01CFA606619
:103BC0000421206801F017FAA0660821206801F09E
:103BD00012FAE0660C21206801F00DFA206704213A
:103BE000206801F008FA000DE06401A92046FFF703
:103BF000E9FE60BB226D12040346206801F030FB31
:103C000023E0206801F0D2FBF8B90146206801F0FA
:103C1000F2F960670421206801F0EDF9A06708213E
:103C2000206801F0E8F9E0670C21206801F0E3F971
:103C3000C4F88000B0E70DF10201206801F074FCC7
:103C40000028ACD001E04FF080600CB010BD4FF008
:103C50008050FAE770B58AB00446002304930593B8
:103C60000693079308934FF40020FEF7FBFE38B944
:103C7000012084F834004FF00063A3630AB070BDE4
:103C80000546C309274AA2FB03231E09B31E099355
:103C90000AAB13E907008DE8070004AB0ECB2068E0
:103CA00001F068F90128E9D02268536823F4807391
:103CB0005360206801F080F92268536843F48073F0
:103CC0005360B5FBF6F31848B0FBF3F00130FCF796
:103CD000F3FE2046FFF7CAFB024630B1012084F80C
:103CE0003400A36B1343A363C8E72046FFF746FFE6
:103CF000024630B1012084F83400A36B1343A36360
:103D0000BCE74FF40071206801F048FA0028B5D0F4
:103D1000236806499963A36B0343A363012084F8D6
:103D20003400ABE7598B4F0110210100FF05400023
:103D300030B58BB004460D46032380F83430436C15
:103D4000032B1CD0B1F5805F08D0B1F5006F0AD00D
:103D500079B1836B43F00063836314E0836B43F0BA
:103D6000805383630FE0FFF7A4FCA36B0343A363BB
:103D700009E0FFF7C5FCA36B0343A36303E0836B78
:103D800043F080538363A36BD3B12368254A9A63BE
:103D9000012384F834301D464FF40071206801F08F
:103DA000FDF938B123681F499963A36B0343A363EB
:103DB00001231D46012384F8343028460BB030BD62
:103DC0004FF40020FEF74EFE034620B362680492D3
:103DD000A2680592E2680692079562690892A16955
:103DE0008A1CB0FBF2F21048824212D90F4AA2FBA1
:103DF0000323DB0D023B09930AAB13E907008DE8AF
:103E0000070004AB0ECB206801F0B4F800231D4678
:103E1000C2E70991F0E7A36B43F00063A3630123BA
:103E20001D46B9E7FF05400040787D01893BE65516
:103E300018B310B5044690F8343043B1032384F826
:103E400034302046FFF706FF28B1012010BD03776C
:103E5000FDF7FCFBF2E721692046FFF769FF08B197
:103E60000120F3E721692046FFF762FF38B9A0631C
:103E70002063012384F83430E8E7012070470120F3
:103E8000E4E710B582B004460023019301A9FFF7CF
:103E90005EFC10B1A36B0343A3630198C0F34320FE
:103EA00002B010BD10B5846A236840F23A529A639A
:103EB0002046FFF7E6FF012384F834300023236314
:103EC0000538012805D9A36B53B92046FFF778FDC3
:103ED00010BD206801F0AAF9A36B0343A363F2E7C6
:103EE0002046FCF705FAF3E710B5846A236840F230
:103EF0003A529A632046FFF7C4FF012384F8343016
:103F0000002323630538012805D9A36B53B9204644
:103F1000FFF756FD10BD206801F088F9A36B03433D
:103F2000A363F2E72046FCF7E3F9F3E770B5044634
:103F3000056B03685A6B12F4004F02D015F0080F9E
:103F400032D15A6B12F4807F61D04FF480729A6341
:103F50002268D36B23F4414323F03A03D3632268EE
:103F6000D36A23F00103D36215F0080F2AD015F0AD
:103F700002031E4602D115F0200F04D0206801F084
:103F800055F9034698B9236840F23A529A630123DF
:103F900084F834300023236315F0010F00D16EB193
:103FA0002046FCF79FF901E0FFF7C4FA70BDA26B51
:103FB0001343A3632046FCF79BF9E4E72046FCF794
:103FC0008BF9F3E715F0800FF0D015F0200F11D129
:103FD00015F0010FEAD115F0020FE7D12268D36A7C
:103FE00023F00803D362012384F834302046FCF721
:103FF00073F9DBE7206801F019F903460028E7D0E0
:10400000A26B1343A3632046FCF772F9E0E75A6BF7
:1040100012F4804F02D015F0080F49D15A6B12F0FC
:104020003A0FC3D05A6B12F0020F03D0A26B42F0CA
:104030000202A2635A6B12F0080F03D0A26B42F087
:104040000802A2635A6B12F0200F03D0A26B42F059
:104050002002A2635A6B12F0100F03D0A26B42F041
:104060001002A26340F23A529A632268D36B23F49F
:104070009D73D363206801F0D9F8A36B0343A36356
:1040800015F0080F18D115F0800F8FD015F0100F14
:1040900002D115F0200F18D0E36B1A4A9A63E06B37
:1040A000FCF7BAFE002881D0E06BFFF7FBFE7DE74E
:1040B0002046FFF75BFA79E7012384F834300023C8
:1040C00023632046FCF714F970E715F0010F02D1C5
:1040D00015F0020F0CD0236C0B4A9A63206CFCF78E
:1040E0009BFE00283FF462AF206CFFF7FDFE5DE70A
:1040F0000023A363012284F8342023632046FFF7C2
:104100005FFC53E7A53E0008E93E000800286AD09E
:1041100010B50446436A33B94368B3F5827F05D0CE
:104120000023C36102E00023036143610023A36213
:1041300094F85D30002B4DD0022384F85D30226866
:10414000136823F040031360E368B3F5E06F47D9C9
:104150000022B3F5706F04D0B3F5E06F01D00023F7
:10416000A362636803F48273A16801F404410B4302
:10417000216901F002010B43616901F001010B4368
:10418000A16901F400710B43E16901F038010B43AF
:10419000216A01F080010B43A16A01F400512068FB
:1041A0000B430360638B03F00403616A01F01001A9
:1041B0000B43616B01F008010B43E16801F470618E
:1041C0000B43216813434B6000202066012384F8D1
:1041D0005D3010BD84F85C302046FDF7EBFAABE7AC
:1041E0004FF48052B5E701207047026852E8003F63
:1041F00023F0C00342E800310029F6D12023C36731
:104200007047026852E8003F23F4907342E800319F
:104210000029F6D1026802F1080353E8003F23F0B9
:104220000103083242E800310029F3D1036E012B6B
:1042300006D02023C0F880300023036683667047D1
:10424000026852E8003F23F0100342E800310029E1
:10425000F6D1EEE7704708B5026852E8003F23F058
:10426000400342E800310029F6D12023C367C1662C
:10427000FFF7F0FF08BD70477047704738B5846A94
:10428000E26FD4F880301D4623689B6813F0800FDE
:1042900001D0212A10D023689B6813F0400F01D071
:1042A000222D0DD0D4F8843043F01003C4F88430AC
:1042B0002046FFF7E2FF38BD2046FFF796FFEAE70A
:1042C0002046FFF79EFFEDE708B5806AFFF7D5FFB0
:1042D00008BD000010B504460268D36911689068F3
:1042E00040F60F0C13EA0C0F0AD113F0200F0FD079
:1042F00011F0200F0CD0A36E2BB32046984722E07C
:1043000010F0010C20D1DFF8E0E211EA0E0F1BD112
:10431000D4F860C0BCF1010F00F0AB8013F4801F33
:1043200003D010F4800F40F04B8113F0800F03D0C6
:1043300011F0800F40F04B8113F0400F03D011F0CB
:10434000400F40F04B8110BD13F0010F09D011F464
:10435000807F06D001201062D4F884200243C4F884
:10436000842013F0020F0BD0BCF1000F08D022689C
:1043700002201062D4F8842042F00402C4F88420A1
:1043800013F0040F0BD0BCF1000F08D022680420FA
:104390001062D4F8842042F00202C4F8842013F0A2
:1043A000080F0DD011F0200F02D1BCF1000F07D083
:1043B000226808201062D4F884200243C4F88420C4
:1043C00013F4006F0CD011F0806F09D022684FF405
:1043D00000601062D4F8842042F02002C4F88420E7
:1043E000D4F88420002AAED013F0200F06D011F0AC
:1043F000200F03D0A36E0BB120469847D4F8842039
:1044000023689B6813F0400F02D112F0280F29D0C7
:104410002046FFF7F6FE23689B6813F0400F1DD07F
:10442000226802F1080353E8003F23F040030832FA
:1044300042E800310029F3D1636F5BB1694A9A63A6
:10444000606FFCF7E9FC00283FF47DAF606F836B81
:10445000984778E72046FFF710FF74E72046FFF7FC
:104460000CFF70E72046FFF708FF0023C4F88430F4
:1044700069E713F0100F3FF451AF11F0100F3FF444
:104480004DAF1023136223689B6813F0400F5ED07A
:10449000616F0A6853689BB2002B48D0B4F858008B
:1044A000984244D9A4F85A300B681B6813F0200FC7
:1044B00030D1226852E8003F23F4807342E8003193
:1044C0000029F6D1226802F1080353E8003F23F0E7
:1044D0000103083242E800310029F3D1226802F1D9
:1044E000080353E8003F23F04003083242E800315C
:1044F0000029F3D12023C4F880302166226852E8D5
:10450000003F23F0100342E800310029F6D1606F2C
:10451000FCF75BFC02236366B4F85810B4F85A3019
:104520009BB2C91A89B22046FCF746F80BE7B4F8EB
:10453000581099427FF407AF136813F0200F3FF42F
:1045400002AF022363662046FCF736F8FBE6B4F8B8
:104550005810B4F85A309BB2C91A89B2B4F85A301C
:104560009BB2002B3FF4EFAE00293FF4ECAE226883
:1045700052E8003F23F4907342E800300028F6D15F
:10458000226802F1080353E8003F23F001030832D8
:1045900042E800300028F3D12023C4F880302066A0
:1045A000A066226852E8003F23F0100342E8003082
:1045B0000028F6D1022363662046FBF7FDFFC2E622
:1045C0004FF480131362204600F01CFCBBE6E36E40
:1045D000002B3FF4B8AE20469847B4E62046FFF7DC
:1045E0003AFEB0E6C94200082001000408B50346BF
:1045F000806A01224266026E012A13D1B0F8581077
:104600004A08A0F85A201B685B689BB2994201D304
:10461000A0F85A30B0F85A309BB2C91A89B2FBF7E9
:10462000CBFF08BDFFF728FEFBE708B58446806A8C
:10463000DCF800301B6813F0200F26D1026852E826
:10464000003F23F4807342E800310029F6D102686C
:1046500002F1080353E8003F23F00103083242E867
:1046600000310029F3D1026802F1080353E8003F4A
:1046700023F04003083242E800310029F3D120231F
:10468000C0F88030036E012B16D000234366036E02
:10469000012B1BD1DCF800305B689BB2B0F85810DE
:1046A000994201D9A0F85A30B0F85A309BB2C91AD1
:1046B00089B2FBF781FF08BD026852E8003F23F092
:1046C000100342E800310029F6D1DEE7FFF7D3FD01
:1046D000F1E7000010B5044683680269134342699C
:1046E0001343C269134301680868914A02401A43A0
:1046F0000A602268536823F44053E1680B43536017
:10470000A16922688B4B9A4201D0236A19439368AE
:1047100023F430630B4393602368874A934226D087
:10472000864A934236D0864A934246D0854A93427F
:1047300056D0854A934266D07E4A934279D0102261
:104740007C498B4200F0B080E069B0F5004F00F08A
:10475000DE80022A00F03F8140F21A81042A00F034
:104760003781082A40F01C814FF400401DE102F51A
:104770005842D2F8882002F00302022A70D005D8ED
:10478000002A6FD0012A6FD10422D9E7032A6DD104
:104790000822D5E702F5E632D2F8882002F00C02B2
:1047A000082A65D005D8002ACAD0042AC8D0102209
:1047B000C6E70C2A5ED10822C2E702F5E432D2F83D
:1047C000882002F03002202A56D005D8002AB7D01F
:1047D000102A53D10422B3E7302A51D10822AFE77F
:1047E00002F5E232D2F8882002F0C002802A49D0D5
:1047F00005D8002AA4D0402A46D10422A0E7C02A26
:1048000044D108229CE702F5E032D2F8882002F475
:104810004072B2F5007F3BD006D8002A90D0B2F5A6
:10482000807F37D104228BE7B2F5407F34D1082254
:1048300086E702F5C832D2F8882002F44062B2F569
:10484000006F2BD007D8002A3FF47AAFB2F5806F03
:1048500026D1042274E7B2F5406F23D108226FE716
:1048600002226DE701226BE7102269E7102267E759
:10487000022265E7102263E7022261E710225FE768
:1048800010225DE702225BE7102259E7102257E76A
:10489000022255E7102253E7102251E702224FE788
:1048A00010224DE710224BE7042A2DD006D862B122
:1048B000022A01D125480CE0012085E0082A02D116
:1048C0004FF4004005E001207EE0FDF76BFC00287E
:1048D0007AD0626802EB420383427ED8B0EB023F9B
:1048E0007DD8010E00025308C0184FF0000341F1BB
:1048F0000001FBF7A5FCA0F54072154B9A4270D859
:104900002368D86000205FE0FDF71EF8DFE7022A89
:104910003CD005D9042A36D0082A1ED0012053E005
:10492000C2B1012A02D1FDF74FFC15E001204BE096
:10493000F369FFEF00800040003801400044004070
:1049400000480040004C0040005000400024F400AB
:10495000FFFC0F00FDF726FCB0B36268530803EBC1
:104960004003B3FBF2F3A3F110014FF6EF72914253
:1049700039D89AB222F00F02C3F3420313432268DC
:10498000D360002020E0FCF7DFFFE5E71848E4E70C
:1049900042B1012A02D1FDF717FC05E0012013E026
:1049A000012011E0FDF7FEFB70B1636800EB5300DE
:1049B000B0FBF3F0A0F110024FF6EF739A4214D857
:1049C000236880B2D86000200023A366E36610BD90
:1049D000FCF7BAFFE8E70648E7E70120F4E7012023
:1049E000F2E70120F0E70120EEE70120ECE700BF4D
:1049F0000024F400436A13F0080F06D002685368DD
:104A000023F40043416B0B435360436A13F0010FDF
:104A100006D00268536823F40033816A0B43536065
:104A2000436A13F0020F06D00268536823F4803300
:104A3000C16A0B435360436A13F0040F06D0026847
:104A4000536823F48023016B0B435360436A13F0D4
:104A5000100F06D00268936823F48053816B0B43D8
:104A60009360436A13F0200F06D00268936823F422
:104A70000053C16B0B439360436A13F0400F0AD09D
:104A80000268536823F48013016C0B435360036C7A
:104A9000B3F5801F0BD0436A13F0800F06D0026875
:104AA000536823F40023816C0B4353607047026802
:104AB000536823F4C003416C0B435360EBE72DE9CB
:104AC000F04104460D4616469846069F2368DB696A
:104AD00035EA03030CBF4FF0010C4FF0000CB44556
:104AE00034D1B7F1FF3FF1D0FBF7E0FF4346C01AE6
:104AF000B8422ED87FB323681A6812F0040FE5D0AD
:104B0000802DE3D0402DE1D0DA6912F0080F11D1E9
:104B1000DA6912F4006FD9D04FF400621A622046AD
:104B2000FFF76FFB2023C4F88430002384F878302B
:104B300003200CE008251D622046FFF762FBC4F845
:104B40008450002384F87830012000E00020BDE884
:104B5000F0810320FBE70320F9E72DE9F04184B061
:104B60001E46C36F202B5ED104460D4600295ED041
:104B700003920AB9012057E00023C0F884302123B2
:104B8000C367FBF793FF0746039BA4F85030A4F8D4
:104B90005230A368B3F5805F02D0002398461CE032
:104BA000236973B30023984617E02023E3670320AB
:104BB0003AE0424632F8023B90462268C3F30803CB
:104BC0009362E36F03F02103212B32D1B4F852201A
:104BD00092B2013A92B2A4F85220B4F852309BB289
:104BE00093B100963B46002280212046FFF767FFE5
:104BF0000028DAD1002DDCD015F8012B23689A6249
:104C0000DFE7A8461D46E8E700963B460022402124
:104C10002046FFF754FF10B92023E36704E0202368
:104C2000E367032000E0022004B0BDE8F08101202A
:104C3000FAE70120F8E730B583B004460023C0F856
:104C40008430FBF733FF05462268126812F0080F24
:104C50000FD123681B6813F0040F25D12023E367CD
:104C6000C4F8803000202066606684F8780003B0C5
:104C700030BD6FF07E430093034600224FF40011D5
:104C80002046FFF71CFF0028E3D0226852E8003FCF
:104C900023F0800342E800310029F6D12023E367A6
:104CA00084F878100320E2E76FF07E4300932B46F0
:104CB00000224FF480012046FFF701FF0028CDD0ED
:104CC000226852E8003F23F4907342E80031002943
:104CD000F6D1226802F1080353E8003F23F00103F4
:104CE000083242E800310029F3D12023C4F8803093
:104CF00084F878100320BAE768B310B50446C36F90
:104D000003B32423E3672268136823F001031360CD
:104D1000636AE3B92046FFF7DDFC012811D0226861
:104D2000536823F4904353602268936823F02A0366
:104D300093602268136843F0010313602046FFF775
:104D40007AFF10BD80F87830FCF752FBD9E7204697
:104D5000FFF750FEDEE701207047000010B5044663
:104D600013464165A0F858200022C0F88420222272
:104D7000C0F88020426F8AB11F49D162426F1F493B
:104D80001163426F1E495163426F002191630168B4
:104D9000426D2431406FFBF7D9FF20BB236943B13B
:104DA000226852E8003F43F4807342E80031002952
:104DB000F6D1226802F1080353E8003F43F00103F3
:104DC000083242E800310029F3D1226802F10803D9
:104DD00053E8003F43F04003083242E80031002925
:104DE000F3D1084610BD1023C4F884302023C4F842
:104DF00080300120F6E700BF2B460008ED45000893
:104E00007D4200087047D0F88030202B1FD110B5AC
:104E10000446F1B10AB9012010BD01230366002345
:104E20004366FFF79BFF0028F6D1236E012B01D0CC
:104E30000120F1E7236810221A62226852E8003F3D
:104E400043F0100342E800310029F6D1E4E70220E4
:104E500070470120E0E7406E7047FEE710B5A4B050
:104E60000C4AD36A916A506B926B04AC0292019027
:104E70000091094A8021204600F08CFC2046FBF777
:104E800087F94FF47A7382B221460448FFF765FE32
:104E9000FEE700BF00ED00E00C670008440C0020B6
:104EA000FEE7FEE7FEE770477047704708B5FBF77F
:104EB000F1FD08BD08B5034B01221A700248FEF748
:104EC000BBFA08BD5A0A0020D80B0020704700002A
:104ED00008B50248FBF7C8FF08BD00BFFC0B002067
:104EE00008B50248FFF7F6F908BD00BF540D0020D1
:104EF00008B5044B02221A704FF40060FCF746F923
:104F000008BD00BF5A0A002008B50248FFF70EF896
:104F100008BD00BF540B002008B50248FBF7A4FFF2
:104F200008BD00BF0C0B002008B50248FBF79CFF32
:104F300008BD00BFC40A00200C4B1B680C4AA2FB32
:104F400003235B0A41F2883202FB03F3013BB3F116
:104F5000FF3F07D0426B12F0800FF7D0C523836369
:104F6000002070474FF00040704700BF080000204D
:104F7000D34D621084B00DF1040C8CE80E000B468A
:104F8000039A1343049A1343059A1343069A13434F
:104F9000029A1A43436823F4FD4323F07F0313432B
:104FA0004360002004B07047D0F8800070470B6861
:104FB000C0F880300020704708B50323036002204A
:104FC000FBF77AFD002008BD006800F00300704781
:104FD0000B6883604B688A681343CA6813430A6985
:104FE0001343C2686FF30B021343C3600020704782
:104FF0000069C0B270471430405870470B68436274
:105000004B6883628B68CA6813430A6913434A6911
:105010001343C26A22F0F7021343C36200207047B1
:1050200010B586B0044600230193029303930493C2
:105030004FF48063059301A9FFF7CAFF2046FFF7ED
:105040007BFF06B010BD000038B504460D46504B3E
:105050001B685049A1FB03135B0A03FB02F2013AF0
:10506000B2F1FF3F5DD0636B13F0450FF7D013F43F
:10507000006FF4D1636B13F0040F06D1606B10F076
:10508000010005D00123A3634DE00420A0634AE0A2
:10509000C523A3632046FFF7ABFFA84201D0012040
:1050A00041E000212046FFF7A6FF03463A4818409A
:1050B000C8B3002B38DB13F0804F38D113F0005FFA
:1050C00037D113F0805F36D113F0006F36D113F073
:1050D000806F36D113F0807F36D113F4000F36D1B4
:1050E00013F4800F36D113F4001F36D113F4801F50
:1050F00036D113F4802F36D113F4003F36D113F498
:10510000803F36D113F4004F36D113F4804F36D19F
:1051100013F4005F36D113F0080F36D04FF40000BF
:1051200001E04FF0004038BD4FF00070FBE7402039
:10513000F9E78020F7E74FF48070F4E74FF4007050
:10514000F1E74FF48060EEE74FF40060EBE74FF4D7
:105150008050E8E74FF40050E5E74FF48040E2E785
:105160004FF40040DFE74FF40030DCE74FF48020DD
:10517000D9E74FF40020D6E74FF48010D3E74FF47F
:105180000010D0E74FF48000CDE74FF48030CAE73D
:1051900008000020D34D621008E0FFFD30B587B055
:1051A00005460191102402944023039300230493A5
:1051B0004FF48063059301A9FFF70AFF41F288329B
:1051C00021462846FFF740FF07B030BD30B587B015
:1051D0000546019111240294402303930023049374
:1051E0004FF48063059301A9FFF7F2FE41F2883284
:1051F00021462846FFF728FF07B030BD30B587B0FD
:105200000546019112240294402303930023049342
:105210004FF48063059301A9FFF7DAFE41F288326B
:1052200021462846FFF710FF07B030BD30B587B0E4
:105230000546002301930C24029440220392049318
:105240004FF48063059301A9FFF7C2FE034A21468C
:105250002846FFF7F9FE07B030BD00BF00E1F505B5
:1052600030B587B00546019207240294402303938A
:10527000002304934FF48063059301A9FFF7A8FE70
:1052800041F2883221462846FFF7DEFE07B030BDE6
:1052900030B587B00546019137240294402303932B
:1052A000002304934FF48063059301A9FFF790FE58
:1052B00041F2883221462846FFF7C6FE07B030BDCE
:1052C00030B587B00546019106240294402303932C
:1052D000002304934FF48063059301A9FFF778FE40
:1052E00041F2883221462846FFF7AEFE07B030BDB6
:1052F00030B587B005460023019333240294402241
:10530000039204934FF48063059301A9FFF760FEB5
:1053100041F2883221462846FFF796FE07B030BD9D
:1053200030B587B0054601910D24029440230393C4
:10533000002304934FF48063059301A9FFF748FE0F
:1053400041F2883221462846FFF77EFE07B030BD85
:105350000146144B1B68144AA2FB03235B0A41F26B
:10536000883202FB03F3013BB3F1FF3F17D04A6BD6
:1053700012F0450FF7D012F4006FF4D14B6B13F01D
:10538000040F06D1486B10F0010005D1C5238B63D3
:10539000704704208863704701238B6370474FF088
:1053A0000040704708000020D34D621010B586B051
:1053B00004460023019302220292C0220392049326
:1053C0004FF48063059301A9FFF702FE2046FFF723
:1053D000BFFF06B010BD10B586B004460191092389
:1053E0000293C0230393002304934FF48063059337
:1053F00001A9FFF7EDFD2046FFF7AAFF06B010BD9B
:105400000146114B1B68114AA2FB03235B0A41F2C0
:10541000883202FB03F3013BB3F1FF3F10D04A6B2C
:1054200012F0450FF7D012F4006FF4D1486B10F072
:10543000040002D1C5238B63704704208863704742
:105440004FF00040704700BF08000020D34D6210AD
:1054500010B586B0044641F0004141F4801101913D
:105460002923029340230393002304934FF4806382
:10547000059301A9FFF7ACFD2046FFF7C1FF06B079
:1054800010BD000070B504460D461646244B1B683F
:10549000244AA2FB03235B0A41F2883202FB03F396
:1054A000013BB3F1FF3F31D0626B12F0450FF7D0F3
:1054B00012F4006FF4D1636B13F0040F06D1606B2C
:1054C00010F0010005D00123A36321E00420A063B4
:1054D0001EE02046FFF78CFDA84201D0012017E016
:1054E000C523A36300212046FFF785FD034610F482
:1054F000604008D013F4804F0BD113F4004F0BD051
:105500004FF4805004E01B0C338001E04FF000406A
:1055100070BD4FF40050FBE74FF48030F8E700BF58
:1055200008000020D34D621070B586B006460D46C7
:1055300000230193032402944022039204934FF426
:105540008063059301A9FFF743FD2A4621463046B3
:10555000FFF798FF06B070BD0146174B1B68174A4E
:10556000A2FB03235B0A41F2883202FB03F3013BF7
:10557000B3F1FF3F1BD04A6B12F0450FF7D012F486
:10558000006FF4D14B6B13F0040F0AD1486B10F08D
:10559000010009D14B6B13F040030BD040238B6308
:1055A000704704208863704701238B6370474FF076
:1055B000004070471846704708000020D34D621025
:1055C00010B586B004464FF4D573019308230293B7
:1055D00040230393002304934FF48063059301A9B0
:1055E000FFF7F6FC2046FFF7B7FF06B010BD00003E
:1055F00008B503460D4A0E490E48006840B10D48F3
:1056000000680344521A934208D80A4A136008BD3E
:105610000848DFF824C0C0F800C0F0E700F02CF91B
:105620000C2303604FF0FF30F1E700BF0080012042
:1056300000040000BC36002008380020034AD2F8DD
:10564000883043F47003C2F88830704700ED00E002
:10565000DFF834D0FFF7F2FF0C480D490D4A002364
:1056600002E0D458C4500433C4188C42F9D30A4A17
:105670000A4C002301E013600432A242FBD300F085
:1056800001F9FBF747F9FEE7008001200000002048
:1056900060000020F8680008600000200838002042
:1056A000FEE700002DE9F043344E86460D462846BD
:1056B00015F8014B375D17F00807F8D12D2C10D1E4
:1056C0002C780127851C33F0100015D1302C0DD11A
:1056D000287800F0DF00582808D16C7802351023B4
:1056E0000AE02B2C04BF2C78851CECE7002BF6D1AC
:1056F000302C14BF0A2308234FF0FF380026B8FBD4
:10570000F3F803FB08F96FEA09093046A4F1300CFD
:10571000BCF1090F10D86446A3421EDDB6F1FF3F6D
:1057200007D0804516D301D1A14513DB00FB034010
:10573000012615F8014BE9E7A4F1410CBCF1190F62
:1057400001D8373CE8E7A4F1610CBCF1190F04D88B
:10575000573CE1E74FF0FF36EBE7731C06D12223FD
:10576000CEF80030304632B9BDE8F08307B1404290
:10577000002AF9D006B1691E1160F5E7AD6700088F
:1057800013460A46014602480068FFF78BBF00BF78
:105790000C0000200CB430B5154B0C1E1D689DB0DC
:1057A00008DA8B232B604FF0FF301DB0BDE830408E
:1057B00002B070474FF000031B9318BF0123E31A98
:1057C000049307930B4B029006900593209A21AB0C
:1057D00002A92846019300F0DFF9431CBCBF8B23CC
:1057E0002B60002CE1D0029B00221A70DDE700BF85
:1057F0000C0000200802FFFF0EB410B59DB01FABD7
:10580000029006906FF000410A48079104910A49FE
:1058100053F8042B0591002402A9006801931B94FE
:1058200000F0BAF9029B1C701DB0BDE8104003B037
:10583000704700BF0C0000200802FFFF024403462F
:10584000934200D1704703F8011BF9E70A7870B55D
:105850006AB970BD9A4209D10C46054614F8013F59
:10586000002BF6D015F8016F9E42F7D00130037877
:10587000002BEFD11846ECE7014B1868704700BFCA
:105880000C00002070B50D4B0D4C00261D1BB6EB17
:10589000A50F09D100F008FE0A4C0B4B00261D1B7A
:1058A000B6EBA50F05D170BD54F8043B98470136FF
:1058B000EDE754F8043B98470136F1E7E868000843
:1058C000E8680008E8680008EC680008704770475E
:1058D0000A44914200F1FF3300D1704710B511F82E
:1058E000014B03F8014F9142F9D110BD37B50029A2
:1058F00044D051F8043C0190002BA1F10404B8BF3E
:10590000E41800F0DDF81E4A0198136833B96360AB
:10591000146003B0BDE8304000F0D8B8A34208D905
:10592000256861198B4201BF19685B6849192160BC
:10593000EDE71A465B680BB1A342FAD91168551816
:10594000A5420BD1246821445418A3421160E0D130
:105950001C685B6853600C441460DAE702D90C23BE
:105960000360D6E7256861198B4204BF19685B683C
:10597000636004BF491921605460CAE703B030BDB9
:105980000438002070B50F4C0E462168054611B949
:1059900000F0B4FB20603146284600F0AFFB431C0A
:1059A00003D14FF0FF34204670BDC41C24F0030423
:1059B000A042F8D0211A284600F0A0FB0130F2D115
:1059C000EFE700BF003800202DE9F843CD1C25F09B
:1059D000030508350C2D38BF0C25002D064601DBCC
:1059E000A94204D90C2333600020BDE8F883334F6B
:1059F00000F066F83B681C463CBB29463046FFF782
:105A0000C1FF431C044656D13C68A046B8F1000FC4
:105A100040D1002C49D023684146304604EB0309AD
:105A200000F06CFB814540D121686D1A2946304653
:105A3000FFF7A8FF013038D023682B4423603B6870
:105A40005A685ABBC7F800800EE02268521B1ED469
:105A50000B2A16D96119A342256018BF59606368E3
:105A600008BF396062514B60304600F02FF804F1F6
:105A70000B00231D20F00700C21A1CBF1B1AA350E5
:105A8000B3E76268A3420CBF3A605A60ECE7234672
:105A90006468B1E74446D8F80480B7E71A465B6803
:105AA000A342FBD100235360DEE70C233360304672
:105AB00000F00CF898E70560D6E700BF0438002036
:105AC0000148FFF703BF00BFFC3700200148FFF784
:105AD000FEBE00BFFC3700202DE9F0478E681F4650
