:020000040800F2
:1000000000800120717F0008CF770008D1770008B9
:10001000D3770008D5770008D777000800000000E4
:10002000000000000000000000000000D977000878
:10003000DB77000800000000DD770008DF770008AC
:10004000C17F0008C17F0008C17F0008C17F000890
:10005000C17F0008C17F0008C17F0008C17F000880
:10006000C17F0008C17F0008C17F0008C17F000870
:10007000C17F0008C17F0008C17F0008C17F000860
:10008000C17F0008C17F0008C17F0008C17F000850
:10009000C17F0008C17F0008C17F0008C17F000840
:1000A000C17F0008C17F0008C17F0008C17F000830
:1000B000C17F0008C17F0008C17F0008C17F000820
:1000C000C17F0008C17F0008C17F0008C17F000810
:1000D000C17F0008C17F0008C17F0008C17F000800
:1000E000C17F0008C17F0008C17F0008C17F0008F0
:1000F000C17F0008C17F0008C17F0008C17F0008E0
:10010000C17F0008E9770008C17F0008C17F0008AF
:10011000C17F0008C17F0008C17F0008C17F0008BF
:10012000C17F0008C17F0008C17F0008C17F0008AF
:10013000C17F0008C17F0008C17F0008C17F00089F
:10014000C17F0008C17F0008C17F0008C17F00088F
:10015000C17F0008C17F0008C17F0008C17F00087F
:10016000C17F0008C17F0008C17F0008C17F00086F
:10017000C17F0008C17F0008C17F000800000000A7
:08018000C17F0008C17F0008E7
:1001900001F0FF01102A2BDB10F0070F08D010F838
:1001A000013B013A8B422DD010F0070F42B3F6D13C
:1001B000F0B441EA012141EA014122F007047FF055
:1001C00000070023F0E80256083C85EA010586EAAC
:1001D000010685FA47F5A3FA87F586FA47F6A5FAE8
:1001E00087F68EB9EED1F0BC01F0FF0102F00702F4
:1001F00032B110F8013B013A83EA010313B1F8D19F
:100200000020704701387047002D06BF354603387F
:10021000073815F0010F07D1013015F4807F02BFB8
:10022000013015F4C03F0130F0BC0138704700BF09
:1002300053B94AB9002908BF00281CBF4FF0FF314D
:100240004FF0FF3000F00CB8ADF1080C6DE904CEB2
:1002500008F06AFBDDF804E0DDE9022304B0704732
:10026000704700BF08B5064B1A783AB9054A1AB16B
:100270000548AFF30080024B01221A7008BD00BF91
:100280006000002000000000488C000808B5034B07
:100290001BB103490348AFF3008008BD0000000014
:1002A00064000020488C000800B583B0009313461A
:1002B0000A460146034806F045F900B1012003B0A3
:1002C00000BD00BF7C05002000B583B0009313463D
:1002D0000A460146034806F057FA00B1012003B070
:1002E00000BD00BF7C05002008B5034806F0BDFD39
:1002F000043818BF012008BD7C05002008B5014660
:10030000014806F0F7FC08BD7C050020704708B5E1
:10031000FFF7FCFF08BD704708B5FFF7FCFF08BDFD
:10032000704708B5FFF7FCFF08BD00B583B0012397
:100330008DF8073000F0F4F808B98DF807009DF843
:10034000070003B000BD000038B5FFF7EEFF01283D
:1003500003D002231C46204638BD0546074806F058
:100360005BFD04460028F6D14FF40061034806F017
:10037000D3FC0028EFD02C46EDE700BF7C05002021
:100380007F2817D931B1FF2813D880380A4B33F8AA
:10039000100070470B467F2B07D8074A32F813200E
:1003A000824202D001339BB2F5E703F18000C0B274
:1003B00070470020704700BF108F0008B0F5805FC5
:1003C00007D2294B1A88002A4CD090424AD310B544
:1003D00006E0264BF6E773461A88B2B3904234D350
:1003E00003F1040E5B88190ADBB203EB020C6045D3
:1003F00004DB0029EFD10EEB4303EDE7042928D0FD
:1004000010D8022922D008D8E1B101291DD1831AC0
:1004100003F00103C01A80B217E0032915D1203878
:1004200080B212E007291AD006D8052914D006296F
:100430000BD1083080B208E0082906D1A0F5E350BE
:1004400080B202E0831A3EF8130010BD103880B26B
:10045000FBE7303880B2F8E71A3880B2F5E7503859
:1004600080B2F2E7704700BF1C8D0008608C000866
:1004700008B5044B03EB8002526852680344187AB3
:10048000904708BD0C05002008B5084B1B5C53B90C
:10049000064B01221A5403EB80025268126803448F
:1004A000187A904708BD0020FCE700BF0C0500202B
:1004B00010B58446044800EB8C046468A46860446A
:1004C000007AA04710BD00BF0C05002010B584467F
:1004D000044800EB8C046468E4686044007AA04738
:1004E00010BD00BF0C05002010B5044B03EB8004C9
:1004F000646824690344187AA04710BD0C050020E5
:1005000008B50349034802F095FC034B187008BD79
:100510007C00002008910008800000200020704727
:1005200008B510214FF0904003F044FB08B90120BA
:1005300008BD0020FCE74278007840EA02207047BE
:10054000C378827842EA0322437843EA02230078A0
:1005500040EA03207047C379827942EA0322437953
:1005600043EA0223027942EA0322C3F30743C17834
:1005700041EA02211B0243EA1163827842EA012226
:100580001B0243EA1263417841EA02211B02007810
:1005900040EA012043EA116170470170090A417085
:1005A00070470170C1F307234370C1F307438370A1
:1005B000090EC17070470270C2F307214170C2F387
:1005C00007418170120EC2700371C3F3072242719A
:1005D000C3F3074282711B0EC3717047944632B158
:1005E0000A78013102700130BCF1010CF8D170477A
:1005F00001700130013AFBD1704784469CF800003D
:100600000CF1010C0B780131C01A013A01D000281D
:10061000F4D07047034600E00133187808B18842EF
:10062000FAD1704700B58C464FF0000E734602E0D9
:100630004FF0010E0133012B15D81A0119498A58C0
:10064000002AF5D001688A42F4D1164A02EB03125F
:10065000516882689142EDD1124A02EB031291680F
:10066000026B9142E6D1022B0BD0BCF1000F16D1E8
:100670000C4A02EB03139B89B3F5807F0DD0002059
:1006800000BDBEF1000F06D1BCF1020F01D0122057
:10069000F6E77046F4E70020F2E71020F0E71020BC
:1006A000EEE700BFE4040020002000E00130012854
:1006B00004D80301034AD358002BF7D1023818BFDE
:1006C00001207047E404002010B58C46002300E0B0
:1006D0000133012B13D81A01244989580268914229
:1006E000F6D1224A02EB0312516882689142EFD19F
:1006F0001E4A02EB03129168026B9142E8D1022B71
:100700000AD0BCF1000F21D0184A02EB03129289E3
:1007100052BB4FF480721FE00023012B05D81A0151
:1007200012498A580AB10133F7E7022B1AD0DFF8D1
:100730003CE019010EEB031204684EF80140816899
:100740005160016B916000219181DAE7074A02EB69
:1007500003129289013292B2044901EB03118A819A
:10076000581C10BD0020FCE70020FAE7E40400203C
:100770000138012815D80D4B03EB00139B89B3F505
:10078000807F03D043B1013B9BB200E00023074AC6
:1007900002EB0012938133B903010020034AD050C9
:1007A0007047022070470020704700BFE40400201B
:1007B000002305E01A014FF0000C41F802C001339C
:1007C000012B05D81A0103498A588242F7D1F1E773
:1007D000704700BFE40400200239C369023B8B422A
:1007E00004D94389006B01FB030070470020704768
:1007F00010B519460368046D0434500A5A89002361
:1008000040EAC150490AFFF713FD024601E0121AFF
:100810000834206818B18242F9D26068104410BDD3
:1008200070B504460D4601F11A00FFF784FE2378E7
:10083000032B00D070BD064628461430FFF77BFE20
:1008400046EA0040F6E770B504460B460D461646EC
:1008500091B203F11A00FFF7A0FE2378032B00D01A
:1008600070BD310C28461430FFF797FEF8E7000002
:100870002DE9F04180460E4601F11A00FFF75BFEBC
:1008800050BB357825F04005013D05EB450305EBF0
:1008900083050127044604E04FF6FF73984220D1F8
:1008A00001340C2C0DD8124B185D3044FFF743FE79
:1008B000002FF1D0FE2D12D828F81500074601357B
:1008C000EEE7337813F0400F0DD0FE2D0DD8002346
:1008D00028F81530012000E00020BDE8F08100205C
:1008E000FBE70020F9E70120F7E70020F5E700BF6C
:1008F000789000082DE9F84380460F4691464B73E7
:100900000F23CB7200240C73214607F11A00FFF766
:1009100044FE09F1FF3606EB460306EB8306254647
:1009200002E001340C2C11D84FF6FF739D4202D027
:1009300038F8165001360C4B185D29463844FFF73D
:100940002CFE002DEDD14FF6FF75EAE74FF6FF7351
:100950009D4202D038F816300BB949F0400987F8AB
:100960000090BDE8F88300BF7890000870B582B0B1
:10097000054616461C460B22FFF730FE052C11D803
:1009800007221DE001310F290CD803F0010C0CEBFC
:1009900044045B0814F4803FF4D084F4883484F079
:1009A0002104EFE73388002BEAD002360021EAE782
:1009B000531E08326A4402F8081C240909D01A465A
:1009C00004F00F0303F130013929F1D903F13701A4
:1009D000EEE77E2103F108026A4402F8081C00E0F9
:1009E00001349C4209D22A5D202AF9D105E0202158
:1009F000621C2955072A09D81446072BF7D803F19A
:100A000008026A4412F8081C0133F1E702B070BD15
:100A100001464FF00B0C0020C30103EB50030A7892
:100A2000013152FA83F3D8B2BCF1010CF4D1704712
:100A300000B586464178013149010020034601E0B6
:100A4000013301338B420AD2022BF9D0C20302EBED
:100A500050021EF803C01CFA82F290B2F1E700BD0A
:100A60000146006838B1024613781F2B06D93A2B8D
:100A700004D00132F8E74FF0FF3070473A2B01D035
:100A800000207047034613F8010B3038092808D8B6
:100A90009A4202D04FF0FF30704728B901320A6005
:100AA00070474FF0FF3070474FF0FF30704738B558
:100AB0000D46044698B103689BB11A78A2B18188AB
:100AC000DA88914203D0092000242C6038BD587880
:100AD000FFF7CEFC10F0010009D12468F5E70920EA
:100AE000F3E71C460920F0E709201446EDE709204A
:100AF0000024EAE72DE9F041C57815B92846BDE89C
:100B0000F0810446476B00F13803194698460123EB
:100B10003A464078FFF7DAFC054698B9E070A36AD8
:100B2000FB1A226A9342E9D2A67808E0236A1F449E
:100B300001233A4641466078FFF7C8FC013E012E8A
:100B4000F4D8DBE70125D9E770B5436B8B4203D1BD
:100B500000231D46284670BD04460E46FFF7CAFF17
:100B600005460028F6D10123324604F138016078A9
:100B7000FFF79EFC20B101231D464FF0FF331E46B8
:100B80006663E7E738B504460023C3704FF0FF33D0
:100B90004363FFF7D9FF68BB054604F23620FFF731
:100BA000CAFC4AF65523984227D194F83830E92BED
:100BB0000FD0EB2B09D00B22134904F13800FFF7BB
:100BC0001CFDF0B102231D4619E094F83A30902B39
:100BD000F1D104F16E00FFF7B3FC20F07F400B4B26
:100BE00098420CD004F18A00FFF7AAFC084B984207
:100BF000E1D104E004231D4601E003231D462846FD
:100C000038BD01231D46FAE7109000084641540004
:100C1000464154332DE9F04F89B00D461746002365
:100C20000B60FFF71DFF061EC0F2E681B14B53F8C3
:100C30002640002C00F0E5812C6007F0FE072378A9
:100C400073B16078FFF714FC10F0010508D1002F94
:100C500000F0D38110F0040F00F0CF810A25CCE121
:100C600000232370F0B26070FFF70EFC10F0010556
:100C700040F0C9811FB110F0040F40F0C68100217F
:100C80002046FFF77FFF022800F0828000231F46E6
:100C9000042800F0BC81012800F2BB8100F00B8128
:100CA00004F14300FFF747FCB0F5007F40F0C78137
:100CB00004F14E00FFF73FFC804620B904F15C00D0
:100CC000FFF73EFC8046C4F8208094F84820A270CC
:100CD000531EDBB2012B00F2B48108FB02F39946EC
:100CE00094F845606681002E00F0AD81731E1E42AF
:100CF00040F0AB8104F14900FFF71DFC82462081E2
:100D000010F00F0F40F0A38104F14B00FFF713FC2C
:100D1000834620B904F15800FFF712FC834604F122
:100D20004600FFF708FC8446002800F0928100EBA3
:100D3000090303EB1A135A469B45C0F08C81D21A63
:100D4000B2FBF6F1B242C0F088814FF6F5729142E3
:100D500000F2D48040F6F572914240F207810222FF
:100D60001646CDE0184608AB03EB860343F8100C9B
:100D70000136032E0ED804F13800330103F5DF737A
:100D800018440379002BEDD00830FFF7D9FBEAE7D0
:100D90000026EEE700260AE019462046FFF7F2FE9D
:100DA00001287FF675AF0136032E3FF671AF08AB11
:100DB00003EB860353F8103C1F46002BECD10320B5
:100DC000F1E701333F2B04D8E21892F83820002ACB
:100DD000F7D03F2B40F21F8104F1A000FFF7ABFBDF
:100DE000B0F5807F40F0198194F8A430092B40F0D1
:100DF000168104F18000FFF7AEFBC21941F100003B
:100E00004FF0FF33009293424FF000030190834173
:100E1000C0F0078104F18C00FFF792FB206294F888
:100E2000A660A670012E40F0FE8094F8A530012245
:100E300002FA03F398469BB26381002B00F0F58021
:100E400004F19400FFF77CFB2B4B984200F2EF80FB
:100E5000039003460233E361676204F19000FFF7F9
:100E60006FFBC1190291216304F18800FFF768FB51
:100E70003844A06200221FFA88F3039F07FB03F3A4
:100E8000029FFB1852410099994201989041C0F08D
:100E9000D08004F19800FFF753FB0146E062204642
:100EA000FFF79AFC01462046FFF74EFE002840F06F
:100EB000C280064602E00B2384E72036B6F5007FA9
:100EC0000DD2A31993F83830812BF6D104F13803F1
:100ED00006F114001844FFF733FB0228EDD1B6F5F4
:100EE000007F00F0AA804FF0FF33A3616361042309
:100EF0001E462CE008050020FDFFFF7F032216465A
:100F00008A1C9346E26167620CEB0702A2623B44D3
:100F10002363032E2DD05346002B00F0A4804A44B7
:100F2000E262022E36D00BEB4B020BF0010303EB17
:100F3000520303F2FF13B8EB532FC0F096804FF02B
:100F4000FF33A361636180232371032E25D02670B4
:100F5000474A138801339BB21380E380454BE3601B
:100F6000454B23612046FFF723FC46E0012216464D
:100F7000C6E704F16200FFF7DEFA00286FD153469E
:100F8000002B6ED104F16400FFF7DAFAE0625B46F1
:100F90009B00CEE75B465B00CBE704F16800FFF700
:100FA000CAFA0128D3D1394601312046FFF7CCFDDA
:100FB0000028CCD1207104F23620FFF7BCFA4AF6A3
:100FC00055239842C3D104F13800FFF7B9FA2B4BEF
:100FD0009842BCD104F50770FFF7B2FA284B98424B
:100FE000B5D104F50870FFF7ABFAA06104F50970FC
:100FF000FFF7A6FA6061AAE70B25284609B0BDE80D
:10100000F08F0C25F9E70325F7E70A25F5E7012519
:10101000F3E70D25F1E70D25EFE70D25EDE70D25AC
:10102000EBE70D25E9E70D25E7E70D25E5E70D25BC
:10103000E3E70D25E1E73546DFE70D25DDE70D2583
:10104000DBE70D25D9E70D25D7E70D25D5E70D25DC
:10105000D3E70D25D1E70D25CFE70D25CDE70D25EC
:10106000CBE70D25C9E70D25C7E70D25C5E700BF6F
:1010700004050020840000208402002052526141B7
:10108000727241612DE9F843054690468F1EC3698F
:10109000023BBB4200D80027B9463C460026296BDC
:1010A00001EB14312846FFF74FFD844640BBC4F3E3
:1010B000C80004F0070201239340DBB209E0A14617
:1010C0000026A7421FD023B90130B0F5007FE6D239
:1010D00001232A1892F838201A405B00DBB2013451
:1010E000E9690239A14203D8634600244FF4007035
:1010F000002AE4D101364645E3D14846023003E0F8
:101100004FF0FF3000E00020BDE8F8832DE9F84300
:101110000646174698468B1E016B01EB1331C3F34D
:10112000C80503F0070301249C40E4B24B1C994618
:101130003046FFF709FD024610B101221EE00124EE
:10114000731993F83810214214BF0123002343453B
:1011500013D07319614083F838100123F370013FF5
:101160000CD09C4014F0FF04EAD11D441C46B5F598
:10117000007FE4D349460025D8E702221046BDE8A7
:10118000F8832DE9F843012940F28B8005460C468F
:101190009046C3698B4240F289800378022B6CD061
:1011A00036D8012B31D101EB5106816A01EB562172
:1011B000FFF7CAFC0746002875D105F138029146B1
:1011C000731C1846C6F3080314F001044AD0D25C1D
:1011D00002F00F0242EA0812D2B209F803200123FA
:1011E000EB70A96A064601EB50212846FFF7ACFCDC
:1011F0000746002857D1C6F30803B4B3C8F3071253
:1012000009F803200123EB704DE002231F464AE05A
:10121000033BDBB2012B4CD8816A01EBD411FFF701
:1012200093FC074600283ED12B78042B0ED028F0E3
:10123000704605F13800A30003F4FE731844FFF76D
:101240007FF900F0704046EA0003984605F1380047
:10125000A40004F4FE7441462044FFF7A2F90123E0
:10126000EB7020E05FFA88F2B7E719F80320C8F3C3
:10127000032122F00F020A43C2E7816A01EB142125
:10128000FFF762FC074670B905F13800640004F40A
:10129000FF741FFA88F12044FFF77FF90123EB70F8
:1012A00001E002231F463846BDE8F88302231F46AB
:1012B000F9E702231F46F6E770B504460D461646C9
:1012C00007E03246FFF75DFF034658B9E369013B8B
:1012D000E361E36933B12068EA1A511C012BF0D9AC
:1012E0000232EFE7184670BDC379032B02D000230A
:1012F0001846704770B50646816884694CB14D1C2C
:101300002A463068FFF73DFF034620B9013C2946D5
:10131000F4E72346F471184670BDF8B50568012955
:1013200040F29B8003460C46EA698A4240F297806D
:101330002A78032A63D017D8012A36D0022A11D17D
:10134000A96A01EB14212846FFF7FEFB002840F0B4
:101350008B8005F13800640004F4FF742044FFF72B
:10136000EAF87BE0012079E0042A1CD10269416996
:1013700052EA01007ED09868201A013A41F1FF310B
:10138000520A42EAC1526989B2FBF1F2D9790229C3
:1013900047D003294AD0022971D0DB69002B4AD0FB
:1013A0006FF000405AE0012058E001EB5106A96AB5
:1013B00001EB56212846FFF7C7FB10B14FF0FF3075
:1013C0004CE0721CC6F308032B4493F83870A96AEA
:1013D000164601EB52212846FFF7B6FB002840D104
:1013E000C6F308032B4493F8383047EA032314F07C
:1013F000010F01D0180931E0C3F30B002EE0A96AF8
:1014000001EBD4112846FFF79FFB80BB05F13800A4
:10141000A40004F4FE742044FFF792F820F070401A
:101420001CE09042B5D827D0601C17E09A69824230
:10143000B1D9601C12E0A96A01EBD4112846FFF76C
:1014400083FBF0B905F13800A30003F4FE731844E0
:10145000FFF776F820F0004000E00120F8BD012001
:10146000FCE74FF0FF30F9E74FF0FF30F6E74FF0C1
:10147000FF30F3E70120F1E76FF00040EEE70120D5
:10148000ECE74FF0FF30E9E72DE9F04107460E4663
:10149000D0F8008098F80030042B28D04FF40013C7
:1014A000B34242D916F01F0F42D13E63BC680CBB59
:1014B00098F80030022B03D9D8F82C400023FB7198
:1014C000C4B9B8F80830B3EB561F33D9D8F82C306C
:1014D000BB637C63BB6BABB303EB5623BB6308F10D
:1014E0003808C6F308014144F96300201EE04FF0BC
:1014F0008053D5E7B8F80A506D02AE420FD32146AB
:101500003846FFF70AFF0446B0F1FF3F14D0012828
:1015100014D9D8F81C30834212D9761BEDE7214646
:101520004046FFF759F9B863D3E70220BDE8F081E0
:101530000220FBE70220F9E70120F7E70220F5E7A8
:101540000220F3E70220F1E72DE9F8430746D0F83F
:101550000080894641B9D8F81460AEB1D8F81C3083
:10156000B34212D8012610E00E46FFF7D6FE05461C
:10157000012840F29A80B0F1FF3F00F0A080D8F837
:101580001C30834201D99AE0012698F80030042BE0
:1015900001D0344651E0012231464046FFF772FD4A
:1015A0000546431E13F1030F00F2898001231A46FA
:1015B00001464046FFF7AAFD0346022877D00128DE
:1015C00077D04A46C2B90222FA71FA79022A63D068
:1015D0004A460132AA421BD0FB690BB90123FB61C9
:1015E0002A4649463846FFF767FE0346002855D18C
:1015F0000123FB612C4634E0FA79022AE5D1721C02
:10160000AA42E2D0BA68B21ABA610322FA71DCE7E0
:10161000FA690AB1013200E00222FA612C461FE0A9
:1016200021463846FFF779FE054678B1012846D0B5
:10163000B0F1FF3F43D0B44240D00134D8F81C3061
:10164000A342EDD8012E37D90224E9E74FF0FF324B
:1016500021464046FFF795FD0346F8B94A46A2B930
:10166000E3B9C8F81440D8F81820D8F81C30023B69
:101670009A4202D8013AC8F8182098F8043043F08A
:10168000010388F80430254619E0224649464046C1
:10169000FFF777FD0346E3E72C46E1E7012B01D096
:1016A00001250CE04FF0FF3509E0012507E0012599
:1016B00005E04FF0FF3502E0002500E00025284658
:1016C000BDE8F8832DE9F8430568012969D9074683
:1016D0000C469146EB698B4265D972B12B78042B8D
:1016E00002D1C379022B08D04FF0FF324946284679
:1016F000FFF747FD0346002856D1A04611E000221F
:1017000031462846FFF73DFD0346C8B14CE0731C47
:10171000A34203D02B78042B1ED0A046EB69A34232
:1017200025D9264621463846FFF7F7FD0446F0B195
:1017300001283CD0B0F1FF3F3BD02B78042BDED109
:10174000AA69EB69023B9A42E1D20132AA612B7984
:1017500043F001032B71DAE74146721A002301328C
:101760002846FFF7D3FC0346F0B9A046D6E72B780E
:10177000042B01D0002317E04B4613B987F80790DC
:1017800012E0FB79032B01D000230DE0BB684B4531
:1017900011D8BA6913444B450FD30223FB710023C0
:1017A00002E0022300E002231846BDE8F88302238A
:1017B000FAE70123F8E70023F6E70023F4E72DE931
:1017C000F0470668056B836B002B78D004460F4604
:1017D00020353278042A17D04FF40012AA4270D96B
:1017E000C5F3080290463AB90133A363616B89B926
:1017F0003389B3EB551F0AD9256306F138034344F7
:10180000E3630020BDE8F0874FF08052E6E7A16374
:101810000420F7E77389013B13EA55239946EBD17E
:101820002046FFF77AFD824601284CD9B0F1FF3FF0
:101830004BD0F36983423AD8B7B1616B2046FFF7CA
:1018400083FE07468246002841D0012841D0B0F1EE
:10185000FF3F40D0E37943F00403E3713046FFF7E4
:1018600049F920B10120CDE7A7630420CAE74FF46E
:101870000072014606F13800FEF7BAFE39463046DE
:10188000FEF7AAFF706373894A464B450CD90123C2
:10189000F3703046FFF72EF9F8B94B4601339946FD
:1018A000736B01337363EEE7736B9B1A7363C4F856
:1018B00034A051463046FEF78FFFA0639CE704201A
:1018C000A0E704209EE702209CE701209AE707207A
:1018D00098E7022096E7012094E7012092E70000B4
:1018E0002DE9F041044600680569A16BFFF72CF96A
:1018F000074630B92E46E16B0B78852B04D00223C6
:101900001F463846BDE8F08120222846FEF766FED5
:101910006B7801335B011D469846603BB3F5007F51
:1019200054D800212046FFF74AFF07460028E8D197
:10193000A16B2068FFF708F907460028E1D1E16BA9
:101940000B78C02B02D002231F46DAE72022B01802
:10195000FEF744FE96F823302C33214AA2FB0323E2
:10196000DB08B5EB431F34D340231D4604E02B4670
:1019700020331D46984519D900212046FFF71FFF47
:1019800007460028BDD1A16B2068FFF7DDF80746A8
:101990000028B6D1E16B0B78C12B1DD1B5F5187FAE
:1019A000E5D220227019FEF719FEE0E7B3F5187FA3
:1019B000A7D83046FFF73CF8044630460230FEF721
:1019C000BAFD84429DD002231F469AE702231F4698
:1019D00097E702231F4694E702231F4691E700BFC3
:1019E0008988888810B504460B6803600B6A836099
:1019F00091F82430C3714B6A23F0FF030361002385
:101A00004361896AC164FFF73FFD00B110BD204604
:101A1000FFF766FFFAE72DE9F843044688460668B3
:101A2000FF2399461F46042542E0B8F1000F02D07B
:101A3000832B37D160E0852B34D1236BE3642046C0
:101A4000FFF74EFF0546002857D133691B7903F095
:101A50003F03A37150E00F2A19D113F0400F06D0B5
:101A60004A7B914603F0BF03226BE2641F46BB42F0
:101A700001D0FF2716E04B7B4B4501D0FF2711E03B
:101A8000F068FEF7F5FEA0B3013FFFB20AE027B908
:101A90000846FEF7BDFF48452ED04FF0FF33E36404
:101AA0002AE0FF2700212046FFF789FE054618BBE4
:101AB000A16B09B33046FFF747F80546E0B9E16B83
:101AC0000B78C3B13278042AAFD0CA7A02F03F0251
:101AD000A271E52BE5D02E2B09D022F0200008289A
:101AE00014BF002001204045B5D0FF27DAE7FF27CB
:101AF000D8E7FF27D6E704250DB10023A3632846C6
:101B0000BDE8F883F8B504460F4606680021FFF7E4
:101B1000BBFC034610BB05460FE0E26B92F90020C8
:101B2000824201DA054602E00135BD4216D00121AC
:101B30002046FFF744FE034680B9A16B3046FFF70D
:101B400003F8034650B93278042AE6D0E26B1278E3
:101B5000E52AE9D0002AE7D00025E8E7042B01D0E8
:101B60001846F8BD0723FBE7F8B5044603681E696D
:101B70003046FEF75DFF0146B01CFEF70EFD77789C
:101B80000137E16C2046FFF77FFC054605E0203673
:101B900000212046FFF713FE05467DB9A16B2068A2
:101BA000FEF7D2FF054648B920223146E06BFEF72A
:101BB00015FD23680122DA70013FE8D1022D28BF0C
:101BC0000225E8B2F8BD00002DE9F04F83B00746CA
:101BD0008A46D1F800900368DD680024234612E0AD
:101BE000013619F806302F2BFAD05C2BF8D04E4472
:101BF000CAF800601F283CD94FF0000821E025F802
:101C00001480013433465E1C19F803001F28EED9F6
:101C10002F28E6D05C28E4D0FE2C00F2DC800121E5
:101C2000FEF7AEFB8046002800F0D7807F28E6D87C
:101C300001466C48FEF7EEFC0028E0D00620C4E028
:101C4000013C44B104F10043013B35F81330202B33
:101C5000F6D02E2BF4D0002325F81430002C00F001
:101C6000BE800B22202107F14000FEF7C1FC0023BB
:101C700003E04FF00408E4E7013335F81320202A8D
:101C8000FAD02E2AF8D01BB148F0030800E0013C3E
:101C900064B104F10042013A35F812202E2AF6D13F
:101CA0004FF0080A00229346019209E0A3464FF044
:101CB000080A019404E04C450BD048F003084B4659
:101CC00003F1010935F81360FEB1202EF5D02E2E58
:101CD000F1D0D34510D24C450ED07F2E3CD8002EEB
:101CE00049D148F003085F265A46BB1883F8406084
:101CF0004B4601329346E3E7BAF10B0F1FD04C4538
:101D000001D048F003084C451CD297F84030E52B31
:101D10004DD0BAF1080F4ED0019B03F00C020C2AF3
:101D20004ED003F00303032B4AD018F0020F49D121
:101D3000012B4DD0042A45D148F0080842E048F074
:101D40000308E2E7019B9B00DBB2019323464FF0BF
:101D50000B0A08229346B3E700213046FEF710FB3A
:101D600010B948F00208BCE7A0F180031E4AD65C17
:101D700048F00208B3E731461C48FEF74BFC002848
:101D8000AFD1A6F141039BB2192B04D8019B43F0BC
:101D900002030193A8E7A6F161039BB2192BA3D814
:101DA000019B43F001030193203EB6B29CE705235B
:101DB00087F84030ADE7019B9B00DBB20193ABE7B6
:101DC00048F0020887F84B80002003B0BDE8F08F90
:101DD00048F01008AEE70620F7E70620F5E70620F2
:101DE000F3E700BF1C9000088890000828900008C6
:101DF00038B50446002511E0FEF7E0FAEB0303EBEB
:101E00005503C2B212FA83F39AB2C3F34E0303EB43
:101E1000C233C0F30F2010FA83F39DB234F8020BE3
:101E20000028E9D1284638BD2DE9F8430746884601
:101E300040220021FEF7DCFB85233B70C02387F89E
:101E4000203001250026A946402417E029463819EC
:101E5000FEF7A3FB023414F01F0F08D0002DF5D0BD
:101E600038F81650002DF1D00136F6B2EEE709F140
:101E700001095FFA89F938F8163033B1631CC122C1
:101E80003A550022FA540234E8E787F8236087F8CD
:101E900001904046FFF7ACFF014607F12400FEF732
:101EA0007CFBBDE8F88300002DE9F04781460F4632
:101EB00001F11A00FEF73FFB002839D13E7806F009
:101EC0003F06013E06EB460306EB83064FF0010892
:101ED000054606E000202CE04FF6FF7398422AD119
:101EE00001350C2D18D8184B585D3844FEF723FBEC
:101EF0000446B8F1000FEFD0FE2EEBD8FEF75EFAE5
:101F0000804606F1010A39F81600FEF757FA8045B7
:101F1000E0D1A0465646E3E73B7813F0400F0CD0E3
:101F2000B8F1000F0BD039F8163053B9012000E09A
:101F30000020BDE8F0870020FBE70120F9E7012041
:101F4000F7E70020F5E700BF789000082DE9F84F8B
:101F5000044607680021FFF797FA0646002840F07C
:101F6000AB803B78042B06D04FF0FF33E3644FF097
:101F7000FF09C84646E0F868FFF73AFF834620E0CD
:101F800038694044FEF7D7FAFEF718FA8146FB6835
:101F900033F81A00FEF712FA81450CD1013DEDB27B
:101FA00008F102080AF1010A2DB118F01F0FE7D15C
:101FB00008F10208E4E725B9FB6833F81A30002B72
:101FC0007AD000212046FFF726FD0646002873D16F
:101FD0003D6905F12400FEF7AEFA5845F1D195F8B8
:101FE00023504FF0000A4FF04008DDE74FF0FF3379
:101FF000E3644FF0FF0800212046FFF7E0FB0646B0
:10200000002859D1A16B3846FEF79EFD06460028F0
:1020100052D1E56B2B78002B4DD0EA7A02F03F01CC
:10202000A171E52BE2D012F0080F15D00F29DDD1F8
:1020300094F84B2012F0400FDDD113F0400F06D082
:1020400095F80D9003F0BF03226BE2649846434578
:102050001ED04FF0FF08CEE70F29E9D0B8F1000FEE
:1020600004D12846FEF7D4FC484525D094F84B30DF
:1020700013F0010F06D10B2204F140012846FEF7B0
:10208000BCFAC8B14FF0FF33E3644FF0FF08B2E78A
:102090006B7B4B4502D04FF0FF08ACE72946F86850
:1020A000FFF702FF20B108F1FF385FFA88F8A2E7D6
:1020B0004FF0FF089FE704263046BDE8F88F30B5A3
:1020C00083B004460191056801E001330193019B4F
:1020D0001A782F2AF9D05C2AF7D00022A260E26198
:1020E0001B781F2B2CD8802384F84B3011462046B8
:1020F000FFF7CAF90346184603B030BD0428FAD1E9
:1021000012F0040FF7D10523F5E7A36823622369D2
:1021100023F0FF03E27913436362E36CA36228694F
:102120003430FEF70DFAA0602B6993F8213003F0EC
:102130000203E37128693830FEF70DFAC4E904019F
:1021400001A92046FFF740FD03460028D3D12046D1
:10215000FFF7FCFE94F84B2003460028CED112F086
:10216000040FC8D1A37913F0100F0DD02B78042BD6
:10217000CBD005F13801236BC3F30803194428467B
:10218000FEF74EFBA060DBE70523B4E72DE9F04343
:102190009BB0056890F84B3013F0A00F40F0E6803C
:1021A0000646002400E00134EB6833F81430002BBD
:1021B000F9D12B78042B22D006F140070C223946A6
:1021C00017A8FEF70BFA9DF8673013F0010F75D0D2
:1021D000402386F84B304FF00108B8F1630F63D805
:1021E0004346EA6817A93846FEF7C0FB3046FFF7BA
:1021F000ADFE8146002857D108F10108EDE70E3405
:102200005F4BA3FB0434E408A11C3046FFF77AFCC3
:102210008146002840F0AC80336B0134A3EB4413BB
:10222000F364B3681BB1F37913F0040F04D1E968C8
:102230002869FFF7F9FD9BE0336971696A895202E9
:102240009B1841F10001336171613046FFF74CF892
:1022500008B181468CE04FF0FF32716B3046FFF7DA
:102260002BF808B1814683E031466846FFF7BAFB98
:1022700008B181467CE02869D6E904233830FEF7AE
:102280009AF92869D6E904232830FEF794F9F379FE
:102290002A6943F0010382F821306846FFF764FCA5
:1022A0000028C4D0814663E0B8F1640F64D04B4687
:1022B000042B5DD19DF8673086F84B309DF8673070
:1022C00013F0020F2BD00C342E4BA3FB0434A408C4
:1022D000013421463046FFF715FC8146002847D1DE
:1022E000013C1ED14B46002B42D1B16B2846FEF774
:1022F0002BFC814600283BD120220146F06BFEF7E3
:1023000077F90B223946F06BFEF768F996F84B30F7
:10231000F26B03F0180313730123EB7028E0012420
:10232000D7E7316BA1EB44113046FFF7ADF881469A
:10233000F0B93846FEF76CFB8046B16B2846FEF7D5
:1023400003FC81460028CDD14346E2B2F16BE86838
:10235000FEF7D0FA0123EB7000213046FFF72FFA89
:1023600081460028BED1013CE7D1BBE70623994650
:1023700048461BB0BDE8F08307239946F8E700BF45
:10238000898888884FECC44E70B50446FEF7B2FBCE
:10239000064650B92378032B09D0002211466078F5
:1023A000FEF7A2F808B101231E46304670BD23791E
:1023B000012BF2D104F138034FF4007201461D469F
:1023C0001846FEF715F94AF6552104F23620FEF7B5
:1023D000E4F80F492846FEF7E4F80E4904F50770C3
:1023E000FEF7DFF8A16904F50870FEF7DAF8616915
:1023F00004F50970FEF7D5F8626A013262630123C1
:1024000029466078FEF762F800232371C5E700BF14
:10241000525261417272416170B584B00190009175
:102420001646039103A8FEF71BFB041E1CDB104B92
:1024300053F8245025B12846FEF7BAF900232B7033
:10244000019B0BB100221A70019B094A42F824300B
:1024500063B1012E02D0002004B070BD002201A99A
:102460006846FEF7D7FBF7E70B20F5E71846F3E7DA
:10247000080500202DE9F0479AB00191002800F0EE
:10248000DD811446804602F03F0399461A4603A9AF
:1024900001A8FEF7BFFB074630B10023C8F80030A3
:1024A00038461AB0BDE8F087039B0493019904A84D
:1024B000FFF705FE074668B99DF95B308342C0F21D
:1024C000828014F03E0F14BF0121014604A8FEF7DC
:1024D000A9F8074614F01C0F00F03381002F00F01C
:1024E0008380042F72D049F008039946002FD4D17D
:1024F00019F0080F40F08580002FCED119F0080F99
:1025000002D049F040039946039B5B6BC8F8483002
:10251000139BC8F84C304B46012B94BF002101217E
:1025200004A8FEF7D1F8C8F82C00002800F080813C
:10253000039B1E461B78042B00F01681139B1D463F
:1025400019463046FEF76CF9C8F8080005F11C0082
:10255000FDF7F6FFC8F810000023C8F8143000217A
:10256000C8F85010C8F80060039BDB88A8F8043056
:1025700088F8309088F83110C8F844100022002301
:10258000C8E90E2308F154039A464FF40072184626
:10259000FEF72EF819F0200F00F04081D8F8101047
:1025A0000D46D8F81400044651EA000300F03681C5
:1025B000C8F83810C8F83C00039B5B895B02994659
:1025C000D8F80810F9E006231F4683E7FEF76CF8F9
:1025D00028B949F00803994612231F468CE704A83E
:1025E000FFF7D4FD07467EE79DF8163013F0110F74
:1025F00040F0188114F0040F3FF478AF08231F4611
:102600004BE7FDF78BFF0646039B1A461B78042B0E
:102610003AD0014613980E30FDF7C3FF31461398A8
:102620001630FDF7BEFF139B2022DA72039B1D4676
:10263000139A164611461846FEF7F2F80446002291
:1026400031462846FEF7FFF8002113981C30FDF7AD
:10265000A8FF039B0122DA70002C3FF44DAF039BCF
:102660005B6B1D460022214604A8FFF72BF80746A6
:1026700000287FF412AF29460398FEF765FA074653
:10268000631E039A536137E71546C8F800201069A6
:102690003430FDF755FFC8F8080028693830FDF7D9
:1026A0005AFFC8E904012B6993F8213003F00203B3
:1026B00088F807300023C8F81C30286931460830F4
:1026C000FDF76FFF039B1A694FF000051575186938
:1026D00031460C30FDF765FF039B1A6955751A6981
:1026E00020211171186900213430FDF75AFF039B36
:1026F0001869002200233830FDF75DFF039B18693D
:10270000002200232830FDF756FF039B1B6901229E
:1027100083F8212004A8FFF727FA074600287FF452
:10272000BCAED8F8081000293FF4E6AE0246404699
:10273000FEF7C8FF0746D8F80830013B039A5361FB
:10274000DAE6002F7FF4A9AE9DF8163013F0100FD3
:102750006BD114F0020F3FF4CFAE13F0010F3FF432
:10276000CBAE07231F4698E6069BC8F82030089B8F
:1027700023F0FF039DF817201343C8F82430179B5C
:10278000C8F8283030693430FDF7DAFEC8F80800A0
:1027900030693830FDF7DFFEC8E90401336993F88A
:1027A000213003F0020388F80730D8E602231F46E1
:1027B000AB1B1D4664F100031C468FB94E46A9456C
:1027C0004FF00003A3410BD24046FEF7A6FD0146A1
:1027D0000128EBD9B0F1FF3FEAD101231F46E7E71B
:1027E000C8F84010002F7FF458AEC5F30803ABB112
:1027F000039B1E461846FDF7EFFF024610B9022361
:102800001F464AE66B0A43EAC4531A44C8F84420F8
:10281000012351467078FDF74BFE60B9002F3FF45D
:102820003FAE3AE607231F4637E604231F4634E649
:1028300002231F4631E601231F462EE609231F46C9
:102840002EE62DE9F04F85B004460E461546984613
:102850000023C8F8003003A9FEF729F900900028EA
:1028600040F0BB8094F831300093002B40F0B580ED
:1028700094F8303013F00103019300F0CD80236908
:102880006269A06BE16B1B1A62EB0102AB4272F151
:10289000000265D21D4663E0216D19B12046FDF7A7
:1028A000A7FF71E0216C2046FEF737FD6CE04FF08A
:1028B000020A84F831A0CDF800A08EE0012384F84C
:1028C0003130019B009388E04FF0020A84F831A078
:1028D000CDF800A081E094F93030834202DB4FEA6A
:1028E0004A272FE0606CA0EB09005045F7D24FF467
:1028F000007204F1540106EB4020FDF76FFEEEE795
:10290000626C4A450DD094F93030002B69DB01230D
:102910004A4604F1540103984078FDF7C9FD0028A8
:1029200074D1C4F84490A36BC3F30803C3F50077D4
:10293000BD4200D22F4604F154013A4619443046B4
:10294000FDF74CFE3E44A36BE26BFB1842F1000224
:10295000A363E263D8F800303B44C8F80030ED1BB5
:10296000002D3AD0A26BE36BC2F308010029DAD143
:10297000570A47EAC3570399498901390F4009D1DA
:1029800052EA030188D1A068012890D9B0F1FF3F35
:1029900094D02064DDF80CB0216C5846FDF71CFF84
:1029A0008146002890D0B9445FEA552AA8D007EBA9
:1029B0000A03BBF80A20934201D9A2EB070A534647
:1029C0004A4631469BF80100FDF772FD002882D08F
:1029D000012384F83130019B0093009805B0BDE8D5
:1029E000F08F012304F154019BF80100FDF76EFD07
:1029F00030B994F8303003F07F0384F8303086E744
:102A0000012384F83130019B0093E6E7012384F829
:102A10003130019B0093E0E707230093DDE72DE9C8
:102A2000F04F85B004460E46154698460023C8F878
:102A3000003003A9FEF73BF8019000284FD194F82D
:102A400031300193002B4AD194F8303013F0020F4B
:102A500000F00381039B1B78042B00F0C980A36B5B
:102A6000EB42C0F0C580DD43C2E0216D00293AD0C1
:102A70002046FDF7BDFE002800F0E880012837D091
:102A8000B0F1FF3F3BD02064A36803B9A06094F984
:102A90003030002B3ADBDDF80CB0216C5846FDF7E6
:102AA0009BFE8146002848D0B9445FEA552A62D08F
:102AB00007EB0A03BBF80A20934201D9A2EB070AED
:102AC00053464A4631469BF80100FDF7FFFC0028BB
:102AD0003AD04FF0010A84F831A0CDF804A0019853
:102AE00005B0BDE8F08F216C2046FEF72DFDC2E752
:102AF0004FF0020A84F831A0CDF804A0EFE74FF0C0
:102B0000010A84F831A0CDF804A0E8E70123626C43
:102B100004F1540103984078FDF7D8FC30B994F8DB
:102B2000303003F07F0384F83030B4E74FF0010A0F
:102B300084F831A0CDF804A0D1E74FF0020A84F860
:102B400031A0CDF804A0CAE7616CA1EB09015145A1
:102B500002D34FEA4A272FE04FF4007206EB4121DF
:102B600004F15400FDF73AFD94F8303003F07F0390
:102B700084F83030EDE7636C4B4506D0A06BE36B17
:102B800021696269884293414FD3C4F84490A36B92
:102B9000C3F30803C3F50077BD4200D22F4604F10A
:102BA00054003A4631461844FDF718FD94F8303089
:102BB00063F07F0384F830303E44A26BE36BBA18B5
:102BC00043F10003A263E363D4F810E0D4F814C027
:102BD00010461946724573EB0C0301D270466146EC
:102BE00020616161D8F800303B44C8F80030ED1B2B
:102BF00065B3A26BE36BC2F308010029C7D1570A82
:102C000047EAC3570399498901390F407FF43FAF21
:102C100052EA03017FF429AFA06800287FF42EAFA9
:102C200001462046FEF790FC25E701234A4604F1C1
:102C300054019BF80100FDF73BFC0028A5D04FF0A4
:102C4000010A84F831A0CDF804A048E794F83030A8
:102C500043F0400384F8303041E7072301933EE717
:102C600070B598B0044617A9FDF721FF98B994F8FC
:102C7000303013F0400F0ED013F0800F0DD1FDF760
:102C80004DFC064617980378042B17D0A16CFDF76E
:102C90005BFF002861D018B070BD0123626C04F1A5
:102CA000540117984078FDF711FC00287CD194F866
:102CB000303003F07F0384F83030E0E72046FEF741
:102CC00013FB0028E7D14FF0FF32216C2046FEF7BE
:102CD000F3FA0028DFD121466846FEF783FE00287C
:102CE000D9D1179B19690A7942F020020A71E27959
:102CF000196942F0010281F821201869A168343075
:102D0000FDF74FFC179B1869D4E904233830FDF711
:102D100052FC179B1869D4E904232830FDF74BFCBB
:102D2000179B186931460C30FDF73BFC179B1A695D
:102D30000021517518691030FDF733FC6846FEF725
:102D400013FF0028A7D11798FFF71EFB94F8303027
:102D500023F0400384F830309DE7E26C1546D37AC7
:102D600043F020031146D372A2682068FDF76BFD83
:102D7000216905F11C00FDF714FC314605F1160030
:102D8000FDF70FFC002105F11200FDF706FC179B73
:102D90000122DA701798FFF7F7FA94F8303023F031
:102DA000400384F8303076E7012074E710B582B034
:102DB0000446FFF755FF08B102B010BD01A9204637
:102DC000FDF775FE0028F7D1E06AFDF7D1FC002879
:102DD000F2D12060F0E70000154B5B7A33BB10B5F1
:102DE000844603F0FF00124B93F809E05FFA8EFE71
:102DF0004FF0000403F80E4093F809E003EB8E0E49
:102E0000CEF804C093F809C09C448CF808205A7A84
:102E100002F1010C5FFA8CFC83F809C030320A70B1
:102E20003A234B702F238B70CC7010BD012070475C
:102E30000C05002008B50022FFF7CEFF08BD0000FA
:102E40002DE9F0418AB005AD00240594069407945D
:102E5000089409943E4BDA6C42F00402DA64DA6CAE
:102E600002F004020192019ADA6C42F00102DA6483
:102E7000DA6C02F001020292029ADA6C42F002026B
:102E8000DA64DA6C02F002020392039ADA6C42F01E
:102E90000802DA64DB6C03F008030493049BDFF898
:102EA000B8802246CC21404600F08BFE294E2246B7
:102EB00041F60741304600F084FECC2305930127FC
:102EC0000697079408942946404600F065FD1023B4
:102ED000059306944FF00208CDF81C8029464FF068
:102EE000904000F059FD41F607430593069707947B
:102EF00008942946304600F04FFD4FF48073059347
:102F0000CDF8188007940894099429464FF0904012
:102F100000F042FD4FF4006305934FF488130693CD
:102F2000079429464FF0904000F036FD4FF480534F
:102F300005930694079429464FF0904000F02CFD2D
:102F40003A460421304600F03CFE0AB0BDE8F0816C
:102F500000100240000400480008004872B6FEE776
:102F600008B50B480B4B03600B4B43604FF080538D
:102F700083600023C36003610C22426183610362AA
:102F8000436204F0F3FB00B908BDFFF7E7FF00BFA1
:102F900034070020008000402433030008B50C48AB
:102FA0000C4B03604FF4E133436000238360C36044
:102FB00003610C2242614FF440728261C36103627B
:102FC000436204F0D3FB00B908BDFFF7C7FF00BFA1
:102FD000AC0600200044004008B50B480B4B0360D2
:102FE0004FF4E133436000238360C36003610C222C
:102FF00042618361C3610362436204F0B7FB00B9BD
:1030000008BDFFF7ABFF00BF2406002000480040CA
:1030100008B50F480F4B03604FF4827343600023E1
:1030200083604FF44072C260036143614FF40072E9
:103030008261C3610362436283620722C2620363E7
:103040000823436304F056F800B908BDFFF786FF74
:10305000180500200030014000B587B0002301931F
:10306000029303930493059300931948194A02604D
:1030700043607F228260FF22C260036143618361FB
:10308000C36102F0BDFFE8B98DF804008DF80500BA
:103090008DF8060004900590012201A90C4803F068
:1030A0000DF888B901228DF800208DF801208DF8E7
:1030B00002208DF803006946054803F067F828B937
:1030C00007B000BDFFF74AFFFFF748FFFFF746FFD5
:1030D000000600200028004008B51148114B03608D
:1030E000114B4360002383600122C260036143618E
:1030F0008361C361036200F000FF50B901460848D4
:1031000001F02EF838B90146054801F056F820B90B
:1031100008BDFFF723FFFFF721FFFFF71FFF00BFE9
:10312000BC07002000580040E49CD11008B50E48B0
:103130000E4B0360002343608360C3604FF4006262
:103140000261436102228261036103F065FE30B9CE
:103150004FF40061044803F0DFFD10B908BDFFF72C
:10316000FDFEFFF7FBFE00BF7C05002000280140AC
:1031700000B597B04422002105A804F045FF0023C4
:10318000009301930293039304934FF4007001F0B2
:1031900023FA48BB1823059301230A930B930C9041
:1031A00060220D9202220F92109311932823129302
:1031B0000723139304231493159205A801F018FB19
:1031C000A0B90F230093032301930290039004906E
:1031D0000421684601F01CFE50B902464FF0807190
:1031E00001F08AFA17B000BDFFF7B8FEFFF7B6FE90
:1031F000FFF7B4FE70B5ADF5A16D00F0EFFAFFF783
:10320000B7FFFFF71DFEFFF7ABFEFFF7C7FEFFF7A7
:10321000E3FEFFF7FDFEFFF71FFFFFF75DFFFFF780
:1032200085FFFDF76DF901220221534800F0C9FC2A
:10323000524C01220421204600F0C3FC01228021CF
:10324000204600F0BEFC00F03DFA002000F050F9EE
:103250000020CDF8F404CDF8F804CDF8FC04CDF846
:103260000005CDF80405CDF8F004282100F00AFA95
:10327000434B012200920ECB0DF2DC4000F0EAF944
:1032800000F044F93CE002AC04ADA0AE23460522B8
:1032900029463046FFF7D5FA029B0024EC5430460D
:1032A000FFF784FD9DF81050234604E05A1C04A942
:1032B000885CC8541346032BF8DD04AA1571314904
:1032C0000DA804F07FFE44E02F4A0DAB07CA03C3EC
:1032D00023F8022B120C1A70002000F009F90021CB
:1032E000084600F0CFF9264B012200920ECB0DA824
:1032F00000F0B0F900F00AF94FF4FA6000F090FA2B
:1033000002211D4800F062FC204B9A6D204908A85C
:1033100004F058FE0021022000F0B4F900F0F6F8A5
:1033200001221C4912A8FFF777F80028CCD101220E
:103330001949A0A8FFF79EF80028A4D0174B93E8DE
:1033400003000490ADF814100DAB154A07CA83E8CA
:1033500007000A221049A0A8FFF78CF80028BBD16B
:10336000A0AC03AB052204A92046FFF758FB20467A
:10337000FFF71CFDB0E700BF00040048000800484C
:103380001C9100084C9000086C9000087C050020FF
:10339000309000087C000020409000085890000801
:1033A0006090000808B5074B01221A70FCF79CFFDB
:1033B00020B9044A137803F0FE031370014B187808
:1033C00008BD00BF0000002010B50446074B0122D5
:1033D0001A70FCF7B9FF10B1044B187810BD2046E5
:1033E000FFF7E0FF014B1870F6E700BF0000002078
:1033F00008B5FFF7D7FF08BD08B5084611461A46BD
:103400004FF0FF33FCF750FF30B9FCF76DFF034678
:103410000028FAD1184608BD0123FBE708B5084685
:1034200011461A464FF0FF33FCF74EFF30B9FCF758
:103430005BFF03460028FAD1184608BD0123FBE7CD
:1034400030B589B0154B187810F001041FD115461E
:10345000022916D00AD8F1B1012905D16846FCF736
:103460004DFF069B2B6013E0042411E0032906D1D5
:103470006846FCF743FF079B5B0A2B6008E00424C7
:1034800006E06846FCF73AFF079B2B8000E0032428
:10349000204609B030BD0C46FAE700BF000000200E
:1034A00000B587B08DF817004FF0FF33029301236A
:1034B00001930DF11702009200227821024800F0DA
:1034C00080FD07B000BD00BFBC07002000B585B07F
:1034D0004FF0FF33029389B2019100900123402203
:1034E0007821024800F06DFD05B000BDBC0700204A
:1034F00008B530B901464FF48062034804F084FDFA
:1035000008BDFF21F7E700BF1808002010B5002410
:1035100012E0A4F15000C0B2FFF7C2FF0020FFF795
:10352000BFFF1020FFF7BCFF8021054800EBC4104F
:10353000FFF7CCFF0134E4B2072CEAD910BD00BF7D
:103540001808002010F0800F13D13F2911D8012A4C
:1035500010D0CB0800EBC310DFF834C01CF80020FB
:1035600001F0070101238B40DB435BB213400CF8F1
:1035700000307047CB0800EBC310DFF814C01CF814
:10358000003001F007018A4013430CF80030704707
:10359000180800202DE9F04784B0814604A800E90E
:1035A0000E009DF83080A9F12003DBB25E2B46D8D7
:1035B000039B83B1A9F120029E5C254B1B883344F9
:1035C000802B40DC224B5B889DF805A05344402BA8
:1035D0003BDC002522E09DF80460EEE71C4B1888D8
:1035E000598829442044B8FA88F25209C9B2C0B2B5
:1035F000FFF7A8FF0134A6420FD907FA04F313F42A
:10360000004FEBD0124B1888598829442044424679
:10361000C9B2C0B2FFF796FFECE70135AA4508D959
:10362000A9F1200303FB0A53029A32F81370002415
:10363000E1E7074B1A8816441E80484600E0002048
:1036400004B0BDE8F0870020FAE70020F8E700BFEB
:103650001008002030B587B0044606A800E90E0027
:103660009DF8285000E00134207848B1009506AB61
:1036700013E90E00FFF78EFF034620788342F2D055
:1036800007B030BD014B18805980704710080020EA
:1036900010B504468120FFF703FF2046FFF700FF27
:1036A00010BD000008B530B1054B01225A71AF20A2
:1036B000FFF7F6FE08BD024B5871AE20F8E700BFD9
:1036C0001008002008B5642000F0AAF80020FFF7D9
:1036D000E9FF2020FFF7E4FE0020FFF7E1FEB02025
:1036E000FFF7DEFEC820FFF7DBFE0020FFF7D8FE65
:1036F0001020FFF7D5FE4020FFF7D2FEFF20FFF796
:10370000C7FFA120FFF7CCFEA620FFF7C9FEA82027
:10371000FFF7C6FE3F20FFF7C3FEA420FFF7C0FE61
:10372000D320FFF7BDFE0020FFF7BAFED520FFF73C
:10373000B7FEF020FFF7B4FED920FFF7B1FE22203C
:10374000FFF7AEFEDA20FFF7ABFE1220FFF7A8FE70
:10375000DB20FFF7A5FE2020FFF7A2FE8D20FFF75C
:103760009FFE1420FFF79CFE0120FFF79BFF002027
:10377000FFF7BEFEFFF7CAFE034B00221A805A80F5
:1037800001221A7108BD00BF10080020104B1B78E1
:103790000BB90120704710B504460E4A10684FF46B
:1037A0007A72B2FBF3F3B0FBF3F000F0B9F868B94A
:1037B0000F2C01D901200AE0024621464FF0FF30CC
:1037C00000F09AF8044B1C60002000E0012010BDBE
:1037D00001000020080000200400002010B5032094
:1037E00000F078F80F20FFF7D1FF18B101231C4635
:1037F000204610BD044600F00BFDF9E7034B1B7893
:10380000034A11680B441360704700BF0100002099
:10381000180C0020014B1868704700BF180C0020DE
:1038200038B50446FFF7F6FF0546B4F1FF3F02D076
:10383000044B1B781C44FFF7EDFF401BA042FAD35A
:1038400038BD00BF01000020002807DB00F01F0288
:10385000400901239340024A42F82030704700BFDC
:1038600000E100E0002808DB0901C9B200F1604076
:1038700000F5614080F80013704700F00F00090167
:10388000C9B2014B1954704714ED00E000B500F0C7
:103890000700A0F1030CBCF1040F07D8C0F1070E1C
:1038A0000430062806D84FF0000C03E04FF0040E59
:1038B0004FF0000C4FF0FF3303FA0EF021EA000145
:1038C00001FA0CF103FA0CF322EA030241EA0200C6
:1038D00000BD0000074AD36823F4E0631B041B0CFF
:1038E000000200F4E060034343F0BF6343F400339D
:1038F000D360704700ED00E010B50446054BD86872
:10390000C0F30220FFF7C2FF01462046FFF7AAFFDF
:1039100010BD00BF00ED00E008B5FFF795FF08BD42
:103920000138B0F1807F0BD24FF0E0235861054A97
:10393000F02182F823100020986107221A61704755
:103940000120704700ED00E008B590F82530022B0B
:1039500003D00423C363012008BD0268136823F069
:10396000010313600268136823F00E031360436CB5
:1039700003F01C03016C012202FA03F34B6080F890
:103980002520002380F82430836B13B19847002052
:10399000E2E71846E0E7000070B582B0002374E06B
:1039A00085684FEA430E032404FA0EF425EA040561
:1039B000CC6804FA0EF42C438460446824EA0C04B6
:1039C0004D68C5F3001E0EFA03FE4EEA040444607F
:1039D00070E0C46A24EA0C04C5F3C00E0EFA03FEBC
:1039E0004EEA0404C4626AE0DD08083550F8254058
:1039F00003F0070C4FEA8C0C4FF00F0E0EFA0CFE82
:103A000024EA0E0E0C6904FA0CF444EA0E0440F8A1
:103A100025406FE0062400E0002404FA0EF42C4355
:103A20000CF1020C5F4D45F82C405F4CA4686FEA26
:103A3000020C24EA02054E6816F4801F01D042EA07
:103A40000405594CA560E4680CEA04054E6816F4B8
:103A5000001F01D042EA0405534CE56064680CEA9B
:103A600004054E6816F4003F01D042EA04054E4CAE
:103A7000656024680CEA04054E6816F4803F01D0A6
:103A800042EA0405484A156001330A6832FA03F431
:103A900000F086804FF0010C0CFA03FC1CEA0202D5
:103AA000F2D04C6804F0030E0EF1FF3EBEF1010FA0
:103AB0007FF676AF4D6805F00304032C89D04C687F
:103AC00004F0030CBCF1030F0DD0C4685D004FF08F
:103AD000030C0CFA05FC24EA0C048E6806FA05FCBB
:103AE0004CEA0404C4604C6804F0030CBCF1020FFF
:103AF0003FF47AAF05685C004FF0030C0CFA04FC4D
:103B000025EA0C0E4D6805F0030C0CFA04FC4CEA97
:103B10000E0404604C6814F4403FB5D0234C256E6D
:103B200045F001052566246E04F001040194019C12
:103B30004FEA930C0CF102051A4C54F8255003F08F
:103B4000030E4FEA8E0E0F2404FA0EF425EA040544
:103B5000B0F1904F3FF460AF154CA04216D004F581
:103B60008064A04214D004F58064A04212D004F511
:103B70008064A04210D004F58064A0420ED004F509
:103B80008064A0423FF446AF072446E7012444E79F
:103B9000022442E7032440E704243EE705243CE7EF
:103BA00002B070BD0000014000040140001002405E
:103BB000000400480369194201D001207047002029
:103BC00070470AB18161704781627047436901EAB9
:103BD000030221EA030141EA02418161704703685F
:103BE0009A6912F0020F01D000229A6203689A6962
:103BF00012F0010F03D19A6942F001029A617047F5
:103C0000DDF800C0C1F3090141EA0241194341EA6C
:103C10000C0121F00041026853684FEA5C5C0CF42F
:103C2000806C4CF07F7C4CF4583C4CF47F7C4CF026
:103C3000030C23EA0C030B43536070472DE9F0415A
:103C4000044603689E6916F010067CD00D46904627
:103C50001022DA61002637462368986910F0200F99
:103C600030D17FBBB5F1FF3FF6D0FFF7D3FD434620
:103C7000C01AA84201D8002DEED121684B6803F488
:103C8000804394F84220D2B2886910F4004F02D0E9
:103C90000BB9202A0ED123689B6913F0200FDBD1CA
:103CA000FFF7B8FD4346C01A1928F4D946F020069C
:103CB0000127D1E74B6843F480434B60FFF7AAFD2F
:103CC0008046E8E70FB92022DA6146F004060125B4
:103CD0002268936913F4807F05D046F001064FF403
:103CE0008071D161012513F4806F06D046F008067B
:103CF00022684FF48061D161012513F4007F24D044
:103D000046F0020623684FF40072DA61012520466E
:103D1000FFF765FF2268536823F0FF7323F48B33AA
:103D200023F4FF7323F001035360636C3343636434
:103D3000202384F84130002384F8423084F8403056
:103D40002846BDE8F0810025C2E7002DF8D0DEE767
:103D500070B504460D46164623689B6913F0020FA2
:103D600022D1324629462046FFF768FFF0B9B5F167
:103D7000FF3FF1D0FFF74EFD801BA84201D8002D78
:103D8000EAD123689B6913F0020FE5D1636C43F01D
:103D900020036364202384F84130002384F84230F8
:103DA00084F84030012000E0002070BD0120FCE7D5
:103DB0002DE9F04104460F4616461D46DDF81880F1
:103DC00023689B6937EA03030CBF01230023B34236
:103DD00027D1424629462046FFF730FF20BBB5F1E8
:103DE000FF3FEDD0FFF716FDA0EB0800A84201D879
:103DF000002DE5D123689B6937EA03030CBF01233B
:103E00000023B342DCD1636C43F0200363642023BE
:103E100084F84130002384F8423084F84030012097
:103E200000E00020BDE8F0810120FBE770B582B022
:103E3000044616461D46184B00934FF08073EAB2B5
:103E4000FFF7DEFE079A06992046FFF781FFE0B9EB
:103E5000012D0DD12368F2B29A62079B0093069B55
:103E6000002280212046FFF7A3FF90B902B070BD69
:103E7000330A22689362079A06992046FFF768FF83
:103E800028B92368F2B29A62E7E70120EEE7012041
:103E9000ECE70120EAE700BF0020008070B504468F
:103EA0000D46164604E023689B6913F0200F12D0DC
:103EB00023689B6913F0200F1BD132462946204608
:103EC000FFF7BCFEB8B9FFF7A5FC801BA842EAD8F3
:103ED000002DEDD1E7E7636C43F0200363642023FA
:103EE00084F84130002384F8423084F840300120C7
:103EF00000E0002070BD0120FCE700285FD010B575
:103F0000044690F84130002B48D0242384F84130F7
:103F10002268136823F0010313606368226823F0AA
:103F2000706313612268936823F400439360E3682D
:103F3000012B38D0A368226843F404439360E368FC
:103F4000022B36D02268536823F400635360226842
:103F5000536843F0007343F4004353602268D3680E
:103F600023F40043D360236962691343A169226883
:103F700043EA0123D360E369216A22680B4313609B
:103F80002268136843F0010313600020606420235B
:103F900084F84130206384F8420010BD80F840303E
:103FA00000F04EF9B1E7A368226843F40043936040
:103FB000C5E72268536843F400635360C7E70120F4
:103FC00070472DE9F04383B00E469846BDF82C307B
:103FD00090F84110202940F0B780044617469946D2
:103FE0000A9ABAB1B3B190F84030012B00F0B0801A
:103FF0004FF0010380F84030FFF70CFC05460090BD
:10400000192301224FF400412046FFF7D1FE30B1C1
:1040100001209AE04FF400736364012095E02123AE
:1040200084F84130402384F8423060640A9A626226
:10403000A4F82A90606301950C9B009343463A468E
:1040400031462046FFF7F2FE68B9638D9BB2FF2B25
:104050000ED9FF22228500904FF080733146204612
:10406000FFF7CEFD21E0002384F8403001206CE012
:10407000628D92B22285002300934FF00073D2B27A
:1040800031462046FFF7BCFD0FE0628D92B22285DB
:10409000002300934FF00073D2B231462046FFF761
:1040A000AFFD638D9BB2002B32D02A460C9920467F
:1040B000FFF74EFE00284DD1626A236812789A629B
:1040C000636A01336362638D9BB2013B9BB263857C
:1040D000238D013B9BB22385628D92B2002AE0D0F2
:1040E000002BDED100950C9B024680212046FFF775
:1040F0005FFE88BB638D9BB2FF2BC6D9FF22228552
:1041000000904FF0807331462046FFF779FDC8E7F5
:104110002A460C992046FFF7C1FEF8B923682022F1
:10412000DA6121684B6823F0FF7323F48B3323F4A7
:10413000FF7323F001034B6084F84120002384F8CF
:10414000423084F8403000E0022003B0BDE8F08344
:104150000220FAE70120F8E70120F6E70120F4E762
:10416000034690F84120202A23D190F84020012ACC
:1041700021D0012280F84020242280F841200068CC
:10418000026822F0010202601868026822F480527C
:104190000260186802680A43026019680A6842F0FF
:1041A00001020A60202283F84120002083F84000A9
:1041B00070470220704702207047034690F8412064
:1041C000202A21D190F84020012A1FD0012280F816
:1041D0004020242280F841200068026822F0010279
:1041E00002601868026822F4706242EA01220260EA
:1041F00019680A6842F001020A60202283F841200F
:10420000002083F84000704702207047022070476A
:1042100082B00A4B1A6E42F001021A661A6E02F060
:1042200001020092009A9A6D42F080529A659B6D4D
:1042300003F080530193019B02B0704700100240CD
:1042400010B5AAB004460021259126912791289106
:104250002991882203A803F0D7FE2268184B9A42BE
:1042600001D02AB010BD8023039303A801F0C2F847
:1042700010BB144CE36C43F00203E364E36C03F003
:1042800002030193019B4FF4C0432593122326930D
:1042900000232793032328930423299325A90A485D
:1042A000FFF77AFBA36D43F48003A365A36D03F4CA
:1042B00080030293029BD4E7FEF750FED9E700BFCC
:1042C00000580040001002400004004810B5AEB095
:1042D0000446002129912A912B912C912D9188221D
:1042E00007A803F091FE2368454A934207D0454A48
:1042F00093422ED0444A934257D02EB010BD202373
:10430000079307A801F076F800BB404BDA6D42F046
:104310000102DA65DA6D02F001020192019ADA6CAB
:1043200042F00402DA64DB6C03F004030293029BA4
:104330000323299302222A9200222B922C930823F2
:104340002D9329A93248FFF727FBD6E7FEF706FE93
:10435000DBE70223079307A801F04CF810BB2B4BB7
:104360009A6D42F400329A659A6D02F4003203921B
:10437000039ADA6C42F00102DA64DB6C03F00103A9
:104380000493049B0F23299302232A9300232B9346
:1043900003232C9307232D9329A94FF09040FFF777
:1043A000FBFAAAE7FEF7DAFDD9E70423079307A88B
:1043B00001F020F808BB154B9A6D42F480229A65F3
:1043C0009A6D02F480220592059ADA6C42F004029A
:1043D000DA64DB6C03F004030693069B3023299315
:1043E00002232A9300232B9303232C9307232D933B
:1043F00029A90748FFF7D0FA7FE7FEF7AFFDDAE714
:10440000008000400044004000480040001002408E
:104410000008004810B5A2B0044688220021684672
:1044200003F0F2FD22680D4B9A4201D022B010BD7C
:104430004FF4003300934FF400732193684600F06B
:10444000D9FF38B9064AD2F8903043F40043C2F895
:104450009030EBE7FEF782FDF4E700BF0028004054
:104460000010024070B5AAB00446002125912691A3
:10447000279128912991882203A803F0C5FD22687D
:10448000344B9A4201D02AB070BD4FF400230393FD
:104490004FF080631F930123049305931823069321
:1044A000072307930223089309934FF480130A9379
:1044B00003A800F09FFF002848D1274B1A6E42F452
:1044C00080621A661A6E02F480620092009ADA6CB8
:1044D00042F00402DA64DA6C02F004020192019AFA
:1044E000DA6C42F00802DA64DB6C03F00803029332
:1044F000029B4FF488532593022526950024279488
:1045000028940C26299625A91448FFF745FA4FF45C
:10451000606325932695279403232893299625A93C
:104520000E48FFF739FA04232593269527942894FB
:10453000299625A90A48FFF72FFA2246214631205D
:10454000FFF7DAF93120FFF7E7F99CE7FEF706FD00
:10455000B3E700BF002801400010024000080048F7
:10456000000C004800B589B0002303930493059321
:10457000069307930268134B9A4201D009B000BD1D
:1045800003F560431A6E42F480521A661A6E02F402
:1045900080520192019ADA6C42F00102DA64DB6C1B
:1045A00003F001030293029BE0230393022304938D
:1045B000032306930523079303A94FF09040FFF7C9
:1045C000EBF9DBE700300140024B186800F4C060F3
:1045D000704700BF00700040B0F5007F0FD01F4B48
:1045E0001B6803F4C063B3F5806F34D01B4A1368B3
:1045F00023F4C06343F48063136000207047174BBB
:104600001B6803F4C063B3F5007F20D0134A13681E
:1046100023F4C06343F400731360114B1B68322210
:1046200002FB03F30F4AA2FB03239B0C013300E0C0
:10463000013B0A4A526912F4806F01D0002BF7D176
:10464000064B5B6913F4806F03D100207047002094
:104650007047032070470020704700BF0070004083
:104660000800002083DE1B4330B583B00546204B95
:104670009B6D13F0805F0BD0FFF7A6FFB0F5007FB6
:1046800017D0802D1FD82DD0702D2DD000211BE0EC
:10469000174CA36D43F08053A365A36D03F08053C3
:1046A0000193019BFFF790FFA36D23F08053A36557
:1046B000E4E7802D03D9A02D03D9022104E00021D5
:1046C00002E0012100E003210A4A136823F00703F6
:1046D0000B431360136803F007038B4206D10020DD
:1046E00003B030BD0221EFE70121EDE70120F7E73C
:1046F000001002400020024070B586B00E461546FC
:10470000104CE36C43F00103E364E36C03F001033A
:104710000093009B4FF48073019302230293049350
:1047200000230393059301A94FF09040FFF734F95C
:10473000A36823F0EE4332462A431A43A26006B030
:1047400070BD00BF00100240254A9368D26802F095
:10475000030213F00C0309D00C2B05D0042B3BD023
:10476000082B3BD000200FE0012AF7D11C4A126829
:1047700012F0080F0CD11A4AD2F89420C2F3032287
:10478000184951F8220013B10C2B06D000207047B5
:10479000134A1268C2F30312F2E7114BDB6803F00D
:1047A0000303022B16D0032B00D10F480C49CA6813
:1047B000C2F302120132CB68C3F3062300FB03F3FA
:1047C000B3FBF2F3C868C0F3416001304000B3FBB3
:1047D000F0F070470548E9E7044870470248704721
:1047E0000010024094980008001BB7000024F40059
:1047F000002800F0F382F0B583B00446964B9D6824
:1048000005F00C05DB6803F003031E46036813F094
:10481000100F5AD0E5B10C2D18D0A369002B00F071
:10482000BB808D4A136843F001031360FEF7F2FF6B
:104830000746894B1B6813F0020F40F09A80FEF781
:10484000E9FFC01B0228F4D90320D2E2012EE4D1F3
:10485000814B1B6813F0020F03D0A369002B00F0FB
:10486000BF82206A7C4B1B6813F0080F5BD07A4B29
:104870001B6803F0F00398425CD8774B1A6842F04B
:1048800008021A601A6822F0F002216A0A431A60CC
:104890005A6822F47F42E16942EA01225A60002DFF
:1048A00060D0FFF751FF6C4B9B68C3F303136B4A57
:1048B000D35C03F01F03D840694B1860694B18683C
:1048C000FEF764FF002840F09482236813F0010F84
:1048D00000F08180082D75D00C2D71D06368B3F580
:1048E000803F00F09780B3F5A02F00F099805A4BDD
:1048F0001A6822F480321A601A6822F480221A6040
:104900006368002B00F09980FEF784FF0746524B46
:104910001B6813F4003F5ED1FEF77CFFC01B6428C8
:10492000F5D9032065E24C4BD3F894301B0903F012
:10493000F003A0E7FFF798FE002840F05382464BB3
:104940001A6842F008021A601A6822F0F002216A1E
:104950000A431A605A6822F47F42E16942EA01225E
:104960005A609EE7206AFFF77FFE002899D0012059
:104970003FE2394B1A6842F008021A601A6822F0C6
:10498000F002216A0A431A605A6822F47F42E16900
:1049900042EA01225A6098E72F4A136823F0010384
:1049A0001360FEF737FF07462B4B1B6813F0020F0F
:1049B0008BD0FEF72FFFC01B0228F5D9032018E289
:1049C000032E8BD1244B1B6813F4003F03D0636884
:1049D000002B00F00982236813F0020F57D0042D3A
:1049E00044D00C2D40D0E368002B76D01A4A1368CF
:1049F00043F480731360FEF70DFF0646164B1B68E9
:104A000013F4806F60D1FEF705FF801B0228F5D9F3
:104A10000320EEE1104A136843F4803313606FE71C
:104A200003F18043A3F53C331A6842F480221A60F4
:104A30001A6842F480321A6062E7FEF7EBFE07461E
:104A4000054B1B6813F4003FC5D0FEF7E3FEC01B07
:104A50006428F5D90320CCE100100240CC9800086E
:104A60000800002004000020022EBCD1A44B1B68CB
:104A700013F4806F03D0E368002B00F0B781A04AE5
:104A8000536823F0F853216943EA016353602368B4
:104A900013F0080F4CD063699BB3994AD2F8943055
:104AA00043F00103C2F89430FEF7B4FE0646944B7F
:104AB000D3F8943013F0020F3AD1FEF7ABFE801B0F
:104AC0000228F4D9032094E18D4A536823F0F85367
:104AD000216943EA01635360D9E7894A136823F4E3
:104AE00080731360FEF796FE0646854B1B6813F431
:104AF000806FCCD0FEF78EFE801B0228F5D90320F4
:104B000077E17F4AD2F8943023F00103C2F8943061
:104B1000FEF780FE06467A4BD3F8943013F0020F6E
:104B200006D0FEF777FE801B0228F4D9032060E14F
:104B3000236813F0040F7CD0714B9B6D13F0805FE2
:104B400037D16F4B9A6D42F080529A659B6D03F09E
:104B500080530193019B01231F466A4B1B6813F48A
:104B6000807F29D0A368012B3AD0052B40D0644B1D
:104B7000D3F8902022F00102C3F89020D3F89020BF
:104B800022F00402C3F89020A368002B3ED0FEF769
:104B900041FE06465A4BD3F8903013F0020F47D12E
:104BA000FEF738FE801B41F288339842F2D9032089
:104BB0001FE100231F46D0E7524A136843F4807375
:104BC0001360FEF727FE06464E4B1B6813F4807FEA
:104BD000C8D1FEF71FFE801B0228F5D9032008E18B
:104BE000474AD2F8903043F00103C2F89030CBE747
:104BF000434BD3F8902042F00402C3F89020D3F83E
:104C0000902042F00102C3F89020BDE7FEF702FEBB
:104C100006463B4BD3F8903013F0020F08D0FEF756
:104C2000F9FD801B41F288339842F2D90320E0E07D
:104C3000EFB9A36A002B00F0DB80022B1DD00C2DF6
:104C400000F0DD802E4A136823F080731360FEF7B6
:104C5000E1FD04462A4B1B6813F0007F00F0B7808B
:104C6000FEF7D8FD001B0228F4D90320C1E0244A36
:104C7000936D23F080539365DBE7214BDB6803F0F2
:104C80000301E26A91420FD00C2D00F0B4801C4B5E
:104C90001B6813F0806F40F0B080194B1B6813F055
:104CA000805F31D00120A4E003F07002216B013954
:104CB000B2EB011FE8D103F4FE42616BB2EB012FAE
:104CC000E2D103F40031A26B073A18BF01229142EE
:104CD000DAD103F4C001E26B5208013AB1EB425F52
:104CE000D2D103F0C063226C5208013AB3EB426F99
:104CF000CAD1034B1B6813F0007F4ED0002078E030
:104D000000100240007000403E4A136823F0807398
:104D10001360FEF77FFD05463A4B1B6813F0007FDA
:104D200006D0FEF777FD401B0228F5D9032060E08E
:104D3000344AD36834491940E36A206B013843EAA6
:104D40000013606B43EA0023E06B4008013843EA3C
:104D50004053206C4008013843EA4063A06B0009CF
:104D600043EA40431943D160136843F080731360F2
:104D7000D36843F08073D360FEF74CFD0446214BAB
:104D80001B6813F0007F06D1FEF744FD001B0228CC
:104D9000F5D903202DE000202BE01A4B1A6842F0D1
:104DA00080721A60DA6842F08072DA60FEF732FDD3
:104DB0000446144B1B6813F0007F06D1FEF72AFD52
:104DC000031B022BF5D9032013E0002011E00D4A4C
:104DD000D1680E4B0B40D36000200AE001207047E1
:104DE000012006E0012004E0012002E0012000E0B3
:104DF000184603B0F0BD0120FBE70120F9E70120D0
:104E0000F7E700BF001002408C809DF9FCFFEEFE2A
:104E1000002800F0AF8070B50D460446594B1B6862
:104E200003F007038B420BD2564A136823F00703A3
:104E30000B431360136803F007038B4240F09C8020
:104E4000236813F0020F0CD0A2684F4B9B6803F04D
:104E5000F0039A4205D94C498B6823F0F0031A43BA
:104E60008A60236813F0010F39D06368032B09D0DF
:104E7000022B26D063BB444A126812F0020F06D1FF
:104E8000012076E0404A126812F0007F76D03E4959
:104E90008A6822F0030213438B60FEF7BBFC0646D0
:104EA000394B9B6803F00C036268B3EB820F16D09A
:104EB000FEF7B0FC801B41F288339842F0D9032002
:104EC00057E0314A126812F4003FE0D1012050E06F
:104ED0002D4A126812F4806FD9D1012049E023686D
:104EE00013F0020F0CD0A268274B9B6803F0F0036D
:104EF0009A4205D224498B6823F0F0031A438A6052
:104F0000204B1B6803F00703AB420AD91D4A136804
:104F100023F007032B431360136803F00703AB422E
:104F20002ED1236813F0040F06D0174A936823F498
:104F3000E063E1680B439360236813F0080F07D028
:104F4000114A936823F46053216943EAC1039360D3
:104F5000FFF7FAFB0C4B9B68C3F303130B4AD35CBC
:104F600003F01F03D8400A4B18600A4B1868FEF77D
:104F70000DFC70BD012070470120FAE70120F8E721
:104F80000120F6E70020024000100240CC98000803
:104F90000800002004000020014B1868704700BF83
:104FA0000800002008B5FFF7F7FF054B9B68C3F327
:104FB0000223044AD35C03F01F03D84008BD00BF9E
:104FC00000100240C498000808B5FFF7E5FF054B44
:104FD0009B68C3F3C223044AD35C03F01F03D84089
:104FE00008BD00BF00100240C4980008B0F5006F73
:104FF0002BD0B0F5805F32D00023B3F5000F38D04E
:10500000B3F1007F35D0002B54D103F1804303F579
:105010000433186810F0006053D0186910F4803021
:105020004FD01A46D868C0F302100130B1FBF0F13E
:105030001B69C3F30623126912F4003F38D0112212
:1050400003FB01F0B0FBF2F070472E4BD3F8883031
:1050500003F44003B3F5400FCFD12B487047294BE1
:10506000D3F8883003F04073B3F1407FC5D12648B0
:105070007047244B186810F0007022D0D86810F4E4
:1050800080301ED01A46D868C0F302100130B1FB40
:10509000F0F1DB68C3F30623D26812F4003F05D0B9
:1050A000112203FB01F0B0FBF2F070470722F8E792
:1050B0000722C5E7B3F5800F04D0B3F1807F01D09C
:1050C000002070470F4B186810F00050F9D0586955
:1050D00010F48030F5D01A46D868C0F302100130C1
:1050E000B1FBF0F15B69C3F30623526912F4003F90
:1050F00005D0112203FB01F0B0FBF2F0704707224C
:10510000F8E700BF0010024068FF1F00F8B5044632
:105110000F465F4BDB6813F0030F1BD05C4BDB6863
:1051200003F003030268934203D001231D4628467F
:10513000F8BD002A00F0A580554BDB68C3F30213CD
:1051400001334268934202D001231D46EFE700235A
:105150001D461AE00368022B59D0032B5FD0012BA8
:1051600040F092804A4A126812F0020F64D0484818
:10517000C26822F073026168013943EA01131343E4
:10518000C36000231D46002DD1D1414A136823F08E
:1051900080631360FEF73EFB06463D4B1B6813F031
:1051A000006F06D0FEF736FB831B022BF5D90323D5
:1051B0001D46002DBBD1002F41D135490B6923F489
:1051C0001F3323F44073A068E2681209520442EAD4
:1051D000002213430B612E4A136843F0806313606F
:1051E000FEF718FB06462A4B1B6813F0006F06D12A
:1051F000FEF710FB801B0228F5D903231D46002D66
:1052000095D1234A1369A1690B4313618FE7204AA3
:10521000126812F4806FAAD101231D4687E71C4A49
:10522000126812F4003FA2D1194A126812F4802FBA
:105230009DD101231D467AE701231D46A3E7012FD7
:105240000FD01348026922F0C06222F4FE42A16826
:1052500063695B08013B5B0643EA01231A43026171
:10526000B9E70B48026922F4C00222F4FE42A168A9
:1052700023695B08013B5B0543EA01231A43026192
:10528000A9E701231D4652E701231D464FE700BF52
:1052900000100240F8B504460F46554BDB6813F08A
:1052A000030F1BD0524BDB6803F0030302689342E9
:1052B00003D001231D462846F8BD002A00F0928045
:1052C0004B4BDB68C3F3021301334268934202D0B5
:1052D00001231D46EFE700231D4619E00368022B5A
:1052E00058D0032B5ED0012B7FD1414A126812F0B7
:1052F000020F64D03E48C26822F07302616801392F
:1053000043EA01131343C36000231D46002DD2D18D
:10531000374A136823F080531360FEF77BFA064682
:10532000334B1B6813F0005F06D0FEF773FA831B44
:10533000022BF5D903231D46002DBCD1002F41D1EE
:105340002B494B6923F41F3323F44073A068E268B0
:105350001209520442EA002213434B61244A1368A3
:1053600043F080531360FEF755FA0646204B1B6846
:1053700013F0005F06D1FEF74DFA801B0228F5D925
:1053800003231D46002D96D1194A536961690B43C9
:10539000536190E7164A126812F4806FAAD1012374
:1053A0001D4688E7124A126812F4003FA2D1104A43
:1053B000126812F4802F9DD101231D467BE7012343
:1053C0001D46A3E70A48426922F0C06222F4FE4269
:1053D000A16823695B08013B5B0643EA01231A438A
:1053E0004261BBE701231D4665E701231D4662E7D5
:1053F000001002402DE9F04182B00446036813F426
:10540000006F38D0436EB3F5000F18D00DD84BB3F2
:10541000B3F5800F05D100212030FFF73BFF064692
:1054200025E001231F461E4628E0B3F5400F02D1B8
:1054300000231E460AE001231F461E461EE0644A62
:10544000D36843F48033D36000231E46604AD2F809
:10545000883023F44003616E0B43C2F88830002388
:105460001F460BE019460430FFF750FE0646002E9B
:10547000ECD0374602E000231F461E46236813F493
:10548000805F32D0A36EB3F1007F21D00ED82BB352
:10549000B3F1807F06D1002104F12000FFF7FAFE6E
:1054A000064606E001231F461E461EE0B3F1407F7C
:1054B0000AD1CEB9464AD2F8883023F04073A16EA3
:1054C0000B43C2F8883010E001231F461E460CE053
:1054D0003F4AD36843F48033D360EAE71946201D7E
:1054E000FFF714FE0646E4E73746236813F4003F4F
:1054F00077D0374B9B6D13F0805F52D1344B9A6D50
:1055000042F080529A659B6D03F080530193019B9A
:10551000012398462F4A136843F480731360FEF703
:1055200079F905462B4B1B6813F4807F06D1FEF7F3
:1055300071F9401B0228F5D903231E46002E4BD1DA
:1055400006F1804303F50433D3F8903013F440732D
:1055500019D0D4F884209A4212D01D4AD2F8903043
:1055600023F44073D2F8901041F48031C2F89010C7
:10557000D2F8901021F48031C2F89010C2F8903027
:1055800013F0010F10D1002E40F02981104AD2F8FB
:10559000903023F44073D4F884100B43C2F8903059
:1055A0001BE000239846B5E7FEF734F90546084BA3
:1055B000D3F8903013F0020FE5D1FEF72BF9401B22
:1055C00041F288339842F2D903231E46DBE700BF3D
:1055D000001002400070004037464346002B40F068
:1055E0000081236813F0010F08D09D4AD2F888305B
:1055F00023F00303A16B0B43C2F88830236813F038
:10560000020F08D0964AD2F8883023F00C03E16BE1
:105610000B43C2F88830236813F0040F08D0904A77
:10562000D2F8883023F03003216C0B43C2F8883065
:10563000236813F0080F08D0894AD2F8883023F085
:10564000C003616C0B43C2F88830236813F0100F5D
:1056500008D0834AD2F8883023F44073A16C0B43FE
:10566000C2F88830236813F0200F08D07C4AD2F8A3
:10567000883023F44063E16C0B43C2F88830236820
:1056800013F4007F08D0764AD2F8883023F4402300
:10569000E16D0B43C2F88830236813F4806F08D0A3
:1056A0006F4AD2F8883023F44013216E0B43C2F8BE
:1056B0008830236813F0400F08D0694AD2F8883048
:1056C00023F44053216D0B43C2F88830236813F054
:1056D000800F08D0624AD2F8883023F44043616DCD
:1056E0000B43C2F88830236813F4807F08D05C4AEB
:1056F000D2F8883023F44033A16D0B43C2F88830D0
:10570000236813F4005F0FD0554AD2F8883023F095
:105710004063E16E0B43C2F88830E36EB3F1006F73
:1057200065D0B3F1806F67D0236813F4002F0FD0DA
:105730004B4AD2F8883023F04063216F0B43C2F804
:105740008830236FB3F1006F5ED0B3F1806F60D00B
:10575000236813F4802F0FD0414AD2F8883023F009
:105760004063616F0B43C2F88830636FB3F1006F21
:1057700057D0B3F1806F59D0236813F4804F0FD006
:10578000374AD2F8883023F04053A16F0B43C2F858
:105790008830A36FB3F1805F50D0B3F1005F55D074
:1057A000236813F4004F08D02D4AD2F8883023F034
:1057B0008043E16F0B43C2F88830236813F4803FC5
:1057C00009D0274AD2F8883023F00043D4F880105B
:1057D0000B43C2F88830384602B0BDE8F081374646
:1057E000FBE61F4A936D23F080539365F9E6D36877
:1057F00043F48013D36097E70121201DFFF786FC57
:10580000002891D007468FE7D36843F48013D36014
:105810009EE70121201DFFF779FC002898D007465C
:1058200096E7D36843F48013D360A5E70121201DD8
:10583000FFF76CFC00289FD007469DE70221201D42
:10584000FFF764FC0028ABD00746A9E7022104F16A
:105850002000FFF71FFD0028A2D00746A0E700BFE9
:105860000010024008B5B0F5003F1AD0A54BDB6828
:1058700003F00303022B45D0032B4AD0012B4FD159
:10588000A04B196811F002014BD01B6813F0080FF0
:1058900032D09C4B1B68C3F303139B4A52F823106E
:1058A0003FE0984BD3F8903003F44073B3F5007F9A
:1058B00010D0B3F5407F17D0B3F5807F40F0308330
:1058C000904BD3F8900010F0020000F02A834FF4C0
:1058D000004026E38B4BD3F8940010F0020000F058
:1058E00020834FF4FA401CE3864B186810F4003014
:1058F00000F01783854814E3824BD3F89430C3F348
:105900000323CAE77F4B196811F4806109D08049ED
:1059100007E07C4B196811F4003102D07D4900E0AA
:105920000021B0F5807F00F0848257D8102800F065
:10593000B98134D8042800F0718119D8012800F009
:105940002981022812D16F4BD3F8883003F00C0361
:10595000082B00F05B8100F24881002B00F053819E
:10596000042B40F04081FEF7EFFEDAE20020D8E29F
:10597000082812D1634BD3F8883003F0C003802B82
:1059800000F0888100F27581002B00F08081402BAF
:1059900040F06D81FEF7D8FEC3E20020C1E240284E
:1059A00000F01082802800F02982202814D1554B65
:1059B000D3F8883003F44063B3F5006F00F0B28190
:1059C00000F29E81002B00F0AA81B3F5806F40F0B9
:1059D0009581FEF7B9FEA4E20020A2E2B0F5805F57
:1059E00073D010D9B0F5004F00F0878233D9B0F5ED
:1059F000803F4BD1434BD3F88830002BC0F2DB8182
:105A0000FFF7E2FA8DE2B0F5806F00F04682B0F564
:105A1000006F55D0B0F5007F1BD13A4BD3F88830DA
:105A200003F44023B3F5002F00F0308200F21D8212
:105A3000002B00F02882B3F5802F40F01482314B08
:105A4000D3F8940010F0020000F06B824FF4FA409B
:105A500067E2002065E2B0F5005F1FD0B0F5804F2F
:105A600012D1284BD3F8883003F04053B3F1005FD4
:105A700000F08281B3F1405F00F05C81B3F1805FA0
:105A800000F05B8100204CE200204AE2C0F04A8234
:105A9000B0F5802F02D0B0F5002F0FD1194BD3F8FD
:105AA000883003F04063B3F1006F35D0B3F1406F3D
:105AB00010D0B3F1806F4ED0002032E2002030E2EF
:105AC0004FF40060FFF792FA2BE24FF48050FFF79B
:105AD0008DFA26E20B4B186810F0020000F02182CC
