:020000040800F2
:1000000000800120CD2500089F250008A1250008BB
:10001000A3250008A5250008A7250008000000006A
:10002000000000000000000000000000A9250008FA
:10003000AB25000800000000AD250008AF25000832
:100040001D2600081D2600081D2600081D26000884
:100050001D2600081D2600081D2600081D26000874
:100060001D2600081D2600081D2600081D26000864
:100070001D2600081D2600081D2600081D26000854
:100080001D2600081D2600081D2600081D26000844
:100090001D2600081D2600081D2600081D26000834
:1000A0001D2600081D2600081D2600081D26000824
:1000B0001D2600081D2600081D2600081D26000814
:1000C0001D2600081D2600081D2600081D26000804
:1000D0001D2600081D2600081D2600081D260008F4
:1000E0001D2600081D2600081D2600081D260008E4
:1000F0001D2600081D2600081D2600081D260008D4
:100100001D2600081D2600081D2600081D260008C3
:100110001D2600081D2600081D2600081D260008B3
:100120001D2600081D2600081D2600081D260008A3
:100130001D2600081D2600081D2600081D26000893
:100140001D2600081D2600081D2600081D26000883
:100150001D2600081D2600081D2600081D26000873
:100160001D2600081D2600081D2600081D26000863
:100170001D2600081D2600081D260008000000009E
:080180001D2600081D260008E1
:1001880053B94AB9002908BF00281CBF4FF0FF31F6
:100198004FF0FF3000F00CB8ADF1080C6DE904CE5B
:1001A80002F066FADDF804E0DDE9022304B07047E6
:1001B800704700BF08B5064B1A783AB9054A1AB114
:1001C8000548AFF30080024B01221A7008BD00BF3A
:1001D80010000020000000009829000808B5034B13
:1001E8001BB103490348AFF3008008BD00000000BD
:1001F80014000020982900082DE9F0418AB005ADC7
:100208000024059406940794089409942F4BDA6CFB
:1002180042F00402DA64DA6C02F004020192019AF4
:10022800DA6C42F00102DA64DA6C02F0010202923E
:10023800029ADA6C42F00202DA64DA6C02F0020224
:100248000392039ADA6C42F00802DA64DB6C03F07A
:1002580008030493049BDFF87C802246CC214046A7
:1002680000F022FB1A4E224647F60741304600F0BE
:100278001BFBCC230593012706970794089429466E
:10028800404600F003FA47F607430593069707949C
:1002980008942946304600F0F9F94FF400630593B5
:1002A8004FF488130693079429464FF0904000F0C6
:1002B800EDF94FF4805305930694079429464FF0BF
:1002C800904000F0E3F90AB0BDE8F0810010024068
:1002D800000400480008004872B6FEE708B50B485D
:1002E8000B4B03600B4B43604FF08053836000233C
:1002F800C36003610C22426183610362436201F0BF
:10030800E5FF00B908BDFFF7E7FF00BFF0010020D7
:10031800008000402433030008B50A480A4B0360F4
:100328004FF4E133436000238360C36003610C2210
:1003380042618361C361036202F000F900B908BD3C
:10034800FFF7CAFFA00100200038014008B50C489B
:100358000C4B03604FF4E133436000238360C360B8
:1003680003610C2242614FF440728261C3610362EF
:10037800436201F0ABFF00B908BDFFF7ADFF00BF56
:10038800180100200044004008B50B480B4B0360DF
:100398004FF4E133436000238360C36003610C22A0
:1003A80042618361C3610362436201F08FFF00B958
:1003B80008BDFFF791FF00BF9000002000480040F3
:1003C80008B50F480F4B03604FF482734360002356
:1003D80083604FF44072C260036143614FF480222E
:1003E8008261C3610362436283620722C26203635C
:1003F8000823436301F02EFC00B908BDFFF76CFF2A
:100408002C0000200030014000B597B044220021A4
:1004180005A802F000F900230093019302930393C7
:1004280004934FF4007000F087FBF0B91223059392
:100438004FF4807308931023099301230B930C90B6
:1004480060220D920F9005A800F05AFC78B90F238E
:10045800009301230193014602900390049068469B
:1004680000F05EFF28B917B000BDFFF735FFFFF7B2
:1004780033FFFFF731FF000008B500F063F8FFF71E
:10048800C3FFFFF7B9FE194D01220221284600F0EB
:100498000BFA174C01220421204600F005FA01222C
:1004A8008021204600F000FAFFF718FFFFF734FF1D
:1004B800FFF74CFFFFF768FFFFF782FF01220221D9
:1004C800284600F0F1F901220421204600F0ECF959
:1004D80001228021204600F0E7F90421044800F0B9
:1004E800E8F94FF47A7000F04FF8F6E70004004896
:1004F80000080048104B1B780BB90120704710B555
:1005080004460E4A10684FF47A72B2FBF3F3B0FB5C
:10051800F3F000F0A7F868B90F2C01D901200AE020
:10052800024621464FF0FF3000F08CF8044B1C6067
:10053800002000E0012010BD00000020080000207D
:100548000400002010B5032000F06AF80F20FFF720
:10055800D1FF18B101231C46204610BD044600F007
:10056800B1F9F9E7034B1B78034A11680B44136090
:10057800704700BF0000002078020020014B186877
:10058800704700BF7802002038B50446FFF7F6FF31
:100598000546B4F1FF3F02D0044B1B781C44FFF71B
:1005A800EDFF401BA042FAD338BD00BF0000002079
:1005B800002808DB0901C9B200F1604000F561407C
:1005C80080F80013704700F00F000901C9B2014B11
:1005D8001954704714ED00E000B500F00700A0F1D1
:1005E800030CBCF1040F07D8C0F1070E043006282D
:1005F80006D84FF0000C03E04FF0040E4FF0000C4B
:100608004FF0FF3303FA0EF021EA000101FA0CF172
:1006180003FA0CF322EA030241EA020000BD0000DB
:10062800074AD36823F4E0631B041B0C000200F4A0
:10063800E060034343F0BF6343F40033D360704783
:1006480000ED00E010B50446054BD868C0F3022061
:10065800FFF7C2FF01462046FFF7AAFF10BD00BF03
:1006680000ED00E00138B0F1807F0BD24FF0E023BD
:100678005861054AF02182F823100020986107226A
:100688001A6170470120704700ED00E070B582B034
:10069800002374E085684FEA430E032404FA0EF43D
:1006A80025EA0405CC6804FA0EF42C4384604468F7
:1006B80024EA0C044D68C5F3001E0EFA03FE4EEA48
:1006C8000404446070E0C46A24EA0C04C5F3C00E54
:1006D8000EFA03FE4EEA0404C4626AE0DD08083537
:1006E80050F8254003F0070C4FEA8C0C4FF00F0E22
:1006F8000EFA0CFE24EA0E0E0C6904FA0CF444EA15
:100708000E0440F825406FE0062400E0002404FAB7
:100718000EF42C430CF1020C5F4D45F82C405F4C55
:10072800A4686FEA020C24EA02054E6816F4801FDA
:1007380001D042EA0405594CA560E4680CEA0405B6
:100748004E6816F4001F01D042EA0405534CE560D8
:1007580064680CEA04054E6816F4003F01D042EACA
:1007680004054E4C656024680CEA04054E6816F4CE
:10077800803F01D042EA0405484A156001330A68FF
:1007880032FA03F400F086804FF0010C0CFA03FCF7
:100798001CEA0202F2D04C6804F0030E0EF1FF3E90
:1007A800BEF1010F7FF676AF4D6805F00304032C08
:1007B80089D04C6804F0030CBCF1030F0DD0C46859
:1007C8005D004FF0030C0CFA05FC24EA0C048E685B
:1007D80006FA05FC4CEA0404C4604C6804F0030CF7
:1007E800BCF1020F3FF47AAF05685C004FF0030CD0
:1007F8000CFA04FC25EA0C0E4D6805F0030C0CFA03
:1008080004FC4CEA0E0404604C6814F4403FB5D074
:10081800234C256E45F001052566246E04F001047D
:100828000194019C4FEA930C0CF102051A4C54F800
:10083800255003F0030E4FEA8E0E0F2404FA0EF42F
:1008480025EA0405B0F1904F3FF460AF154CA04283
:1008580016D004F58064A04214D004F58064A04248
:1008680012D004F58064A04210D004F58064A04240
:100878000ED004F58064A0423FF446AF072446E753
:10088800012444E7022442E7032440E704243EE726
:1008980005243CE702B070BD00000140000401409F
:1008A80000100240000400480AB18161704781626B
:1008B8007047436901EA030221EA030141EA024160
:1008C8008161704782B00A4B1A6E42F001021A66C3
:1008D8001A6E02F001020092009A9A6D42F080525C
:1008E8009A659B6D03F080530193019B02B070479A
:1008F8000010024010B5AEB00446002129912A919B
:100908002B912C912D91882207A801F084FE236851
:10091800454A934207D0454A93422ED0444A9342CF
:1009280057D02EB010BD2023079307A800F05AFF18
:1009380000BB404BDA6D42F00102DA65DA6D02F075
:1009480001020192019ADA6C42F00402DA64DB6C6B
:1009580003F004030293029B0323299302222A92A1
:1009680000222B922C9308232D9329A93248FFF7B4
:100978008DFED6E7FFF7B0FCDBE70223079307A855
:1009880000F030FF10BB2B4B9A6D42F400329A6591
:100998009A6D02F400320392039ADA6C42F0010273
:1009A800DA64DB6C03F001030493049B0F2329939F
:1009B80002232A9300232B9303232C9307232D939D
:1009C80029A94FF09040FFF761FEAAE7FFF784FCE2
:1009D800D9E70423079307A800F004FF08BB154BC9
:1009E8009A6D42F480229A659A6D02F480220592EB
:1009F800059ADA6C42F00402DA64DB6C03F0040353
:100A08000693069B3023299302232A9300232B93D2
:100A180003232C9307232D9329A90748FFF736FEB4
:100A28007FE7FFF759FCDAE7008000400044004008
:100A380000480040001002400008004810B5AAB065
:100A480004460021259126912791289129918822F1
:100A580003A801F0E0FD2268184B9A4201D02AB0A1
:100A680010BD0123039303A800F0BCFE18BB144B70
:100A78001A6E42F480421A661A6E02F4804201929B
:100A8800019ADA6C42F00102DA64DB6C03F00103CC
:100A98000293029B4FF4E0632593022326930023DD
:100AA8002793032328930723299325A94FF09040E0
:100AB800FFF7ECFDD3E7FFF70FFCD8E7003801405C
:100AC8000010024000B589B00023039304930593F6
:100AD800069307930268134B9A4201D009B000BDF0
:100AE80003F560431A6E42F480521A661A6E02F4D5
:100AF80080520192019ADA6C42F00102DA64DB6CEE
:100B080003F001030293029BF0230393022304934F
:100B1800032306930523079303A94FF09040FFF79B
:100B2800B5FDDBE700300140024B186800F4C060F7
:100B3800704700BF00700040B0F5007F0FD01F4B1A
:100B48001B6803F4C063B3F5806F34D01B4A136885
:100B580023F4C06343F48063136000207047174B8D
:100B68001B6803F4C063B3F5007F20D0134A1368F1
:100B780023F4C06343F400731360114B1B683222E3
:100B880002FB03F30F4AA2FB03239B0C013300E093
:100B9800013B0A4A526912F4806F01D0002BF7D149
:100BA800064B5B6913F4806F03D100207047002067
:100BB8007047032070470020704700BF0070004056
:100BC8000800002083DE1B4330B583B00546204B68
:100BD8009B6D13F0805F0BD0FFF7A6FFB0F5007F89
:100BE80017D0802D1FD82DD0702D2DD000211BE0BF
:100BF800174CA36D43F08053A365A36D03F0805396
:100C08000193019BFFF790FFA36D23F08053A36529
:100C1800E4E7802D03D9A02D03D9022104E00021A7
:100C280002E0012100E003210A4A136823F00703C8
:100C38000B431360136803F007038B4206D10020AF
:100C480003B030BD0221EFE70121EDE70120F7E70E
:100C58000010024000200240254A9368D26802F042
:100C6800030213F00C0309D00C2B05D0042B3BD046
:100C7800082B3BD000200FE0012AF7D11C4A12684C
:100C880012F0080F0CD11A4AD2F89420C2F30322AA
:100C9800184951F8220013B10C2B06D000207047D8
:100CA800134A1268C2F30312F2E7114BDB6803F030
:100CB8000303022B16D0032B00D10F480C49CA6836
:100CC800C2F302120132CB68C3F3062300FB03F31D
:100CD800B3FBF2F3C868C0F3416001304000B3FBD6
:100CE800F0F070470548E9E7044870470248704744
:100CF80000100240B0290008001BB7000024F400CF
:100D0800002800F0F382F0B583B00446964B9D6846
:100D180005F00C05DB6803F003031E46036813F0B7
:100D2800100F5AD0E5B10C2D18D0A369002B00F094
:100D3800BB808D4A136843F001031360FFF71EFC64
:100D48000746894B1B6813F0020F40F09A80FFF7A3
:100D580015FCC01B0228F4D90320D2E2012EE4D1ED
:100D6800814B1B6813F0020F03D0A369002B00F01E
:100D7800BF82206A7C4B1B6813F0080F5BD07A4B4C
:100D88001B6803F0F00398425CD8774B1A6842F06E
:100D980008021A601A6822F0F002216A0A431A60EF
:100DA8005A6822F47F42E16942EA01225A60002D22
:100DB80060D0FFF751FF6C4B9B68C3F303136B4A7A
:100DC800D35C03F01F03D840694B1860694B18685F
:100DD800FFF790FB002840F09482236813F0010F7E
:100DE80000F08180082D75D00C2D71D06368B3F5A3
:100DF800803F00F09780B3F5A02F00F099805A4B00
:100E08001A6822F480321A601A6822F480221A6062
:100E18006368002B00F09980FFF7B0FB0746524B40
:100E28001B6813F4003F5ED1FFF7A8FBC01B6428C2
:100E3800F5D9032065E24C4BD3F894301B0903F035
:100E4800F003A0E7FFF7C0FE002840F05382464BAE
:100E58001A6842F008021A601A6822F0F002216A41
:100E68000A431A605A6822F47F42E16942EA012281
:100E78005A609EE7206AFFF7A7FE002899D0012054
:100E88003FE2394B1A6842F008021A601A6822F0E9
:100E9800F002216A0A431A605A6822F47F42E16923
:100EA80042EA01225A6098E72F4A136823F00103A7
:100EB8001360FFF763FB07462B4B1B6813F0020F09
:100EC8008BD0FFF75BFBC01B0228F5D9032018E283
:100ED800032E8BD1244B1B6813F4003F03D06368A7
:100EE800002B00F00982236813F0020F57D0042D5D
:100EF80044D00C2D40D0E368002B76D01A4A1368F2
:100F080043F480731360FFF739FB0646164B1B68E2
:100F180013F4806F60D1FFF731FB801B0228F5D9ED
:100F28000320EEE1104A136843F4803313606FE73F
:100F380003F18043A3F53C331A6842F480221A6017
:100F48001A6842F480321A6062E7FFF717FB074617
:100F5800054B1B6813F4003FC5D0FFF70FFBC01B00
:100F68006428F5D90320CCE100100240E8290008E4
:100F78000800002004000020022EBCD1A44B1B68EE
:100F880013F4806F03D0E368002B00F0B781A04A08
:100F9800536823F0F853216943EA016353602368D7
:100FA80013F0080F4CD063699BB3994AD2F8943078
:100FB80043F00103C2F89430FFF7E0FA0646944B79
:100FC800D3F8943013F0020F3AD1FFF7D7FA801B09
:100FD8000228F4D9032094E18D4A536823F0F8538A
:100FE800216943EA01635360D9E7894A136823F406
:100FF80080731360FFF7C2FA0646854B1B6813F42B
:10100800806FCCD0FFF7BAFA801B0228F5D90320ED
:1010180077E17F4AD2F8943023F00103C2F8943084
:10102800FFF7ACFA06467A4BD3F8943013F0020F68
:1010380006D0FFF7A3FA801B0228F4D9032060E149
:10104800236813F0040F7CD0714B9B6D13F0805F05
:1010580037D16F4B9A6D42F080529A659B6D03F0C1
:1010680080530193019B01231F466A4B1B6813F4AD
:10107800807F29D0A368012B3AD0052B40D0644B40
:10108800D3F8902022F00102C3F89020D3F89020E2
:1010980022F00402C3F89020A368002B3ED0FFF78B
:1010A8006DFA06465A4BD3F8903013F0020F47D129
:1010B800FFF764FA801B41F288339842F2D9032083
:1010C8001FE100231F46D0E7524A136843F4807398
:1010D8001360FFF753FA06464E4B1B6813F4807FE4
:1010E800C8D1FFF74BFA801B0228F5D9032008E185
:1010F800474AD2F8903043F00103C2F89030CBE76A
:10110800434BD3F8902042F00402C3F89020D3F860
:10111800902042F00102C3F89020BDE7FFF72EFAB5
:1011280006463B4BD3F8903013F0020F08D0FFF778
:1011380025FA801B41F288339842F2D90320E0E077
:10114800EFB9A36A002B00F0DB80022B1DD00C2D19
:1011580000F0DD802E4A136823F080731360FFF7D8
:101168000DFA04462A4B1B6813F0007F00F0B78085
:10117800FFF704FA001B0228F4D90320C1E0244A2F
:10118800936D23F080539365DBE7214BDB6803F015
:101198000301E26A91420FD00C2D00F0B4801C4B81
:1011A8001B6813F0806F40F0B080194B1B6813F078
:1011B800805F31D00120A4E003F07002216B013977
:1011C800B2EB011FE8D103F4FE42616BB2EB012FD1
:1011D800E2D103F40031A26B073A18BF0122914211
:1011E800DAD103F4C001E26B5208013AB1EB425F75
:1011F800D2D103F0C063226C5208013AB3EB426FBC
:10120800CAD1034B1B6813F0007F4ED0002078E052
:1012180000100240007000403E4A136823F08073BB
:101228001360FFF7ABF905463A4B1B6813F0007FD4
:1012380006D0FFF7A3F9401B0228F5D9032060E088
:10124800344AD36834491940E36A206B013843EAC9
:101258000013606B43EA0023E06B4008013843EA5F
:101268004053206C4008013843EA4063A06B0009F2
:1012780043EA40431943D160136843F08073136015
:10128800D36843F08073D360FFF778F90446214BA5
:101298001B6813F0007F06D1FFF770F9001B0228C6
:1012A800F5D903202DE000202BE01A4B1A6842F0F4
:1012B80080721A60DA6842F08072DA60FFF75EF9CD
:1012C8000446144B1B6813F0007F06D1FFF756F94C
:1012D800031B022BF5D9032013E0002011E00D4A6F
:1012E800D1680E4B0B40D36000200AE00120704704
:1012F800012006E0012004E0012002E0012000E0D6
:10130800184603B0F0BD0120FBE70120F9E70120F2
:10131800F7E700BF001002408C809DF9FCFFEEFE4D
:10132800002800F0AF8070B50D460446594B1B6885
:1013380003F007038B420BD2564A136823F00703C6
:101348000B431360136803F007038B4240F09C8043
:10135800236813F0020F0CD0A2684F4B9B6803F070
:10136800F0039A4205D94C498B6823F0F0031A43DD
:101378008A60236813F0010F39D06368032B09D002
:10138800022B26D063BB444A126812F0020F06D122
:10139800012076E0404A126812F0007F76D03E497C
:1013A8008A6822F0030213438B60FFF7E7F80646CA
:1013B800394B9B6803F00C036268B3EB820F16D0BD
:1013C800FFF7DCF8801B41F288339842F0D90320FC
:1013D80057E0314A126812F4003FE0D1012050E092
:1013E8002D4A126812F4806FD9D1012049E0236890
:1013F80013F0020F0CD0A268274B9B6803F0F00390
:101408009A4205D224498B6823F0F0031A438A6074
:10141800204B1B6803F00703AB420AD91D4A136827
:1014280023F007032B431360136803F00703AB4251
:101438002ED1236813F0040F06D0174A936823F4BB
:10144800E063E1680B439360236813F0080F07D04B
:10145800114A936823F46053216943EAC1039360F6
:10146800FFF7FAFB0C4B9B68C3F303130B4AD35CDF
:1014780003F01F03D8400A4B18600A4B1868FFF79F
:1014880039F870BD012070470120FAE70120F8E71C
:101498000120F6E70020024000100240E829000879
:1014A8000800002004000020014B1868704700BFA6
:1014B8000800002008B5FFF7F7FF054B9B68C3F34A
:1014C8000223044AD35C03F01F03D84008BD00BFC1
:1014D80000100240E029000808B5FFF7E5FF054BBA
:1014E8009B68C3F3C223044AD35C03F01F03D840AC
:1014F80008BD00BF00100240E0290008F8B5044606
:101508000F465F4BDB6813F0030F1BD05C4BDB68A7
:1015180003F003030268934203D001231D462846C3
:10152800F8BD002A00F0A580554BDB68C3F3021311
:1015380001334268934202D001231D46EFE700239E
:101548001D461AE00368022B59D0032B5FD0012BEC
:1015580040F092804A4A126812F0020F64D048485C
:10156800C26822F073026168013943EA0113134328
:10157800C36000231D46002DD1D1414A136823F0D2
:1015880080631360FEF7FAFF06463D4B1B6813F0B5
:10159800006F06D0FEF7F2FF831B022BF5D9032359
:1015A8001D46002DBBD1002F41D135490B6923F4CD
:1015B8001F3323F44073A068E2681209520442EA18
:1015C800002213430B612E4A136843F080631360B3
:1015D800FEF7D4FF06462A4B1B6813F0006F06D1AE
:1015E800FEF7CCFF801B0228F5D903231D46002DEA
:1015F80095D1234A1369A1690B4313618FE7204AE8
:10160800126812F4806FAAD101231D4687E71C4A8D
:10161800126812F4003FA2D1194A126812F4802FFE
:101628009DD101231D467AE701231D46A3E7012F1B
:101638000FD01348026922F0C06222F4FE42A1686A
:1016480063695B08013B5B0643EA01231A430261B5
:10165800B9E70B48026922F4C00222F4FE42A168ED
:1016680023695B08013B5B0543EA01231A430261D6
:10167800A9E701231D4652E701231D464FE700BF96
:1016880000100240F8B504460F46554BDB6813F0CE
:10169800030F1BD0524BDB6803F00303026893422D
:1016A80003D001231D462846F8BD002A00F0928089
:1016B8004B4BDB68C3F3021301334268934202D0F9
:1016C80001231D46EFE700231D4619E00368022B9E
:1016D80058D0032B5ED0012B7FD1414A126812F0FB
:1016E800020F64D03E48C26822F073026168013973
:1016F80043EA01131343C36000231D46002DD2D1D2
:10170800374A136823F080531360FEF737FF064605
:10171800334B1B6813F0005F06D0FEF72FFF831BC7
:10172800022BF5D903231D46002DBCD1002F41D132
:101738002B494B6923F41F3323F44073A068E268F4
:101748001209520442EA002213434B61244A1368E7
:1017580043F080531360FEF711FF0646204B1B68C9
:1017680013F0005F06D1FEF709FF801B0228F5D9A8
:1017780003231D46002D96D1194A536961690B430D
:10178800536190E7164A126812F4806FAAD10123B8
:101798001D4688E7124A126812F4003FA2D1104A87
:1017A800126812F4802F9DD101231D467BE7012387
:1017B8001D46A3E70A48426922F0C06222F4FE42AD
:1017C800A16823695B08013B5B0643EA01231A43CE
:1017D8004261BBE701231D4665E701231D4662E719
:1017E800001002402DE9F04182B00446036813F46A
:1017F800006F38D0436EB3F5000F18D00DD84BB337
:10180800B3F5800F05D100212030FFF73BFF0646D6
:1018180025E001231F461E4628E0B3F5400F02D1FC
:1018280000231E460AE001231F461E461EE0644AA6
:10183800D36843F48033D36000231E46604AD2F84D
:10184800883023F44003616E0B43C2F888300023CC
:101858001F460BE019460430FFF750FE0646002EDF
:10186800ECD0374602E000231F461E46236813F4D7
:10187800805F32D0A36EB3F1007F21D00ED82BB396
:10188800B3F1807F06D1002104F12000FFF7FAFEB2
:10189800064606E001231F461E461EE0B3F1407FC0
:1018A8000AD1CEB9464AD2F8883023F04073A16EE7
:1018B8000B43C2F8883010E001231F461E460CE097
:1018C8003F4AD36843F48033D360EAE71946201DC2
:1018D800FFF714FE0646E4E73746236813F4003F93
:1018E80077D0374B9B6D13F0805F52D1344B9A6D94
:1018F80042F080529A659B6D03F080530193019BDF
:10190800012398462F4A136843F480731360FEF747
:1019180035FE05462B4B1B6813F4807F06D1FEF776
:101928002DFE401B0228F5D903231E46002E4BD15D
:1019380006F1804303F50433D3F8903013F4407371
:1019480019D0D4F884209A4212D01D4AD2F8903087
:1019580023F44073D2F8901041F48031C2F890100B
:10196800D2F8901021F48031C2F89010C2F890306B
:1019780013F0010F10D1002E40F02981104AD2F83F
:10198800903023F44073D4F884100B43C2F890309D
:101998001BE000239846B5E7FEF7F0FD0546084B27
:1019A800D3F8903013F0020FE5D1FEF7E7FD401BA6
:1019B80041F288339842F2D903231E46DBE700BF81
:1019C800001002400070004037464346002B40F0AC
:1019D8000081236813F0010F08D09D4AD2F888309F
:1019E80023F00303A16B0B43C2F88830236813F07C
:1019F800020F08D0964AD2F8883023F00C03E16B26
:101A08000B43C2F88830236813F0040F08D0904ABB
:101A1800D2F8883023F03003216C0B43C2F88830A9
:101A2800236813F0080F08D0894AD2F8883023F0C9
:101A3800C003616C0B43C2F88830236813F0100FA1
:101A480008D0834AD2F8883023F44073A16C0B4342
:101A5800C2F88830236813F0200F08D07C4AD2F8E7
:101A6800883023F44063E16C0B43C2F88830236864
:101A780013F4007F08D0764AD2F8883023F4402344
:101A8800E16D0B43C2F88830236813F4806F08D0E7
:101A98006F4AD2F8883023F44013216E0B43C2F802
:101AA8008830236813F0400F08D0694AD2F888308C
:101AB80023F44053216D0B43C2F88830236813F098
:101AC800800F08D0624AD2F8883023F44043616D11
:101AD8000B43C2F88830236813F4807F08D05C4A2F
:101AE800D2F8883023F44033A16D0B43C2F8883014
:101AF800236813F4005F0FD0554AD2F8883023F0DA
:101B08004063E16E0B43C2F88830E36EB3F1006FB7
:101B180065D0B3F1806F67D0236813F4002F0FD01E
:101B28004B4AD2F8883023F04063216F0B43C2F848
:101B38008830236FB3F1006F5ED0B3F1806F60D04F
:101B4800236813F4802F0FD0414AD2F8883023F04D
:101B58004063616F0B43C2F88830636FB3F1006F65
:101B680057D0B3F1806F59D0236813F4804F0FD04A
:101B7800374AD2F8883023F04053A16F0B43C2F89C
:101B88008830A36FB3F1805F50D0B3F1005F55D0B8
:101B9800236813F4004F08D02D4AD2F8883023F078
:101BA8008043E16F0B43C2F88830236813F4803F09
:101BB80009D0274AD2F8883023F00043D4F880109F
:101BC8000B43C2F88830384602B0BDE8F08137468A
:101BD800FBE61F4A936D23F080539365F9E6D368BB
:101BE80043F48013D36097E70121201DFFF786FC9B
:101BF800002891D007468FE7D36843F48013D36059
:101C08009EE70121201DFFF779FC002898D00746A0
:101C180096E7D36843F48013D360A5E70121201D1C
:101C2800FFF76CFC00289FD007469DE70221201D86
:101C3800FFF764FC0028ABD00746A9E7022104F1AE
:101C48002000FFF71FFD0028A2D00746A0E700BF2D
:101C58000010024000286AD010B50446436A33B920
:101C68004368B3F5827F05D00023C36102E00023F7
:101C7800036143610023A36294F85D30002B4DD0CB
:101C8800022384F85D302268136823F04003136050
:101C9800E368B3F5E06F47D90022B3F5706F04D05D
:101CA800B3F5E06F01D00023A362636803F4827385
:101CB800A16801F404410B43216901F002010B43BF
:101CC800616901F001010B43A16901F400710B4343
:101CD800E16901F038010B43216A01F080010B43EF
:101CE800A16A01F4005120680B430360638B03F081
:101CF8000403616A01F010010B43616B01F00801F4
:101D08000B43E16801F470610B43216813434B6096
:101D180000202066012384F85D3010BD84F85C3013
:101D28002046FEF7CFFEABE74FF48052B5E701201F
:101D38007047026852E8003F23F4907342E800318C
:101D48000029F6D1026802F1080353E8003F23F0A6
:101D58000103083242E800310029F3D1036E012B58
:101D680006D02023C0F880300023036683667047BE
:101D7800026852E8003F23F0100342E800310029CE
:101D8800F6D1EEE710B50446836802691343426949
:101D98001343C269134301680868914A02401A4311
:101DA8000A602268536823F44053E1680B43536088
:101DB800A16922688B4B9A4201D0236A1943936820
:101DC80023F430630B4393602368874A934226D0F9
:101DD800864A934236D0864A934246D0854A9342F1
:101DE80056D0854A934266D07E4A934279D01022D3
:101DF8007C498B4200F0B080E069B0F5004F00F0FC
:101E0800DE80022A00F03F8140F21A81042A00F0A5
:101E18003781082A40F01C814FF400401DE102F58B
:101E28005842D2F8882002F00302022A70D005D85E
:101E3800002A6FD0012A6FD10422D9E7032A6DD175
:101E48000822D5E702F5E632D2F8882002F00C0223
:101E5800082A65D005D8002ACAD0042AC8D010227A
:101E6800C6E70C2A5ED10822C2E702F5E432D2F8AE
:101E7800882002F03002202A56D005D8002AB7D090
:101E8800102A53D10422B3E7302A51D10822AFE7F0
:101E980002F5E232D2F8882002F0C002802A49D046
:101EA80005D8002AA4D0402A46D10422A0E7C02A97
:101EB80044D108229CE702F5E032D2F8882002F4E7
:101EC8004072B2F5007F3BD006D8002A90D0B2F518
:101ED800807F37D104228BE7B2F5407F34D10822C6
:101EE80086E702F5C832D2F8882002F44062B2F5DB
:101EF800006F2BD007D8002A3FF47AAFB2F5806F75
:101F080026D1042274E7B2F5406F23D108226FE787
:101F180002226DE701226BE7102269E7102267E7CA
:101F2800022265E7102263E7022261E710225FE7D9
:101F380010225DE702225BE7102259E7102257E7DB
:101F4800022255E7102253E7102251E702224FE7F9
:101F580010224DE710224BE7042A2DD006D862B193
:101F6800022A01D125480CE0012085E0082A02D187
:101F78004FF4004005E001207EE0FFF79BFA0028BF
:101F88007AD0626802EB420383427ED8B0EB023F0C
:101F98007DD8010E00025308C0184FF0000341F12C
:101FA8000001FEF7EDF8A0F54072154B9A4270D883
:101FB8002368D86000205FE0FEF74EFEDFE7022AC4
:101FC8003CD005D9042A36D0082A1ED0012053E077
:101FD800C2B1012A02D1FFF77FFA15E001204BE0D8
:101FE800F369FFEF008000400038014000440040E2
:101FF80000480040004C0040005000400024F4001D
:10200800FFFC0F00FFF756FAB0B36268530803EB02
:102018004003B3FBF2F3A3F110014FF6EF729142C4
:1020280039D89AB222F00F02C3F34203134322684D
:10203800D360002020E0FEF70FFEE5E71848E4E74C
:1020480042B1012A02D1FFF747FA05E0012013E067
:10205800012011E0FFF72EFA70B1636800EB53001E
:10206800B0FBF3F0A0F110024FF6EF739A4214D8C8
:10207800236880B2D86000200023A366E36610BD01
:10208800FEF7EAFDE8E70648E7E70120F4E7012064
:10209800F2E70120F0E70120EEE70120ECE700BFBE
:1020A8000024F400436A13F0080F06D0026853684E
:1020B80023F40043416B0B435360436A13F0010F51
:1020C80006D00268536823F40033816A0B435360D7
:1020D800436A13F0020F06D00268536823F4803372
:1020E800C16A0B435360436A13F0040F06D00268B9
:1020F800536823F48023016B0B435360436A13F046
:10210800100F06D00268936823F48053816B0B4349
:102118009360436A13F0200F06D00268936823F493
:102128000053C16B0B439360436A13F0400F0AD00E
:102138000268536823F48013016C0B435360036CEB
:10214800B3F5801F0BD0436A13F0800F06D00268E6
:10215800536823F40023816C0B4353607047026873
:10216800536823F4C003416C0B435360EBE72DE93C
:10217800F04104460D4616469846069F2368DB69DB
:1021880035EA03030CBF4FF0010C4FF0000CB445C7
:1021980034D1B7F1FF3FF1D0FEF7F0F94346C01A4A
:1021A800B8422ED87FB323681A6812F0040FE5D01E
:1021B800802DE3D0402DE1D0DA6912F0080F11D15B
:1021C800DA6912F4006FD9D04FF400621A6220461F
:1021D800FFF7AFFD2023C4F88430002384F878305B
:1021E80003200CE008251D622046FFF7A2FDC4F875
:1021F8008450002384F87830012000E00020BDE8F6
:10220800F0810320FBE70320F9E730B583B00446EB
:102218000023C0F88430FEF7B1F905462268126839
:1022280012F0080F0FD123681B6813F0040F25D193
:102238002023E367C4F8803000202066606684F8B5
:10224800780003B030BD6FF07E4300930346002250
:102258004FF400112046FFF78AFF0028E3D02268D8
:1022680052E8003F23F0800342E800310029F6D10C
:102278002023E36784F878100320E2E76FF07E43B9
:1022880000932B4600224FF480012046FFF76FFF92
:102298000028CDD0226852E8003F23F4907342E82A
:1022A80000310029F6D1226802F1080353E8003F03
:1022B80023F00103083242E800310029F3D120233A
:1022C800C4F8803084F878100320BAE768B310B5F2
:1022D8000446C36F03B32423E3672268136823F01B
:1022E80001031360636AE3B92046FFF74BFD012839
:1022F80011D02268536823F490435360226893688E
:1023080023F02A0393602268136843F001031360E3
:102318002046FFF77AFF10BD80F87830FEF7EAFA1A
:10232800D9E72046FFF7BEFEDEE701207047000030
:1023380010B504468368026913434269134343F4A2
:10234800004301680868494A02401A430A60236A40
:1023580043F40062A369E1690B431343E2681A433B
:1023680021684B6823F47C5313434B602368404A2D
:1023780093420AD03F4A934238D03F4A934246D0CC
:1023880001200023A363E36310BD3C4BD3F88830DE
:1023980003F00303022B5DD01DD8002B48D0012B7E
:1023A80017D1FEF759FC6268530803EB4000B0FBF5
:1023B800F2F0A0F110024FF6EF739A4253D883B2AD
:1023C80023F00F03C0F3420003432268D3600020C8
:1023D800D7E70120D5E7032B06D16368580800F535
:1023E8008030B0FBF3F0E4E70120CAE7234BD3F8D1
:1023F800883003F00C03082B2CD004D80BB3042B23
:10240800CFD00120BDE70C2BE7D00120B9E71B4B4B
:10241800D3F8883003F03003202B1BD004D883B1C5
:10242800102BBED00120ACE7302BD6D00120A8E776
:10243800FFF752F86268530803EB4000B0FBF2F074
:10244800B7E7FFF737F86268530803EB4000B0FBC3
:10245800F2F0AEE76368580800F1F47000F59040B8
:10246800B0FBF3F0A5E701208BE700BFF369FFEFAE
:10247800003801400044004000480040001002407D
:102488002DE9F04104460E4615469846069F2368F6
:10249800DB6936EA03030CBF4FF0010C4FF0000C68
:1024A800AC4512D1B7F1FF3FF1D0FEF767F84346CC
:1024B800C01AB84201D8002FE9D1012384F8493065
:1024C800002384F84830032000E00020BDE8F081B4
:1024D80030B583B004460023C364FEF74FF80546C1
:1024E8002268126812F0080F0CD123681B6813F0D9
:1024F800040F15D1012384F84930002084F84800DE
:1025080003B030BD4FF47A730093034600224FF4B2
:1025180000112046FFF7B4FF0028E6D00320EFE7BC
:102528004FF47A7300932B4600224FF48001204623
:10253800FFF7A6FF0028DDD00320E1E748B310B578
:10254800044690F84930FBB1022384F849302268E8
:10255800136823F0010313602046FFF7E9FE012802
:1025680011D02268536823F480435360226893682B
:1025780023F02A0393602268136843F00103136071
:102588002046FFF7A5FF10BD80F84830FEF756FA41
:10259800DAE701207047FEE7FEE7FEE7FEE7FEE721
:1025A80070477047704708B5FDF7DCFF08BD0000AD
:1025B800034AD2F8883043F47003C2F88830704771
:1025C80000ED00E0DFF834D0FFF7F2FF0C480D49CA
:1025D8000D4A002302E0D458C4500433C4188C4276
:1025E800F9D30A4A0A4C002301E013600432A242DC
:1025F800FBD300F019F8FDF73FFFFEE7008001204C
:102608000000002010000020102A00081000002000
:102618007C020020FEE702440346934200D1704743
:1026280003F8011BF9E7000070B50D4B0D4C0026AF
:102638001D1BB6EBA50F09D100F0AAF90A4C0B4BEC
:1026480000261D1BB6EBA50F05D170BD54F8043B41
:1026580098470136EDE754F8043B98470136F1E70F
:10266800002A0008002A0008002A0008042A000896
:102678002DE9F04782B00646DDF828E00846B44662
:102688000D46002B4ED18A4214466DD9B2FA82F219
:1026980042B1C2F12003954026FA03F394401D434A
:1026A80006FA02FC260CA7B2B5FBF6F14FEA1C436A
:1026B80006FB115543EA054301FB07F0984209D987
:1026C800E31801F1FF3580F00381984240F2008160
:1026D800023923441B1A1FFA8CFCB3FBF6F006FBE5
:1026E80010334CEA034C00FB07F363450AD914EB9B
:1026F8000C0C00F1FF3580F0ED80634540F2EA8074
:10270800A444023840EA0140ACEB030C0021BEF1BE
:10271800000F04D02CFA02F30022CEE9003202B0F6
:10272800BDE8F0878B4209D9BEF1000F01D0CEE990
:1027380000610021084602B0BDE8F087B3FA83F1D2
:10274800174600294DD1834202D3B24200F20F81CD
:10275800B6EB070C60EB030301201D46BEF1000F2A
:10276800DDD0CEE900C5DAE7002A00F098801A46E5
:10277800B4FA84F3002B40F0AF800B1B270CA6B2F1
:102788000121B3FBF7F54FEA1C4007FB153340EA7C
:10279800034306FB05F8984507D9E31805F1FF3010
:1027A80002D2984500F2E8800546A3EB08031FFA19
:1027B8008CFCB3FBF7F007FB10334CEA034C06FB29
:1027C80000F3634508D914EB0C0C00F1FF3602D274
:1027D800634500F2CE803046ACEB030C40EA05407E
:1027E80095E7C1F120058B4022FA05FC4CEA030C61
:1027F80000FA01F426FA05F3E84002FA01F943EA7F
:1028080004084FEA1C4206FA01FAB0FBF2F71FFA75
:102818008CF602FB17004FEA184444EA004407FB11
:1028280006F0A0420AD91CEB040407F1FF3380F03C
:102838009C80A04240F29980023F6444241A1FFA07
:1028480088F3B4FBF2F002FB104443EA044300FBB4
:1028580006F69E4209D91CEB030300F1FF3480F011
:1028680082809E427FD90238634440EA0740A0FB39
:1028780009749B1BA3423E46A04664D361D0BEF1B7
:10288800000F0AD0BAEB060263EB080303FA05F55A
:10289800CA401543CB40CEE9005300213FE77308F7
:1028A80043EAC1734A08190C41EA02414FEAC67C5F
:1028B8009BB2B2FBF4F02646A04627461F2243EA05
:1028C8000143B1FBF4F1A3EB080341EA004158E7E7
:1028D8002946FFE6284615E71A46C3F120019C4021
:1028E80026FA01F320FA01F190400343270C06FA77
:1028F80002FCB1FBF7F0A6B207FB1015190C41EA70
:10290800054100FB06F58D423BD9611801D28D4285
:1029180020D8491B0138B1FBF7F5019505FB06F8EE
:10292800019D9BB207FB151143EA0143434526D29B
:10293800E31805F1FF31C6D24345C4D2A91E23448A
:10294800C1E7BA459BD2B7EB090664EB0C04013822
:10295800A04694E7651B29440238B1FBF7F50195B9
:1029680005FB06F8DCE720467FE71F4666E70846D2
:10297800F4E6A44402382FE7023D234415E7019901
:10298800A1E7491BB1FBF7F5019505FB06F8C7E779
:10299800F8B500BFF8BC08BC9E467047F8B500BF44
:0829A800F8BC08BC9E46704714
:1029B000A0860100400D0300801A060000350C00BF
:1029C00040420F0080841E0000093D0000127A0082
:1029D0000024F40000366E010048E801006CDC02BF
:1029E00000000000010203040000000000000000DD
:0829F0000102030406070809B7
:0829F80080FCFF7F01000000DC
:082A0000E501000800000000E0
:082A0800BD0100080000000000
:102A1000010000001000000000093D00000000005F
:04000005080025CDFD
:00000001FF
