:020000040800F2
:1000000000800120415500089F4D0008A14D0008C7
:10001000A34D0008A54D0008A74D000800000000F2
:10002000000000000000000000000000A94D0008D2
:10003000AB4D000800000000AD4D0008AF4D0008BA
:1000400091550008915500089155000891550008F8
:1000500091550008915500089155000891550008E8
:1000600091550008915500089155000891550008D8
:1000700091550008915500089155000891550008C8
:1000800091550008915500089155000891550008B8
:1000900091550008915500089155000891550008A8
:1000A0009155000891550008915500089155000898
:1000B0009155000891550008915500089155000888
:1000C0009155000891550008915500089155000878
:1000D0009155000891550008915500089155000868
:1000E0009155000891550008915500089155000858
:1000F0009155000891550008915500089155000848
:1001000091550008B94D0008915500089155000817
:100110009155000891550008915500089155000827
:100120009155000891550008915500089155000817
:100130009155000891550008915500089155000807
:1001400091550008915500089155000891550008F7
:1001500091550008915500089155000891550008E7
:1001600091550008915500089155000891550008D7
:1001700091550008915500089155000800000000B5
:0801800091550008915500089B
:1001900001F0FF01102A2BDB10F0070F08D010F838
:1001A000013B013A8B422DD010F0070F42B3F6D13C
:1001B000F0B441EA012141EA014122F007047FF055
:1001C00000070023F0E80256083C85EA010586EAAC
:1001D000010685FA47F5A3FA87F586FA47F6A5FAE8
:1001E00087F68EB9EED1F0BC01F0FF0102F00702F4
:1001F00032B110F8013B013A83EA010313B1F8D19F
:100200000020704701387047002D06BF354603387F
:10021000073815F0010F07D1013015F4807F02BFB8
:10022000013015F4C03F0130F0BC0138704700BF09
:1002300053B94AB9002908BF00281CBF4FF0FF314D
:100240004FF0FF3000F00CB8ADF1080C6DE904CEB2
:1002500005F052FEDDF804E0DDE9022304B070474A
:10026000704700BF08B5064B1A783AB9054A1AB16B
:100270000548AFF30080024B01221A7008BD00BF91
:1002800060000020000000001862000808B5034B61
:100290001BB103490348AFF3008008BD0000000014
:1002A000640000201862000800B583B00093134674
:1002B0000A460146034803F02DFC00B1012003B0BB
:1002C00000BD00BFF400002000B583B000931346CA
:1002D0000A460146034803F03FFD00B1012003B088
:1002E00000BD00BFF400002008B5034804F0A5F8E5
:1002F000043818BF012008BDF400002008B50146ED
:10030000014803F0DFFF08BDF4000020704708B586
:10031000FFF7FCFF08BD704708B5FFF7FCFF08BDFD
:10032000704708B5FFF7FCFF08BD00B583B0012397
:100330008DF8073000F024F808B98DF807009DF813
:10034000070003B000BD000008B5FFF7EEFF01286D
:1003500001D0022008BD024804F046F8FAE700BFC9
:10036000F400002008B50349034800F043F8034BAC
:10037000187008BD7C0000207C620008800000200E
:1003800008B510214FF0904000F0BAFE08B90120E6
:1003900008BD0020FCE70000154B5B7A33BB10B5AD
:1003A000844603F0FF00124B93F809E05FFA8EFEDB
:1003B0004FF0000403F80E4093F809E003EB8E0EB3
:1003C000CEF804C093F809C09C448CF808205A7AEF
:1003D00002F1010C5FFA8CFC83F809C030320A701C
:1003E0003A234B702F238B70CC7010BD01207047C7
:1003F0008400002008B50022FFF7CEFF08BD0000F2
:10040000054B064A1A6000225A609A60DA601A6147
:100410005A6102229A617047F400002000280140CE
:100420002DE9F0418AB005AD0024059406940794A7
:10043000089409943B4BDA6C42F00402DA64DA6CFB
:1004400002F004020192019ADA6C42F00102DA64CD
:10045000DA6C02F001020292029ADA6C42F00202B5
:10046000DA64DA6C02F002020392039ADA6C42F068
:100470000802DA64DB6C03F008030493049B2A4E41
:100480002246CC21304600F042FE284F224641F65B
:100490000741384600F03BFECC2305934FF001089E
:1004A000CDF81880079408942946304600F01AFDCC
:1004B0001023059306940226079629464FF0904094
:1004C00000F010FD41F607430593CDF8188007941E
:1004D00008942946384600F005FD4FF480730593D3
:1004E000069607940894099429464FF0904000F02E
:1004F000F9FC4FF4006305934FF4881306930794B7
:1005000029464FF0904000F0EDFC4FF480530593E6
:100510000694079429464FF0904000F0E3FC0AB09F
:10052000BDE8F081001002400008004800040048C7
:1005300072B6FEE708B50B480B4B03600B4B4360EC
:100540004FF0805383600023C36003610C2242613B
:1005500083610362436204F0F1FB00B908BDFFF759
:10056000E7FF00BFAC0200200080004024330300FE
:1005700008B50C480C4B03604FF4E1334360002393
:100580008360C36003610C2242614FF44072826158
:10059000C3610362436204F0D1FB00B908BDFFF7F9
:1005A000C7FF00BF240200200044004008B50B48EC
:1005B0000B4B03604FF4E133436000238360C3605F
:1005C00003610C2242618361C3610362436204F0F0
:1005D000B5FB00B908BDFFF7ABFF00BF9C010020D1
:1005E0000048004008B50F480F4B03604FF482737A
:1005F0004360002383604FF44072C2600361436133
:100600004FF400728261C361036243628362072216
:10061000C26203630823436304F054F800B908BDC1
:10062000FFF786FF900000200030014000B587B042
:1006300000230193029303930493059300931948B5
:10064000194A026043607F228260FF22C260036118
:1006500043618361C36102F06DFFE8B98DF8040066
:100660008DF805008DF8060004900590012201A97F
:100670000C4802F0BDFF88B901228DF800208DF8EA
:1006800001208DF802208DF803006946054803F02B
:1006900017F828B907B000BDFFF74AFFFFF748FF7A
:1006A000FFF746FF780100200028004008B51148F8
:1006B000114B0360114B4360002383600122C26031
:1006C000036143618361C361036200F0BCFE50B902
:1006D0000146084800F0EAFF38B90146054801F034
:1006E00012F820B908BDFFF723FFFFF721FFFFF73E
:1006F0001FFF00BF3403002000580040E49CD110CD
:1007000000B597B04422002105A804F065FF00233E
:10071000009301930293039304934FF4007001F04C
:10072000F5F948BB1823059301230A930B930C900A
:1007300060220D9202220F9210931193282312939C
:100740000723139304231493159205A801F0EAFAE2
:10075000A0B90F2300930323019302900390049008
:100760000421684601F0EEFD50B902464FF0807159
:1007700001F05CFA17B000BDFFF7DAFEFFF7D8FE14
:10078000FFF7D6FE70B58EB000F0CEFAFFF7B8FFD7
:10079000FFF746FEFFF7CEFEFFF7EAFEFFF706FF84
:1007A000FFF720FFFFF742FFFFF780FFFFF728FE6C
:1007B000FFF7D8FD01220221424800F0A8FC424C7C
:1007C00001220421204600F0A2FC012280212046C3
:1007D00000F09DFC00F01CFA002000F02FF900252D
:1007E00009950A950B950C950D95089511E0282112
:1007F000002000F0EDF9354B012200920ECB344879
:1008000000F0CEF900F028F94FF4FA6000F0AEFAEB
:10081000354602212B4800F07FFC2E4C002209A90E
:10082000204602F0AAFF002208A9204602F0CBFFD2
:100830009DF8233003AC00939DF821309DF82220D1
:100840002549204604F0A6FE0021084600F0C0F924
:100850001E4B012600960ECB204600F0A1F99DF814
:10086000263000939DF825309DF824201B49204612
:1008700004F090FE0F21002000F0AAF9184B00961A
:100880000ECB204600F08CF9AE192A4615492046B9
:1008900004F080FE2821002000F09AF900F0DCF836
:1008A000114BD3F8903013F0020FA0D12821002073
:1008B00000F08EF9054B012200920ECB0B4800F0A0
:1008C0006FF99FE700040048000800489C62000898
:1008D0006462000878010020306200084862000865
:1008E0009062000858620008001002407062000820
:1008F00008B5074B01221A70FFF7F6FC20B9044A2D
:10090000137803F0FE031370014B187808BD00BF85
:100910000000002010B50446074B01221A70FFF7B3
:1009200013FD10B1044B187810BD2046FFF7E0FF0F
:10093000014B1870F6E700BF0000002008B5FFF774
:10094000D7FF08BD08B5084611461A464FF0FF33D9
:10095000FFF7AAFC30B9FFF7C7FC03460028FAD11D
:10096000184608BD0123FBE708B5084611461A469C
:100970004FF0FF33FFF7A8FC30B9FFF7B5FC034693
:100980000028FAD1184608BD0123FBE730B589B02D
:10099000154B187810F001041FD11546022916D006
:1009A0000AD8F1B1012905D16846FFF7A7FC069BDB
:1009B0002B6013E0042411E0032906D16846FFF7F9
:1009C0009DFC079B5B0A2B6008E0042406E0684658
:1009D000FFF794FC079B2B8000E00324204609B01E
:1009E00030BD0C46FAE700BF0000002000B587B01C
:1009F0008DF817004FF0FF330293012301930DF19F
:100A00001702009200227821024800F080FD07B012
:100A100000BD00BF3403002000B585B04FF0FF33A8
:100A2000029389B20191009001234022782102486B
:100A300000F06DFD05B000BD3403002008B530B9ED
:100A400001464FF48062034804F0C6FD08BDFF2153
:100A5000F7E700BF9003002010B5002412E0A4F1D6
:100A60005000C0B2FFF7C2FF0020FFF7BFFF102009
:100A7000FFF7BCFF8021054800EBC410FFF7CCFF57
:100A80000134E4B2072CEAD910BD00BF9003002066
:100A900010F0800F13D13F2911D8012A10D0CB08B4
:100AA00000EBC310DFF834C01CF8002001F0070190
:100AB00001238B40DB435BB213400CF800307047DE
:100AC000CB0800EBC310DFF814C01CF8003001F0B5
:100AD00007018A4013430CF8003070479003002050
:100AE0002DE9F04784B0814604A800E90E009DF886
:100AF0003080A9F12003DBB25E2B46D8039B83B183
:100B0000A9F120029E5C254B1B883344802B40DCDE
:100B1000224B5B889DF805A05344402B3BDC00250D
:100B200022E09DF80460EEE71C4B188859882944A0
:100B30002044B8FA88F25209C9B2C0B2FFF7A8FF40
:100B40000134A6420FD907FA04F313F4004FEBD097
:100B5000124B18885988294420444246C9B2C0B271
:100B6000FFF796FFECE70135AA4508D9A9F1200364
:100B700003FB0A53029A32F813700024E1E7074B93
:100B80001A8816441E80484600E0002004B0BDE8E4
:100B9000F0870020FAE70020F8E700BF8803002074
:100BA00030B587B0044606A800E90E009DF828502D
:100BB00000E00134207848B1009506AB13E90E003F
:100BC000FFF78EFF034620788342F2D007B030BD96
:100BD000014B1880598070478803002010B50446E7
:100BE0008120FFF703FF2046FFF700FF10BD000044
:100BF00008B530B1054B01225A71AF20FFF7F6FE60
:100C000008BD024B5871AE20F8E700BF88030020F2
:100C100008B5642000F0AAF80020FFF7E9FF2020C3
:100C2000FFF7E4FE0020FFF7E1FEB020FFF7DEFE55
:100C3000C820FFF7DBFE0020FFF7D8FE1020FFF7EB
:100C4000D5FE4020FFF7D2FEFF20FFF7C7FFA1200F
:100C5000FFF7CCFEA620FFF7C9FEA820FFF7C6FECF
:100C60003F20FFF7C3FEA420FFF7C0FED320FFF70D
:100C7000BDFE0020FFF7BAFED520FFF7B7FEF0203B
:100C8000FFF7B4FED920FFF7B1FE2220FFF7AEFE3A
:100C9000DA20FFF7ABFE1220FFF7A8FEDB20FFF7FC
:100CA000A5FE2020FFF7A2FE8D20FFF79FFE142057
:100CB000FFF79CFE0120FFF79BFF0020FFF7BEFE21
:100CC000FFF7CAFE034B00221A805A8001221A71D4
:100CD00008BD00BF88030020104B1B780BB9012012
:100CE000704710B504460E4A10684FF47A72B2FB92
:100CF000F3F3B0FBF3F000F0B9F868B90F2C01D9A9
:100D000001200AE0024621464FF0FF3000F09AF839
:100D1000044B1C60002000E0012010BD01000020F9
:100D2000080000200400002010B5032000F078F82F
:100D30000F20FFF7D1FF18B101231C46204610BD3C
:100D4000044600F00BFDF9E7034B1B78034A1168DA
:100D50000B441360704700BF010000209007002083
:100D6000014B1868704700BF9007002038B5044653
:100D7000FFF7F6FF0546B4F1FF3F02D0044B1B78A6
:100D80001C44FFF7EDFF401BA042FAD338BD00BF63
:100D900001000020002807DB00F01F0240090123AA
:100DA0009340024A42F82030704700BF00E100E063
:100DB000002808DB0901C9B200F1604000F561407C
:100DC00080F80013704700F00F000901C9B2014B11
:100DD0001954704714ED00E000B500F00700A0F1D1
:100DE000030CBCF1040F07D8C0F1070E043006282D
:100DF00006D84FF0000C03E04FF0040E4FF0000C4B
:100E00004FF0FF3303FA0EF021EA000101FA0CF172
:100E100003FA0CF322EA030241EA020000BD0000DB
:100E2000074AD36823F4E0631B041B0C000200F4A0
:100E3000E060034343F0BF6343F40033D360704783
:100E400000ED00E010B50446054BD868C0F3022061
:100E5000FFF7C2FF01462046FFF7AAFF10BD00BF03
:100E600000ED00E008B5FFF795FF08BD0138B0F1CF
:100E7000807F0BD24FF0E0235861054AF02182F8C1
:100E800023100020986107221A61704701207047E3
:100E900000ED00E008B590F82530022B03D00423C4
:100EA000C363012008BD0268136823F001031360C7
:100EB0000268136823F00E031360436C03F01C03F5
:100EC000016C012202FA03F34B6080F82520002315
:100ED00080F82430836B13B198470020E2E718466E
:100EE000E0E7000070B582B0002374E085684FEA47
:100EF000430E032404FA0EF425EA0405CC6804FA30
:100F00000EF42C438460446824EA0C044D68C5F355
:100F1000001E0EFA03FE4EEA0404446070E0C46A48
:100F200024EA0C04C5F3C00E0EFA03FE4EEA0404D4
:100F3000C4626AE0DD08083550F8254003F0070C6C
:100F40004FEA8C0C4FF00F0E0EFA0CFE24EA0E0E38
:100F50000C6904FA0CF444EA0E0440F825406FE0F2
:100F6000062400E0002404FA0EF42C430CF1020CD9
:100F70005F4D45F82C405F4CA4686FEA020C24EAF0
:100F800002054E6816F4801F01D042EA0405594C50
:100F9000A560E4680CEA04054E6816F4001F01D051
:100FA00042EA0405534CE56064680CEA04054E68A7
:100FB00016F4003F01D042EA04054E4C65602468F7
:100FC0000CEA04054E6816F4803F01D042EA04059D
:100FD000484A156001330A6832FA03F400F086804B
:100FE0004FF0010C0CFA03FC1CEA0202F2D04C6830
:100FF00004F0030E0EF1FF3EBEF1010F7FF676AF57
:101000004D6805F00304032C89D04C6804F0030CF0
:10101000BCF1030F0DD0C4685D004FF0030C0CFA57
:1010200005FC24EA0C048E6806FA05FC4CEA04046C
:10103000C4604C6804F0030CBCF1020F3FF47AAFBB
:1010400005685C004FF0030C0CFA04FC25EA0C0E5A
:101050004D6805F0030C0CFA04FC4CEA0E04046025
:101060004C6814F4403FB5D0234C256E45F0010583
:101070002566246E04F001040194019C4FEA930C50
:101080000CF102051A4C54F8255003F0030E4FEAF8
:101090008E0E0F2404FA0EF425EA0405B0F1904FE9
:1010A0003FF460AF154CA04216D004F58064A04216
:1010B00014D004F58064A04212D004F58064A042EC
:1010C00010D004F58064A0420ED004F58064A042E4
:1010D0003FF446AF072446E7012444E7022442E7F1
:1010E000032440E704243EE705243CE702B070BD3A
:1010F00000000140000401400010024000040048CC
:101100000369194201D001207047002070470AB1DD
:101110008161704781627047436901EA030221EAF5
:10112000030141EA02418161704703689A6912F044
:10113000020F01D000229A6203689A6912F0010F2F
:1011400003D19A6942F001029A617047DDF800C04C
:10115000C1F3090141EA0241194341EA0C0121F0BE
:101160000041026853684FEA5C5C0CF4806C4CF000
:101170007F7C4CF4583C4CF47F7C4CF0030C23EA0D
:101180000C030B43536070472DE9F041044603689C
:101190009E6916F010067CD00D4690461022DA614A
:1011A000002637462368986910F0200F30D17FBBA6
:1011B000B5F1FF3FF6D0FFF7D3FD4346C01AA84272
:1011C00001D8002DEED121684B6803F4804394F8D8
:1011D0004220D2B2886910F4004F02D00BB9202A05
:1011E0000ED123689B6913F0200FDBD1FFF7B8FD08
:1011F0004346C01A1928F4D946F020060127D1E742
:101200004B6843F480434B60FFF7AAFD8046E8E754
:101210000FB92022DA6146F004060125226893699D
:1012200013F4807F05D046F001064FF48071D16140
:10123000012513F4806F06D046F0080622684FF4AB
:101240008061D161012513F4007F24D046F00206AD
:1012500023684FF40072DA6101252046FFF765FF2D
:101260002268536823F0FF7323F48B3323F4FF7356
:1012700023F001035360636C33436364202384F8D9
:101280004130002384F8423084F840302846BDE8DD
:10129000F0810025C2E7002DF8D0DEE770B50446E6
:1012A0000D46164623689B6913F0020F22D1324681
:1012B00029462046FFF768FFF0B9B5F1FF3FF1D0AE
:1012C000FFF74EFD801BA84201D8002DEAD123680C
:1012D0009B6913F0020FE5D1636C43F02003636454
:1012E000202384F84130002384F8423084F84030D1
:1012F000012000E0002070BD0120FCE72DE9F04155
:1013000004460F4616461D46DDF8188023689B6983
:1013100037EA03030CBF01230023B34227D142461F
:1013200029462046FFF730FF20BBB5F1FF3FEDD047
:10133000FFF716FDA0EB0800A84201D8002DE5D16B
:1013400023689B6937EA03030CBF01230023B342E0
:10135000DCD1636C43F020036364202384F84130C4
:10136000002384F8423084F84030012000E000205F
:10137000BDE8F0810120FBE770B582B00446164657
:101380001D46184B00934FF08073EAB2FFF7DEFE64
:10139000079A06992046FFF781FFE0B9012D0DD18C
:1013A0002368F2B29A62079B0093069B0022802179
:1013B0002046FFF7A3FF90B902B070BD330A226840
:1013C0009362079A06992046FFF768FF28B92368B9
:1013D000F2B29A62E7E70120EEE70120ECE7012094
:1013E000EAE700BF0020008070B504460D461646AF
:1013F00004E023689B6913F0200F12D023689B69D7
:1014000013F0200F1BD1324629462046FFF7BCFEC1
:10141000B8B9FFF7A5FC801BA842EAD8002DEDD192
:10142000E7E7636C43F020036364202384F84130D2
:10143000002384F8423084F84030012000E000208E
:1014400070BD0120FCE700285FD010B5044690F87D
:101450004130002B48D0242384F84130226813689F
:1014600023F0010313606368226823F07063136143
:101470002268936823F400439360E368012B38D01B
:10148000A368226843F404439360E368022B36D0D8
:101490002268536823F4006353602268536843F062
:1014A000007343F4004353602268D36823F400437D
:1014B000D360236962691343A169226843EA012367
:1014C000D360E369216A22680B43136022681368C2
:1014D00043F00103136000206064202384F841304E
:1014E000206384F8420010BD80F8403000F04EF9CF
:1014F000B1E7A368226843F400439360C5E722681C
:10150000536843F400635360C7E7012070472DE937
:10151000F04383B00E469846BDF82C3090F8411049
:10152000202940F0B7800446174699460A9ABAB176
:10153000B3B190F84030012B00F0B0804FF00103C0
:1015400080F84030FFF70CFC05460090192301227B
:101550004FF400412046FFF7D1FE30B101209AE060
:101560004FF400736364012095E0212384F8413037
:10157000402384F8423060640A9A6262A4F82A9098
:10158000606301950C9B009343463A4631462046E2
:10159000FFF7F2FE68B9638D9BB2FF2B0ED9FF22D5
:1015A000228500904FF0807331462046FFF7CEFD34
:1015B00021E0002384F8403001206CE0628D92B27B
:1015C0002285002300934FF00073D2B231462046AB
:1015D000FFF7BCFD0FE0628D92B2228500230093DD
:1015E0004FF00073D2B231462046FFF7AFFD638D56
:1015F0009BB2002B32D02A460C992046FFF74EFEB4
:1016000000284DD1626A236812789A62636A0133B6
:101610006362638D9BB2013B9BB26385238D013B6B
:101620009BB22385628D92B2002AE0D0002BDED1DE
:1016300000950C9B024680212046FFF75FFE88BB89
:10164000638D9BB2FF2BC6D9FF22228500904FF0FD
:10165000807331462046FFF779FDC8E72A460C998A
:101660002046FFF7C1FEF8B923682022DA6121681D
:101670004B6823F0FF7323F48B3323F4FF7323F0C1
:1016800001034B6084F84120002384F8423084F841
:10169000403000E0022003B0BDE8F0830220FAE70A
:1016A0000120F8E70120F6E70120F4E7034690F86F
:1016B0004120202A23D190F84020012A21D0012264
:1016C00080F84020242280F841200068026822F03F
:1016D000010202601868026822F4805202601868F1
:1016E00002680A43026019680A6842F001020A604F
:1016F000202283F84120002083F840007047022018
:10170000704702207047034690F84120202A21D1DB
:1017100090F84020012A1FD0012280F84020242286
:1017200080F841200068026822F001020260186817
:10173000026822F4706242EA0122026019680A68B3
:1017400042F001020A60202283F84120002083F841
:1017500040007047022070470220704782B00A4B59
:101760001A6E42F001021A661A6E02F0010200922D
:10177000009A9A6D42F080529A659B6D03F08053F7
:101780000193019B02B070470010024010B5AAB04F
:10179000044600212591269127912891299188229C
:1017A00003A803F019FF2268184B9A4201D02AB00F
:1017B00010BD8023039303A801F0B6F810BB144CAE
:1017C000E36C43F00203E364E36C03F00203019370
:1017D000019B4FF4C04325931223269300232793A4
:1017E000032328930423299325A90A48FFF77AFBAA
:1017F000A36D43F48003A365A36D03F480030293F8
:10180000029BD4E7FEF794FED9E700BF00580040E2
:10181000001002400004004810B5AEB0044600219C
:1018200029912A912B912C912D91882207A803F0C0
:10183000D3FE2368454A934207D0454A93422ED0AF
:10184000444A934257D02EB010BD2023079307A8D7
:1018500001F06AF800BB404BDA6D42F00102DA6534
:10186000DA6D02F001020192019ADA6C42F0040290
:10187000DA64DB6C03F004030293029B03232993D5
:1018800002222A9200222B922C9308232D9329A91D
:101890003248FFF727FBD6E7FEF74AFEDBE70223D5
:1018A000079307A801F040F810BB2B4B9A6D42F448
:1018B00000329A659A6D02F400320392039ADA6C50
:1018C00042F00102DA64DB6C03F001030493049B31
:1018D0000F23299302232A9300232B9303232C9372
:1018E00007232D9329A94FF09040FFF7FBFAAAE7B1
:1018F000FEF71EFED9E70423079307A801F014F8AA
:1019000008BB154B9A6D42F480229A659A6D02F4D9
:1019100080220592059ADA6C42F00402DA64DB6CEC
:1019200003F004030693069B3023299302232A9392
:1019300000232B9303232C9307232D9329A90748D6
:10194000FFF7D0FA7FE7FEF7F3FDDAE7008000400B
:1019500000440040004800400010024000080048D9
:1019600010B5A2B0044688220021684603F034FE78
:1019700022680D4B9A4201D022B010BD4FF40033C3
:1019800000934FF400732193684600F0CDFF38B9FF
:10199000064AD2F8903043F40043C2F89030EBE7A7
:1019A000FEF7C6FDF4E700BF00280040001002402B
:1019B00070B5AAB00446002125912691279128915F
:1019C0002991882203A803F007FE22682E4B9A4231
:1019D00001D02AB070BD4FF4002303934FF0806311
:1019E0001F9301230493059318230693072307935A
:1019F0000223089309934FF480130A9303A800F07D
:101A000093FF00283CD1214B1A6E42F480621A6683
:101A10001A6E02F480620092009ADA6C42F00402BC
:101A2000DA64DA6C02F004020192019ADA6C42F094
:101A30000802DA64DB6C03F008030293029B4FF4A4
:101A400088532593022526950024279428940C2654
:101A5000299625A90E48FFF745FA042325932695D4
:101A600027942894299625A90A48FFF73BFA22468D
:101A700021463120FFF7E6F93120FFF7F3F9A8E717
:101A8000FEF756FDBFE700BF0028014000100240EE
:101A900000080048000C004800B589B000230393FB
:101AA00004930593069307930268134B9A4201D05F
:101AB00009B000BD03F560431A6E42F480521A6605
:101AC0001A6E02F480520192019ADA6C42F001021D
:101AD000DA64DB6C03F001030293029BE0230393BF
:101AE00002230493032306930523079303A94FF0CE
:101AF0009040FFF7F7F9DBE700300140024B186830
:101B000000F4C060704700BF00700040B0F5007F77
:101B10000FD01F4B1B6803F4C063B3F5806F34D044
:101B20001B4A136823F4C06343F4806313600020EE
:101B30007047174B1B6803F4C063B3F5007F20D0D8
:101B4000134A136823F4C06343F400731360114B0A
:101B50001B68322202FB03F30F4AA2FB03239B0CF8
:101B6000013300E0013B0A4A526912F4806F01D050
:101B7000002BF7D1064B5B6913F4806F03D1002073
:101B8000704700207047032070470020704700BF57
:101B9000007000400800002083DE1B4330B583B096
:101BA0000546204B9B6D13F0805F0BD0FFF7A6FF1F
:101BB000B0F5007F17D0802D1FD82DD0702D2DD0DF
:101BC00000211BE0174CA36D43F08053A365A36D68
:101BD00003F080530193019BFFF790FFA36D23F067
:101BE0008053A365E4E7802D03D9A02D03D90221FA
:101BF00004E0002102E0012100E003210A4A136809
:101C000023F007030B431360136803F007038B42B1
:101C100006D1002003B030BD0221EFE70121EDE73E
:101C20000120F7E7001002400020024070B586B0A6
:101C30000E461546104CE36C43F00103E364E36C7D
:101C400003F001030093009B4FF480730193022380
:101C50000293049300230393059301A94FF090404E
:101C6000FFF740F9A36823F0EE4332462A431A43B4
:101C7000A26006B070BD00BF00100240254A936804
:101C8000D26802F0030213F00C0309D00C2B05D02C
:101C9000042B3BD0082B3BD000200FE0012AF7D1CA
:101CA0001C4A126812F0080F0CD11A4AD2F894207C
:101CB000C2F30322184951F8220013B10C2B06D0AD
:101CC00000207047134A1268C2F30312F2E7114B67
:101CD000DB6803F00303022B16D0032B00D10F485F
:101CE0000C49CA68C2F302120132CB68C3F306235F
:101CF00000FB03F3B3FBF2F3C868C0F341600130AB
:101D00004000B3FBF0F070470548E9E7044870472E
:101D1000024870470010024070770008001BB700AF
:101D20000024F400002800F0F382F0B583B00446EC
:101D3000964B9D6805F00C05DB6803F003031E4617
:101D4000036813F0100F5AD0E5B10C2D18D0A36919
:101D5000002B00F0BB808D4A136843F00103136031
:101D6000FEF7FEFF0746894B1B6813F0020F40F099
:101D70009A80FEF7F5FFC01B0228F4D90320D2E2B7
:101D8000012EE4D1814B1B6813F0020F03D0A3692D
:101D9000002B00F0BF82206A7C4B1B6813F0080FF9
:101DA0005BD07A4B1B6803F0F00398425CD8774B0A
:101DB0001A6842F008021A601A6822F0F002216ADA
:101DC0000A431A605A6822F47F42E16942EA01221A
:101DD0005A60002D60D0FFF751FF6C4B9B68C3F336
:101DE00003136B4AD35C03F01F03D840694B1860A0
:101DF000694B1868FEF770FF002840F09482236852
:101E000013F0010F00F08180082D75D00C2D71D0DA
:101E10006368B3F5803F00F09780B3F5A02F00F022
:101E200099805A4B1A6822F480321A601A6822F498
:101E300080221A606368002B00F09980FEF790FF03
:101E40000746524B1B6813F4003F5ED1FEF788FF34
:101E5000C01B6428F5D9032065E24C4BD3F89430BD
:101E60001B0903F0F003A0E7FFF798FE002840F0FD
:101E70005382464B1A6842F008021A601A6822F030
:101E8000F002216A0A431A605A6822F47F42E1692B
:101E900042EA01225A609EE7206AFFF77FFE00288F
:101EA00099D001203FE2394B1A6842F008021A60CB
:101EB0001A6822F0F002216A0A431A605A6822F472
:101EC0007F42E16942EA01225A6098E72F4A13688B
:101ED00023F001031360FEF743FF07462B4B1B68FB
:101EE00013F0020F8BD0FEF73BFFC01B0228F5D981
:101EF000032018E2032E8BD1244B1B6813F4003F00
:101F000003D06368002B00F00982236813F0020FEE
:101F100057D0042D44D00C2D40D0E368002B76D050
:101F20001A4A136843F480731360FEF719FF0646DC
:101F3000164B1B6813F4806F60D1FEF711FF801BF6
:101F40000228F5D90320EEE1104A136843F48033E8
:101F500013606FE703F18043A3F53C331A6842F442
:101F600080221A601A6842F480321A6062E7FEF733
:101F7000F7FE0746054B1B6813F4003FC5D0FEF77C
:101F8000EFFEC01B6428F5D90320CCE1001002400D
:101F9000A87700080800002004000020022EBCD111
:101FA000A44B1B6813F4806F03D0E368002B00F090
:101FB000B781A04A536823F0F853216943EA0163CB
:101FC0005360236813F0080F4CD063699BB3994AA0
:101FD000D2F8943043F00103C2F89430FEF7C0FE0B
:101FE0000646944BD3F8943013F0020F3AD1FEF723
:101FF000B7FE801B0228F4D9032094E18D4A536870
:1020000023F0F853216943EA01635360D9E7894A11
:10201000136823F480731360FEF7A2FE0646854B17
:102020001B6813F4806FCCD0FEF79AFE801B022849
:10203000F5D9032077E17F4AD2F8943023F00103E9
:10204000C2F89430FEF78CFE06467A4BD3F89430F3
:1020500013F0020F06D0FEF783FE801B0228F4D98E
:10206000032060E1236813F0040F7CD0714B9B6D5B
:1020700013F0805F37D16F4B9A6D42F080529A65B2
:102080009B6D03F080530193019B01231F466A4B14
:102090001B6813F4807F29D0A368012B3AD0052B4D
:1020A00040D0644BD3F8902022F00102C3F8902076
:1020B000D3F8902022F00402C3F89020A368002BEC
:1020C0003ED0FEF74DFE06465A4BD3F8903013F043
:1020D000020F47D1FEF744FE801B41F2883398423D
:1020E000F2D903201FE100231F46D0E7524A1368AC
:1020F00043F480731360FEF733FE06464E4B1B68B5
:1021000013F4807FC8D1FEF72BFE801B0228F5D97F
:10211000032008E1474AD2F8903043F00103C2F8A7
:102120009030CBE7434BD3F8902042F00402C3F841
:102130009020D3F8902042F00102C3F89020BDE730
:10214000FEF70EFE06463B4BD3F8903013F0020F1D
:1021500008D0FEF705FE801B41F288339842F2D981
:102160000320E0E0EFB9A36A002B00F0DB80022B34
:102170001DD00C2D00F0DD802E4A136823F08073F3
:102180001360FEF7EDFD04462A4B1B6813F0007F39
:1021900000F0B780FEF7E4FD001B0228F4D903200D
:1021A000C1E0244A936D23F080539365DBE7214B14
:1021B000DB6803F00301E26A91420FD00C2D00F0BE
:1021C000B4801C4B1B6813F0806F40F0B080194B3B
:1021D0001B6813F0805F31D00120A4E003F070028F
:1021E000216B0139B2EB011FE8D103F4FE42616BB0
:1021F000B2EB012FE2D103F40031A26B073A18BF12
:1022000001229142DAD103F4C001E26B5208013A93
:10221000B1EB425FD2D103F0C063226C5208013AA5
:10222000B3EB426FCAD1034B1B6813F0007F4ED053
:10223000002078E000100240007000403E4A136821
:1022400023F080731360FEF78BFD05463A4B1B6845
:1022500013F0007F06D0FEF783FD401B0228F5D95E
:10226000032060E0344AD36834491940E36A206BA4
:10227000013843EA0013606B43EA0023E06B400837
:10228000013843EA4053206C4008013843EA406378
:10229000A06B000943EA40431943D160136843F03F
:1022A00080731360D36843F08073D360FEF758FDEA
:1022B0000446214B1B6813F0007F06D1FEF750FD4A
:1022C000001B0228F5D903202DE000202BE01A4B3B
:1022D0001A6842F080721A60DA6842F08072DA603E
:1022E000FEF73EFD0446144B1B6813F0007F06D139
:1022F000FEF736FD031B022BF5D9032013E0002067
:1023000011E00D4AD1680E4B0B40D36000200AE06B
:1023100001207047012006E0012004E0012002E0D6
:10232000012000E0184603B0F0BD0120FBE70120CA
:10233000F9E70120F7E700BF001002408C809DF90B
:10234000FCFFEEFE002800F0AF8070B50D4604469D
:10235000594B1B6803F007038B420BD2564A136894
:1023600023F007030B431360136803F007038B424A
:1023700040F09C80236813F0020F0CD0A2684F4BF2
:102380009B6803F0F0039A4205D94C498B6823F00F
:10239000F0031A438A60236813F0010F39D0636891
:1023A000032B09D0022B26D063BB444A126812F0DB
:1023B000020F06D1012076E0404A126812F0007F39
:1023C00076D03E498A6822F0030213438B60FEF701
:1023D000C7FC0646394B9B6803F00C036268B3EBFD
:1023E000820F16D0FEF7BCFC801B41F28833984266
:1023F000F0D9032057E0314A126812F4003FE0D1CF
:10240000012050E02D4A126812F4806FD9D10120CA
:1024100049E0236813F0020F0CD0A268274B9B6899
:1024200003F0F0039A4205D224498B6823F0F003AD
:102430001A438A60204B1B6803F00703AB420AD99A
:102440001D4A136823F007032B431360136803F03E
:102450000703AB422ED1236813F0040F06D0174AAE
:10246000936823F4E063E1680B439360236813F0FF
:10247000080F07D0114A936823F46053216943EA97
:10248000C1039360FFF7FAFB0C4B9B68C3F3031384
:102490000B4AD35C03F01F03D8400A4B18600A4B69
:1024A0001868FEF719FC70BD012070470120FAE79B
:1024B0000120F8E70120F6E700200240001002406A
:1024C000A87700080800002004000020014B1868CD
:1024D000704700BF0800002008B5FFF7F7FF054B65
:1024E0009B68C3F30223044AD35C03F01F03D84064
:1024F00008BD00BF00100240A077000808B5FFF734
:10250000E5FF054B9B68C3F3C223044AD35C03F089
:102510001F03D84008BD00BF00100240A07700088C
:10252000B0F5006F2BD0B0F5805F32D00023B3F54B
:10253000000F38D0B3F1007F35D0002B54D103F118
:10254000804303F50433186810F0006053D0186915
:1025500010F480304FD01A46D868C0F30210013012
:10256000B1FBF0F11B69C3F30623126912F4003FBB
:1025700038D0112203FB01F0B0FBF2F070472E4B74
:10258000D3F8883003F44003B3F5400FCFD12B4884
:102590007047294BD3F8883003F04073B3F1407F84
:1025A000C5D126487047244B186810F0007022D01F
:1025B000D86810F480301ED01A46D868C0F30210D4
:1025C0000130B1FBF0F1DB68C3F30623D26812F4EB
:1025D000003F05D0112203FB01F0B0FBF2F0704781
:1025E0000722F8E70722C5E7B3F5800F04D0B3F15F
:1025F000807F01D0002070470F4B186810F000500A
:10260000F9D0586910F48030F5D01A46D868C0F374
:1026100002100130B1FBF0F15B69C3F3062352698C
:1026200012F4003F05D0112203FB01F0B0FBF2F0E1
:1026300070470722F8E700BF0010024068FF1F0044
:10264000F8B504460F465F4BDB6813F0030F1BD051
:102650005C4BDB6803F003030268934203D0012361
:102660001D462846F8BD002A00F0A580554BDB68C2
:10267000C3F3021301334268934202D001231D4683
:10268000EFE700231D461AE00368022B59D0032B05
:102690005FD0012B40F092804A4A126812F0020F7C
:1026A00064D04848C26822F073026168013943EA85
:1026B00001131343C36000231D46002DD1D1414AAD
:1026C000136823F080631360FEF74AFB06463D4B18
:1026D0001B6813F0006F06D0FEF742FB831B022B32
:1026E000F5D903231D46002DBBD1002F41D135491B
:1026F0000B6923F41F3323F44073A068E2681209C6
:10270000520442EA002213430B612E4A136843F03D
:1027100080631360FEF724FB06462A4B1B6813F008
:10272000006F06D1FEF71CFB801B0228F5D903239E
:102730001D46002D95D1234A1369A1690B431361EE
:102740008FE7204A126812F4806FAAD101231D4638
:1027500087E71C4A126812F4003FA2D1194A126896
:1027600012F4802F9DD101231D467AE701231D46D7
:10277000A3E7012F0FD01348026922F0C06222F4B0
:10278000FE42A16863695B08013B5B0643EA0123E3
:102790001A430261B9E70B48026922F4C00222F42D
:1027A000FE42A16823695B08013B5B0543EA012304
:1027B0001A430261A9E701231D4652E701231D4682
:1027C0004FE700BF00100240F8B504460F46554BD6
:1027D000DB6813F0030F1BD0524BDB6803F00303DD
:1027E0000268934203D001231D462846F8BD002A03
:1027F00000F092804B4BDB68C3F302130133426855
:10280000934202D001231D46EFE700231D4619E045
:102810000368022B58D0032B5ED0012B7FD1414A95
:10282000126812F0020F64D03E48C26822F07302B0
:102830006168013943EA01131343C36000231D4655
:10284000002DD2D1374A136823F080531360FEF76E
:1028500087FA0646334B1B6813F0005F06D0FEF77D
:102860007FFA831B022BF5D903231D46002DBCD113
:10287000002F41D12B494B6923F41F3323F44073BC
:10288000A068E2681209520442EA002213434B6135
:10289000244A136843F080531360FEF761FA06463A
:1028A000204B1B6813F0005F06D1FEF759FA801B1E
:1028B0000228F5D903231D46002D96D1194A5369E4
:1028C00061690B43536190E7164A126812F4806FF6
:1028D000AAD101231D4688E7124A126812F4003F6C
:1028E000A2D1104A126812F4802F9DD101231D46F7
:1028F0007BE701231D46A3E70A48426922F0C06234
:1029000022F4FE42A16823695B08013B5B0643EAAF
:1029100001231A434261BBE701231D4665E70123FA
:102920001D4662E7001002402DE9F04182B00446E6
:10293000036813F4006F38D0436EB3F5000F18D05E
:102940000DD84BB3B3F5800F05D100212030FFF730
:102950003BFF064625E001231F461E4628E0B3F54F
:10296000400F02D100231E460AE001231F461E46E7
:102970001EE0644AD36843F48033D36000231E46CC
:10298000604AD2F8883023F44003616E0B43C2F8EA
:10299000883000231F460BE019460430FFF750FE35
:1029A0000646002EECD0374602E000231F461E46A6
:1029B000236813F4805F32D0A36EB3F1007F21D07F
:1029C0000ED82BB3B3F1807F06D1002104F1200093
:1029D000FFF7FAFE064606E001231F461E461EE0EC
:1029E000B3F1407F0AD1CEB9464AD2F8883023F0FD
:1029F0004073A16E0B43C2F8883010E001231F46DC
:102A00001E460CE03F4AD36843F48033D360EAE7C4
:102A10001946201DFFF714FE0646E4E737462368F3
:102A200013F4003F77D0374B9B6D13F0805F52D18A
:102A3000344B9A6D42F080529A659B6D03F080533F
:102A40000193019B012398462F4A136843F4807336
:102A50001360FEF785F905462B4B1B6813F4807F46
:102A600006D1FEF77DF9401B0228F5D903231E4647
:102A7000002E4BD106F1804303F50433D3F8903098
:102A800013F4407319D0D4F884209A4212D01D4A0E
:102A9000D2F8903023F44073D2F8901041F4803192
:102AA000C2F89010D2F8901021F48031C2F8901042
:102AB000C2F8903013F0010F10D1002E40F02981A0
:102AC000104AD2F8903023F44073D4F884100B43AA
:102AD000C2F890301BE000239846B5E7FEF740F9B6
:102AE0000546084BD3F8903013F0020FE5D1FEF7FE
:102AF00037F9401B41F288339842F2D903231E462E
:102B0000DBE700BF0010024000700040374643463C
:102B1000002B40F00081236813F0010F08D09D4A7C
:102B2000D2F8883023F00303A16B0B43C2F888303E
:102B3000236813F0020F08D0964AD2F8883023F0A9
:102B40000C03E16B0B43C2F88830236813F0040FC9
:102B500008D0904AD2F8883023F03003216C0B4320
:102B6000C2F88830236813F0080F08D0894AD2F8D9
:102B7000883023F0C003616C0B43C2F888302368AF
:102B800013F0100F08D0834AD2F8883023F4407332
:102B9000A16C0B43C2F88830236813F0200F08D0D3
:102BA0007C4AD2F8883023F44063E16C0B43C2F8CE
:102BB0008830236813F4007F08D0764AD2F8883032
:102BC00023F44023E16D0B43C2F88830236813F4EB
:102BD000806F08D06F4AD2F8883023F44013216EFA
:102BE0000B43C2F88830236813F0400F08D0694ABD
:102BF000D2F8883023F44053216D0B43C2F888305B
:102C0000236813F0800F08D0624AD2F8883023F48A
:102C10004043616D0B43C2F88830236813F4807F12
:102C200008D05C4AD2F8883023F44033A16D0B43BE
:102C3000C2F88830236813F4005F0FD0554AD2F8E9
:102C4000883023F04063E16E0B43C2F88830E36EB6
:102C5000B3F1006F65D0B3F1806F67D0236813F4D0
:102C6000002F0FD04B4AD2F8883023F04063216FF9
:102C70000B43C2F88830236FB3F1006F5ED0B3F11D
:102C8000806F60D0236813F4802F0FD0414AD2F8B0
:102C9000883023F04063616F0B43C2F88830636F64
:102CA000B3F1006F57D0B3F1806F59D0236813F49C
:102CB000804F0FD0374AD2F8883023F04053A16FAD
:102CC0000B43C2F88830A36FB3F1805F50D0B3F1EB
:102CD000005F55D0236813F4004F08D02D4AD2F876
:102CE000883023F08043E16F0B43C2F888302368BB
:102CF00013F4803F09D0274AD2F8883023F00043EC
:102D0000D4F880100B43C2F88830384602B0BDE8D2
:102D1000F0813746FBE61F4A936D23F0805393659D
:102D2000F9E6D36843F48013D36097E70121201DAF
:102D3000FFF786FC002891D007468FE7D36843F45D
:102D40008013D3609EE70121201DFFF779FC002846
:102D500098D0074696E7D36843F48013D360A5E77D
:102D60000121201DFFF76CFC00289FD007469DE73E
:102D70000221201DFFF764FC0028ABD00746A9E71D
:102D8000022104F12000FFF71FFD0028A2D0074612
:102D9000A0E700BF0010024008B5B0F5003F1AD010
:102DA000A54BDB6803F00303022B45D0032B4AD06D
:102DB000012B4FD1A04B196811F002014BD01B68B9
:102DC00013F0080F32D09C4B1B68C3F303139B4ACC
:102DD00052F823103FE0984BD3F8903003F440733F
:102DE000B3F5007F10D0B3F5407F17D0B3F5807FE7
:102DF00040F03083904BD3F8900010F0020000F0C8
:102E00002A834FF4004026E38B4BD3F8940010F054
:102E1000020000F020834FF4FA401CE3864B186850
:102E200010F4003000F01783854814E3824BD3F888
:102E30009430C3F30323CAE77F4B196811F4806110
:102E400009D0804907E07C4B196811F4003102D0A9
:102E50007D4900E00021B0F5807F00F0848257D8E2
:102E6000102800F0B98134D8042800F0718119D8F5
:102E7000012800F02981022812D16F4BD3F8883045
:102E800003F00C03082B00F05B8100F24881002B5B
:102E900000F05381042B40F04081FEF7EFFEDAE2B0
:102EA0000020D8E2082812D1634BD3F8883003F011
:102EB000C003802B00F0888100F27581002B00F0A8
:102EC0008081402B40F06D81FEF7D8FEC3E20020E8
:102ED000C1E2402800F01082802800F029822028DA
:102EE00014D1554BD3F8883003F44063B3F5006F29
:102EF00000F0B28100F29E81002B00F0AA81B3F5B0
:102F0000806F40F09581FEF7B9FEA4E20020A2E2B6
:102F1000B0F5805F73D010D9B0F5004F00F0878214
:102F200033D9B0F5803F4BD1434BD3F88830002BD9
:102F3000C0F2DB81FFF7E2FA8DE2B0F5806F00F0BE
:102F40004682B0F5006F55D0B0F5007F1BD13A4BEB
:102F5000D3F8883003F44023B3F5002F00F030821B
:102F600000F21D82002B00F02882B3F5802F40F084
:102F70001482314BD3F8940010F0020000F06B8201
:102F80004FF4FA4067E2002065E2B0F5005F1FD021
:102F9000B0F5804F12D1284BD3F8883003F040535E
:102FA000B3F1005F00F08281B3F1405F00F05C811B
:102FB000B3F1805F00F05B8100204CE200204AE228
:102FC000C0F04A82B0F5802F02D0B0F5002F0FD1AB
:102FD000194BD3F8883003F04063B3F1006F35D05C
:102FE000B3F1406F10D0B3F1806F4ED0002032E2C9
:102FF000002030E24FF40060FFF792FA2BE24FF42A
:103000008050FFF78DFA26E20B4B186810F0020093
:1030100000F021821B6813F0080F07D0064B1B68D5
:10302000C3F30313054A52F8230014E2024BD3F80A
:103030009430C3F30323F5E70010024070770008D3
:10304000D8B805000024F400001BB700A84B18688E
:1030500010F0007000F0FF81D86810F4801000F0CC
:10306000FA811A46DB68C3F3062303FB01F0D36839
:10307000C3F302130133B0FBF3F0D368C3F341533E
:1030800001335B00B0FBF3F0E5E1994B186810F0F9
:10309000006000F0E081186910F4801000F0DB811E
:1030A0001A461B69C3F3062303FB01F0D368C3F37D
:1030B00002130133B0FBF3F01369C3F3415301333F
:1030C0005B00B0FBF3F0C6E1894BD3F8883003F026
:1030D0000303022B19D007D8A3B1012B02D1FEF7AD
:1030E000CDFDB8E10020B6E1032B09D1804BD3F828
:1030F000900010F0020000F0AE814FF40040AAE111
:103100000020A8E1FFF7FAF9A5E1794B186810F45F
:10311000806000F0A08177489DE100209BE10C2BAE
:1031200009D1734BD3F8900010F0020000F09381A6
:103130004FF400408FE100208DE1FFF7CDF98AE1E7
:103140006B4B186810F4806000F08581694882E15B
:10315000674BD3F8883003F03003202B19D007D801
:10316000A3B1102B02D1FEF789FD74E1002072E1BA
:10317000302B09D15E4BD3F8900010F0020000F024
:103180006A814FF4004066E1002064E1FFF7A4F992
:1031900061E1574B186810F4806000F05C8155487D
:1031A00059E1002057E1C02B09D1514BD3F89000D1
:1031B00010F0020000F04F814FF400404BE100207E
:1031C00049E1FFF789F946E1494B186810F480603E
:1031D00000F0418147483EE1454BD3F8883003F485
:1031E0004073B3F5007F1BD008D8B3B1B3F5807F2F
:1031F00002D1FEF743FD2EE100202CE1B3F5407F24
:1032000009D13B4BD3F8900010F0020000F023816D
:103210004FF400401FE100201DE1FFF75DF91AE1C6
:10322000334B186810F4806000F01581314812E1CA
:10323000002010E1B3F5406F09D12D4BD3F8900079
:1032400010F0020000F007814FF4004003E100207D
:1032500001E1FFF741F9FEE0254B186810F48060AA
:1032600000F0F9802348F6E0FEF708FDF3E0204B7C
:10327000186810F0006000F0EE80186910F080709F
:1032800000F0E9801A461B69C3F3062303FB01F033
:10329000D368C3F302130133B0FBF3F01369C3F334
:1032A000416301335B00B0FBF3F0D4E0104B1868CE
:1032B00010F0005000F0CF80586910F0807000F0DE
:1032C000CA8018465B69C3F3062301FB03F3C26897
:1032D000C2F302120132B3FBF2F34069C0F3416062
:1032E00001304000B3FBF0F0B5E0FEF7C7FCB2E000
:1032F000001002400024F4005B4BD3F8883003F444
:103300004053B3F5805F08D0B3F5005F08D0002BC1
:1033100040F0A480FFF7E0F89DE0FEF7AFFC9AE0F4
:10332000514B186810F4806000F095804F4892E08F
:103330004D4BD3F8883003F44043B3F5804F08D0A9
:10334000B3F5004F08D0002B40F08A80FFF7C4F897
:1033500081E0FEF793FC7EE0434B186810F4806038
:1033600079D0424877E0404BD3F8883003F44033BB
:10337000B3F5803F07D0B3F5003F07D0002B71D1E4
:10338000FFF7AAF867E0FEF779FC64E0364B1868AF
:1033900010F480605FD035485DE000205BE0B3F55D
:1033A000402F08D1304BD3F8900010F0020052D0DB
:1033B0004FF400404FE000204DE0FFF78DF84AE069
:1033C000294B186810F4806045D0284843E0264B0C
:1033D000D3F8883003F44013B3F5001F20D00ED883
:1033E000DBB1B3F5801F08D11F4BD3F8940010F068
:1033F000020030D04FF4FA402DE000202BE0B3F56E
:10340000401F08D1184BD3F8900010F0020022D0D2
:103410004FF400401FE000201DE0FFF75DF81AE0C8
:10342000114B186810F4806015D0104813E00E4B53
:10343000D3F8883013F0804302D023B918460AE04D
:10344000FFF74AF807E0084B186810F4806002D0D4
:10345000064800E0002008BD0020FCE70020FAE755
:103460000020F8E70020F6E7001002400024F400F6
:1034700038B5044603680A4ADA60FDF771FC054670
:103480002368DB6813F0200F07D1FDF769FC401BB0
:10349000B0F57A7FF4D9032000E0002038BD00BFEA
:1034A0005FFF030070B50368DA6812F0400F02D0C6
:1034B0000025284670BD04464FF0FF32DA60FDF764
:1034C0004FFC064600252368DB6813F0400FF0D15F
:1034D000032DEED0FDF744FC831BB3F57A7FF2D9C0
:1034E000032584F82150EEE710B50446104BDA6846
:1034F00022F08002DA609B6813F0200F06D1FFF7FC
:10350000B7FF98B1032084F821000FE0084A9368C0
:1035100023F020039360FFF7ABFF10B1032084F882
:103520002100034A936843F02003936010BD00BF5D
:103530000028004000284ED038B5044690F82130CD
:1035400063B1022384F821302368DA6812F0100F87
:1035500009D00020012384F8213038BD80F82030C4
:10356000FEF7FEF9EDE7CA225A62236853225A6237
:103570002046FFF797FFC0B92268936823F4E00361
:1035800023F04003936021688A68636820690343DD
:10359000A069034313438B602368E2681A612268C1
:1035A0001369A16843EA014313612046FFF79CFFBA
:1035B00058B92268D36C23F00303D3642168CB6C21
:1035C000E26965692A431343CB642368FF225A6288
:1035D0000028C2D1BEE701207047002302E001337A
:1035E0000A38C0B20928FAD81B01DBB21843704769
:1035F00090F82030012B61D070B504460D46164678
:10360000012380F82030022380F821300368CA2289
:103610005A62036853225A62FFF744FF002830D1F0
:10362000002E39D123689B6813F0400F01D100238D
:10363000EB702878FFF7D1FF03041E466878FFF788
:10364000CCFF46EA00231E46A878FFF7C6FF3346A4
:103650000343EA7843EA8253226803F07F3323F07E
:10366000FE4313602268936823F4802393602168EB
:103670008B68EA682869024313438B602046FFF792
:1036800033FF2368FF225A6210B9012384F82130E6
:10369000002384F8203070BD23689B6813F0400F2E
:1036A00001D10023EB702A786B781B0243EA0243B6
:1036B000AA781343EA7843EA8253CDE702207047A1
:1036C00090F82030012B4DD070B504460D460123F3
:1036D00080F82030022380F82130F2B1CA784B788C
:1036E0001B0243EA02438A7813430A7843EA4235CD
:1036F0002368CA225A62236853225A622046FFF77F
:10370000D1FE28B32368FF225A6210B9012384F83E
:103710002130002384F8203070BD4B7813F0100F57
:1037200003D003F0EF030A334B70E878FFF755FF3F
:1037300003041E466878FFF750FF46EA00231E4642
:10374000A878FFF74AFF30432B7840EA4335CFE7AC
:10375000226825F07F4323F0C00353602046FFF723
:10376000C3FECFE702207047030903EB830300F099
:103770000F0000EB4300C0B2704770B503689B6A4E
:103780004B6003681B69C3F30E038B6003681B68FF
:10379000C3F305400870C3F306264E7003F07F059F
:1037A0008D70C3F38053CB705AB90C46FFF7DCFF22
:1037B00020703046FFF7D8FF60702846FFF7D4FF2F
:1037C000A070002070BD70B503685B68C3F307404C
:1037D000C870C3F304264E7003F03F058D70C3F329
:1037E00042330B705AB90C46FFF7BEFFE07030460B
:1037F000FFF7BAFF60702846FFF7B6FFA070002001
:1038000070BD000070B582B00446002301930068CB
:1038100001F04EFB064610B1304602B070BD206884
:1038200001F046FE38B90123A364A36C012B0BD031
:103830003046354615E00023A364206801F038FBCC
:103840000028F2D00646E7E70021206801F098FC46
:103850000028EDD04FF080531E46DDE7019B013379
:103860000193019A4FF6FE739A4213D895B92946EF
:10387000206801F085FCE0B91349206801F060FD83
:103880000546C0B90146206801F0FDFAC30FE5D036
:103890001D46E3E7019A4FF6FE739A420FD810F0E7
:1038A000804302D001236364B6E7002262641E46AF
:1038B000B2E70646B0E74FF080531E46ACE74FF044
:1038C00080731E46A8E700BF000010C1F8B5846AE7
:1038D000C66AA6B9F8BD386801F0AEFA2070C0F328
:1038E00007236370C0F30743A370000EE070043435
:1038F000043E0135072DEED9BC62FE62EAE70746B9
:103900000025F7E7F0B583B0046A466ADEB903B074
:10391000F0BD23780193627843EA02230193A278F1
:1039200043EA02430193E27843EA026301930434D9
:10393000043E01A9386801F082FA0135072DE8D963
:103940003C627E62E3E707460025F7E7F0B589B001
:1039500004460F46FDF704FA064600230093019340
:103960000821206801F062FB054610B1284609B025
:10397000F0BD216D0904206801F002FC0546002815
:10398000F4D14FF0FF3302930823039330230493C1
:103990000223059306900123079302A9206801F0F2
:1039A00075FA206801F01CFC054658B1DEE701F00D
:1039B00043FA4DF825000135FDF7D2F9831BB3F129
:1039C000FF3F3FD02068436B13F02A0F07D1436BB2
:1039D00013F4001FEBD1436B13F4005FECD1436B86
:1039E00013F0080F25D1436B13F0020F24D1456B60
:1039F00015F0200523D140F23A538363019A130254
:103A000003F47F0343EA0263110A01F47F410B438D
:103A100043EA12633B60009A130203F47F0343EA14
:103A20000263110A01F47F410B4343EA12637B6096
:103A30009CE70825856399E70225856396E720259D
:103A4000856393E74FF0004590E710B582B00446D8
:103A5000002100910191006801F015FA10F0007F3B
:103A600013D169462046FFF771FF80B9019B13F41B
:103A7000802F0ED0216D0904206801F081FB30B940
:103A80000221206801F094FB01E04FF4006002B0D5
:103A900010BD4FF08060FAE710B582B004460021F7
:103AA00000910191006801F0EEF910F0007F13D150
:103AB00069462046FFF74AFF80B9019B13F4803F17
:103AC0000ED0216D0904206801F05AFB30B901467F
:103AD000206801F06DFB01E04FF4006002B010BD02
:103AE0004FF08060FAE770B581B104460D46016D74
:103AF0000904006801F08CFB064608B1304670BD31
:103B00000146206801F0BFF92860F7E74FF0006335
:103B10001E46F3E72DE9F04F87B005460C461646E2
:103B20009B46DDF84080FDF71BF9002C35D082461E
:103B300095F834305FFA83F9012B40F001810023BE
:103B4000AB635B46F318EA6D93422DD8032385F8E7
:103B500034302B680022DA626B6C012B00D07602C5
:103B60004FF0FF3300935F467B0201939023029353
:103B700002230393002304930123059369462868D5
:103B800001F084F9012F14D902232B6331462868F0
:103B900001F07CFAA0B9019F27E0AB6B43F0006312
:103BA000AB634FF00109D1E0AB6B43F00073AB6343
:103BB000CCE001232B633146286801F04FFAE9E796
:103BC0002B68644A9A63AB6B0343AB63012385F8AC
:103BD000343000232B63B9E0FDF7C2F85346C01A16
:103BE00040451FD2B8F1000F1CD02868466B16F470
:103BF000957626D1436B13F4004FEDD0002FEBD018
:103C0000072EE9D8286801F017F92070C0F30723C0
:103C10006370C0F30743A370000EE0700434043FE8
:103C20000136EDE72B684B4A9A63AB6B43F00043D8
:103C3000AB63012385F8343000232B634FF0030975
:103C400084E0436B13F4807F05D05B46012B02D9DF
:103C50006B6C032B36D12B685A6B12F0080F42D1D4
:103C60005A6B12F0020F4AD15A6B12F0200F52D148
:103C70002868436B13F4001F59D0002F57D001F070
:103C8000DBF82070C0F307236370C0F30743A37011
:103C9000000EE0700434043FFDF762F85346C01A8A
:103CA000404502D2B8F1000FE2D12B68294A9A634D
:103CB000AB6B43F00043AB63012385F83430002342
:103CC0002B6343E001F02AFA03460028C3D02A6898
:103CD00020499163AA6B1343AB63012385F8343009
:103CE00000232B6332E01B4A9A63AB6B43F008035B
:103CF000AB63012385F8343000232B6326E0154A9B
:103D00009A63AB6B43F00203AB63012385F8343055
:103D100000232B631AE00F4A9A63AB6B43F0200336
:103D2000AB63012385F8343000232B630EE040F2AF
:103D30003A538363012385F834304FF0000905E0DE
:103D4000AB6B43F00053AB634FF00109484607B03B
:103D5000BDE8F08FFF0540002DE9F04F89B0054622
:103D60000C4616469A46FCF7FBFF002C36D08146DF
:103D700095F834305FFA83F8012B40F0DF800023A0
:103D8000AB635346F318EA6D93422ED8032385F8AC
:103D900034302B680022DA626B6C012B00D0760283
:103DA0004FF0FF33029357467B0203939023049313
:103DB0000023059306930123079302A9286801F0C5
:103DC00065F8012F16D920232B633146286801F0AE
:103DD0008DF983465B46ABB9039F28E0AB6B43F09C
:103DE0000063AB634FF00108AEE0AB6B43F00073D0
:103DF000AB63A9E010232B633146286801F05EF91C
:103E00008346E7E72B68524A9A63AB6B5A461343E3
:103E1000AB63012385F8343000232B6394E0FCF777
:103E20009FFF4B46C01A129B984223D213B32868B7
:103E3000466B16F48D762CD1436B13F4804FEED085
:103E4000002FECD0072EEAD823780193627843EA5A
:103E500002230193A27843EA02430193E27843EA02
:103E6000026301930434043F01A9286800F0E7FFCE
:103E70000136E7E72B68364A9A63AB6B5A46134321
:103E8000AB63012385F8343000232B634FF0030824
:103E90005AE0436B13F4807F05D05346012B02D9BF
:103EA0006B6C032B18D12B685A6B12F0080F24D1BE
:103EB0005A6B12F0020F2CD15A6B12F0100F34D043
:103EC000234A9A63AB6B43F01003AB63012385F87D
:103ED000343000232B6337E001F020F9034600283B
:103EE000E1D02A681A499163AA6B1343AB6301239B
:103EF00085F8343000232B6326E0154A9A63AB6BB8
:103F000043F00803AB63012385F8343000232B63AF
:103F10001AE00F4A9A63AB6B43F00203AB630123D1
:103F200085F8343000232B630EE040F23A529A6356
:103F3000012385F834304FF0000805E0AB6B43F007
:103F40000053AB634FF00108404609B0BDE8F08F65
:103F5000FF054000704700000346426E920F0A7052
:103F6000426EC2F383624A7090F8672002F0030247
:103F70008A7090F86620CA7090F865200A7190F8EF
:103F800064204A71826E120DCA80B0F86A2002F075
:103F90000F020A72826EC2F3C0324A72826EC2F39C
:103FA00080328A72826EC2F34032CA72826EC2F36B
:103FB00000320A7300224A73426C002A40F0868065
:103FC000806E40F6FC7202EA8002D86E42EA90727D
:103FD0000A61DA6EC2F3C2620A7593F86F2002F0CA
:103FE00007024A75DA6EC2F342528A75DA6EC2F37C
:103FF0008242CA75DA6EC2F3C2320A760A690132A7
:104000005A65087E00F00700023082405A6591F838
:1040100008C00CF00F0C012000FA0CF09865400A63
:1040200000FB02F2DA654FF400721A66DA6EC2F330
:1040300080324A76DA6EC2F3C6128A76DA6E02F0FF
:104040007F02CA761A6FD20F0A771A6FC2F34172D3
:104050004A771A6FC2F382628A771A6FC2F3835269
:10406000CA771A6FC2F3405281F82020002081F8ED
:104070002100B3F8722002F0010281F822201A6FA9
:10408000C2F3C03281F823201A6FC2F3803281F864
:1040900024201A6FC2F3403281F825201A6FC2F330
:1040A000003281F826201A6FC2F3812281F827207E
:1040B0001A6FC2F3012281F828201B6FC3F3460355
:1040C00081F82930012381F82A307047012A11D163
:1040D000826E120402F47C12B0F86E0002430A6190
:1040E0000A69013292025A65DA654FF400729A65E4
:1040F0001A669BE7026805499163826B42F0805221
:104100008263012083F83400704700BFFF05400040
:1041100010B58CB004460123ADF80230006800F001
:104120009BFE002859D0636C032B34D1636C032BA6
:104130004BD1636C032B1CD0BDF802102165090420
:10414000206801F0C0F8002849D10146206800F03D
:104150009AFE60660421206800F095FEA0660821A2
:10416000206800F090FEE0660C21206800F08BFED5
:1041700020670421206800F086FE000DE06401A99C
:104180002046FFF7E9FE60BB226D1204034620685B
:1041900000F0DEFF23E0206801F080F8F8B9014666
:1041A000206800F070FE60670421206800F06BFE5C
:1041B000A0670821206800F066FEE0670C212068F7
:1041C00000F061FEC4F88000B0E70DF10201206844
:1041D00001F022F90028ACD001E04FF080600CB073
:1041E00010BD4FF08050FAE770B58AB00446002346
:1041F000049305930693079308934FF40020FEF76A
:10420000CBFD38B9012084F834004FF00063A3637C
:104210000AB070BD0546C309274AA2FB03231E0945
:10422000B31E09930AAB13E907008DE8070004AB3E
:104230000ECB206800F0E6FD0128E9D02268536823
:1042400023F480735360206800F0FEFD22685368F9
:1042500043F480735360B5FBF6F31848B0FBF3F0FA
:104260000130FCF783FD2046FFF7CCFA024630B15F
:10427000012084F83400A36B1343A363C8E72046EE
:10428000FFF746FF024630B1012084F83400A36BEB
:104290001343A363BCE74FF40071206800F0C6FE2F
:1042A0000028B5D0236806499963A36B0343A36331
:1042B000012084F83400ABE7598B4F011021010035
:1042C000FF054000436C0B60836C4B60C36C8B60DC
:1042D000036DCB60436D0B61836D4B61C36D8B616F
:1042E000036ECB610020704730B58BB004460D469D
:1042F000032380F83430436C032B1CD0B1F5805F6E
:1043000008D0B1F5006F0AD079B1836B43F0006338
:10431000836314E0836B43F0805383630FE0FFF704
:1043200094FBA36B0343A36309E0FFF7B5FBA36B07
:104330000343A36303E0836B43F080538363A36B66
:10434000D3B12368254A9A63012384F834301D468B
:104350004FF40071206800F069FE38B123681F49EE
:104360009963A36B0343A36301231D46012384F8D0
:10437000343028460BB030BD4FF40020FEF70CFD62
:10438000034620B362680492A2680592E26806922E
:10439000079562690892A1698A1CB0FBF2F2104885
:1043A000824212D90F4AA2FB0323DB0D023B099381
:1043B0000AAB13E907008DE8070004AB0ECB2068B9
:1043C00000F020FD00231D46C2E70991F0E7A36B32
:1043D00043F00063A36301231D46B9E7FF054000D6
:1043E00040787D01893BE65518B310B5044690F836
:1043F000343043B1032384F834302046FFF7F4FE11
:1044000028B1012010BD0377FDF7D2FAF2E7216948
:104410002046FFF769FF08B10120F3E72169204634
:10442000FFF762FF38B9A0632063012384F83430BA
:10443000E8E7012070470120E4E710B582B00446A8
:104440000023019301A9FFF74EFB10B1A36B0343B7
:10445000A3630198C0F3432002B010BD10B5846A75
:10446000236840F23A529A632046FFF7E6FF0123A1
:1044700084F83430002323630538012805D9A36B61
:1044800053B92046FBF743FF10BD206800F046FEFD
:10449000A36B0343A363F2E72046FFF75BFDF3E75B
:1044A00010B5846A236840F23A529A632046FFF7B7
:1044B000C4FF012384F83430002323630538012826
:1044C00005D9A36B53B92046FBF721FF10BD206827
:1044D00000F024FEA36B0343A363F2E72046FFF73B
:1044E00039FDF3E770B50446056B03685A6B12F4A7
:1044F000004F02D015F0080F32D15A6B12F4807FB2
:1045000061D04FF480729A632268D36B23F44143E5
:1045100023F03A03D3632268D36A23F00103D36202
:1045200015F0080F2AD015F002031E4602D115F02F
:10453000200F04D0206800F0F1FD034698B92368ED
:1045400040F23A529A63012384F834300023236303
:1045500015F0010F00D16EB12046FBF7E2FE01E03D
:10456000FFF7B4F970BDA26B1343A3632046FFF7B6
:10457000F1FCE4E72046FBF7CFFEF3E715F0800FF0
:10458000F0D015F0200F11D115F0010FEAD115F080
:10459000020FE7D12268D36A23F00803D362012314
:1045A00084F834302046FBF7B7FEDBE7206800F0E4
:1045B000B5FD03460028E7D0A26B1343A363204652
:1045C000FFF7C8FCE0E75A6B12F4804F02D015F0F9
:1045D000080F49D15A6B12F03A0FC3D05A6B12F040
:1045E000020F03D0A26B42F00202A2635A6B12F0D8
:1045F000080F03D0A26B42F00802A2635A6B12F0BC
:10460000200F03D0A26B42F02002A2635A6B12F07B
:10461000100F03D0A26B42F01002A26340F23A5294
:104620009A632268D36B23F49D73D363206800F0F0
:1046300075FDA36B0343A36315F0080F18D115F0A4
:10464000800F8FD015F0100F02D115F0200F18D069
:10465000E36B1A4A9A63E06BFCF71CFC002881D0DC
:10466000E06BFFF7FBFE7DE72046FFF74BF979E7AC
:10467000012384F83430002323632046FFF76AFCCB
:1046800070E715F0010F02D115F0020F0CD0236C6A
:104690000B4A9A63206CFCF7FDFB00283FF462AFE5
:1046A000206CFFF7FDFE5DE70023A363012284F881
:1046B000342023632046FBF72AFE53E75D440008BD
:1046C000A144000800286AD010B50446436A33B9F3
:1046D0004368B3F5827F05D00023C36102E0002365
:1046E000036143610023A36294F85D30002B4DD039
:1046F000022384F85D302268136823F040031360BE
:10470000E368B3F5E06F47D90022B3F5706F04D0CA
:10471000B3F5E06F01D00023A362636803F48273F2
:10472000A16801F404410B43216901F002010B432C
:10473000616901F001010B43A16901F400710B43B0
:10474000E16901F038010B43216A01F080010B435C
:10475000A16A01F4005120680B430360638B03F0EE
:104760000403616A01F010010B43616B01F0080161
:104770000B43E16801F470610B43216813434B6004
:1047800000202066012384F85D3010BD84F85C3081
:104790002046FDF781F9ABE74FF48052B5E70120E1
:1047A0007047026852E8003F23F4907342E80031FA
:1047B0000029F6D1026802F1080353E8003F23F014
:1047C0000103083242E800310029F3D1036E012BC6
:1047D00006D02023C0F8803000230366836670472C
:1047E000026852E8003F23F0100342E8003100293C
:1047F000F6D1EEE710B504468368026913434269B7
:104800001343C269134301680868914A02401A437E
:104810000A602268536823F44053E1680B435360F5
:10482000A16922688B4B9A4201D0236A194393688D
:1048300023F430630B4393602368874A934226D066
:10484000864A934236D0864A934246D0854A93425E
:1048500056D0854A934266D07E4A934279D0102240
:104860007C498B4200F0B080E069B0F5004F00F069
:10487000DE80022A00F03F8140F21A81042A00F013
:104880003781082A40F01C814FF400401DE102F5F9
:104890005842D2F8882002F00302022A70D005D8CC
:1048A000002A6FD0012A6FD10422D9E7032A6DD1E3
:1048B0000822D5E702F5E632D2F8882002F00C0291
:1048C000082A65D005D8002ACAD0042AC8D01022E8
:1048D000C6E70C2A5ED10822C2E702F5E432D2F81C
:1048E000882002F03002202A56D005D8002AB7D0FE
:1048F000102A53D10422B3E7302A51D10822AFE75E
:1049000002F5E232D2F8882002F0C002802A49D0B3
:1049100005D8002AA4D0402A46D10422A0E7C02A04
:1049200044D108229CE702F5E032D2F8882002F454
:104930004072B2F5007F3BD006D8002A90D0B2F585
:10494000807F37D104228BE7B2F5407F34D1082233
:1049500086E702F5C832D2F8882002F44062B2F548
:10496000006F2BD007D8002A3FF47AAFB2F5806FE2
:1049700026D1042274E7B2F5406F23D108226FE7F5
:1049800002226DE701226BE7102269E7102267E738
:10499000022265E7102263E7022261E710225FE747
:1049A00010225DE702225BE7102259E7102257E749
:1049B000022255E7102253E7102251E702224FE767
:1049C00010224DE710224BE7042A2DD006D862B101
:1049D000022A01D125480CE0012085E0082A02D1F5
:1049E0004FF4004005E001207EE0FDF775FD002852
:1049F0007AD0626802EB420383427ED8B0EB023F7A
:104A00007DD8010E00025308C0184FF0000341F199
:104A10000001FBF70DFCA0F54072154B9A4270D8CF
:104A20002368D86000205FE0FDF728F9DFE7022A5D
:104A30003CD005D9042A36D0082A1ED0012053E0E4
:104A4000C2B1012A02D1FDF759FD15E001204BE06A
:104A5000F369FFEF0080004000380140004400404F
:104A600000480040004C0040005000400024F4008A
:104A7000FFFC0F00FDF730FDB0B36268530803EB95
:104A80004003B3FBF2F3A3F110014FF6EF72914232
:104A900039D89AB222F00F02C3F3420313432268BB
:104AA000D360002020E0FDF7E9F8E5E71848E4E7E7
:104AB00042B1012A02D1FDF721FD05E0012013E0FA
:104AC000012011E0FDF708FD70B1636800EB5300B1
:104AD000B0FBF3F0A0F110024FF6EF739A4214D836
:104AE000236880B2D86000200023A366E36610BD6F
:104AF000FDF7C4F8E8E70648E7E70120F4E70120FE
:104B0000F2E70120F0E70120EEE70120ECE700BF2B
:104B10000024F400436A13F0080F06D002685368BB
:104B200023F40043416B0B435360436A13F0010FBE
:104B300006D00268536823F40033816A0B43536044
:104B4000436A13F0020F06D00268536823F48033DF
:104B5000C16A0B435360436A13F0040F06D0026826
:104B6000536823F48023016B0B435360436A13F0B3
:104B7000100F06D00268936823F48053816B0B43B7
:104B80009360436A13F0200F06D00268936823F401
:104B90000053C16B0B439360436A13F0400F0AD07C
:104BA0000268536823F48013016C0B435360036C59
:104BB000B3F5801F0BD0436A13F0800F06D0026854
:104BC000536823F40023816C0B43536070470268E1
:104BD000536823F4C003416C0B435360EBE72DE9AA
:104BE000F04104460D4616469846069F2368DB6949
:104BF00035EA03030CBF4FF0010C4FF0000CB44535
:104C000034D1B7F1FF3FF1D0FCF7AAF84346C01A00
:104C1000B8422ED87FB323681A6812F0040FE5D08B
:104C2000802DE3D0402DE1D0DA6912F0080F11D1C8
:104C3000DA6912F4006FD9D04FF400621A6220468C
:104C4000FFF7AFFD2023C4F88430002384F87830C8
:104C500003200CE008251D622046FFF7A2FDC4F8E2
:104C60008450002384F87830012000E00020BDE863
:104C7000F0810320FBE70320F9E730B583B0044659
:104C80000023C0F88430FCF76BF8054622681268F0
:104C900012F0080F0FD123681B6813F0040F25D101
:104CA0002023E367C4F8803000202066606684F823
:104CB000780003B030BD6FF07E43009303460022BE
:104CC0004FF400112046FFF78AFF0028E3D0226846
:104CD00052E8003F23F0800342E800310029F6D17A
:104CE0002023E36784F878100320E2E76FF07E4327
:104CF00000932B4600224FF480012046FFF76FFF00
:104D00000028CDD0226852E8003F23F4907342E897
:104D100000310029F6D1226802F1080353E8003F70
:104D200023F00103083242E800310029F3D12023A7
:104D3000C4F8803084F878100320BAE768B310B55F
:104D40000446C36F03B32423E3672268136823F088
:104D500001031360636AE3B92046FFF74BFD0128A6
:104D600011D02268536823F49043536022689368FB
:104D700023F02A0393602268136843F00103136051
:104D80002046FFF77AFF10BD80F87830FCF744FD2D
:104D9000D9E72046FFF7BEFEDEE701207047FEE7B9
:104DA000FEE7FEE7FEE7FEE770477047704708B58D
:104DB000FBF7CAFF08BD000008B50248FFF792FBE9
:104DC00008BD00BFF40000200C4B1B680C4AA2FB7E
:104DD00003235B0A41F2883202FB03F3013BB3F188
:104DE000FF3F07D0426B12F0800FF7D0C5238363DB
:104DF000002070474FF00040704700BF08000020BF
:104E0000D34D621084B00DF1040C8CE80E000B46FB
:104E1000039A1343049A1343059A1343069A1343C0
:104E2000029A1A43436823F4FD4323F07F0313439C
:104E30004360002004B07047D0F8800070470B68D2
:104E4000C0F880300020704708B5032303600220BB
:104E5000FBF78CFF002008BD006800F003007047DE
:104E60000B6883604B688A681343CA6813430A69F6
:104E70001343C2686FF30B021343C36000207047F3
:104E80000069C0B270471430405870470B684362E5
:104E90004B6883628B68CA6813430A6913434A6983
:104EA0001343C26A22F0F7021343C3620020704723
:104EB00010B586B004460023019302930393049334
:104EC0004FF48063059301A9FFF7CAFF2046FFF75F
:104ED0007BFF06B010BD000038B504460D46504BB0
:104EE0001B685049A1FB03135B0A03FB02F2013A62
:104EF000B2F1FF3F5DD0636B13F0450FF7D013F4B1
:104F0000006FF4D1636B13F0040F06D1606B10F0E7
:104F1000010005D00123A3634DE00420A0634AE013
:104F2000C523A3632046FFF7ABFFA84201D00120B1
:104F300041E000212046FFF7A6FF03463A4818400B
:104F4000C8B3002B38DB13F0804F38D113F0005F6B
:104F500037D113F0805F36D113F0006F36D113F0E4
:104F6000806F36D113F0807F36D113F4000F36D125
:104F700013F4800F36D113F4001F36D113F4801FC1
:104F800036D113F4802F36D113F4003F36D113F409
:104F9000803F36D113F4004F36D113F4804F36D111
:104FA00013F4005F36D113F0080F36D04FF4000031
:104FB00001E04FF0004038BD4FF00070FBE74020AB
:104FC000F9E78020F7E74FF48070F4E74FF40070C2
:104FD000F1E74FF48060EEE74FF40060EBE74FF449
:104FE0008050E8E74FF40050E5E74FF48040E2E7F7
:104FF0004FF40040DFE74FF40030DCE74FF480204F
:10500000D9E74FF40020D6E74FF48010D3E74FF4F0
:105010000010D0E74FF48000CDE74FF48030CAE7AE
:1050200008000020D34D621008E0FFFD30B587B0C6
:105030000546019110240294402303930023049316
:105040004FF48063059301A9FFF70AFF41F288320C
:1050500021462846FFF740FF07B030BD30B587B086
:1050600005460191112402944023039300230493E5
:105070004FF48063059301A9FFF7F2FE41F28832F5
:1050800021462846FFF728FF07B030BD30B587B06E
:1050900005460191122402944023039300230493B4
:1050A0004FF48063059301A9FFF7DAFE41F28832DD
:1050B00021462846FFF710FF07B030BD30B587B056
:1050C000054601911824029440230393002304937E
:1050D0004FF48063059301A9FFF7C2FE41F28832C5
:1050E00021462846FFF7F8FE07B030BD30B587B03F
:1050F000054601911924029440230393002304934D
:105100004FF48063059301A9FFF7AAFE41F28832AC
:1051100021462846FFF7E0FE07B030BD30B587B026
:105120000546002301930C24029440220392049329
:105130004FF48063059301A9FFF792FE034A2146CD
:105140002846FFF7C9FE07B030BD00BF00E1F505F6
:1051500030B587B00546019207240294402303939B
:10516000002304934FF48063059301A9FFF778FEB1
:1051700041F2883221462846FFF7AEFE07B030BD27
:1051800030B587B00546019137240294402303933C
:10519000002304934FF48063059301A9FFF760FE99
:1051A00041F2883221462846FFF796FE07B030BD0F
:1051B00030B587B00546019106240294402303933D
:1051C000002304934FF48063059301A9FFF748FE81
:1051D00041F2883221462846FFF77EFE07B030BDF7
:1051E00030B587B005460023019333240294402252
:1051F000039204934FF48063059301A9FFF730FEF7
:1052000041F2883221462846FFF766FE07B030BDDE
:1052100030B587B0054601910D24029440230393D5
:10522000002304934FF48063059301A9FFF718FE50
:1052300041F2883221462846FFF74EFE07B030BDC6
:105240000146144B1B68144AA2FB03235B0A41F27C
:10525000883202FB03F3013BB3F1FF3F17D04A6BE7
:1052600012F0450FF7D012F4006FF4D14B6B13F02E
:10527000040F06D1486B10F0010005D1C5238B63E4
:10528000704704208863704701238B6370474FF099
:105290000040704708000020D34D621010B586B062
:1052A00004460023019302220292C0220392049337
:1052B0004FF48063059301A9FFF7D2FD2046FFF765
:1052C000BFFF06B010BD10B586B00446019109239A
:1052D0000293C0230393002304934FF48063059348
:1052E00001A9FFF7BDFD2046FFF7AAFF06B010BDDC
:1052F0000146114B1B68114AA2FB03235B0A41F2D2
:10530000883202FB03F3013BB3F1FF3F10D04A6B3D
:1053100012F0450FF7D012F4006FF4D1486B10F083
:10532000040002D1C5238B63704704208863704753
:105330004FF00040704700BF08000020D34D6210BE
:1053400010B586B0044641F0004141F4801101914E
:105350002923029340230393002304934FF4806393
:10536000059301A9FFF77CFD2046FFF7C1FF06B0BA
:1053700010BD000070B504460D461646244B1B6850
:10538000244AA2FB03235B0A41F2883202FB03F3A7
:10539000013BB3F1FF3F31D0626B12F0450FF7D004
:1053A00012F4006FF4D1636B13F0040F06D1606B3D
:1053B00010F0010005D00123A36321E00420A063C5
:1053C0001EE02046FFF75CFDA84201D0012017E057
:1053D000C523A36300212046FFF755FD034610F4C3
:1053E000604008D013F4804F0BD113F4004F0BD062
:1053F0004FF4805004E01B0C338001E04FF000407C
:1054000070BD4FF40050FBE74FF48030F8E700BF69
:1054100008000020D34D621070B586B006460D46D8
:1054200000230193032402944022039204934FF437
:105430008063059301A9FFF713FD2A4621463046F4
:10544000FFF798FF06B070BD0146174B1B68174A5F
:10545000A2FB03235B0A41F2883202FB03F3013B08
:10546000B3F1FF3F1BD04A6B12F0450FF7D012F497
:10547000006FF4D14B6B13F0040F0AD1486B10F09E
:10548000010009D14B6B13F040030BD040238B6319
:10549000704704208863704701238B6370474FF087
:1054A000004070471846704708000020D34D621036
:1054B00010B586B004464FF4D573019308230293C8
:1054C00040230393002304934FF48063059301A9C1
:1054D000FFF7C6FC2046FFF7B7FF06B010BD00007F
:1054E00008B503460D4A0E490E48006840B10D4804
:1054F00000680344521A934208D80A4A136008BD50
:105500000848DFF824C0C0F800C0F0E700F06CF8ED
:105510000C2303604FF0FF30F1E700BF0080012053
:105520000004000094070020E0080020034AD2F89D
:10553000883043F47003C2F88830704700ED00E013
:10554000DFF834D0FFF7F2FF0C480D490D4A002375
:1055500002E0D458C4500433C4188C42F9D30A4A28
:105560000A4C002301E013600432A242FBD300F096
:1055700041F8FBF707F9FEE700800120000000205A
:10558000600000200878000860000020E00800208B
:10559000FEE700000EB410B59DB01FAB0290069060
:1055A0006FF000410A48079104910A4953F8042B0F
:1055B0000591002402A9006801931B9400F0A4F94E
:1055C000029B1C701DB0BDE8104003B0704700BFC7
:1055D0000C0000200802FFFF02440346934200D162
:1055E000704703F8011BF9E7014B1868704700BFCB
:1055F0000C00002070B50D4B0D4C00261D1BB6EBAA
:10560000A50F09D100F008FE0A4C0B4B00261D1B0C
:10561000B6EBA50F05D170BD54F8043B9847013691
:10562000EDE754F8043B98470136F1E7F8770008B6
:10563000F8770008F8770008FC7700087047704793
:105640000A44914200F1FF3300D1704710B511F8C0
:10565000014B03F8014F9142F9D110BD37B5002934
:1056600044D051F8043C0190002BA1F10404B8BFD0
:10567000E41800F0DDF81E4A0198136833B963603E
:10568000146003B0BDE8304000F0D8B8A34208D998
:10569000256861198B4201BF19685B68491921604F
:1056A000EDE71A465B680BB1A342FAD911685518A9
:1056B000A5420BD1246821445418A3421160E0D1C3
:1056C0001C685B6853600C441460DAE702D90C2351
:1056D0000360D6E7256861198B4204BF19685B68CF
:1056E000636004BF491921605460CAE703B030BD4C
:1056F000DC08002070B50F4C0E462168054611B934
:1057000000F0B4FB20603146284600F0AFFB431C9C
:1057100003D14FF0FF34204670BDC41C24F00304B5
:10572000A042F8D0211A284600F0A0FB0130F2D1A7
:10573000EFE700BFD80800202DE9F843CD1C25F085
:10574000030508350C2D38BF0C25002D064601DB5E
:10575000A94204D90C2333600020BDE8F883334FFD
:1057600000F066F83B681C463CBB29463046FFF714
:10577000C1FF431C044656D13C68A046B8F1000F57
:1057800040D1002C49D023684146304604EB030940
:1057900000F06CFB814540D121686D1A29463046E6
:1057A000FFF7A8FF013038D023682B4423603B6803
:1057B0005A685ABBC7F800800EE02268521B1ED4FC
:1057C0000B2A16D96119A342256018BF5960636876
:1057D00008BF396062514B60304600F02FF804F189
:1057E0000B00231D20F00700C21A1CBF1B1AA35078
:1057F000B3E76268A3420CBF3A605A60ECE7234605
:105800006468B1E74446D8F80480B7E71A465B6895
:10581000A342FBD100235360DEE70C233360304604
:1058200000F00CF898E70560D6E700BFDC08002020
:105830000148FFF703BF00BFD40800200148FFF76D
:10584000FEBE00BFD40800202DE9F0478E681F4639
:10585000BE4282460C469046334653D8B1F90C00FE
:1058600010F4906F2BD065692368096905EB450535
:10587000A3EB010905EBD5757B1C6D104B44AB42C6
:105880002A4684BF1D462A46430527D51146504661
:10589000FFF752FF064658B321694A46FFF7D0FE8C
:1058A000A38923F4906343F08003A381266165619B
:1058B0004E44A5EB09052660A5603E463B461F46C3
:1058C00020683A46414600F0B7FAA3689B1BA360E4
:1058D00023683B4423600020BDE8F087504600F079
:1058E000D5FA06460028E1D121695046FFF7B6FEF9
:1058F0000C23CAF80030A38943F04003A3814FF082
:10590000FF30E9E73E46DBE72DE9F0471F468B898C
:105910001B069CB006460D46144610D50B6973B99C
:105920004021FFF709FF2860286130B90C2333605C
:105930004FF0FF301CB0BDE8F08740236B610023BF
:10594000099320238DF8293003973023654F8DF874
:105950002A304FF0010823461A7899461AB1252AB1
:1059600003F10103F8D1B9EB040A0BD053462246E8
:1059700029463046FFF768FF013000F0A380099AFE
:105980005244099299F80030002B00F09B800022CD
:105990004FF0FF33CDE9053209F101090492079276
:1059A0008DF853201A924C46052214F8011B4D48DD
:1059B000FAF7EEFB049AD0B9D00644BF20238DF845
:1059C0005330110744BF2B238DF8533099F8003022
:1059D0002A2B13D007994B4600204FF00A0C1A7857
:1059E000303A092A1C464AD9A8B1079113E0C01BD6
:1059F00008FA00F010430490A146D4E7039B191D58
:105A00001B680391002BBBBF5B4242F0020207936D
:105A10000793B8BF049223782E2B0AD163782A2BE0
:105A200032D1039B1A1D1B68039243EAE3730234CD
:105A30000593DFF8C090217803224846FAF7A8FBC7
:105A400038B1049BA0EB090040228240134301348B
:105A50000493217824488DF828100622FAF798FB41
:105A6000002835D0214818BB039B073323F00703D8
:105A700008330393099B0344013409936BE7013313
:105A80000CFB01210120AAE700230593611C1846A5
:105A90004FF00A0C0A78303A092A0C4603D9002B39
:105AA000C7D00590C5E701310CFB00200123F1E7C9
:105AB00003AB00932A460E4B04A93046AFF3008097
:105AC000421CD7D1AB895B063FF532AF099831E76D
:105AD00003AB00932A46064B04A9304600F082F837
