:020000040800F2
:10000000008001200D310008DF300008E1300008D9
:10001000E3300008E5300008E73000080000000089
:10002000000000000000000000000000E9300008AF
:10003000EB30000800000000ED300008EF30000851
:100040005D3100085D3100085D3100085D31000858
:100050005D3100085D3100085D3100085D31000848
:100060005D3100085D3100085D3100085D31000838
:100070005D3100085D3100085D3100085D31000828
:100080005D3100085D3100085D3100085D31000818
:100090005D3100085D3100085D3100085D31000808
:1000A0005D3100085D3100085D3100085D310008F8
:1000B0005D3100085D3100085D3100085D310008E8
:1000C0005D3100085D3100085D3100085D310008D8
:1000D0005D3100085D3100085D3100085D310008C8
:1000E0005D3100085D3100085D3100085D310008B8
:1000F0005D3100085D3100085D3100085D310008A8
:100100005D3100085D3100085D3100085D31000897
:100110005D3100085D3100085D3100085D31000887
:100120005D3100085D3100085D3100085D31000877
:100130005D3100085D3100085D3100085D31000867
:100140005D3100085D3100085D3100085D31000857
:100150005D3100085D3100085D3100085D31000847
:100160005D3100085D3100085D3100085D31000837
:100170005D3100085D3100085D31000800000000BD
:080180005D3100085D3100084B
:1001880053B94AB9002908BF00281CBF4FF0FF31F6
:100198004FF0FF3000F00CB8ADF1080C6DE904CE5B
:1001A80003F006F8DDF804E0DDE9022304B0704747
:1001B800704700BF08B5064B1A783AB9054A1AB114
:1001C8000548AFF30080024B01221A7008BD00BF3A
:1001D8001000002000000000D834000808B5034BC8
:1001E8001BB103490348AFF3008008BD00000000BD
:1001F80014000020D83400082DE9F04188B003AD80
:10020800002403940494059406940794314BDA6C03
:1002180042F00402DA64DA6C02F004020092009AF6
:10022800DA6C42F00102DA64DA6C02F0010201923F
:10023800019ADA6C42F00202DA64DB6C03F0020322
:100248000293029BDFF894802246CC21404600F0BE
:1002580017FD214E224641F60741304600F010FDB9
:10026800CC23039301270497059406942946404616
:1002780000F0F8FB41F607430393049705940694AE
:100288002946304600F0EEFB4FF4807303930223B7
:10029800049305940694079429464FF0904000F083
:1002A800E1FB4FF4006303934FF488130493059420
:1002B80029464FF0904000F0D5FB4FF4805303934C
:1002C8000494059429464FF0904000F0CBFB08B009
:1002D800BDE8F08100100240000400480008004812
:1002E80072B6FEE708B50B480B4B03600B4B436037
:1002F8004FF0805383600023C36003610C22426186
:1003080083610362436202F0B5FE00B908BDFFF7DE
:10031800E7FF00BFC4010020008000402433030031
:1003280008B50C480C4B03604FF4E13343600023DD
:100338008360C36003610C2242614FF440728261A2
:10034800C3610362436202F095FE00B908BDFFF77E
:10035800C7FF00BF3C0100200044004008B50B481F
:100368000B4B03604FF4E133436000238360C360A9
:1003780003610C2242618361C3610362436202F03C
:1003880079FE00B908BDFFF7ABFF00BFB40000203D
:100398000048004008B50F480F4B03604FF48273C4
:1003A8004360002383604FF44072C260036143617D
:1003B8004FF480228261C361036243628362072231
:1003C800C26203630823436302F018FB00B908BD47
:1003D800FFF786FF2C0000200030014000B587B0F1
:1003E8000023019302930393049305930093194800
:1003F800194A026043607F228260FF22C260036163
:1004080043618361C36102F0DFF9E8B98DF8040044
:100418008DF805008DF8060004900590012201A9C9
:100428000C4802F02FFA88B901228DF800208DF8C7
:1004380001208DF802208DF803006946054802F076
:1004480089FA28B907B000BDFFF74AFFFFF748FF50
:10045800FFF746FF900000200028004008B511482B
:10046800114B0360114B4360002383600122C2607B
:10047800036143618361C361036200F09EFD50B96B
:100488000146084800F0CCFE38B90146054800F09E
:10049800F4FE20B908BDFFF723FFFFF721FFFFF7A0
:1004A8001FFF00BF4C02002000580040885D8010EC
:1004B80000B597B04422002105A802F04CFE0023A5
:1004C800009301930293039304934FF4007001F097
:1004D80063F8F0B91823059301230A930B930C9042
:1004E800B0220D920F9005A801F062F998B90F2378
:1004F800009301900290039004900221684601F055
:1005080067FC50B902464FF0807101F0D5F817B07A
:1005180000BDFFF7E5FEFFF7E3FEFFF7E1FE000091
:1005280000B583B000F0FAF9FFF7C2FFFFF764FEE9
:10053800FFF7D8FEFFF7F4FEFFF710FFFFF72AFFDB
:10054800FFF74CFFFFF78AFF012202211D4800F048
:1005580097FB1D4C01220421204600F091FB01224B
:100568008021204600F08CFB00F04CF90021084661
:1005780000F028F9154C0125009594E80E00144860
:1005880000F008F90C21002000F01CF9009594E80F
:100598000E00104800F0FEF81E21002000F012F9AD
:1005A8000D4B00950ECB0D4800F0F4F800F04EF816
:1005B8000221044800F069FB4FF4FA6000F0D0F91A
:1005C800F6E700BF0004004800080048103500089E
:1005D800F0340008F8340008043500080035000835
:1005E80000B587B08DF817004FF0FF330293012351
:1005F80001930DF11702009200227821024800F0C1
:1006080040FD07B000BD00BF4C02002000B585B01A
:100618004FF0FF33029389B20191009001234022E9
:100628007821024800F02DFD05B000BD4C020020E5
:1006380008B530B901464FF48062034802F08BFDDB
:1006480008BDFF21F7E700BFA802002010B500246D
:1006580012E0A4F15000C0B2FFF7C2FF0020FFF77C
:10066800BFFF1020FFF7BCFF8021054800EBC41036
:10067800FFF7CCFF0134E4B2072CEAD910BD00BF64
:10068800A802002010F0800F13D13F2911D8012AA9
:1006980010D0CB0800EBC310DFF834C01CF80020E2
:1006A80001F0070101238B40DB435BB213400CF8D8
:1006B80000307047CB0800EBC310DFF814C01CF8FB
:1006C800003001F007018A4013430CF800307047EE
:1006D800A80200202DE9F04784B0814604A800E96B
:1006E8000E009DF83080A9F12003DBB25E2B46D8BE
:1006F800039B83B1A9F120029E5C254B1B883344E0
:10070800802B40DC224B5B889DF805A05344402B8E
:100718003BDC002522E09DF80460EEE71C4B1888BE
:10072800598829442044B8FA88F25209C9B2C0B29B
:10073800FFF7A8FF0134A6420FD907FA04F313F410
:10074800004FEBD0124B1888598829442044424660
:10075800C9B2C0B2FFF796FFECE70135AA4508D940
:10076800A9F1200303FB0A53029A32F813700024FC
:10077800E1E7074B1A8816441E80484600E000202F
:1007880004B0BDE8F0870020FAE70020F8E700BFD2
:10079800A002002030B587B0044606A800E90E0084
:1007A8009DF8285000E00134207848B1009506AB48
:1007B80013E90E00FFF78EFF034620788342F2D03C
:1007C80007B030BD014B188059807047A002002047
:1007D80010B504468120FFF703FF2046FFF700FF0E
:1007E80010BD000008B530B1054B01225A71AF2089
:1007F800FFF7F6FE08BD024B5871AE20F8E700BFC0
:10080800A002002008B5642000F0AAF80020FFF735
:10081800E9FF2020FFF7E4FE0020FFF7E1FEB0200B
:10082800FFF7DEFEC820FFF7DBFE0020FFF7D8FE4B
:100838001020FFF7D5FE4020FFF7D2FEFF20FFF77C
:10084800C7FFA120FFF7CCFEA620FFF7C9FEA8200E
:10085800FFF7C6FE3F20FFF7C3FEA420FFF7C0FE48
:10086800D320FFF7BDFE0020FFF7BAFED520FFF723
:10087800B7FEF020FFF7B4FED920FFF7B1FE222023
:10088800FFF7AEFEDA20FFF7ABFE1220FFF7A8FE57
:10089800DB20FFF7A5FE2020FFF7A2FE8D20FFF743
:1008A8009FFE1420FFF79CFE0120FFF79BFF00200E
:1008B800FFF7BEFEFFF7CAFE034B00221A805A80DC
:1008C80001221A7108BD00BFA0020020104B1B783E
:1008D8000BB90120704710B504460E4A10684FF452
:1008E8007A72B2FBF3F3B0FBF3F000F0A7F868B943
:1008F8000F2C01D901200AE0024621464FF0FF30B3
:1009080000F08CF8044B1C60002000E0012010BDB2
:1009180000000020080000200400002010B503207B
:1009280000F06AF80F20FFF7D1FF18B101231C4629
:10093800204610BD044600F0CBFCF9E7034B1B78BA
:10094800034A11680B441360704700BF0000002081
:10095800A8060020014B1868704700BFA8060020B1
:1009680038B50446FFF7F6FF0546B4F1FF3F02D05D
:10097800044B1B781C44FFF7EDFF401BA042FAD341
:1009880038BD00BF00000020002808DB0901C9B2FB
:1009980000F1604000F5614080F80013704700F0F6
:1009A8000F000901C9B2014B1954704714ED00E05A
:1009B80000B500F00700A0F1030CBCF1040F07D844
:1009C800C0F1070E0430062806D84FF0000C03E0EB
:1009D8004FF0040E4FF0000C4FF0FF3303FA0EF007
:1009E80021EA000101FA0CF103FA0CF322EA0302EE
:1009F80041EA020000BD0000074AD36823F4E0631F
:100A08001B041B0C000200F4E060034343F0BF63C7
:100A180043F40033D360704700ED00E010B504469E
:100A2800054BD868C0F30220FFF7C2FF01462046F5
:100A3800FFF7AAFF10BD00BF00ED00E00138B0F1DC
:100A4800807F0BD24FF0E0235861054AF02182F8ED
:100A580023100020986107221A617047012070470F
:100A680000ED00E070B582B0002374E085684FEABD
:100A7800430E032404FA0EF425EA0405CC6804FAAC
:100A88000EF42C438460446824EA0C044D68C5F3D2
:100A9800001E0EFA03FE4EEA0404446070E0C46AC5
:100AA80024EA0C04C5F3C00E0EFA03FE4EEA040451
:100AB800C4626AE0DD08083550F8254003F0070CE9
:100AC8004FEA8C0C4FF00F0E0EFA0CFE24EA0E0EB5
:100AD8000C6904FA0CF444EA0E0440F825406FE06F
:100AE800062400E0002404FA0EF42C430CF1020C56
:100AF8005F4D45F82C405F4CA4686FEA020C24EA6D
:100B080002054E6816F4801F01D042EA0405594CCC
:100B1800A560E4680CEA04054E6816F4001F01D0CD
:100B280042EA0405534CE56064680CEA04054E6823
:100B380016F4003F01D042EA04054E4C6560246873
:100B48000CEA04054E6816F4803F01D042EA040519
:100B5800484A156001330A6832FA03F400F08680C7
:100B68004FF0010C0CFA03FC1CEA0202F2D04C68AC
:100B780004F0030E0EF1FF3EBEF1010F7FF676AFD3
:100B88004D6805F00304032C89D04C6804F0030C6D
:100B9800BCF1030F0DD0C4685D004FF0030C0CFAD4
:100BA80005FC24EA0C048E6806FA05FC4CEA0404E9
:100BB800C4604C6804F0030CBCF1020F3FF47AAF38
:100BC80005685C004FF0030C0CFA04FC25EA0C0ED7
:100BD8004D6805F0030C0CFA04FC4CEA0E040460A2
:100BE8004C6814F4403FB5D0234C256E45F0010500
:100BF8002566246E04F001040194019C4FEA930CCD
:100C08000CF102051A4C54F8255003F0030E4FEA74
:100C18008E0E0F2404FA0EF425EA0405B0F1904F65
:100C28003FF460AF154CA04216D004F58064A04292
:100C380014D004F58064A04212D004F58064A04268
:100C480010D004F58064A0420ED004F58064A04260
:100C58003FF446AF072446E7012444E7022442E76D
:100C6800032440E704243EE705243CE702B070BDB6
:100C78000000014000040140001002400004004848
:100C88000AB18161704781627047436901EA0302D2
:100C980021EA030141EA02418161704703689A69C8
:100CA80012F0020F01D000229A6203689A6912F0CA
:100CB800010F03D19A6942F001029A617047DDF889
:100CC80000C0C1F3090141EA0241194341EA0C019C
:100CD80021F00041026853684FEA5C5C0CF4806CB8
:100CE8004CF07F7C4CF4583C4CF47F7C4CF0030C6B
:100CF80023EA0C030B43536070472DE9F041044687
:100D080003689E6916F010067CD00D4690461022A6
:100D1800DA61002637462368986910F0200F30D131
:100D28007FBBB5F1FF3FF6D0FFF714FE4346C01A6C
:100D3800A84201D8002DEED121684B6803F4804306
:100D480094F84220D2B2886910F4004F02D00BB94F
:100D5800202A0ED123689B6913F0200FDBD1FFF7FF
:100D6800F9FD4346C01A1928F4D946F02006012790
:100D7800D1E74B6843F480434B60FFF7EBFD8046B7
:100D8800E8E70FB92022DA6146F004060125226857
:100D9800936913F4807F05D046F001064FF4807103
:100DA800D161012513F4806F06D046F00806226849
:100DB8004FF48061D161012513F4007F24D046F0FF
:100DC800020623684FF40072DA6101252046FFF716
:100DD80065FF2268536823F0FF7323F48B3323F4F1
:100DE800FF7323F001035360636C33436364202370
:100DF80084F84130002384F8423084F84030284693
:100E0800BDE8F0810025C2E7002DF8D0DEE770B517
:100E180004460D46164623689B6913F0020F22D13B
:100E2800324629462046FFF768FFF0B9B5F1FF3F83
:100E3800F1D0FFF78FFD801BA84201D8002DEAD121
:100E480023689B6913F0020FE5D1636C43F020031C
:100E58006364202384F84130002384F8423084F806
:100E68004030012000E0002070BD0120FCE72DE9A2
:100E7800F04104460F4616461D46DDF818802368E3
:100E88009B6937EA03030CBF01230023B34227D130
:100E9800424629462046FFF730FF20BBB5F1FF3F09
:100EA800EDD0FFF757FDA0EB0800A84201D8002DB0
:100EB800E5D123689B6937EA03030CBF01230023AC
:100EC800B342DCD1636C43F020036364202384F8CD
:100ED8004130002384F8423084F84030012000E09B
:100EE8000020BDE8F0810120FBE7000070B582B06A
:100EF800044616461D46184B00934FF08073EAB21D
:100F0800FFF7DDFE079A06992046FFF780FFE0B954
:100F1800012D0DD12368F2B29A62079B0093069BBC
:100F2800002280212046FFF7A2FF90B902B070BDD1
:100F3800330A22689362079A06992046FFF767FFEB
:100F480028B92368F2B29A62E7E70120EEE70120A8
:100F5800ECE70120EAE700BF0020008070B50446F6
:100F68000D46164604E023689B6913F0200F12D043
:100F780023689B6913F0200F1BD13246294620466F
:100F8800FFF7BBFEB8B9FFF7E5FC801BA842EAD81B
:100F9800002DEDD1E7E7636C43F020036364202361
:100FA80084F84130002384F8423084F8403001202E
:100FB80000E0002070BD0120FCE700285FD010B5DC
:100FC800044690F84130002B48D0242384F841305F
:100FD8002268136823F0010313606368226823F012
:100FE800706313612268936823F400439360E36895
:100FF800012B38D0A368226843F404439360E36864
:10100800022B36D02268536823F4006353602268A9
:10101800536843F0007343F4004353602268D36875
:1010280023F40043D360236962691343A1692268EA
:1010380043EA0123D360E369216A22680B43136002
:101048002268136843F001031360002060642023C2
:1010580084F84130206384F8420010BD80F84030A5
:1010680000F04EF9B1E7A368226843F400439360A7
:10107800C5E72268536843F400635360C7E701205B
:1010880070472DE9F04383B00E469846BDF82C30E2
:1010980090F84110202940F0B78004461746994639
:1010A8000A9ABAB1B3B190F84030012B00F0B08081
:1010B8004FF0010380F84030FFF74CFC05460090E4
:1010C800192301224FF400412046FFF7D0FE30B12A
:1010D80001209AE04FF400736364012095E0212316
:1010E80084F84130402384F8423060640A9A62628E
:1010F800A4F82A90606301950C9B009343463A46F6
:1011080031462046FFF7F2FE68B9638D9BB2FF2B8C
:101118000ED9FF22228500904FF080733146204679
:10112800FFF7CDFD21E0002384F8403001206CE07A
:10113800628D92B22285002300934FF00073D2B2E1
:1011480031462046FFF7BBFD0FE0628D92B2228543
:10115800002300934FF00073D2B231462046FFF7C8
:10116800AEFD638D9BB2002B32D02A460C992046E7
:10117800FFF74DFE00284DD1626A236812789A6203
:10118800636A01336362638D9BB2013B9BB26385E3
:10119800238D013B9BB22385628D92B2002AE0D059
:1011A800002BDED100950C9B024680212046FFF7DC
:1011B8005EFE88BB638D9BB2FF2BC6D9FF222285BA
:1011C80000904FF0807331462046FFF778FDC8E75E
:1011D8002A460C992046FFF7C1FEF8B92368202259
:1011E800DA6121684B6823F0FF7323F48B3323F40F
:1011F800FF7323F001034B6084F84120002384F837
:10120800423084F8403000E0022003B0BDE8F083AB
:101218000220FAE70120F8E70120F6E70120F4E7C9
:10122800034690F84120202A23D190F84020012A33
:1012380021D0012280F84020242280F84120006833
:10124800026822F0010202601868026822F48052E3
:101258000260186802680A43026019680A6842F066
:1012680001020A60202283F84120002083F8400010
:1012780070470220704702207047034690F84120CB
:10128800202A21D190F84020012A1FD0012280F87D
:101298004020242280F841200068026822F00102E0
:1012A80002601868026822F4706242EA0122026051
:1012B80019680A6842F001020A60202283F8412076
:1012C800002083F8400070470220704702207047D2
:1012D80082B00A4B1A6E42F001021A661A6E02F0C8
:1012E80001020092009A9A6D42F080529A659B6DB5
:1012F80003F080530193019B02B070470010024035
:1013080010B5AAB00446002125912691279128916D
:101318002991882203A801F01EFF2268184B9A42DF
:1013280001D02AB010BD8023039303A800F0B2FFB8
:1013380010BB144CE36C43F00203E364E36C03F06A
:1013480002030193019B4FF4C04325931223269374
:1013580000232793032328930423299325A90A48C4
:10136800FFF780FBA36D43F48003A365A36D03F42B
:1013780080030293029BD4E7FEF7B2FFD9E700BFD0
:1013880000580040001002400004004810B5AEB0FC
:101398000446002129912A912B912C912D91882284
:1013A80007A801F0D8FE2368454A934207D0454A6A
:1013B80093422ED0444A934257D02EB010BD2023DA
:1013C800079307A800F066FF00BB404BDA6D42F0B8
:1013D8000102DA65DA6D02F001020192019ADA6C13
:1013E80042F00402DA64DB6C03F004030293029B0C
:1013F8000323299302222A9200222B922C9308235A
:101408002D9329A93248FFF72DFBD6E7FEF768FF91
:10141800DBE70223079307A800F03CFF10BB2B4B28
:101428009A6D42F400329A659A6D02F40032039282
:10143800039ADA6C42F00102DA64DB6C03F0010310
:101448000493049B0F23299302232A9300232B93AD
:1014580003232C9307232D9329A94FF09040FFF7DE
:1014680001FBAAE7FEF73CFFD9E70423079307A887
:1014780000F010FF08BB154B9A6D42F480229A6564
:101488009A6D02F480220592059ADA6C42F0040201
:10149800DA64DB6C03F004030693069B302329937C
:1014A80002232A9300232B9303232C9307232D93A2
:1014B80029A90748FFF7D6FA7FE7FEF711FFDAE711
:1014C80000800040004400400048004000100240F6
:1014D8000008004810B5A2B00446882200216846DA
:1014E80001F039FE22680D4B9A4201D022B010BD9E
:1014F8004FF4003300934FF400732193684600F0D3
:10150800C9FE38B9064AD2F8903043F40043C2F80D
:101518009030EBE7FEF7E4FEF4E700BF0028004058
:101528000010024000B589B000230393049305938B
:10153800069307930268134B9A4201D009B000BD85
:1015480003F560431A6E42F480521A661A6E02F46A
:1015580080520192019ADA6C42F00102DA64DB6C83
:1015680003F001030293029BF023039302230493E5
:10157800032306930523079303A94FF09040FFF731
:1015880071FADBE700300140024B186800F4C060D4
:10159800704700BF00700040B0F5007F0FD01F4BB0
:1015A8001B6803F4C063B3F5806F34D01B4A13681B
:1015B80023F4C06343F48063136000207047174B23
:1015C8001B6803F4C063B3F5007F20D0134A136887
:1015D80023F4C06343F400731360114B1B68322279
:1015E80002FB03F30F4AA2FB03239B0C013300E029
:1015F800013B0A4A526912F4806F01D0002BF7D1DF
:10160800064B5B6913F4806F03D1002070470020FC
:101618007047032070470020704700BF00700040EB
:101628000800002083DE1B4330B583B00546204BFD
:101638009B6D13F0805F0BD0FFF7A6FFB0F5007F1E
:1016480017D0802D1FD82DD0702D2DD000211BE054
:10165800174CA36D43F08053A365A36D03F080532B
:101668000193019BFFF790FFA36D23F08053A365BF
:10167800E4E7802D03D9A02D03D9022104E000213D
:1016880002E0012100E003210A4A136823F007035E
:101698000B431360136803F007038B4206D1002045
:1016A80003B030BD0221EFE70121EDE70120F7E7A4
:1016B800001002400020024070B586B00E46154664
:1016C800104CE36C43F00103E364E36C03F00103A3
:1016D8000093009B4FF480730193022302930493B9
:1016E80000230393059301A94FF09040FFF7BAF93F
:1016F800A36823F0EE4332462A431A43A26006B099
:1017080070BD00BF00100240254A9368D26802F0FD
:10171800030213F00C0309D00C2B05D0042B3BD08B
:10172800082B3BD000200FE0012AF7D11C4A126891
:1017380012F0080F0CD11A4AD2F89420C2F30322EF
:10174800184951F8220013B10C2B06D0002070471D
:10175800134A1268C2F30312F2E7114BDB6803F075
:101768000303022B16D0032B00D10F480C49CA687B
:10177800C2F302120132CB68C3F3062300FB03F362
:10178800B3FBF2F3C868C0F3416001304000B3FB1B
:10179800F0F070470548E9E7044870470248704789
:1017A80000100240D44F0008001BB7000024F400CA
:1017B800002800F0F382F0B583B00446964B9D688C
:1017C80005F00C05DB6803F003031E46036813F0FD
:1017D800100F5AD0E5B10C2D18D0A369002B00F0DA
:1017E800BB808D4A136843F001031360FFF7B2F81A
:1017F8000746894B1B6813F0020F40F09A80FFF7E9
:10180800A9F8C01B0228F4D90320D2E2012EE4D1A2
:10181800814B1B6813F0020F03D0A369002B00F063
:10182800BF82206A7C4B1B6813F0080F5BD07A4B91
:101838001B6803F0F00398425CD8774B1A6842F0B3
:1018480008021A601A6822F0F002216A0A431A6034
:101858005A6822F47F42E16942EA01225A60002D67
:1018680060D0FFF751FF6C4B9B68C3F303136B4ABF
:10187800D35C03F01F03D840694B1860694B1868A4
:10188800FFF724F8002840F09482236813F0010F32
:1018980000F08180082D75D00C2D71D06368B3F5E8
:1018A800803F00F09780B3F5A02F00F099805A4B45
:1018B8001A6822F480321A601A6822F480221A60A8
:1018C8006368002B00F09980FFF744F80746524BF5
:1018D8001B6813F4003F5ED1FFF73CF8C01B642877
:1018E800F5D9032065E24C4BD3F894301B0903F07B
:1018F800F003A0E7FFF798FE002840F05382464B1C
:101908001A6842F008021A601A6822F0F002216A86
:101918000A431A605A6822F47F42E16942EA0122C6
:101928005A609EE7206AFFF77FFE002899D00120C1
:101938003FE2394B1A6842F008021A601A6822F02E
:10194800F002216A0A431A605A6822F47F42E16968
:1019580042EA01225A6098E72F4A136823F00103EC
:101968001360FEF7F7FF07462B4B1B6813F0020FB7
:101978008BD0FEF7EFFFC01B0228F5D9032018E231
:10198800032E8BD1244B1B6813F4003F03D06368EC
:10199800002B00F00982236813F0020F57D0042DA2
:1019A80044D00C2D40D0E368002B76D01A4A136837
:1019B80043F480731360FEF7CDFF0646164B1B6891
:1019C80013F4806F60D1FEF7C5FF801B0228F5D99C
:1019D8000320EEE1104A136843F4803313606FE785
:1019E80003F18043A3F53C331A6842F480221A605D
:1019F8001A6842F480321A6062E7FEF7ABFF0746C6
:101A0800054B1B6813F4003FC5D0FEF7A3FFC01BAE
:101A18006428F5D90320CCE1001002400C500008DE
:101A28000800002004000020022EBCD1A44B1B6833
:101A380013F4806F03D0E368002B00F0B781A04A4D
:101A4800536823F0F853216943EA0163536023681C
:101A580013F0080F4CD063699BB3994AD2F89430BD
:101A680043F00103C2F89430FEF774FF0646944B26
:101A7800D3F8943013F0020F3AD1FEF76BFF801BB6
:101A88000228F4D9032094E18D4A536823F0F853CF
:101A9800216943EA01635360D9E7894A136823F44B
:101AA80080731360FEF756FF0646854B1B6813F4D8
:101AB800806FCCD0FEF74EFF801B0228F5D903209B
:101AC80077E17F4AD2F8943023F00103C2F89430CA
:101AD800FEF740FF06467A4BD3F8943013F0020F16
:101AE80006D0FEF737FF801B0228F4D9032060E1F7
:101AF800236813F0040F7CD0714B9B6D13F0805F4B
:101B080037D16F4B9A6D42F080529A659B6D03F006
:101B180080530193019B01231F466A4B1B6813F4F2
:101B2800807F29D0A368012B3AD0052B40D0644B85
:101B3800D3F8902022F00102C3F89020D3F8902027
:101B480022F00402C3F89020A368002B3ED0FEF7D1
:101B580001FF06465A4BD3F8903013F0020F47D1D5
:101B6800FEF7F8FE801B41F288339842F2D9032031
:101B78001FE100231F46D0E7524A136843F48073DD
:101B88001360FEF7E7FE06464E4B1B6813F4807F92
:101B9800C8D1FEF7DFFE801B0228F5D9032008E133
:101BA800474AD2F8903043F00103C2F89030CBE7AF
:101BB800434BD3F8902042F00402C3F89020D3F8A6
:101BC800902042F00102C3F89020BDE7FEF7C2FE64
:101BD80006463B4BD3F8903013F0020F08D0FEF7BF
:101BE800B9FE801B41F288339842F2D90320E0E025
:101BF800EFB9A36A002B00F0DB80022B1DD00C2D5F
:101C080000F0DD802E4A136823F080731360FEF71E
:101C1800A1FE04462A4B1B6813F0007F00F0B78032
:101C2800FEF798FE001B0228F4D90320C1E0244ADD
:101C3800936D23F080539365DBE7214BDB6803F05A
:101C48000301E26A91420FD00C2D00F0B4801C4BC6
:101C58001B6813F0806F40F0B080194B1B6813F0BD
:101C6800805F31D00120A4E003F07002216B0139BC
:101C7800B2EB011FE8D103F4FE42616BB2EB012F16
:101C8800E2D103F40031A26B073A18BF0122914256
:101C9800DAD103F4C001E26B5208013AB1EB425FBA
:101CA800D2D103F0C063226C5208013AB3EB426F01
:101CB800CAD1034B1B6813F0007F4ED0002078E098
:101CC80000100240007000403E4A136823F0807301
:101CD8001360FEF73FFE05463A4B1B6813F0007F82
:101CE80006D0FEF737FE401B0228F5D9032060E036
:101CF800344AD36834491940E36A206B013843EA0F
:101D08000013606B43EA0023E06B4008013843EAA4
:101D18004053206C4008013843EA4063A06B000937
:101D280043EA40431943D160136843F0807313605A
:101D3800D36843F08073D360FEF70CFE0446214B52
:101D48001B6813F0007F06D1FEF704FE001B022873
:101D5800F5D903202DE000202BE01A4B1A6842F039
:101D680080721A60DA6842F08072DA60FEF7F2FD7B
:101D78000446144B1B6813F0007F06D1FEF7EAFDFA
:101D8800031B022BF5D9032013E0002011E00D4AB4
:101D9800D1680E4B0B40D36000200AE00120704749
:101DA800012006E0012004E0012002E0012000E01B
:101DB800184603B0F0BD0120FBE70120F9E7012038
:101DC800F7E700BF001002408C809DF9FCFFEEFE93
:101DD800002800F0AF8070B50D460446594B1B68CB
:101DE80003F007038B420BD2564A136823F007030C
:101DF8000B431360136803F007038B4240F09C8089
:101E0800236813F0020F0CD0A2684F4B9B6803F0B5
:101E1800F0039A4205D94C498B6823F0F0031A4322
:101E28008A60236813F0010F39D06368032B09D047
:101E3800022B26D063BB444A126812F0020F06D167
:101E4800012076E0404A126812F0007F76D03E49C1
:101E58008A6822F0030213438B60FEF77BFD064677
:101E6800394B9B6803F00C036268B3EB820F16D002
:101E7800FEF770FD801B41F288339842F0D90320A9
:101E880057E0314A126812F4003FE0D1012050E0D7
:101E98002D4A126812F4806FD9D1012049E02368D5
:101EA80013F0020F0CD0A268274B9B6803F0F003D5
:101EB8009A4205D224498B6823F0F0031A438A60BA
:101EC800204B1B6803F00703AB420AD91D4A13686D
:101ED80023F007032B431360136803F00703AB4297
:101EE8002ED1236813F0040F06D0174A936823F401
:101EF800E063E1680B439360236813F0080F07D091
:101F0800114A936823F46053216943EAC10393603B
:101F1800FFF7FAFB0C4B9B68C3F303130B4AD35C24
:101F280003F01F03D8400A4B18600A4B1868FEF7E5
:101F3800CDFC70BD012070470120FAE70120F8E7C9
:101F48000120F6E700200240001002400C50000873
:101F58000800002004000020014B1868704700BFEB
:101F68000800002008B5FFF7F7FF054B9B68C3F38F
:101F78000223044AD35C03F01F03D84008BD00BF06
:101F8800001002400450000808B5FFF7E5FF054BB4
:101F98009B68C3F3C223044AD35C03F01F03D840F1
:101FA80008BD00BF0010024004500008F8B5044600
:101FB8000F465F4BDB6813F0030F1BD05C4BDB68ED
:101FC80003F003030268934203D001231D46284609
:101FD800F8BD002A00F0A580554BDB68C3F3021357
:101FE80001334268934202D001231D46EFE70023E4
:101FF8001D461AE00368022B59D0032B5FD0012B32
:1020080040F092804A4A126812F0020F64D04848A1
:10201800C26822F073026168013943EA011313436D
:10202800C36000231D46002DD1D1414A136823F017
:1020380080631360FEF78EFC06463D4B1B6813F069
:10204800006F06D0FEF786FC831B022BF5D903230D
:102058001D46002DBBD1002F41D135490B6923F412
:102068001F3323F44073A068E2681209520442EA5D
:10207800002213430B612E4A136843F080631360F8
:10208800FEF768FC06462A4B1B6813F0006F06D162
:10209800FEF760FC801B0228F5D903231D46002D9E
:1020A80095D1234A1369A1690B4313618FE7204A2D
:1020B800126812F4806FAAD101231D4687E71C4AD3
:1020C800126812F4003FA2D1194A126812F4802F44
:1020D8009DD101231D467AE701231D46A3E7012F61
:1020E8000FD01348026922F0C06222F4FE42A168B0
:1020F80063695B08013B5B0643EA01231A430261FB
:10210800B9E70B48026922F4C00222F4FE42A16832
:1021180023695B08013B5B0543EA01231A4302611B
:10212800A9E701231D4652E701231D464FE700BFDB
:1021380000100240F8B504460F46554BDB6813F013
:10214800030F1BD0524BDB6803F003030268934272
:1021580003D001231D462846F8BD002A00F09280CE
:102168004B4BDB68C3F3021301334268934202D03E
:1021780001231D46EFE700231D4619E00368022BE3
:1021880058D0032B5ED0012B7FD1414A126812F040
:10219800020F64D03E48C26822F0730261680139B8
:1021A80043EA01131343C36000231D46002DD2D117
:1021B800374A136823F080531360FEF7CBFB0646BB
:1021C800334B1B6813F0005F06D0FEF7C3FB831B7D
:1021D800022BF5D903231D46002DBCD1002F41D178
:1021E8002B494B6923F41F3323F44073A068E2683A
:1021F8001209520442EA002213434B61244A13682D
:1022080043F080531360FEF7A5FB0646204B1B687E
:1022180013F0005F06D1FEF79DFB801B0228F5D95D
:1022280003231D46002D96D1194A536961690B4352
:10223800536190E7164A126812F4806FAAD10123FD
:102248001D4688E7124A126812F4003FA2D1104ACC
:10225800126812F4802F9DD101231D467BE70123CC
:102268001D46A3E70A48426922F0C06222F4FE42F2
:10227800A16823695B08013B5B0643EA01231A4313
:102288004261BBE701231D4665E701231D4662E75E
:10229800001002402DE9F04182B00446036813F4AF
:1022A800006F38D0436EB3F5000F18D00DD84BB37C
:1022B800B3F5800F05D100212030FFF73BFF06461C
:1022C80025E001231F461E4628E0B3F5400F02D142
:1022D80000231E460AE001231F461E461EE0644AEC
:1022E800D36843F48033D36000231E46604AD2F893
:1022F800883023F44003616E0B43C2F88830002312
:102308001F460BE019460430FFF750FE0646002E24
:10231800ECD0374602E000231F461E46236813F41C
:10232800805F32D0A36EB3F1007F21D00ED82BB3DB
:10233800B3F1807F06D1002104F12000FFF7FAFEF7
:10234800064606E001231F461E461EE0B3F1407F05
:102358000AD1CEB9464AD2F8883023F04073A16E2C
:102368000B43C2F8883010E001231F461E460CE0DC
:102378003F4AD36843F48033D360EAE71946201D07
:10238800FFF714FE0646E4E73746236813F4003FD8
:1023980077D0374B9B6D13F0805F52D1344B9A6DD9
:1023A80042F080529A659B6D03F080530193019B24
:1023B800012398462F4A136843F480731360FEF78D
:1023C800C9FA05462B4B1B6813F4807F06D1FEF72C
:1023D800C1FA401B0228F5D903231E46002E4BD113
:1023E80006F1804303F50433D3F8903013F44073B7
:1023F80019D0D4F884209A4212D01D4AD2F89030CD
:1024080023F44073D2F8901041F48031C2F8901050
:10241800D2F8901021F48031C2F89010C2F89030B0
:1024280013F0010F10D1002E40F02981104AD2F884
:10243800903023F44073D4F884100B43C2F89030E2
:102448001BE000239846B5E7FEF784FA0546084BDB
:10245800D3F8903013F0020FE5D1FEF77BFA401B5A
:1024680041F288339842F2D903231E46DBE700BFC6
:10247800001002400070004037464346002B40F0F1
:102488000081236813F0010F08D09D4AD2F88830E4
:1024980023F00303A16B0B43C2F88830236813F0C1
:1024A800020F08D0964AD2F8883023F00C03E16B6B
:1024B8000B43C2F88830236813F0040F08D0904A01
:1024C800D2F8883023F03003216C0B43C2F88830EF
:1024D800236813F0080F08D0894AD2F8883023F00F
:1024E800C003616C0B43C2F88830236813F0100FE7
:1024F80008D0834AD2F8883023F44073A16C0B4388
:10250800C2F88830236813F0200F08D07C4AD2F82C
:10251800883023F44063E16C0B43C2F888302368A9
:1025280013F4007F08D0764AD2F8883023F4402389
:10253800E16D0B43C2F88830236813F4806F08D02C
:102548006F4AD2F8883023F44013216E0B43C2F847
:102558008830236813F0400F08D0694AD2F88830D1
:1025680023F44053216D0B43C2F88830236813F0DD
:10257800800F08D0624AD2F8883023F44043616D56
:102588000B43C2F88830236813F4807F08D05C4A74
:10259800D2F8883023F44033A16D0B43C2F8883059
:1025A800236813F4005F0FD0554AD2F8883023F01F
:1025B8004063E16E0B43C2F88830E36EB3F1006FFD
:1025C80065D0B3F1806F67D0236813F4002F0FD064
:1025D8004B4AD2F8883023F04063216F0B43C2F88E
:1025E8008830236FB3F1006F5ED0B3F1806F60D095
:1025F800236813F4802F0FD0414AD2F8883023F093
:102608004063616F0B43C2F88830636FB3F1006FAA
:1026180057D0B3F1806F59D0236813F4804F0FD08F
:10262800374AD2F8883023F04053A16F0B43C2F8E1
:102638008830A36FB3F1805F50D0B3F1005F55D0FD
:10264800236813F4004F08D02D4AD2F8883023F0BD
:102658008043E16F0B43C2F88830236813F4803F4E
:1026680009D0274AD2F8883023F00043D4F88010E4
:102678000B43C2F88830384602B0BDE8F0813746CF
:10268800FBE61F4A936D23F080539365F9E6D36800
:1026980043F48013D36097E70121201DFFF786FCE0
:1026A800002891D007468FE7D36843F48013D3609E
:1026B8009EE70121201DFFF779FC002898D00746E6
:1026C80096E7D36843F48013D360A5E70121201D62
:1026D800FFF76CFC00289FD007469DE70221201DCC
:1026E800FFF764FC0028ABD00746A9E7022104F1F4
:1026F8002000FFF71FFD0028A2D00746A0E700BF73
:102708000010024038B5044603680A4ADA60FEF74A
:1027180021F905462368DB6813F0200F07D1FEF77F
:1027280019F9401BB0F57A7FF4D9032000E00020A6
:1027380038BD00BF5FFF030070B50368DA6812F0A8
:10274800400F02D00025284670BD04464FF0FF32E6
:10275800DA60FEF7FFF8064600252368DB6813F009
:10276800400FF0D1032DEED0FEF7F4F8831BB3F53C
:102778007A7FF2D9032584F82150EEE710B5044694
:10278800104BDA6822F08002DA609B6813F0200FA1
:1027980006D1FFF7B7FF98B1032084F821000FE0B6
:1027A800084A936823F020039360FFF7ABFF10B14A
:1027B800032084F82100034A936843F020039360C0
:1027C80010BD00BF0028004000284ED038B5044690
:1027D80090F8213063B1022384F821302368DA6845
:1027E80012F0100F09D00020012384F8213038BDE1
:1027F80080F82030FEF76EFEEDE7CA225A622368A1
:1028080053225A622046FFF797FFC0B9226893689F
:1028180023F4E00323F04003936021688A68636827
:1028280020690343A069034313438B602368E2686C
:102838001A6122681369A16843EA014313612046BB
:10284800FFF79CFF58B92268D36C23F00303D364C5
:102858002168CB6CE26965692A431343CB6423681A
:10286800FF225A620028C2D1BEE701207047002328
:1028780002E001330A38C0B20928FAD81B01DBB2DA
:102888001843704790F82030012B61D070B504468A
:102898000D461646012380F82030022380F82130A7
:1028A8000368CA225A62036853225A62FFF744FF38
:1028B800002830D1002E39D123689B6813F0400FCF
:1028C80001D10023EB702878FFF7D1FF03041E46DF
:1028D8006878FFF7CCFF46EA00231E46A878FFF782
:1028E800C6FF33460343EA7843EA8253226803F07B
:1028F8007F3323F0FE4313602268936823F4802318
:10290800936021688B68EA682869024313438B60E7
:102918002046FFF733FF2368FF225A6210B90123CC
:1029280084F82130002384F8203070BD23689B6828
:1029380013F0400F01D10023EB702A786B781B024B
:1029480043EA0243AA781343EA7843EA8253CDE77D
:102958000220704790F82030012B4DD070B5044606
:102968000D46012380F82030022380F82130F2B18F
:10297800CA784B781B0243EA02438A7813430A78E1
:1029880043EA42352368CA225A62236853225A62AC
:102998002046FFF7D1FE28B32368FF225A6210B9F8
:1029A800012384F82130002384F8203070BD4B784F
:1029B80013F0100F03D003F0EF030A334B70E878DD
:1029C800FFF755FF03041E466878FFF750FF46EAF5
:1029D80000231E46A878FFF74AFF30432B7840EAC9
:1029E8004335CFE7226825F07F4323F0C0035360C7
:1029F8002046FFF7C3FECFE70220704700286AD0C1
:102A080010B50446436A33B94368B3F5827F05D0ED
:102A18000023C36102E00023036143610023A36232
:102A280094F85D30002B4DD0022384F85D30226885
:102A3800136823F040031360E368B3F5E06F47D9E8
:102A48000022B3F5706F04D0B3F5E06F01D0002316
:102A5800A362636803F48273A16801F404410B4321
:102A6800216901F002010B43616901F001010B4387
:102A7800A16901F400710B43E16901F038010B43CE
:102A8800216A01F080010B43A16A01F4005120681A
:102A98000B430360638B03F00403616A01F01001C8
:102AA8000B43616B01F008010B43E16801F47061AD
:102AB8000B43216813434B6000202066012384F8F0
:102AC8005D3010BD84F85C302046FEF72BFDABE787
:102AD8004FF48052B5E701207047026852E8003F82
:102AE80023F4907342E800310029F6D1026802F11C
:102AF800080353E8003F23F00103083242E800319D
:102B08000029F3D1036E012B06D02023C0F88030B2
:102B18000023036683667047026852E8003F23F08B
:102B2800100342E800310029F6D1EEE710B504465B
:102B380083680269134342691343C26913430168F6
:102B48000868914A02401A430A602268536823F4CD
:102B58004053E1680B435360A16922688B4B9A424A
:102B680001D0236A1943936823F430630B439360BD
:102B78002368874A934226D0864A934236D0864AAB
:102B8800934246D0854A934256D0854A934266D0AE
:102B98007E4A934279D010227C498B4200F0B08063
:102BA800E069B0F5004F00F0DE80022A00F03F81B6
:102BB80040F21A81042A00F03781082A40F01C816B
:102BC8004FF400401DE102F55842D2F8882002F087
:102BD8000302022A70D005D8002A6FD0012A6FD1CB
:102BE8000422D9E7032A6DD10822D5E702F5E63297
:102BF800D2F8882002F00C02082A65D005D8002AED
:102C0800CAD0042AC8D01022C6E70C2A5ED10822EE
:102C1800C2E702F5E432D2F8882002F03002202A16
:102C280056D005D8002AB7D0102A53D10422B3E7CA
:102C3800302A51D10822AFE702F5E232D2F88820D3
:102C480002F0C002802A49D005D8002AA4D0402A20
:102C580046D10422A0E7C02A44D108229CE702F505
:102C6800E032D2F8882002F44072B2F5007F3BD0FF
:102C780006D8002A90D0B2F5807F37D104228BE79E
:102C8800B2F5407F34D1082286E702F5C832D2F87F
:102C9800882002F44062B2F5006F2BD007D8002AD2
:102CA8003FF47AAFB2F5806F26D1042274E7B2F50B
:102CB800406F23D108226FE702226DE701226BE7FC
:102CC800102269E7102267E7022265E7102263E70E
:102CD800022261E710225FE710225DE702225BE72C
:102CE800102259E7102257E7022255E7102253E72E
:102CF800102251E702224FE710224DE710224BE73E
:102D0800042A2DD006D862B1022A01D125480CE048
:102D1800012085E0082A02D14FF4004005E0012097
:102D28007EE0FFF71FF900287AD0626802EB4203C1
:102D380083427ED8B0EB023F7DD8010E00025308D3
:102D4800C0184FF0000341F10001FDF719FAA0F592
:102D58004072154B9A4270D82368D86000205FE013
:102D6800FEF7D2FCDFE7022A3CD005D9042A36D088
:102D7800082A1ED0012053E0C2B1012A02D1FFF770
:102D880003F915E001204BE0F369FFEF00800040F4
:102D9800003801400044004000480040004C00401A
:102DA800005000400024F400FFFC0F00FFF7DAF8A1
:102DB800B0B36268530803EB4003B3FBF2F3A3F12B
:102DC80010014FF6EF72914239D89AB222F00F02F1
:102DD800C3F3420313432268D360002020E0FEF7C8
:102DE80093FCE5E71848E4E742B1012A02D1FFF76E
:102DF800CBF805E0012013E0012011E0FFF7B2F85D
:102E080070B1636800EB5300B0FBF3F0A0F110025F
:102E18004FF6EF739A4214D8236880B2D860002026
:102E28000023A366E36610BDFEF76EFCE8E70648DC
:102E3800E7E70120F4E70120F2E70120F0E70120AD
:102E4800EEE70120ECE700BF0024F400436A13F02A
:102E5800080F06D00268536823F40043416B0B4304
:102E68005360436A13F0010F06D00268536823F4D5
:102E78000033816A0B435360436A13F0020F06D094
:102E88000268536823F48033C16A0B435360436A72
:102E980013F0040F06D00268536823F48023016BF3
:102EA8000B435360436A13F0100F06D0026893680F
:102EB80023F48053816B0B439360436A13F0200F14
:102EC80006D00268936823F40053C16B0B439360E8
:102ED800436A13F0400F0AD00268536823F4801342
:102EE800016C0B435360036CB3F5801F0BD0436A2E
:102EF80013F0800F06D00268536823F40023816C16
:102F08000B43536070470268536823F4C003416C55
:102F18000B435360EBE72DE9F04104460D46164696
:102F28009846069F2368DB6935EA03030CBF4FF018
:102F3800010C4FF0000CB44534D1B7F1FF3FF1D08C
:102F4800FDF708FD4346C01AB8422ED87FB3236860
:102F58001A6812F0040FE5D0802DE3D0402DE1D09F
:102F6800DA6912F0080F11D1DA6912F4006FD9D0BA
:102F78004FF400621A622046FFF7AFFD2023C4F821
:102F88008430002384F8783003200CE008251D6283
:102F98002046FFF7A2FDC4F88450002384F8783057
:102FA800012000E00020BDE8F0810320FBE70320BA
:102FB800F9E730B583B004460023C0F88430FDF744
:102FC800C9FC05462268126812F0080F0FD1236861
:102FD8001B6813F0040F25D12023E367C4F8803061
:102FE80000202066606684F8780003B030BD6FF07A
:102FF8007E430093034600224FF400112046FFF75A
:103008008AFF0028E3D0226852E8003F23F08003BB
:1030180042E800310029F6D12023E36784F87810CC
:103028000320E2E76FF07E4300932B4600224FF423
:1030380080012046FFF76FFF0028CDD0226852E8B4
:10304800003F23F4907342E800310029F6D122684A
:1030580002F1080353E8003F23F00103083242E875
:1030680000310029F3D12023C4F8803084F8781087
:103078000320BAE768B310B50446C36F03B324232B
:10308800E3672268136823F001031360636AE3B9F6
:103098002046FFF74BFD012811D02268536823F41E
:1030A800904353602268936823F02A039360226850
:1030B800136843F0010313602046FFF77AFF10BD41
:1030C80080F87830FEF762F9D9E72046FFF7BEFEB0
:1030D800DEE701207047FEE7FEE7FEE7FEE7FEE7D2
:1030E80070477047704708B5FDF728FC08BD000019
:1030F800034AD2F8883043F47003C2F88830704726
:1031080000ED00E0DFF834D0FFF7F2FF0C480D497E
:103118000D4A002302E0D458C4500433C4188C422A
:10312800F9D30A4A0A4C002301E013600432A24290
:10313800FBD300F019F8FDF7F3F9FEE70080012052
:103148000000002010000020385000081000002067
:10315800AC060020FEE702440346934200D17047C4
:1031680003F8011BF9E7000070B50D4B0D4C002664
:103178001D1BB6EBA50F09D100F0AAF90A4C0B4BA1
:1031880000261D1BB6EBA50F05D170BD54F8043BF6
:1031980098470136EDE754F8043B98470136F1E7C4
:1031A8002850000828500008285000082C50000813
:1031B8002DE9F04782B00646DDF828E00846B44617
:1031C8000D46002B4ED18A4214466DD9B2FA82F2CE
:1031D80042B1C2F12003954026FA03F394401D43FF
:1031E80006FA02FC260CA7B2B5FBF6F14FEA1C431F
:1031F80006FB115543EA054301FB07F0984209D93C
:10320800E31801F1FF3580F00381984240F2008114
:10321800023923441B1A1FFA8CFCB3FBF6F006FB99
:1032280010334CEA034C00FB07F363450AD914EB4F
:103238000C0C00F1FF3580F0ED80634540F2EA8028
:10324800A444023840EA0140ACEB030C0021BEF173
:10325800000F04D02CFA02F30022CEE9003202B0AB
:10326800BDE8F0878B4209D9BEF1000F01D0CEE945
:1032780000610021084602B0BDE8F087B3FA83F187
:10328800174600294DD1834202D3B24200F20F8182
:10329800B6EB070C60EB030301201D46BEF1000FDF
:1032A800DDD0CEE900C5DAE7002A00F098801A469A
:1032B800B4FA84F3002B40F0AF800B1B270CA6B2A6
:1032C8000121B3FBF7F54FEA1C4007FB153340EA31
:1032D800034306FB05F8984507D9E31805F1FF30C5
:1032E80002D2984500F2E8800546A3EB08031FFACE
:1032F8008CFCB3FBF7F007FB10334CEA034C06FBDE
:1033080000F3634508D914EB0C0C00F1FF3602D228
:10331800634500F2CE803046ACEB030C40EA054032
:1033280095E7C1F120058B4022FA05FC4CEA030C15
:1033380000FA01F426FA05F3E84002FA01F943EA33
:1033480004084FEA1C4206FA01FAB0FBF2F71FFA2A
:103358008CF602FB17004FEA184444EA004407FBC6
:1033680006F0A0420AD91CEB040407F1FF3380F0F1
:103378009C80A04240F29980023F6444241A1FFABC
:1033880088F3B4FBF2F002FB104443EA044300FB69
:1033980006F69E4209D91CEB030300F1FF3480F0C6
:1033A80082809E427FD90238634440EA0740A0FBEE
:1033B80009749B1BA3423E46A04664D361D0BEF16C
:1033C800000F0AD0BAEB060263EB080303FA05F50F
:1033D800CA401543CB40CEE9005300213FE77308AC
:1033E80043EAC1734A08190C41EA02414FEAC67C14
:1033F8009BB2B2FBF4F02646A04627461F2243EABA
:103408000143B1FBF4F1A3EB080341EA004158E79B
:103418002946FFE6284615E71A46C3F120019C40D5
:1034280026FA01F320FA01F190400343270C06FA2B
:1034380002FCB1FBF7F0A6B207FB1015190C41EA24
:10344800054100FB06F58D423BD9611801D28D423A
:1034580020D8491B0138B1FBF7F5019505FB06F8A3
:10346800019D9BB207FB151143EA0143434526D250
:10347800E31805F1FF31C6D24345C4D2A91E23443F
:10348800C1E7BA459BD2B7EB090664EB0C040138D7
:10349800A04694E7651B29440238B1FBF7F501956E
:1034A80005FB06F8DCE720467FE71F4666E7084687
:1034B800F4E6A44402382FE7023D234415E70199B6
:1034C800A1E7491BB1FBF7F5019505FB06F8C7E72E
:1034D800F8B500BFF8BC08BC9E467047F8B500BFF9
:0834E800F8BC08BC9E467047C9
:1034F00048656C6C6F21000053544D33324C3400DE
:1035000042494700101A00001C3500080000000066
:10351000070A0000684800080000000000000000E2
:10352000000000000000000000000000000000009B
:10353000000000000000000000000000000000008B
:10354000000000000000000000000000000000007B
:10355000E003E003E003E003E003E003E003E00353
:10356000C003C003C001C001C001C001C001000010
:1035700000000000E003E003E003000000000000A2
:10358000000000003C1E3C1E3C1E3C1E3C1E3C1E1F
:103590003C1E0000000000000000000000000000D1
:1035A000000000000000000000000000000000001B
:1035B0000000000000000000CE01CE03DE039E03E9
:1035C0009C039C07FF3FFF7F3807380F780F780F69
:1035D000780EFFFFFFFFF01EF01CE01CE03CE03D1A
:1035E000E03900000000000000000000FC03FE0FB6
:1035F000EE1FE01EE01EE01EE01EE01FE00FE007F1
:10360000F003FC01FE01FE01FE01FE01FE01FE01D0
:10361000FE3DFC3FF00FE001E00100000000000073
:10362000033E07F78FE78EE79EE3BCE3B8E7F8E7D2
:10363000F0F7E03FC001FF03FF07F307F30FF31EAE
:10364000F33CF338F3787FF03FE000000000000027
:1036500000000000E007F80F780F781F781F781F30
:10366000780FF00FE00F801FC37FC3FBE7F3F7F184
:10367000F7F0FFF07FF03EF87F7CFF3FEF1F000088
:103680000000000000000000E003E003E003E003AE
:10369000E003C003C00100000000000000000000C3
:1036A000000000000000000000000000000000001A
:1036B0000000000000000000000000003F007C004F
:1036C000F001E001C003C00780078007800F000FF2
:1036D000000F000F000F000F000F800F8007800702
:1036E000C007C003E001F0017C003F000F000000B4
:1036F000007E001FC007C003E001F001F000F000F1
:10370000F800780078007800780078007800F800F9
:10371000F000F000F001E001C003C007001F007ED0
:1037200000780000E003C003C001CE39FF3F7F3FB7
:1037300020037003F807780F3C1F380600000000D4
:103740000000000000000000000000000000000079
:103750000000000000000000000000000000000069
:1037600000000000C001C001C001C001C001C001D3
:10377000C001FFFFFFFFC001C001C001C001C001C7
:10378000C001000000000000000000000000000078
:103790000000000000000000000000000000000029
:1037A0000000000000000000000000000000E00336
:1037B000E003E003E003E001E001E001C001800379
:1037C00000000000000000000000000000000000F9
:1037D000000000000000FE3FFE3F0000000000006F
:1037E00000000000000000000000000000000000D9
:1037F00000000000000000000000000000000000C9
:1038000000000000000000000000000000000000B8
:10381000000000000000E003E003E003E00300001C
:1038200000000000000000000F000F001E001E003E
:103830003C003C0078007800F000F000E001E0017E
:10384000C003C00380078007000F000F001E001E8A
:10385000003C003C0078007800F00000F007F80F12
:103860007C1F3E3E1E3C1F7C1F7C0F780F780F781C
:103870000F780F780F780F781F7C1F7C1E3C3E3E20
:103880007C1FF80FF007000000000000000000009F
:10389000F000F007F03FF03FF001F001F001F0011F
:1038A000F001F001F001F001F001F001F001F00190
:1038B000F001F001F001FF3FFF3F000000000000B9
:1038C00000000000E00FF83F7C3C3C003E003E0062
:1038D0003E003C003C007C00F800F001E003C00723
:1038E0008007000F001E003E003CFE3FFE3F000030
:1038F0000000000000000000F00FF81F7C1C3E00DC
:103900003E003E003C003C00F800F00FF80F7C0049
:103910003E001E001E001E001E003E007C1CF81F04
:10392000E01F000000000000000000007800F80028
:10393000F800F801F803F807F807780F781E781EEA
:10394000783C78787878FFFFFFFF7800780078007F
:1039500078007800780000000000000000000000FF
:10396000FC1FFC1FFC1F001E001E001E001E001E70
:10397000E01FF81FFC007C003E003E001E003E00E1
:103980003E003C007C1CF81FE01F0000000000000F
:1039900000000000FC01FE078E0F001F001E003E0D
:1039A000003C003CF83DFC3F3E7F1F7E0F3C0F3C3F
:1039B0000F3C0F3C0F3E1F1E3E1FFC0FF00300008C
:1039C0000000000000000000FF3FFF3FFF3F0F002E
:1039D0001E001E003C0038007800F000F000E001FE
:1039E000E001C003C0038007800F800F000F001F9D
:1039F000001F00000000000000000000F807FC0F9E
:103A00003E1F1E1E1E3E1E3E1E1E3C1FF80FF007D0
:103A1000F80FFC1E3E3E1F3C1F7C0F7C0F7C1F3CA2
:103A20003E3FFC1FF0070000000000000000000007
:103A3000F007F80F7C1E3E3C1E3C1F7C1F7C1F7C49
:103A40001F7C1F3C3F3EFF1FEF071F001E001E0094
:103A50003E003C00F838F03FE01F0000000000008E
:103A60000000000000000000000000000000000056
:103A7000E003E003E003E0030000000000000000BA
:103A8000000000000000E003E003E003E0030000AA
:103A90000000000000000000000000000000000026
:103AA00000000000E003E003E003E003000000008A
:103AB00000000000000000000000E003E003E0035D
:103AC000E003E001E001E001C0038003000000002A
:103AD000000000000000000003000F003F00FC0099
:103AE000F003C00F003F00FE003FC00FF003FC00DA
:103AF0003F000F0003000000000000000000000075
:103B000000000000000000000000000000000000B5
:103B100000000000FFFFFFFF000000000000FFFFAB
:103B2000FFFF000000000000000000000000000097
:103B30000000000000000000000000000000000085
:103B400000E000F8007E801FE007F8017E001F0003
:103B50007E00F801E007801F007E00F800E0000012
:103B60000000000000000000F01FFC3F3E381F383E
:103B70001F381E001E003C007800F000E001C0036A
:103B8000C003C007C007000000000000C007C00756
:103B9000C00700000000000000000000F803FE0F56
:103BA0001E1F0F3E7F3CFF78EF79C773C7F38FF37B
:103BB0008FF38FF39FF39FF3FF73FF7BF779003C45
:103BC0001C1FFC0FF80300000000000000000000B4
:103BD000000000000000E003E003F007F007F0073A
:103BE000780F780F7C0E3C1E3C1E3E3CFE3FFF3F94
:103BF0001F780F780FF007F007F0000000000000BA
:103C000000000000000000000000F83FFC3F3E3CC8
:103C10001E3C1E3C1E3C3E3C7C3CF03FF83F7E3C44
:103C20001F3C1F3C0F3C0F3C1F3CFE3FF83F000079
:103C30000000000000000000000000000000FF0184
:103C4000FF07871F003E003C007C0078007800786A
:103C500000780078007C007C003E003F831FFF0757
:103C6000FF01000000000000000000000000000054
:103C70000000F07FFC7F7E781F781F780F780F7828
:103C80000F780F780F780F780F780F781F781E78DD
:103C90007E78F87FE07F0000000000000000000058
:103CA000000000000000FF3FFF3F003E003E003EDE
:103CB000003E003E003EFE3FFE3F003E003E003E16
:103CC000003E003E003EFF3FFF3F000000000000BE
:103CD00000000000000000000000FF1FFF1F001E8A
:103CE000001E001E001E001E001EFF1FFF1F001EE4
:103CF000001E001E001E001E001E001E001E0000F2
:103D00000000000000000000000000000000FE03B2
:103D1000FF0F871F003E007C007C007800F800F851
:103D20007FF87FF80F780F7C0F7C0F3E8F1FFF0FFF
:103D3000FE03000000000000000000000000000082
:103D400000001F7C1F7C1F7C1F7C1F7C1F7C1F7C36
:103D50001F7CFF7FFF7F1F7C1F7C1F7C1F7C1F7CC5
:103D60001F7C1F7C1F7C0000000000000000000082
:103D7000000000000000FC3FFC3FE003E003E00324
:103D8000E003E003E003E003E003E003E003E0031B
:103D9000E003E003E003FC3FFC3F00000000000004
:103DA00000000000000000000000FC1FFC1F7C0061
:103DB0007C007C007C007C007C007C007C007C0023
:103DC0007C007C0078007800F838F03FC03F0000AD
:103DD00000000000000000000000000000001F3C88
:103DE0001E3C3C3C783CF03CE03DE03FC03F803F27
:103DF000C03FE03FF03DF03C783C7C3C3E3C1F3C0B
:103E00000F3C000000000000000000000000000067
:103E10000000003E003E003E003E003E003E003EF0
:103E2000003E003E003E003E003E003E003E003EA2
:103E3000003EFC3FFC3F00000000000000000000CE
:103E40000000000000001FF81FFC1FFC3FFE3FFEAB
:103E50003FFE7FFF77FF77FFF7F7E7F7E7F3E7F33B
:103E6000C7F307F007F007F007F0000000000000BC
:103E7000000000000000000000000F7C0F7C0F7E9F
:103E80000F7F0F7F8F7F8F7FCF7FEF7BEF79FF7962
:103E9000FF78FF787F783F783F781F781F780000A1
:103EA0000000000000000000000000000000F0071B
:103EB000FC1F3E3E1F7C0F780F780FF80FF80FF8AD
:103EC0000FF80FF80FF80F780F781F7C3E3EFC1F9D
:103ED000F0070000000000000000000000000000EB
:103EE0000000FC3FFF3F1F3E0F3E0F3E0F3E0F3EC8
:103EF0001F3E3F3EFC3FF03F003E003E003E003E86
:103F0000003E003E003E00000000000000000000F7
:103F1000000000000000F007FC1F3E3E1F7C0F78F1
:103F20000F780FF80FF80FF80FF80FF80FF80F7859
:103F30000F781F7C3E3EFC1FF8077C003F000F00FF
:103F400003000000000000000000F03FFC3F7E3C4A
:103F50003E3C1E3C1E3C3E3C3C3CFC3CF03FE03FBB
:103F6000F03DF83C7C3C3E3C1E3C1F3C0F3C0000BE
:103F70000000000000000000000000000000FC073E
:103F8000FE1F0E3E003C003C003C003EC01FF80FF0
:103F9000FE037F001F000F000F001F203E3CFC3F70
:103FA000F01F000000000000000000000000000002
:103FB0000000FFFFFFFFE003E003E003E003E00396
:103FC000E003E003E003E003E003E003E003E003D9
:103FD000E003E003E0030000000000000000000038
:103FE0000000000000000F7C0F7C0F7C0F7C0F7C1A
:103FF0000F7C0F7C0F7C0F7C0F7C0F7C0F7C0F7C69
:104000001E3C1E3C3E3EFC1FF0070000000000006E
:104010000000000000000000000007F007F007F8B3
:104020000F780F7C1E3C1E3C1E3E3C1E3C1F781F22
:10403000780FF80FF007F007F007E003E003000047
:10404000000000000000000000000000000003E08D
:1040500003F003F007F0E7F3E7F3E7F3E773F77B29
:10406000F77FFF7F7F7F7F7F7E7F7E3F3E3E3E3EAE
:104070003E3E0000000000000000000000000000C4
:10408000000007F80F7C1E3E3E3E3C1FF80FF00775
:10409000E007E003E003F007F80F7C0F7C1E3E3CD6
:1040A0001F780F780FF000000000000000000000F3
:1040B00000000000000007F807780F7C1E3C1E3E41
:1040C0003C1F780FF80FF007E003E003E003E00384
:1040D000E003E003E003E003E00300000000000071
:1040E00000000000000000000000FF7FFF7F0F00C5
:1040F0001F003E007C00F800F000E001E003C00774
:10410000800F000F001E003E007CFF7FFF7F00003D
:104110000000000000000000FF0780078007800704
:104120008007800780078007800780078007800757
:104130008007800780078007800780078007800747
:10414000800780078007FF07FF07000000780078DE
:10415000003C003C001E001E000F000F800780077F
:10416000C003C003E001E001F000F0007800780037
:104170003C003C001E001E000F000F000700000066
:10418000F07FF000F000F000F000F000F000F00030
:10419000F000F000F000F000F000F000F000F0009F
:1041A000F000F000F000F000F000F000F000F07F10
:1041B000F07F0000C000C001C001E003E003F00791
:1041C000F0077807780F380F3C1E3C1E1E3C1E3C43
:1041D0000F380F7807780000000000000000000092
:1041E00000000000000000000000000000000000CF
:1041F00000000000000000000000000000000000BF
:1042000000000000000000000000000000000000AE
:104210000000FFFFFFFF000000000000F0000000B2
:10422000000000000000000000000000000000008E
:10423000000000000000000000000000000000007E
:10424000000000000000000000000000000000006E
:10425000000000000000000000000000F80FFC3F1C
:104260007C3C3E003E003E00FE07FE1F3E3E3E7C84
:104270003E783E7C7E7CFF3FCF1F000000000000A8
:1042800000000000003C003C003C003C003C003CC6
:10429000F83DFE3F3E3F1F3E0F3C0F3C0F3C0F3CA6
:1042A0000F3C0F3C1F3C1E3C3E3FFC3FF03B0000E0
:1042B00000000000000000000000000000000000FE
:1042C00000000000FE03FF0F871F003E003E003C81
:1042D000007C007C007C003C003E003E871FFF0FFE
:1042E000FE03000000000000000000001F001F008F
:1042F0001F001F001F001F00FF07FF1F3F3E1F3C46
:104300001F7C1F7C1F7C1F781F781F7C1F7C3F3CFD
:104310007F3EFF1FDF0F00000000000000000000D4
:10432000000000000000000000000000F803FC0F87
:104330003E1F1E3E1F3C1F7CFF7FFF7F007C007CDA
:10434000003C003E071FFF0FFE03000000000000BE
:1043500000000000FF01E103C003C007C007C00761
:10436000FF7FFF7FC007C007C007C007C007C007A7
:10437000C007C007C007C007C007C007C0070000CC
:10438000000000000000000000000000000000002D
:1043900000000000EF07FF1F7F3E1F3C1F7C1F7CBB
:1043A0001F781F781F781F7C1F7C3F3C7F3EFF1FBC
:1043B000DF0F1E001E001E007C38F83F003C003C52
:1043C000003C003C003C003CFC3DFE3F9E3F1F3F4C
:1043D0001F3E1F3C1F3C1F3C1F3C1F3C1F3C1F3C03
:1043E0001F3C1F3C1F3C00000000000000000000BC
:1043F000F001F0010000000000000000E07FE07F1D
:10440000E001E001E001E001E001E001E001E001A4
:10441000E001E001E001E001E00100000000000037
:1044200000000000F800F80000000000000000009C
:10443000F83FF83FF800F800F800F800F800F8003E
:10444000F800F800F800F800F800F800F800F800AC
:10445000F800F000F071E07F003C003C003C003CC4
:10446000003C003C1F3C3E3C7C3CF83CF03DE03DC9
:10447000C03FC03FE03FF03DF83C7C3C3E3C1F3C31
:104480001F3C00000000000000000000F07FF00171
:10449000F001F001F001F001F001F001F001F00194
:1044A000F001F001F001F001F001F001F001F00184
:1044B000F001F001F0010000000000000000000029
:1044C0000000000000000000000000009EF7FFFF59
:1044D000FFFFFFFFE7FBE7F9C7F1C7F1C7F1C7F13E
:1044E000C7F1C7F1C7F1C7F1C7F100000000000034
:1044F00000000000000000000000000000000000BC
:10450000FC3DFE3F9E3F1F3F1F3E1F3C1F3C1F3C8C
:104510001F3C1F3C1F3C1F3C1F3C1F3C1F3C00001E
:10452000000000000000000000000000000000008B
:1045300000000000F007FC1F3E3E1F3C1F7C0F7870
:104540000F780F780F780F781F7C1F3C3E3EFC1FC2
:10455000F007000000000000000000000000000064
:104560000000000000000000F83DFE3F3E3F1F3EFF
:104570000F3C0F3C0F3C0F3C0F3C0F3C1F3C1E3EC2
:104580003E3FFC3FF83F003C003C003C003C003C10
:10459000000000000000000000000000EE07FE1F09
:1045A0007E3E1E3C1E7C1E781E781E781E781E786D
:1045B0001E7C3E7C7E3EFE1FDE0F1E001E001E0087
:1045C0001E001E00000000000000000000000000AF
:1045D0007F1FFF1FE71FC71F871F001F001F001F30
:1045E000001F001F001F001F001F001F001F0000F2
:1045F00000000000000000000000000000000000BB
:1046000000000000FC07FE1F0E1E003E003E003FA3
:10461000E01FFC07FE003E001E001E003E3CFC3F6B
:10462000F01F00000000000000000000000000007B
:104630000000800780078007FF7FFF7F80078007DB
:104640008007800780078007800780078007800732
:10465000C007FF03FF010000000000000000000091
:104660000000000000000000000000001E3C1E3C96
:104670001E3C1E3C1E3C1E3C1E3C1E3C1E3C1E3C6A
:104680003E3C7E3CFE3EFE1FDE0F000000000000B0
:10469000000000000000000000000000000000001A
:1046A00007F00F780F781E3C1E3C1E3E3C1E3C1E41
:1046B000780F780FF00FF007F007E003E003000039
:1046C00000000000000000000000000000000000EA
:1046D0000000000003F0E3F1E3F3E7F3F7F3F7F38F
:1046E000F77F777F7F7F7F7F7F7F3E3E3E3E3E3EF0
:1046F0003E3E00000000000000000000000000003E
:1047000000000000000000000F7C1E3E3C3E3C1FED
:10471000F80FF007F007E003F007F807F80F7C1E2A
:104720003E3E1F3C1F78000000000000000000001B
:1047300000000000000000000000000007F80F78F3
:104740000F7C1E3C1E3C3C1E3C1E3C1F780FF80F8D
:10475000F007F007E003E003C003C003C0038007D5
:10476000800F007F0000000000000000000000003B
:10477000FF3FFF3F1F003E007C00F800F001E00318
:10478000C007800F001F001E003CFF7FFF7F00005E
:104790000000000000000000FE01E003C003C003B1
:1047A000C003C003E001E001E001C001C003803F9D
:1047B000803FC003C001E001E001E001C003C0038D
:1047C000C003C003E003FE017E000000C001C00181
:1047D000C001C001C001C001C001C001C001C001D1
:1047E000C001C001C001C001C001C001C001C001C1
:1047F000C001C001C001C001C001C001C001000072
:10480000C03FE003E001E001E001E001C001C003BE
:10481000C003C001E001FE00FE00E001C001C003D2
:10482000C003C001E001E001E001E001E003C03F9E
:10483000003F000000000000000000000000000039
:1048400000000000000000000000073FC77FE77382
:10485000FFF17EF0000000000000000000000000FA
:104860000000000000000000000000000000000048
:104870000000000000000000000000000010001018
:1048800000100010001000100000001000000000D8
:1048900000280028002800000000000000000000A0
:1048A0000000000000240024007C00240048007C5C
:1048B0000048004800000000003800540050003854
:1048C0000014005400540038001000000020005470
:1048D00000580030002800540014000800000000B8
:1048E0000010002800280010003400480048003460
:1048F0000000000000100010001000000000000088
:10490000000000000000000000080010002000204F
:1049100000200020002000200010000800200010CF
:104920000008000800080008000800080010002027
:1049300000100038001000280000000000000000F7
:10494000000000000000000000100010007C0010BB
:104950000010000000000000000000000000000047
:104960000000000000000010001000100000000017
:1049700000000000000000380000000000000000FF
:104980000000000000000000000000000000001017
:1049900000000000000800080010001000100010C7
:1049A00000200020000000000038004400440054B3
:1049B00000440044004400380000000000100030B3
:1049C0000050001000100010001000100000000047
:1049D0000038004400440004000800100020007C5F
:1049E0000000000000380044000400180004000427
:1049F00000440038000000000008001800280028CB
:104A00000048007C0008000800000000007C004016
:104A1000004000780004000400440038000000005A
:104A2000003800440040007800440044004400384E
:104A300000000000007C00040008001000100020AE
:104A4000002000200000000000380044004400382E
:104A500000440044004400380000000000380044D6
:104A600000440044003C0004004400380000000002
:104A70000000000000100000000000000000001016
:104A80000000000000000000000000100000000016
:104A9000000000100010001000000000000C0030AA
:104AA00000400030000C000000000000000000008A
:104AB0000000007C0000007C0000000000000000FE
:104AC00000000000006000180004001800600000F2
:104AD000000000000038004400040008001000102E
:104AE000000000100000000000380044004C00549A
:104AF000005C00400040003800000000001000286A
:104B0000002800280028007C004400440000000029
:104B100000780044004400780044004400440078D9
:104B20000000000000380044004000400040004009
:104B300000440038000000000070004800440044B9
:104B4000004400440048007000000000007C004069
:104B50000040007C004000400040007C000000005D
:104B6000007C0040004000780040004000400040D1
:104B7000000000000038004400400040005C004499
:104B80000044003800000000004400440044007C61
:104B900000440044004400440000000000380010BD
:104BA000001000100010001000100038000000007D
:104BB0000004000400040004000400040044003861
:104BC0000000000000440048005000600050004811
:104BD0000048004400000000004000400040004049
:104BE000004000400040007C000000000044006CD9
:104BF000006C0054004400440044004400000000E5
:104C000000440064006400540054004C004C004414
:104C10000000000000380044004400440044004408
:104C200000440038000000000078004400440044C4
:104C300000780040004000400000000000380044C0
:104C400000440044004400440054003800040000C4
:104C500000780044004400440078004800480044C4
:104C6000000000000038004400400030000800044C
:104C70000044003800000000007C0010001000100C
:104C8000001000100010001000000000004400445C
:104C90000044004400440044004400380000000088
:104CA00000440044004400280028002800100010A0
:104CB0000000000000440044005400540054006C04
:104CC00000280028000000000044002800280010F0
:104CD00000100028002800440000000000440044A8
:104CE0000028002800100010001000100000000034
:104CF000007C000400080010001000200040007C30
:104D0000000000000018001000100010001000103B
:104D100000100010001000180020002000100010EB
:104D20000010001000080008000000000030001013
:104D300000100010001000100010001000100030D3
:104D400000100028002800440000000000000000BF
:104D50000000000000000000000000000000000053
:104D600000000000000000FE002000100000000015
:104D70000000000000000000000000000000000033
:104D800000380044003C0044004C003400000000A7
:104D90000040004000580064004400440064005893
:104DA0000000000000000000003800440040004007
:104DB0000044003800000000000400040034004CEF
:104DC00000440044004C00340000000000000000DB
:104DD00000380044007C004000440038000000001F
:104DE000000C0010007C00100010001000100010DB
:104DF00000000000000000000034004C00440044AB
:104E0000004C00340004007800400040005800646A
:104E10000044004400440044000000000010000072
:104E200000700010001000100010001000000000C2
:104E300000100000007000100010001000100010A2
:104E4000001000E0004000400048005000600050AA
:104E50000048004400000000007000100010001026
:104E60000010001000100010000000000000000002
:104E70000078005400540054005400540000000016
:104E80000000000000580064004400440044004456
:104E9000000000000000000000380044004400440E
:104EA00000440038000000000000000000580064CA
:104EB000004400440064005800400040000000002E
:104EC0000034004C00440044004C00340004000452
:104ED0000000000000580064004000400040004016
:104EE000000000000000000000380044003000080E
:104EF000004400380000000000200020007800205E
:104F00000020002000200018000000000000000029
:104F10000044004400440044004C00340000000001
:104F20000000000000440044002800280028001071
:104F30000000000000000000005400540054006C09
:104F400000280028000000000000000000440028A5
:104F500000100010002800440000000000000000C5
:104F600000440044002800280010001000100060D9
:104F700000000000007C0008001000200040007CC1
:104F80000000000000180010001000100020002099
:104F90000010001000100018001000100010001089
:104FA0000010001000100010001000100030001061
:104FB0000010001000080008001000100010003061
:104FC0000000000000000074004C00000000000021
:104FD00000000000A0860100400D0300801A0600BA
:104FE00000350C0040420F0080841E0000093D0087
:104FF00000127A000024F40000366E010048E80137
:10500000006CDC020000000001020304000000004C
:105010000000000001020304060708090000000068
:0850200098E1FF7F0100000090
:08502800E50100080000000092
:08503000BD01000800000000B2
:10503800010000001000000000093D000000000011
:040000050800310DB1
:00000001FF
